:100000000C94CD000C94F5000C94F5000C945C0954
:100010000C945C090C945C090C94F5000C94F500AC
:100020000C94F5000C94F5000C94F5000C94F5007C
:100030000C94F5000C94F5000C94F5000C94F5006C
:100040000C94D80B0C94F5000C94E00A0C94BA0AAA
:100050000C94F5000C94F5000C94F5000C94F5004C
:100060000C94F5000C94F500036EDB363D9A9999DB
:10007000993DABAAAA2A3E000000803F084AD73B20
:100080003BCE016E84BCBFFDC12F3D6C74319ABD67
:1000900056833DDA3D00C77F11BED9E4BB4C3E918B
:1000A0006BAAAABE000000803F072C7AA5BA6CC5D7
:1000B00090DA3B9365FC8BBC53F810FD3C56928361
:1000C0004DBD879D3AB63DCBC9BF5BBE73DA0FC944
:1000D0003F05A84CCDB2D44EB93836A9020C50B960
:1000E000918688083CA6AAAA2ABE000000803F008C
:1000F00000000000240027002A0000000008000281
:1001000001000003040700000000000000007C3C28
:100110003E5E2B3D3F2F5B5D3B2C2A225C000000A6
:100120000000250028002B0000000000230026000E
:10013000290004040404040404040202020202026A
:10014000030303030303010204081020408001029B
:10015000040810200102040810204E414E494E4967
:100160005459494E46CDCCCC3D0AD7233C17B7D184
:100170003877CC2B329595E6241FB14F0A0000202A
:10018000410000C84200401C4620BCBE4CCA1B0EA9
:100190005AAEC59D7400171DFE1C11241FBECFEF63
:1001A000D8E0DEBFCDBF12E0A0E0B1E0E8EFF4E5BB
:1001B00002C005900D92A036B107D9F726E0A0E65F
:1001C000B2E001C01D92AA3AB207E1F710E0CCEC10
:1001D000D0E004C02197FE010E94891ECB3CD107CC
:1001E000C9F70E94DA120C946F2A0C940000DC010B
:1001F0005996ED91FC915A973097B9F0838994897B
:10020000A589B6894285538564857585841B950BC0
:10021000A60BB70B811520E89207A105B10538F0B0
:100220008FEF9FE7A0E0B0E0089580E090E00895B0
:10023000CF93DF931F92CDB7DEB76983DC01ED91D9
:10024000FC910280F381E02D41E050E0BE016F5F40
:100250007F4F09950F90DF91CF9108952091620211
:10026000309163022817390771F4909160028091F0
:100270006102981741F0E0916002F0E0E55EFC4F0A
:10028000808190E008958FEF9FEF089508951F9368
:10029000CF93DF93DC015C962D913C915D97211506
:1002A000310539F481E090E013969C938E93129778
:1002B0003DC05196ED91FC91529750969C9150976C
:1002C000892F80951FB75E964C915E9741FB7727EB
:1002D00070F941FD6095F8944081772311F0492B26
:1002E00001C048234083E9012197F1F748E050819C
:1002F00060FF02C0592B01C058235083E9012197A8
:10030000F1F76695415099F7772321F09081892381
:10031000808303C08081982B90831FBF5C968D9152
:100320009C915D970197F1F721E030E0C901DF91E1
:10033000CF911F9108952091620230916302281796
:10034000390771F4809161022091600290E0805C35
:100350009F4F821B910960E470E00E94611E089526
:1003600080E090E0089520916202309163022817A6
:100370003907B9F49091600280916102981789F071
:10038000E0916002F0E0E55EFC4F80812091600228
:1003900030E02F5F3F4F2F7333272093600290E0B0
:1003A00008958FEF9FEF0895FC01818D928D009746
:1003B00011F00C94330E08958F929F92AF92BF92DA
:1003C000CF92DF92EF92FF920F931F93CF93DF9321
:1003D00000D000D0CDB7DEB77C0180E2689F60011D
:1003E0001124960125593C4FD9011B969C9191717E
:1003F00021F0842F827409F097C0142FF701628BCB
:100400008091010190910201A0910301B09104013A
:1004100086879787A08BB18BF601E559FC4F4489FD
:10042000558960E070E0BA0155274427D7015796F7
:100430004D935D936D937C935A97828D938DA0E03D
:10044000B0E0482B592B6A2B7B2BD70157964D9345
:100450005D936D937C935A97D9011B968C9188710B
:1004600059F4848D958DA68DB78DF701838B948B70
:10047000A58BB68B81E012C0803109F055C0970181
:100480002D5E3F4FD7015B968D919C915C970E94AA
:10049000CA0D882309F448C084E0F7018583812FC1
:1004A0008F70D70114968C931497F70116821782D8
:1004B000108611861A961D921D921D921C921D97F0
:1004C00016FF34C015968C91813071F511FF2CC048
:1004D000F7014389548965897689452B462B472B3B
:1004E00009F461C040E050E0BA01C7010E94710EFA
:1004F0008823D1F0F7018788908CA18CB28CC38CB3
:10050000D48C82E090E0A0E0B0E0F601808391839B
:10051000A283B3839E012F5F3F4FB501A401C601A3
:100520000E94460D811104C080E03DC081E03BC0C7
:1005300000E010E09801B501A401C6010E94A60CDC
:10054000882391F389809A80AB80BC80D60157962E
:100550008C91803129F088EF9FEFAFEFBFE004C0AE
:1005600088EF9FEFA0E0B0E088169906AA06BB06C8
:1005700088F2D70157961D921D921D921C925A9790
:10058000F701138A148A158A168A84818068848305
:10059000C7010E94330E882339F240E050E0BA01CF
:1005A000C7010E94710E0F900F900F900F90DF9176
:1005B000CF911F910F91FF90EF90DF90CF90BF9060
:1005C000AF909F908F900895CF93DF93EC01898D2A
:1005D0009A8D009739F481E090E09B838A8380E0D4
:1005E00090E00BC0FC01138212820E94070FE98D7C
:1005F000FA8D22813381232B71F7DF91CF910895FA
:10060000CF93DF93EC010E94330E882311F01D82FB
:1006100081E0DF91CF9108953F924F925F926F9268
:100620007F928F929F92AF92BF92CF92DF92EF9282
:10063000FF920F931F93CF93DF93CDB7DEB72C9725
:100640000FB6F894DEBF0FBECDBF5C01DC015B9638
:100650008D909C905C971696CD90DD90ED90FC90DF
:100660001997C114D104E104F10439F0BFEFCB1A9A
:10067000DB0AEB0AFB0A312C07C0F401C080D180F1
:10068000E280F38033243394F40181859285A3853D
:10069000B4859C01AD012F5F3F4F4F4F5F4F2987BE
:1006A0003A874B875C87260137011D821E821F8295
:1006B0001886F40181859285A385B4852D813E81BC
:1006C0004F815885281739074A075B0708F063C030
:1006D00089859A85AB85BC858C159D05AE05BF05C2
:1006E00050F482E0C82ED12CE12CF12C92E0492E5E
:1006F000512C612C712C9E012F5F3F4FB701A60139
:10070000C4010E94460D882309F445C089819A815D
:10071000AB81BC81892B8A2B8B2B41F026013701C1
:100720009FEF491A590A690A790A05C0C414D50409
:10073000E604F70491F02D813E814F8158852F5FAB
:100740003F4F4F4F5F4F2D833E834F8358873FEF7F
:10075000C31AD30AE30AF30AACCF0FEF1FEF2FEF50
:100760003FE0B301A201C4010E94A60C882399F0C6
:10077000D50116964D915D916D917C91199741151A
:1007800051056105710549F093018201C4010E9480
:10079000A60C811102C080E02AC0D50116964D92A8
:1007A0005D926D927C921997332051F0D301C20172
:1007B0000196A11DB11DF40180839183A283B383AF
:1007C000F5018789908DA18DB28D892B8A2B8B2B7A
:1007D00069F4D50157964D925D926D927C925A972D
:1007E00014968C911497806814968C9381E02C96C3
:1007F0000FB6F894DEBF0FBECDBFDF91CF911F9132
:100800000F91FF90EF90DF90CF90BF90AF909F90AF
:100810008F907F906F905F904F903F9008958FB72B
:10082000F89480915C038FBF089561E0FC0184819E
:100830000E943B0B80915B03811110925B03089532
:100840008EBD00000DB407FEFDCF8EB508958FEF6D
:100850000C9420040F931F93CF93DF93EB010E941E
:10086000CC0B8B010E9427048F3F49F00E94CC0BD8
:10087000601B710B6C177D07A8F380E001C081E05D
:10088000DF91CF911F910F910895CF93DF93EC01EA
:100890008E81882389F08F8198859C012F5F3F4F3F
:1008A00038872F838230924018F40E942704F3CFB8
:1008B000CE010E9415041E82DF91CF9108958CBD58
:1008C0009DBD0895CF93DF93EC0180915B0381116F
:1008D00009C081E080935B0380910A0690910B062A
:1008E0000E945F0460E08C81DF91CF910C943B0B00
:1008F000CF92DF92FF920F931F93CF93DF9300D09D
:1009000000D0CDB7DEB76C01F62E29833A834B8336
:100910005C830E944504C6010E9462046CE271E09F
:10092000C6010E942A048F2D80640E94200408E1E1
:1009300010E05C814B813A812981DA01C901002EE6
:1009400004C0B695A795979587950A94D2F7298301
:100950003A834B835C830E9420040850110929814B
:100960003A814B815C81083F8FEF180731F7FF20F8
:1009700029F0E8E0FE1204C087E803C085E901C061
:100980008FEF0E94200410E00E942704F601828766
:1009900087FF04C01F3F11F01F5FF6CF0F900F902D
:1009A0000F900F90DF91CF911F910F91FF90DF90EB
:1009B000CF900895AF92BF92CF92DF92EF92FF92C5
:1009C0000F931F93CF93DF93EC016901C801820F4E
:1009D000931F8130924008F070C08E81882371F09F
:1009E00088819981AA81BB81481759076A077B07CB
:1009F00029F48F819885C816D906B0F548835983A4
:100A00006A837B838B85833039F089E0440F551FDF
:100A1000661F771F8A95D1F79A01AB0161E1CE017C
:100A20000E947804882319F083E08D8346C00E94D9
:100A3000CC0B5B010E9427048A878F3F49F40E94F8
:100A4000CC0B6A197B096D327140A0F38FE003C0B3
:100A50008E3F31F08DE08D83CE010E9415042DC0B4
:100A600018861F8281E08E838F8198858C159D0565
:100A700040F40E9427048F819885019698878F8380
:100A8000F3CF6701E00EF11ECE14DF0431F00E94B7
:100A90002704F60181936F01F7CF8F819885080FA6
:100AA000191F18870F838985882319F001151240B3
:100AB00048F0CE010E94450405C0CE010E941504F5
:100AC00080E001C081E0DF91CF911F910F91FF90F5
:100AD000EF90DF90CF90BF90AF9008952F923F920C
:100AE0004F925F926F927F928F929F92AF92BF923E
:100AF000CF92DF92EF92FF920F931F93CF93DF93EA
:100B000000D0CDB7DEB7FC018581882309F4D9C0B8
:100B1000848180FFD6C021E02A8343895489658976
:100B2000768982859385A485B585481759076A0714
:100B30007B0709F41A826F013A81832F90E0DE016E
:100B400011964D013F01B6E06B0E711C892B09F423
:100B50007DC0D6011A964D915D916D917C911D9746
:100B60005A01B1E0BB22F60125811A012B0189E06F
:100B700056944794379427948A95D1F7838D948D12
:100B8000223061F4FC01828D938DA48DB58DBC0162
:100B9000CD01620D731D841D951D45C0DC011496A9
:100BA0001C9111501221A114B104D1F4111118C0DB
:100BB000452B462B472B51F4F6018789908DA18D4B
:100BC000B28D86839783A087B1870AC046815781FB
:100BD0006085718593010E94460D882309F471C0D8
:100BE000F601238D348D86819781A085B18502978A
:100BF000A109B109AC01BD01F901058404C0440F8C
:100C0000551F661F771F0A94D2F786859785A0899E
:100C1000B189840F951FA61FB71FBC01CD01610FBD
:100C2000711D811D911DD60114962C9126FF14C0B3
:100C30000091010110910201209103013091040102
:100C4000601771078207930751F506C0FA81FF23E9
:100C5000C1F1898190E037C040E00E945D0C88239B
:100C600081F1F501E559FC4FD401CF010196E81758
:100C7000F90719F021912D93FACFEFEF8E1A9E0A02
:100C8000F60182859385A485B5850196A11DB11DC8
:100C900082879387A487B58780E090E057CF74015F
:100CA00001E010E09501AB01BC0180916B059091D2
:100CB0006C050E94DA04882321F0BFEF8B1A9B0A8F
:100CC000DFCF8FEF9FEF0F900F90DF91CF911F91AC
:100CD0000F91FF90EF90DF90CF90BF90AF909F90DB
:100CE0008F907F906F905F904F903F902F900895DE
:100CF0004F925F926F927F929F92AF92BF92CF92EC
:100D0000DF92EF92FF920F931F93CF93DF93CDB7B4
:100D1000DEB72B970FB6F894DEBF0FBECDBF7C01B8
:100D2000DC011596AC90A1108AC1FE0131966F01CD
:100D300090E28BE08E0F91938E13FDCFDA0130E0BD
:100D400087E09D91992339F19E3219F0EEE0F1E0B0
:100D50000AC08A3009F474C138E08AE0F2CF3196D3
:100D6000491709F46DC144914111F9CF831708F473
:100D700067C14FED490F4E3508F062C141E0430FA6
:100D8000F601E30FF11D3FE9390F3A3108F49052B3
:100D90009083342FD6CF8981803209F451C1B22E8D
:100DA0008B01DB015B968D919C915C97F701948F91
:100DB000838F16961D921D921D921C921997FB010E
:100DC0001286138614861586712CF8018285938508
:100DD000A485B585438954896589768984179507E3
:100DE000A607B70708F061C025E0B695A7959795C7
:100DF00087952A95D1F7F82FFF706F2ED801159699
:100E00008C91823008F41CC1C8010E946E0597FDC8
:100E100017C1F80182859385A485B5854F96A11DDC
:100E2000B11D82879387A487B587F0E26F9EC001CA
:100E30001124BC0165597C4F6115710509F400C18D
:100E4000DB012C91222319F0253EC1F427C071103B
:100E50000EC0F701628A4091010150910201609138
:100E600003017091040146875787608B718BFC01E9
:100E7000E559FC4F8081811113C015C04BE050E053
:100E8000C6010E944023892B09F09FCF8B2D8073D0
:100E9000803309F4D5C04B2D662DCCC07720C9F224
:100EA0007724739492CF772473948B2D827182313F
:100EB00009F0C6C07720D1F0D7011E966D917D91C3
:100EC0008D919C91519741E00E945D0C882309F41B
:100ED000B7C0F7016289F0E26F9FB0011124655934
:100EE0007C4F6115710509F079C0AAC0D80115962B
:100EF0008C91823009F4A4C0C8010E940C0388239D
:100F000009F49EC0D8015B96ED91FC915C97169612
:100F10004D905D906D907C901997B2E04B1A5108FE
:100F200061087108058404C0440C551C661C771CBC
:100F30000A94D2F786859785A089B189480E591EF3
:100F40006A1E7B1E9480E1E04E1A51086108710808
:100F5000992009F10E94220C882309F471C0EBE664
:100F6000F3E0119225E0EB36F207D9F7D301C20185
:100F7000890D911DA11DB11D809301019093020166
:100F8000A0930301B093040180915D03816080937D
:100F90005D039A94DDCFD8015B96ED91FC915C974F
:100FA00080E092E0A0E0B0E0058404C0880F991FC3
:100FB000AA1FBB1F0A94D2F7F80143895489658997
:100FC0007689840F951FA61FB71F838B948BA58BE3
:100FD000B68BD70152961C926BE673E080E2FB0160
:100FE00011928A95E9F78BE0F601DB0101900D92F1
:100FF0008A95E1F781E298E2DB0151969C938E930A
:10100000509720E038E01F963C932E931E975396FE
:101010009C938E93529759969C938E93589757967C
:101020003C932E9356970E94220C882349F04B2D17
:10103000F7016289C7010E94DC01A82E01C0A12C22
:101040008A2D2B960FB6F894DEBF0FBECDBFDF9171
:10105000CF911F910F91FF90EF90DF90CF90BF90B5
:10106000AF909F907F906F905F904F900895FC019C
:10107000818D928D009711F00C946E058FEF9FEF8C
:1010800008950F931F93CF93DF93FC01818D928D71
:101090000097B9F0EF010E946E058C010F3F8FEFB2
:1010A000180791F0898D9A8DFC01428553856485DE
:1010B000758541505109610971090E94710EC8017D
:1010C00005C080E090E002C08FEF9FEFDF91CF91ED
:1010D0001F910F910895EF92FF920F931F93CF935B
:1010E000DF93EC017901411551056105710511F49A
:1010F00082E13CC08B85833039F089E0440F551F75
:10110000661F771F8A95D1F79A01AB0168E1CE017E
:101110000E947804882311F084E028C08EEF0E949A
:10112000200487018EEFF81AF80181918F010E9447
:1011300020040E151F05C1F78FEF0E9420048FEFCA
:101140000E9420040E9427048A878F71853031F025
:1011500081E18D83CE010E94150409C068E572E02B
:10116000CE010E942A04811107C085E18D83CE0142
:101170000E94150480E013C020E030E0A9016DE07A
:10118000CE010E947804811104C00E9427048823A4
:1011900011F084E1EBCFCE010E94150481E0DF91D4
:1011A000CF911F910F91FF90EF900895FC01DB010B
:1011B00012968D919C9113979383828384E491E09E
:1011C0009183808314968C911497848315968C91C7
:1011D0001597858316964D915D916D917C91199728
:1011E00046835783608771871A964D915D916D9103
:1011F0007C911D9742875387648775871E964D9112
:101200005D916D917C91519746875787608B718B6B
:1012100052968C915297828B53964D915D916D9120
:101220007C915697438B548B658B768B57964D915B
:101230005D916D917C915A97478B508F618F728F22
:101240005B968D919C915C97948F838F0895EF921C
:10125000FF920F931F93CF93DF93EC017B018A01E1
:101260001B821A8288EE93E0A0E0B0E08C839D831D
:10127000AE83BF838CE491E0998388838DE190E015
:101280000E9444219A8F898F009779F02DE1F70110
:10129000DC0101900D922A95E1F74CE050E0B80195
:1012A000CE010C960E946823188EDF91CF911F917A
:1012B0000F91FF90EF9008951F920F920FB60F922B
:1012C00011242F933F934F935F936F937F938F934B
:1012D0009F93AF93BF93EF93FF93E0916202F091DE
:1012E0006302309709F451C0968DA685B785858530
:1012F00091FF04C09C91892329F447C09C918923C4
:1013000009F043C0A389B4899C918589809589237C
:101310008C93868997890197F1F7608D718DA685E9
:10132000B785558538E020E0CB010197F1F7822F92
:1013300090E095958795282F4C91452309F02068DA
:10134000315091F7868D81FD20958091610290E06A
:1013500001968F73992730916002381749F0A09158
:101360006102B0E0A55EBC4F2C938093610203C084
:10137000868D8160868F828D938D0197F1F7A38989
:10138000B4899C918589892B8C93FF91EF91BF91B2
:10139000AF919F918F917F916F915F914F913F910D
:1013A0002F910F900FBE0F901F901895E091620241
:1013B000F0916302E817F90769F4A389B4899C9155
:1013C0008589809589238C93109263021092620222
:1013D00081E0089580E00895FC01918D828D981739
:1013E00061F0828DDF01A80FB11D5D968C91928D09
:1013F0009F5F9F73928F90E008958FEF9FEF089506
:10140000FC01918D828D981731F0828DE80FF11DCE
:10141000858D90E008958FEF9FEF0895FC01918DE9
:10142000228D892F90E0805C9F4F821B91098F73E2
:10143000992708958DE695E00E940E0A21E0892BF8
:1014400009F420E0822F0895FC01848DDF01A80FAC
:10145000B11DA35ABF4F2C91848D90E001968F73DC
:101460009927848FA689B7892C93A089B1898C91FB
:1014700080648C93938D848D981306C00288F389C1
:10148000E02D80818F7D80830895EF92FF920F93EE
:101490001F93CF93DF93EC0181E0888F9B8D8C8D20
:1014A000981305C0E889F989808185FD24C0F62E4E
:1014B0000B8D10E00F5F1F4F0F731127E02E8C8DE7
:1014C000E8120CC00FB607FCFACFE889F9898081D1
:1014D00085FFF5CFCE010E94240AF1CF8B8DFE014E
:1014E000E80FF11DE35AFF4FF0820B8FEA89FB8969
:1014F0008081806207C0EE89FF896083E889F9896D
:1015000080818064808381E090E0DF91CF911F91A2
:101510000F91FF90EF900895CF93DF93EC01888DAA
:101520008823C9F0EA89FB89808185FD05C0A889E7
:10153000B9898C9186FD0FC00FB607FCF5CF80816D
:1015400085FFF2CFA889B9898C9185FFEDCFCE01B7
:101550000E94240AE7CFDF91CF91089580E090E0C8
:10156000892B29F00E941A0A81110C940000089519
:101570000E943B231F920F920FB60F9211242F93BC
:101580003F934F935F936F937F938F939F93AF930B
:10159000BF93EF93FF938DE695E00E94240AFF919D
:1015A000EF91BF91AF919F918F917F916F915F91DB
:1015B0004F913F912F910F900FBE0F901F90189554
:1015C0001F920F920FB60F9211242F938F939F9318
:1015D000EF93FF93E0917D05F0917E058081E0918E
:1015E0008305F091840582FD12C09081809186056B
:1015F0008F5F8F7320918705821751F0E0918605E8
:10160000F0E0E359FA4F958F8093860501C0808101
:10161000FF91EF919F918F912F910F900FBE0F909F
:101620001F901895833081F028F4813099F0823032
:10163000A1F008958730A9F08830B9F08430D1F452
:10164000809180008F7D03C0809180008F77809390
:101650008000089584B58F7702C084B58F7D84BDE6
:1016600008958091B0008F7703C08091B0008F7D86
:101670008093B00008951F93CF93DF93282F30E01D
:10168000F901E650FF4F8491F901EA5BFE4FD491D6
:10169000F901EE5CFE4FC491CC23C9F0162F8111E5
:1016A0000E94120BEC2FF0E0EE0FFF1FE25EFE4FE8
:1016B000A591B4918FB7F894111105C09C91ED2FAD
:1016C000E095E92302C0EC91ED2BEC938FBFDF9105
:1016D000CF911F910895CF93DF9390E0FC01EA5BD7
:1016E000FE4F2491FC01EE5CFE4F8491882361F152
:1016F00090E0880F991FFC01E051FF4FC591D491F4
:10170000FC01E25EFE4FA591B491611109C09FB743
:10171000F8948881209582238883EC912E230BC036
:10172000623061F49FB7F8943881822F80958323CB
:101730008883EC912E2B2C939FBF06C08FB7F89413
:10174000E8812E2B28838FBFDF91CF9108953FB77B
:10175000F8948091670390916803A0916903B09118
:101760006A0326B5A89B05C02F3F19F00196A11D5D
:10177000B11D3FBFBA2FA92F982F8827820F911D27
:10178000A11DB11DBC01CD0142E0660F771F881F6E
:10179000991F4A95D1F708952FB7F8946091630384
:1017A0007091640380916503909166032FBF089543
:1017B0001F920F920FB60F9211242F933F938F9386
:1017C0009F93AF93BF938091630390916403A09123
:1017D0006503B09166033091620323E0230F2D3738
:1017E00020F40196A11DB11D05C026E8230F029625
:1017F000A11DB11D20936203809363039093640342
:10180000A0936503B093660380916703909168038A
:10181000A0916903B0916A030196A11DB11D809347
:10182000670390936803A0936903B0936A03BF9121
:10183000AF919F918F913F912F910F900FBE0F907D
:101840001F90189580915D038823A9F140910101B3
:101850005091020160910301709104012BE633E085
:1018600080916B0590916C050E946B08811102C0FC
:1018700080E0089540915E0350915F0360916003A2
:1018800070916103411551056105710591F02BE6D9
:1018900033E080916B0590916C050E946B08882362
:1018A00039F310925E0310925F031092600310925E
:1018B000610310925D0381E008958F929F92AF9231
:1018C000BF92EF92FF920F931F93CF934B015C0156
:1018D000C42F8091010190910201A0910301B09168
:1018E000040188159905AA05BB0501F10E94220C87
:1018F000811102C080E020C08BE6E82E83E0F82E44
:1019000000E012E020E030E0B501A40180916B0519
:1019100090916C050E94DA04882361F380920101A2
:1019200090920201A0920301B092040180915D03A4
:10193000C82BC0935D0381E0CF911F910F91FF9061
:10194000EF90BF90AF909F908F9008954F925F92CD
:101950006F927F928F929F92AF92BF92CF92DF92BF
:10196000EF92FF920F931F93CF93DF93EC016A01E5
:101970007B0128013901423051056105710510F4E0
:1019800080E073C089859A85AB85BC850196A11DD1
:10199000B11D84179507A607B70790F38B889C881D
:1019A000AD88BE888F89803129F4BB27AF2D9E2D4D
:1019B0008D2D09C0DB01CA0147E0B695A795979523
:1019C00087954A95D1F7880E991EAA1EBB1E809155
:1019D000010190910201A0910301B09104018816C8
:1019E0009906AA06BB0679F48F898031A1F4DD241B
:1019F000EE24FF24C601880F991FFC01E559FC4F16
:101A00005182408219C040E0C501B4010E945D0CC2
:101A10008111EACFB5CFE894C7F8DD24EE24FF2486
:101A2000C601880F991F880F991FFC01E559FC4FCB
:101A3000408251826282738280915D0381608093D3
:101A40005D038A89823080F08D819E81AF81B88567
:101A5000880E991EAA1EBB1E80925E0390925F03A1
:101A6000A0926003B092610381E0DF91CF911F915A
:101A70000F91FF90EF90DF90CF90BF90AF909F902D
:101A80008F907F906F905F904F9008958F929F926C
:101A9000AF92BF92CF92DF92EF92FF920F931F937C
:101AA000CF93DF93FC0181859285A385B485019650
:101AB000A11DB11D84179507A607B70710F480E094
:101AC0005CC083899489A589B689C789C03129F406
:101AD000852E962EA72EBB2409C04A015B01C7E0C4
:101AE000B694A79497948794CA95D1F7E9016A01AF
:101AF0007B018F01BC01CD01680D791D8A1D9B1DE5
:101B00008090010190900201A0900301B090040127
:101B1000681579058A059B0599F4F8018789803154
:101B2000A9F4B701A601552766277727440F551F4B
:101B3000FA01E559FC4F80819181A0E0B0E018C026
:101B400040E00E945D0C8111E8CFB9CFB701A6013A
:101B50004F77552766277727440F551F440F551F8A
:101B6000FA01E559FC4F80819181A281B381BF7058
:101B700088839983AA83BB8381E0DF91CF911F91F2
:101B80000F91FF90EF90DF90CF90BF90AF909F901C
:101B90008F9008954F925F926F927F92AF92BF9213
:101BA000CF92DF92EF92FF920F931F93CF93DF9329
:101BB00000D000D0CDB7DEB78C0149835A836B8348
:101BC0007C835901C12CD12C7601412C82E0582E06
:101BD000612C712C49815A816B817C819E012F5F20
:101BE0003F4FC8010E94460D882351F1D301C20125
:101BF000F801058404C0880F991FAA1FBB1F0A940F
:101C0000D2F7C80ED91EEA1EFB1E49815A816B818C
:101C10007C818789803129F088EF9FEFAFEFBFE0AB
:101C200004C088EF9FEFA0E0B0E0481759076A07AB
:101C30007B0780F2F501C082D182E282F38281E0EB
:101C40000F900F900F900F90DF91CF911F910F91F8
:101C5000FF90EF90DF90CF90BF90AF907F906F900C
:101C60005F904F900895CF93DF93EC018D8188238F
:101C7000A1F18C8187FF2DC06E857F858889998928
:101C800041E00E945D0C882341F1EA8980E2E89FEF
:101C9000F0011124DF01A559BC4F1097F1F08D819F
:101CA000823050F44B895C896D897E895C964D93B6
:101CB0005D936D937C935F978F89988DA98DBA8D75
:101CC000E559FC4F938F828FB58BA48B8C818F77D6
:101CD0008C83DF91CF910C94220C80E0DF91CF9127
:101CE00008958F929F92AF92BF92CF92DF92EF9220
:101CF000FF920F931F93CF93DF93EC018D8181119E
:101D000002C080E077C00B891C892D893E890417A9
:101D1000150726073707A8F36A017B01823029F4EB
:101D2000CA86DB86EC86FD860DC0C114D104E104B1
:101D3000F10451F41E821F82188619861A861B86AA
:101D40001C861D8681E056C08A849B84AC84BD8439
:101D5000EB8DFC8D258530E0275F3F4FB501A40159
:101D60004150510961097109022E04C076956795A9
:101D7000579547950A94D2F7D701C6010197A10953
:101D8000B10904C0B695A795979587952A95D2F77E
:101D900084179507A607B70720F089288A288B287B
:101DA00049F44F89588D698D7A8D4E835F8368879A
:101DB000798704C0841B950BA60BB70B4C015D0102
:101DC0008E010A5F1F4F81149104A104B10409F42C
:101DD000A7CF4E815F816885798598018B8D9C8D19
:101DE0000E94460D91E0891A9108A108B10881115D
:101DF000EACF87CFDF91CF911F910F91FF90EF90A6
:101E0000DF90CF90BF90AF909F908F9008952F92CA
:101E10003F924F925F926F927F928F929F92AF927A
:101E2000BF92CF92DF92EF92FF920F931F93CF93C7
:101E3000DF9300D000D0CDB7DEB78C015B011A0173
:101E4000DC0115968C9115978130C9F414968C910C
:101E500081FF15C082FF1BC0F80143895489658941
:101E6000768982859385A485B58584179507A6070D
:101E7000B70769F0C8010E94710E811108C081E0A6
:101E800090E0F8019383828380E090E039C16101A2
:101E900083C0D8015B968D919C915C97FC01248155
:101EA00021502A013B0139E0769467945794479476
:101EB0003A95D1F7722E74207A01F1E0FF22772053
:101EC00009F476C080E092E08E199F0946018C15D6
:101ED0009D0508F44C01D8015B962D913C915C97CF
:101EE00016968D919D910D90BC91A02D0297A10900
:101EF000B109F901058404C0880F991FAA1FBB1FEF
:101F00000A94D2F74685578560897189840F951F99
:101F1000A61FB71F9C01AD01270D311D411D511D8D
:101F200029013A01811432E0930609F088C08091BA
:101F3000010190910201A0910301B0910401841567
:101F40009505A605B70559F48FEF9FEFDC01809347
:101F5000010190930201A0930301B0930401950144
:101F6000B301A20180916B0590916C050E946B08F2
:101F7000882309F484CF9EEFB91AC818D908F8014C
:101F800082859385A485B585880D991DA11DB11DF8
:101F900082879387A487B587D8011A964D915D9162
:101FA0006D917C911D97C114D10409F072CF87C047
:101FB000E114F10409F086CF16964D915D916D9173
:101FC0007C911997411551056105710559F4579692
:101FD0008D919D910D90BC91A02D0097A105B1050B
:101FE00041F521C09E012F5F3F4F0E94460D88237F
:101FF00009F44BCF89819A81AB81BC81F801238D93
:10200000348DF9012789203129F048EF5FEF6FEF18
:102010007FE004C048EF5FEF60E070E08417950751
:10202000A607B70730F0C8010E940C0381114ACF00
:1020300026CFF80186839783A087B18743CFE11429
:10204000F10429F5D8011A964D915D916D917C911D
:102050001D9753968D919D910D90BC91A02D481781
:1020600059076A077B0798F00E94220C882309F41D
:1020700006CF4092010150920201609203017092DA
:10208000040180915D03816080935D0308C041E09D
:10209000C301B2010E945D0C882309F4F0CED50182
:1020A000F701E559FC4FCF01880D991DE817F90795
:1020B00019F02D912193FACFA80CB91C5ECF53963D
:1020C0008D919D910D90BC91A02D84179507A60729
:1020D000B70740F4F801438B548B658B768B848172
:1020E00080688483D80114968C9183FD02C0C1015D
:1020F00007C0C8010E94330E882309F4C0CEF7CF71
:102100000F900F900F900F90DF91CF911F910F9133
:10211000FF90EF90DF90CF90BF90AF909F908F9007
:102120007F906F905F904F903F902F900895CF9346
:10213000DF931F92CDB7DEB7698341E050E0BE0167
:102140006F5F7F4F0E94070F0F90DF91CF9108952F
:10215000CF92DF92EF92FF920F931F93CF93DF9373
:102160006C017A018B01C0E0D0E0CE15DF0589F06B
:10217000D8016D918D01D601ED91FC910190F08116
:10218000E02DC6010995892B11F47E0102C021962C
:10219000ECCFC701DF91CF911F910F91FF90EF908E
:1021A000DF90CF9008956115710579F0FB010190E2
:1021B0000020E9F73197AF01461B570BDC01ED9189
:1021C000FC910280F381E02D099480E090E0089575
:1021D000E0917206F09173068E179F07F0F530912B
:1021E0007706332361F0639FB0011124672F439F6B
:1021F000A0011124452F239F90011124232F3091FA
:102200007D0650917A06E0917806F09179063513B3
:1022100008C0DC01AA0FBB1F8A0F9B1F8E0F9F1FD8
:102220000AC0880F991F880F991F8E0F9F1FFC01EE
:10223000E30FF11D108230917A06FC01E30FF11DCE
:10224000608330917B06FC01E30FF11D40833091E8
:102250007C06FC01E30FF11D208308958F929F926D
:10226000AF92BF92CF92DF92EF92FF92CF93DF9324
:10227000C82F8CE096E090936C0580936B05CC237F
:1022800069F1C53010F080E00DC140E060E070E021
:10229000CB010E945D0C8823B1F320E1C29FC001F5
:1022A0001124855A9C4FFC01E254FE4F20812F7768
:1022B00051F73C96408151816281738144365105CA
:1022C0006105710500F33497C080D180E280F3800E
:1022D000C114D104E104F10421F4D5CFC12CD12CD7
:1022E000760140E0C701B6010E945D0C882359F2D7
:1022F00080917603909177038115924021F6A09109
:102300007B03AA2309F4BFCF6091790370917A030C
:102310006115710509F4B7CF20917803222309F4E0
:10232000B2CFA0932A0620931C0680E030E0E1E0C3
:10233000F0E0C82FAF01082E02C0440F551F0A94C9
:10234000E2F72417350741F0982F8F5F983089F70F
:1023500089E08093250697CF8093250620918103FD
:10236000309182032115310519F040E050E008C09A
:1023700020918F03309190034091910350919203EB
:1023800020931D0630931E0640931F06509320068F
:1023900046015701860E971EA11CB11C80922B0688
:1023A00090922C06A0922D06B0922E06E0917C030E
:1023B000F0917D03F0933106E0933006B0E00E9487
:1023C0001E2A860E971EA81EB91E80923206909273
:1023D0003306A0923406B092350685E0EE0FFF1F5B
:1023E0008A95E1F7E150FE4FEF2FFF27E6958E0E1D
:1023F0009F1EA11CB11C8092260690922706A092D7
:102400002806B092290620917E0330917F03211582
:10241000310521F0A90160E070E008C040918B0314
:1024200050918C0360918D0370918E03D701C6018A
:1024300088199909AA09BB09840F951FA61FB71F00
:1024400004C0B695A79597958795CA95D2F78093BE
:10245000210690932206A0932306B0932406853F7D
:102460002FE09207A105B10510F48CE018C0853F5C
:102470009F4FA105B10510F480E111C08091970331
:1024800090919803A0919903B0919A03809332069A
:1024900090933306A0933406B093350680E2809380
:1024A0002F0681E0DF91CF91FF90EF90DF90CF90EA
:1024B000BF90AF909F908F900895CF93DF93FC01D2
:1024C000248135814217530780F4FB01DC01CD9153
:1024D000DC9160817181CE01840F951F0E9477236A
:1024E000009719F08C1B9D0B02C08FEF9FEFDF91BF
:1024F000CF910895EF92FF920F931F93CF93DF93A5
:10250000EC01198218821B821A821D821C826115BD
:102510007105A9F17B01FB0101900020E9F73197DA
:102520008F01061B170BB8016F5F7F4F80E090E0B3
:102530000E947122009759F0998388831B830A8334
:102540002C813D81232B81F4FC0110820DC08881F8
:102550009981009711F00E94D921198218821D8259
:102560001C821B821A820BC01D830C83B701DF9172
:10257000CF911F910F91FF90EF900C946123DF9109
:10258000CF911F910F91FF90EF9008950F931F939C
:10259000CF93DF93EC010E94D3108C016CE572E0C5
:1025A000CE010E94D310800F911FDF91CF911F9118
:1025B0000F910895CF93DF93CDB7DEB7C859D109F6
:1025C0000FB6F894DEBF0FBECDBF789484B582609D
:1025D00084BD84B5816084BD85B5826085BD85B5C7
:1025E000816085BD80916E00816080936E00109245
:1025F00081008091810082608093810080918100C0
:102600008160809381008091800081608093800050
:102610008091B10084608093B1008091B0008160AE
:102620008093B00080917A00846080937A008091DA
:102630007A00826080937A0080917A008160809332
:102640007A0080917A00806880937A001092C100AD
:1026500060E871E08DE695E00E94C61210921706C0
:102660001092150610921206109211068AE08093BD
:1026700010060E94CC0B8B0161E0809110060E9435
:102680006B0B61E0809110060E943B0BFFB6F89443
:1026900080916402811127C0ECE3F1E08491E0E5D0
:1026A000F1E09491E82FF0E0EE0FFF1FE051FF4FB3
:1026B000A591B491EC91E92321F461E08AE00E94B4
:1026C0003B0B61E08AE00E946B0B8CB580618CBD96
:1026D0008CB580648CBD61E08DE00E946B0B61E085
:1026E0008BE00E946B0B809164028F5F8093640289
:1026F000FFBE82E580930A0610920B0680910A06BF
:1027000090910B060E945F04AAE0FA2E8FEF0E94C0
:102710002004FA94F110FACF8CE096E00E94620453
:1027200020E030E0A90160E08CE096E00E947804AF
:10273000F82E8093160681E0F81649F00E94CC0B23
:10274000601B710B613D774058F381E056C02AEA67
:1027500031E040E050E068E08CE096E00E947804D0
:1027600082FF03C0F092170610C0F4E0FF2E0E9413
:10277000270480931606FA94F110F9CF8A3A11F0E3
:1027800082E03BC082E0809317068091170682307A
:1027900021F0C12CD12C760105C0C12CD12CE12C0B
:1027A000E0E4FE2E20E030E0A90167E38CE096E053
:1027B0000E947804A701960169E28CE096E00E94ED
:1027C000780480931606882349F00E94CC0B601B86
:1027D000710B613D774030F388E00FC080911706A0
:1027E000823001F520E030E0A9016AE38CE096E058
:1027F0000E947804882341F086E0809311068CE0E3
:1028000096E00E941504AFC00E942704807C803CA3
:1028100019F483E0809317060E9427040E9427047E
:102820000E9427048CE096E00E94150480E58093C6
:102830000A0610920B0681E00E942E11882329F0CF
:1028400080913B06882341F08EC080E00E942E11CB
:10285000882309F488C0F4CF80912F06803109F5D0
:1028600082E080933B0610924D0610924E06109225
:102870004F06109250068091300690913106A0E0EC
:10288000B0E075E0880F991FAA1FBB1F7A95D1F79A
:102890008093490690934A06A0934B06B0934C064A
:1028A0001FC0803209F05FC083E080933B064091F7
:1028B000320650913306609134067091350640938C
:1028C0004D0650934E0660934F067093500629E4D0
:1028D00036E088E196E00E94CA0D882309F443C0DF
:1028E00088E196E0909352068093510681E08093B0
:1028F0003A0610923C0610923D0610923E06109247
:102900003F06109240061092410610924206109225
:102910004306109244061092450610924606109205
:10292000470610924806612C712C7E01A3E7EA0E3F
:10293000F11CE0910B01F0910C01C857DF4FF983B6
:10294000E883C858D040C7010296C457DF4F998327
:102950008883CC58D0405E019BE3A90EB11CDE01F8
:1029600011966D0183C061EA71E08DE695E00E94E9
:10297000C61210920001CDC121E0AE01485A5F4F4E
:10298000B801892D982D0E947806382EA6E00633CE
:102990001A0709F0ABC0882309F4ADC08E01025EAE
:1029A0001F4F902F812F092D182D4C01252D342DCF
:1029B000F701E20FF31F80818F3211F42F5F3F4F39
:1029C000FE01E85AFF4F40E050E0D701A20FB31FCD
:1029D0008C918F3251F0882341F04F5F5F4F2F5F12
:1029E0003F4F81934C30510581F7E8E5F0E0EC0F63
:1029F000FD1FE40FF51F1082F701E20FF31F808126
:102A00008F3211F42F5F3F4F522E432EF701E20F0A
:102A1000F31F30801C821B8284E491E09A838983B7
:102A20001E8221E0AE01485A5F4FB801C6010E94E4
:102A30007806882309F452C0C6010E9400033110B1
:102A40009BCFB6E006331B0719F0C8010E940003B4
:102A5000E3E66E16710411F410920001BFEF6B1AD9
:102A60007B0AE4E66E16710409F453C1C857DF4FC0
:102A700088819981C858D040F701918380838AE08A
:102A8000C457DF4FA881B981CC58D0401D928A9598
:102A9000E9F77F926F92ABEBB1E0BF93AF93FF92F8
:102AA000EF920E9491231EAE1DAE84E491E09CAF94
:102AB0008BAF21961FAE219719A218A29F8F8E8FE0
:102AC0001BA20F900F900F900F900F900F90512C12
:102AD000412C9A2C8B2C06E316E068CF96E0063347
:102AE000190749F0C8010E94000305C0C8010E94EF
:102AF0000003311056CF3E01FEE16F0E711C66E3FC
:102B000076E0C3010E94D6081C821B8284E491E017
:102B10009A8389831E823C2C2D2C230147016FE26E
:102B200070E0C4010E945623009709F445C0D40107
:102B30002C912F3249F4BFEF8B1A9B0AC101342C20
:102B4000252C492E582E32C088198D3008F08CE083
:102B5000082F10E0A801B401CE01885A9F4F0E94AF
:102B60006823E8E5F0E0EC0FFD1FE00FF11F108295
:102B7000832D922D0E94000321E0AE01485A5F4F41
:102B8000B201832D922D0E94780681110AC01EAEDB
:102B90001DAE84E491E09CAF8BAF21961FAE2197D0
:102BA00018C0800E911EC2010E940003942D852D35
:102BB000432C522C1C01B3CFF401EE19FF09CC5762
:102BC000DF4FF983E883C458D040B201C5010E94A9
:102BD000D608CC57DF4F88819981C458D040E80E81
:102BE000F91ED7018C91811107C0B501C6010E9461
:102BF000D60848EC51E044C019A218A284E491E040
:102C00009F8F8E8F1BA221968FAD2197811116C0A9
:102C10006C961FAE1EAE6C9788EE93E0A0E0B0E01D
:102C2000A0968CAF9DAFAEAFBFAFA097E3961FAE9F
:102C30001EAEE397A5961FAEA59728C0825023E14C
:102C4000A701823040F466E376E0C3010E94780673
:102C500081110AC0DDCFB501C3010E947806882327
:102C6000B9F2C5010E94000349A95AA96BA97CA920
:102C7000C3010E94710EB301C6010E94D608A701CC
:102C8000B601CE01885A9F4F0E9427096C968EADDF
:102C90009FAD6C979093580680935706A0968CAD85
:102CA0009DADAEADBFADA0978093590690935A06E7
:102CB000A0935B06B0935C06A4968CAD9DADAEADC3
:102CC000BFADA49780935D0690935E06A0935F06C8
:102CD000B09360068DE0E8E5F0E0EC0FFD1F3C9658
:102CE000A1E6B6E001900D928A95E1F7E396EEAD8C
:102CF000FFADE397F0936F06E0936E06309719F0FF
:102D00008581811106C06AEC71E08DE695E00E9434
:102D1000C6121092A00610929F0610929E06109264
:102D20009D0610929C0610929B068DE991E090936F
:102D3000A2068093A10690919106963108F057C0A3
:102D40002DEB30E030939C0620939B062BE931E07D
:102D500030939E0620939D062CE231E03093A0062E
:102D600020939F0620916800983050F031E09E300B
:102D700008F430E081E001C0880F3A95EAF701C01D
:102D800084E0822B80936800983038F09E3040F0C9
:102D9000963148F020E030E008C02DE630E005C074
:102DA0002BE630E002C02CE630E030939906209309
:102DB0009806983030F481E001C0880F9A95EAF7C0
:102DC0000EC0292F30E09E3018F42850310902C07F
:102DD0002E50310981E001C0880F2A95EAF78093CF
:102DE0009A068091A1069091A2060197F1F7809131
:102DF0009F069091A006892B21F18091620290910B
:102E00006302F6E085389F07E1F0009711F00E9419
:102E1000D6098091A3068E7F8093A306109261024B
:102E20001092600285E896E09093630280936202BC
:102E3000E0919806F0919906908180919A06892BED
:102E400080836EEF71E085E896E00E94C6126FE025
:102E500072E085E896E00E94C61268E272E085E8BA
:102E600096E00E94C6128BE0EEE8F2E0DF01282F28
:102E70001D922A95E9F7EEE7F2E0DF011D928A95AF
:102E8000E9F787E0E5E6F2E0DF011D928A95E9F7D0
:102E900005E311E060E1E62E67E2F62EEDEFF0E0EB
:102EA0008491E9E4F1E0C490F801D490DD2089F048
:102EB00081110E94120BED2DF0E0EE0FFF1FE85D77
:102EC000FE4FA591B4918C91C82219F010921A036B
:102ED00018C0B1E0EB1AF10809F780911A038111CB
:102EE0000DC08091740290917502019664E070E0CB
:102EF0000E94611E909375028093740281E080931A
:102F00001A0380E8EAE9F2E0DF011D928A95E9F709
:102F1000F12C85E896E00E942E010196D1F385E818
:102F200096E00E94B301EF2DF0E0E656FD4F80835E
:102F3000FF2029F0843219F480939A02F12C8091B9
:102F40009A02843231F781E08F0DEF2DF0E0E656E2
:102F5000FD4F90819A3011F0F82EDBCF90E0FC010C
:102F6000E856FD4F10827C01E5E0EE1AF108F7010A
:102F7000E656FD4F20812A3259F640E150E060E0EC
:102F800070E08A569D4F0E94322621E0822F90E009
:102F90008E159F053CF4FC01E656FD4F80816827A5
:102FA0002F5FF4CF6111B4CF8091AC02813409F06E
:102FB000AFCF80919D02823509F094C26AE972E038
:102FC000CE014E960E947A1222E0EE24EA94FE2C64
:102FD0006AE572E0CE010196C856DF4F2883C859D2
:102FE000D0400E947A12A7014F5F5F4FBE016F5F12
:102FF0007F4FCE014E960E945D127C0189819A819D
:103000000E94D921C856DF4F2881C859D0402130AD
:1030100011F021E0DDCFF701E656FD4F81818134CB
:1030200011F0F12C99C06701E3E0CE0ED11C6AE5E6
:1030300072E0CE0101960E947A12A7014C5F5F4FA9
:10304000BE016F5F7F4FCE014E960E945D127C01E4
:1030500089819A810E94D921FFEFEF16FF0609F3BB
:10306000A7014C195D09B60166567D4F8EE892E0C6
:103070000E944D23F701E656FD4F8181809399020E
:1030800023E0E20EF11C6AE572E0CE0101960E9497
:103090007A12A701BE016F5F7F4FCE014E960E944C
:1030A0005D126C0189819A810E94D9218FEFC81627
:1030B000D80609F4B6CFA6014E195F09B7016656C6
:1030C0007D4F8EE792E00E944D23F601E656FD4FBC
:1030D0008181809389026AE572E0CE0101960E94A7
:1030E0007A12A6014D5F5F4FBE016F5F7F4FCE0129
:1030F0004E960E945D127C0189819A810E94D9219D
:103100009FEFE916F90609F48CCFAFEFEA1AFA0A35
:103110006AE572E0CE0101960E947A12A701BE0113
:103120006F5F7F4FCE014E960E945D126C018981C8
:103130009A810E94D921BFEFCB16DB0609F471CF2B
:10314000A6014E195F09B70166567D4F85E692E0EC
:103150000E944D23FF24F3948E8D9F8D0E94D921D0
:10316000FF2009F448C4E09099020E2C000CFF08DF
:10317000C7010E9443270E94002024E6C22ED12CC2
:10318000CB01B6010E94611E1B01C7010E944327AB
:103190004B015C01B101032C000C880B990B0E94C0
:1031A000CF282B013C0134E6F32EF29CB001F39CB6
:1031B000700D1124072E000C880B990B0E94CF284C
:1031C0009B01AC01C501B4010E948F1E20E030E0DC
:1031D00040E752E40E948E1F9B01AC01C301B20183
:1031E0000E94901E60938A0270938B0280938C02DF
:1031F00090938D02A09089020A2C000CBB08C50197
:103200000E9443270E940020CB01B6010E94611E4C
:103210006B01C5010E9443272B013C01B6010D2C17
:10322000000C880B990B0E94CF284B015C01FC9C81
:10323000B001FD9C700D1124072E000C880B990B1A
:103240000E94CF289B01AC01C301B2010E948F1ED6
:1032500020E030E040E752E40E948E1F9B01AC0169
:10326000C501B4010E94901E60937A0270937B02A4
:1032700080937C0290937D0240907602509077027A
:1032800060907802709079022BED3FE049E450E4C1
:103290000E942E2920E030E044E353E40E948E1F78
:1032A000CC57DF4F688379838A839B83C458D0408F
:1032B0009B01AC0160E070E0CB010E948F1E6B01AE
:1032C0007C010E94DD20C457DF4F688379838A83A5
:1032D0009B83CC58D0402BED3FE049E450E4609113
:1032E0008A0270918B0280918C0290918D020E94D3
:1032F0002E2920E030E044E353E40E948E1F4B016E
:103300005C010E94891FC857DF4F688379838A83D5
:103310009B83C858D040C501B4010E94DD20C0572E
:10332000DF4F688379838A839B83C059D040C7016C
:10333000B6010E94891FCC56DF4F688379838A8348
:103340009B83C459D04020E030E0A901C857DF4F2B
:10335000688179818A819B81C858D0400E942E293A
:103360006B017C01CC56DF4F288139814A815B811A
:10337000C459D040C057DF4F688179818A819B81D1
:10338000C059D0400E942E299B01AC01C701B60153
:103390000E948F1E9B01AC01C457DF4F6881798169
:1033A0008A819B81CC58D0400E942A1F20E030E0C7
:1033B00044E353E40E942E292BED3FE049E450E41E
:1033C0000E948E1F6B017C0120E030E0A9010E9469
:1033D000C82887FF0AC020E030E044EB53E4C7016F
:1033E000B6010E94901E6B017C01A3019201C701EE
:1033F000B6010E94D02018162CF4A3019201C70137
:10340000B6010CC0A7019601C301B2010E948F1E34
:103410009B01AC0160E070E084EB93E40E948F1E9E
:10342000609376027093770280937802909379028A
:1034300020E030E040E05FE3C501B4010E942E29A6
:103440000E94DD206B017C0120E030E040E05FE382
:10345000CC57DF4F688179818A819B81C458D040E5
:103460000E942E290E94DD204B015C01A7019601DC
:10347000C701B6010E942E296B017C01A5019401B0
:10348000C501B4010E942E299B01AC01C857DF4F32
:10349000688179818A819B81C858D0400E942E29F9
:1034A0009B01AC01C701B6010E94901E0E94EB2057
:1034B0000E94FC1E9B01AC010E94901E20E030E7A0
:1034C00047E755E40E942E2920E030E045EA55E424
:1034D0000E942E2960937002709371028093720291
:1034E000909373028090700290907102A09072028B
:1034F000B0907302C0907602D0907702E09078028C
:10350000F090790220E030E044EB51ECC701B601C5
:103510000E94D02087FD16C020E030E044EB51E44B
:10352000C701B6010E94C828181664F020E04FEFCA
:1035300060E081E090E00E94E81010926D0210922D
:103540006C02D5C020E030E044EB51E4C701B60185
:103550000E94D02087FD14C020E030E04BE952E407
:10356000C701B6010E94C828181654F020E04FEF9A
:1035700060E082E090E00E94E81081E090E0B3C05B
:1035800020E030E04BE952E4C701B6010E94D020B0
:1035900087FD14C020E030E045EF52E4C701B601DA
:1035A0000E94C828181654F020E04FEF60E08AE02F
:1035B00090E00E94E81082E090E095C020E030E0CA
:1035C00045EF52E4C701B6010E94D02087FD14C028
:1035D00020E030E847E253E4C701B6010E94C82862
:1035E000181654F020E04FEF60E082E190E00E9476
:1035F000E81083E090E077C020E030E045EF52EC47
:10360000C701B6010E94C8281816A4F020E030E8CF
:1036100047E253ECC701B6010E94D02087FD0AC0E3
:1036200020E04FEF60E080E190E00E94E81085E04C
:1036300090E059C020E030E04BE952ECC701B60100
:103640000E94C8281816A4F020E030E045EF52ECA4
:10365000C701B6010E94D02087FD0AC020E04FEFCD
:1036600060E088E090E00E94E81086E090E03BC0D7
:1036700020E030E044EB51ECC701B6010E94C828BD
:103680001816A4F020E030E04BE952ECC701B60177
:103690000E94D02087FD0AC020E04FEF60E080E06C
:1036A00090E00E94E81087E090E01DC020E030E844
:1036B00047E253E4C701B6010E94D02087FF0AC049
:1036C00020E030E847E253ECC701B6010E94C82869
:1036D00018166CF020E04FEF60E081E190E00E946E
:1036E000E81084E090E090936D0280936C0298E182
:1036F000C92E91E0D92EE12CF12C80916C02909191
:103700006D02E816F90641F020E040E060E0F601C5
:10371000808191810E94E810FFEFEF1AFF0A22E0FA
:10372000C20ED11C88E0E816F10439F788E2C82EF1
:1037300081E0D82EE12CF12C8091740290917502D9
:1037400020E0E816F90631F44FEF60E0D6018D91E4
:103750009C9105C040E060E0F601808191810E946B
:10376000E810FFEFEF1AFF0A22E0C20ED11C84E03E
:10377000E816F10409F7C501B4010E9400209B017D
:1037800070936F0260936E02283E93E039071CF03D
:1037900020E040E023C0243FA1E03A071CF020E0F5
:1037A00045E41CC02A3F31051CF020E047ED16C05F
:1037B0002B3431051CF02FEF40E005C028323105D5
:1037C00024F020E04FEF60E00AC02A30310524F0F9
:1037D00021EF40E061EF03C02FEF4FEF6FEF86E185
:1037E00090E00E94E8108091780690917906892BEC
:1037F00009F401C10E94A70BC0907E06D0907F06FD
:10380000E0908006F0908106DC01CB018C199D09C7
:10381000AE09BF09C297A105B10560F3F894809184
:103820007406909175069CAF8BAFE0917806F0918D
:103830007906DF0111968081CD57DF4F8883C35809
:10384000D04090917006E0918206F09183068091BD
:103850008406992309F456C09081982BCE57DF4FE8
:103860009883C258D040908180958923CF57DF4FED
:103870008883C158D040CF57DF4F8881C158D0408E
:10388000E4968FAFE49788E069968FAF6997CE573B
:10389000DF4F5881C258D040CF57DF4F6881C158A1
:1038A000D040CD57DF4F4881C358D04069963FADD7
:1038B0006997E4962FADE4978BAD9CAD508347FD9F
:1038C000252F3A952083262F39F0441F00C0000091
:1038D0006083000000C0F2CF38E04D9160830000AB
:1038E000019761F7F0938306E0938206CD57DF4F8F
:1038F0004883C358D04069963FAF6997E4962FAF8D
:10390000E4976CC09081982BCE57DF4F9883C258B4
:10391000D040908180958923CF57DF4F8883C1584D
:10392000D040CF57DF4F8881C158D040C058DF4FBB
:103930008883C058D04088E0C158DF4F8883CF5774
:10394000D040CE57DF4F5881C258D040CF57DF4FBD
:103950006881C158D040CD57DF4F4881C358D0400F
:10396000C158DF4F3881CF57D040C058DF4F288132
:10397000C058D0408BAD9CAD508347FD252F00C073
:1039800000C0208300C000C000C000C000C0608331
:103990000000262F3A9541F0441F000000C000C0EF
:1039A00000C000C000C0E8CF38E04D9100C0608387
:1039B00000C0019709F7F0938306E0938206CD5784
:1039C000DF4F4883C358D040C158DF4F3883CF57AB
:1039D000D040C058DF4F2883C058D0409CAF8BAF39
:1039E00078940E94A70B60937E0670937F06809365
:1039F0008006909381060E94AE0A4CCA8091780698
:103A000090917906009711F00E94D9218091760655
:103A100087FD03C060E00E946B0B8CE591E0909302
:103A200086068093850685E896E00C94D609109268
:103A3000700510926F0588EE93E0A0E0B0E08093EF
:103A4000710590937205A0937305B093740524E3F8
:103A500031E030936E0520936D0525EC30E0309316
:103A60007A052093790524EC30E030937C0520938F
:103A70007B0520EC30E030937E0520937D0521EC22
:103A800030E03093800520937F0522EC30E03093C6
:103A900082052093810526EC30E030938405209345
:103AA0008305109286051092870510928805109262
:103AB000890520E520930A0610920B061092110644
:103AC00010921206109215061092170642E050E06E
:103AD00060E070E0409318065093190660931A0650
:103AE00070931B0610922F0610923906109238061A
:103AF00024E431E0309337062093360610923B06DB
:103B000010928806109287068093890690938A0601
:103B1000A0938B06B0938C068CE591E0909386067B
:103B20008093850610929C0610929B0610929E062A
:103B300010929D061092A00610929F061092A20667
:103B40001092A1066091A3066E7F6D7F6093A3061D
:103B50006695617081E0682787E00E943B0B61E019
:103B600087E00E946B0BEDE4F1E0E491E0939506B1
:103B7000E9E3F1E0E491F0E0EE0FFF1FE25EFE4FBB
:103B800085919491909397068093960660E088E0E3
:103B90000E946B0B8091A30681FD04C061E088E068
:103BA0000E943B0B88E080939106EEE4F1E0E49103
:103BB000E0939206EAE3F1E0E491F0E0EE0FFF1FFC
:103BC000E85DFE4F859194919093940680939306BF
:103BD000109271061092770610927E0610927F0660
:103BE000109280061092810681E080937D0680937A
:103BF0007A0610927B0692E090937C068093700682
:103C000088E790E090937506809374060E944421A3
:103C10009093790680937806009761F028E7FC017D
:103C200011922A95E9F788E290E0909373068093C9
:103C3000720608C0109275061092740610927306F0
:103C40001092720686E08093760680917106882332
:103C500041F061E086E00E946B0B60E086E00E942C
:103C60003B0BE8E3F1E0E491F0E0EE0FFF1FE25ED2
:103C7000FE4F859194919093830680938206ECE4A5
:103C8000F1E0E491E09384061092580610925706F2
:103C900088EE93E0A0E0B0E08093590690935A0636
:103CA000A0935B06B0935C068CE491E0909356067B
:103CB0008093550610926F0610926E061092610660
:103CC000089597FB072E16F4009407D077FD09D0CE
:103CD0000E94751E07FC05D03EF4909581959F4F7C
:103CE0000895709561957F4F0895AA1BBB1B51E104
:103CF00007C0AA1FBB1FA617B70710F0A61BB70B5C
:103D0000881F991F5A95A9F780959095BC01CD0100
:103D10000895EE0FFF1F0590F491E02D099450587F
:103D2000BB27AA270E94A71E0C94B2290E94A4298F
:103D300038F00E94AB2920F039F49F3F19F426F4A3
:103D40000C94A1290EF4E095E7FB0C949B29E92F34
:103D50000E94C32958F3BA176207730784079507AF
:103D600020F079F4A6F50C94E5290EF4E0950B2EDD
:103D7000BA2FA02D0B01B90190010C01CA01A001BD
:103D80001124FF27591B99F0593F50F4503E68F118
:103D90001A16F040A22F232F342F4427585FF3CF59
:103DA000469537952795A795F0405395C9F77EF42A
:103DB0001F16BA0B620B730B840BBAF09150A1F073
:103DC000FF0FBB1F661F771F881FC2F70EC0BA0FF9
:103DD000621F731F841F48F4879577956795B79581
:103DE000F7959E3F08F0B0CF9395880F08F099277C
:103DF000EE0F9795879508959F939F77EEE3893708
:103E00009E0728F4E8E6F0E00E947D200CC00E94A6
:103E100036209058A2EA2AED3FE049EC5FE30E9489
:103E2000A71E0E94B2290F9007FC905808950E9487
:103E3000A42960F080E891E009F49EEF0E94AB298C
:103E400028F040E851E071F45EEF0CC00C94A12919
:103E50000C94E529E92FE0780E94C32940F3092E4C
:103E6000052AB1F3261737074807590738F00E2EF1
:103E700007F8E02569F0E025E0640AC0EF6307F881
:103E8000009407FADB01B9019D01DC01CA01AD0113
:103E9000EF930E94A51F0E94B2290E945A1F5F91B2
:103EA000552339F02BED3FE049E450FD49EC0C94EB
:103EB000901E0895DF93DD27B92FBF7740E85FE3B9
:103EC0001616170648075B0718F4D92F0E94D5204D
:103ED0009F938F937F936F930E942B21ECE7F0E0E9
:103EE0000E9456200E94B2292F913F914F915F91DD
:103EF0000E944129DD2351F09058A2EA2AED3FE0CB
:103F000049EC5FE3D0785D270E94A71EDF910C94F7
:103F1000B2290E949320E3950C94BC200E94A21F1A
:103F20000C94B2290E94AB2958F00E94A42940F0B9
:103F300029F45F3F29F00C949B2951110C94E62938
:103F40000C94A1290E94C32968F39923B1F3552346
:103F500091F3951B550BBB27AA276217730784079C
:103F600038F09F5F5F4F220F331F441FAA1FA9F332
:103F700035D00E2E3AF0E0E832D091505040E69520
:103F8000001CCAF72BD0FE2F29D0660F771F881F81
:103F9000BB1F261737074807AB07B0E809F0BB0B74
:103FA000802DBF01FF2793585F4F3AF09E3F510588
:103FB00078F00C949B290C94E6295F3FE4F3983E3B
:103FC000D4F3869577956795B795F7959F5FC9F771
:103FD000880F911D9695879597F90895E1E0660FF2
:103FE000771F881FBB1F621773078407BA0720F06B
:103FF000621B730B840BBA0BEE1F88F7E0950895D4
:104000000E9407206894B1110C94E62908950E943B
:10401000CB2988F09F5798F0B92F9927B751B0F066
:10402000E1F0660F771F881F991F1AF0BA95C9F73C
:1040300014C0B13091F00E94E529B1E008950C94CC
:10404000E529672F782F8827B85F39F0B93FCCF37F
:10405000869577956795B395D9F73EF490958095B9
:10406000709561957F4F8F4F9F4F0895DF93CF934A
:104070001F930F938B01EC01E9EAF0E00E945620B8
:104080000E94B2299801AE018B01EC0160E070E062
:1040900080E89FE30E948F1E0E94EB209801AE01F2
:1040A0000F911F91CF91DF910C944129DF93CF9312
:1040B0001F930F93FF92EF92DF927B018C01689424
:1040C00006C0DA2EEF010E944129FE01E894A59175
:1040D0002591359145915591A6F3EF010E94A71EB8
:1040E000FE019701A801DA9469F7DF90EF90FF9045
:1040F0000F911F91CF91DF9108959F938F937F939D
:104100006F93FF93EF939B01AC010E942E29EF91D7
:10411000FF910E9456202F913F914F915F910C94F7
:104120002E290C94A1290E94CB29D8F3E894E0E031
:10413000BB279F57F0F02AED3FE049EC06C0EE0F99
:10414000BB0F661F771F881F28F0B23A62077307FC
:10415000840728F0B25A620B730B840BE3959A958F
:1041600072F7803830F49A95BB0F661F771F881F4F
:10417000D2F790480C943121EF93E0FF07C0A2EAF8
:104180002AED3FE049EC5FEB0E94A71E0E94B22996
:104190000F90039401FC9058E1EDF0E00C947D2029
:1041A0000E940A2908F48FEF08959B01AC0160E09A
:1041B00070E080E89FE30C948E1F9F930E949320F1
:1041C0000F9007FCEE5F0C94BC2019F416F40C94CD
:1041D000A1290C942F210E94CB29B8F39923C9F36C
:1041E000B6F39F57550B87FF0E943D210024A0E6A0
:1041F00040EA900180585695979528F4805C660FA8
:10420000771F881F20F026173707480730F4621BF6
:10421000730B840B202931294A2BA69517940794F8
:10422000202531254A2758F7660F771F881F20F071
:1042300026173707480730F4620B730B840B200DE9
:10424000311D411DA09581F7B901842F9158880F28
:104250009695879508959B01AC010C942E299F3F5C
:1042600031F0915020F4879577956795B795880F31
:10427000911D9695879597F9089591505040660F36
:10428000771F881FD2F70895CF93DF93823091056F
:1042900010F482E090E0E091A606F091A70620E0FD
:1042A00030E0C0E0D0E0309711F1408151814817F3
:1042B0005907C0F04817590761F48281938120970C
:1042C00019F09B838A832BC09093A7068093A60640
:1042D00026C02115310519F04217530718F49A0129
:1042E000BE01DF01EF010280F381E02DDCCF21155B
:1042F000310509F1281B390B2430310590F4129651
:104300008D919C9113976115710521F0FB019383A9
:10431000828304C09093A7068093A606FD0132967F
:1043200044C0FD01E20FF31F8193919322503109A4
:104330002D933C933AC02091A4063091A506232BDF
:1043400041F420910701309108013093A506209394
:10435000A40620910501309106012115310541F493
:104360002DB73EB74091090150910A01241B350B2E
:10437000E091A406F091A506E217F307A0F42E1B26
:104380003F0B2817390778F0AC014E5F5F4F2417B9
:10439000350748F04E0F5F1F5093A5064093A406C3
:1043A0008193919302C0E0E0F0E0CF01DF91CF91E3
:1043B00008950F931F93CF93DF93009709F48CC058
:1043C000FC013297138212820091A6061091A70673
:1043D0000115110581F420813181820F931F2091F5
:1043E000A4063091A5062817390779F5F093A5069C
:1043F000E093A40671C0D80140E050E0AE17BF07BB
:1044000050F412962D913C911397AD012115310571
:1044100009F1D901F3CF9D01DA0133832283608151
:104420007181860F971F8217930769F4EC01288129
:104430003981260F371F2E5F3F4F318320838A81BA
:104440009B8193838283452B29F4F093A706E09305
:10445000A60642C01396FC93EE931297ED01499184
:1044600059919E01240F351FE217F30771F48081E3
:104470009181840F951F029611969C938E93828151
:10448000938113969C938E931297E0E0F0E0D8010D
:1044900012968D919C911397009719F0F8018C0159
:1044A000F6CF8D919C9198012E5F3F4F820F931F05
:1044B0002091A4063091A5062817390769F4309792
:1044C00029F41092A7061092A60602C01382128247
:1044D0001093A5060093A406DF91CF911F910F9131
:1044E0000895A0E0B0E0E7E7F2E20C942D2AEC0199
:1044F000009721F4CB010E944421B8C0FC01E60FD3
:10450000F71F9C0122503109E217F30708F4ACC0F1
:10451000D9010D911C91119706171707B0F00530BE
:10452000110508F49FC0C80104978617970708F47F
:1045300099C002501109061B170B019311936D933B
:104540007C93CF010E94D9218DC05B01A01AB10AD2
:104550004C01800E911EA091A606B091A70640E0E6
:1045600050E0E12CF12C109709F44AC0A815B905C8
:10457000D1F56D907C901197630182E0C80ED11C3B
:10458000CA14DB0480F1A3014A195B096A0182E0C5
:10459000C80ED11C1296BC9012971396AC91B5E040
:1045A000CB16D10440F0B282A38351834083D9015A
:1045B0006D937C930AC00E5F1F4FC301800F911F44
:1045C000F90191838083EB2DFA2FE114F10431F08E
:1045D000D7011396FC93EE93129744C0F093A7066D
:1045E000E093A6063FC08D919C91119748175907FB
:1045F00008F4AC017D0112960D90BC91A02DB3CFB3
:104600008091A4069091A50688159905E1F44617B6
:104610005707C8F48091050190910601009741F475
:104620008DB79EB74091090150910A01841B950BEB
:10463000E817F907C8F4F093A506E093A406F9017A
:10464000718360830FC0CB010E9444217C010097DD
:1046500059F0A801BE010E944D23CE010E94D9212C
:10466000C70104C0CE0102C080E090E0CDB7DEB744
:10467000EEE00C94492A81E090E0F8940C946F2AC3
:10468000FB01DC0104C08D910190801921F441509F
:104690005040C8F7881B990B0895FB01DC0102C04C
:1046A00001900D9241505040D8F70895FC0181913E
:1046B000861721F08823D9F7992708953197CF01DC
:1046C0000895FB01DC0101900D920020E1F70895AF
:1046D000FB01DC014150504048F001900D92002058
:1046E000C9F701C01D9241505040E0F70895FB0109
:1046F00051915523A9F0BF01DC014D91451741119E
:10470000E1F759F4CD010190002049F04D91401599
:104710004111C9F3FB014111EFCF81E090E0019716
:104720000895AEE0B0E0E7E9F3E20C94372A0D8992
:104730001E8986E08C831A8309838FEF9FE79E830F
:104740008D83AE01475E5F4F6F89788DCE010196F4
:104750000E94B4232F813885F801E20FF31F1082E5
:104760002E96E4E00C94532AACE0B0E0EAEBF3E2DE
:104770000C94292A7C016B018A01FC0117821682A4
:10478000838181FFBDC1CE0101964C01F701938168
:10479000F60193FD859193FF81916F01882309F4C0
:1047A000ABC1853239F493FD859193FF81916F01FF
:1047B000853229F4B70190E00E949C25E7CF512C67
:1047C000312C20E02032A0F48B3269F030F48032BA
:1047D00059F0833269F420612CC08D3239F0803376
:1047E00039F4216026C02260246023C0286021C0E3
:1047F00027FD27C030ED380F3A3078F426FF06C089
:10480000FAE05F9E300D1124532E13C08AE0389ECB
:10481000300D1124332E20620CC08E3221F426FD7F
:104820006BC1206406C08C3611F4206802C0883643
:1048300041F4F60193FD859193FF81916F01811100
:10484000C1CF982F9F7D9554933028F40C5F1F4F54
:10485000FFE3F9830DC0833631F0833771F0833580
:1048600009F05BC022C0F801808189830E5F1F4F71
:1048700044244394512C540115C03801F2E06F0ECA
:10488000711CF801A080B18026FF03C0652D70E087
:1048900002C06FEF7FEFC5012C870E9491252C018C
:1048A00083012C852F77222E17C03801F2E06F0E7E
:1048B000711CF801A080B18026FF03C0652D70E057
:1048C00002C06FEF7FEFC5012C870E9486252C0167
:1048D0002C852068222E830123FC1BC0832D90E0B1
:1048E00048165906B0F4B70180E290E00E949C257A
:1048F0003A94F4CFF50127FC859127FE81915F0161
:10490000B70190E00E949C2531103A94F1E04F1AD3
:1049100051084114510471F7E5C0843611F089360D
:1049200039F5F80127FF07C0608171818281938189
:104930000C5F1F4F08C060817181072E000C880B2F
:10494000990B0E5F1F4F2F76722E97FF09C090951F
:104950008095709561957F4F8F4F9F4F2068722E85
:104960002AE030E0A4010E94D425A82EA81844C053
:10497000853729F42F7EB22E2AE030E025C0F22FB1
:10498000F97FBF2E8F36C1F018F4883579F0B4C0A6
:10499000803719F0883721F0AFC02F2F2061B22E59
:1049A000B4FE0DC08B2D8460B82E09C024FF0AC050
:1049B0009F2F9660B92E06C028E030E005C020E1A8
:1049C00030E002C020E132E0F801B7FE07C06081AC
:1049D0007181828193810C5F1F4F06C0608171815C
:1049E00080E090E00E5F1F4FA4010E94D425A82E06
:1049F000A818FB2DFF777F2E76FE0BC0372D3E7F4C
:104A0000A51450F474FE0AC072FC08C0372D3E7E17
:104A100005C0BA2C372D03C0BA2C01C0B52C34FF09
:104A20000DC0FE01EA0DF11D8081803311F4397E45
:104A300009C032FF06C0B394B39404C0832F8678B4
:104A400009F0B39433FD13C030FF06C05A2CB314E1
:104A500018F4530C5B18B32CB31468F4B70180E25C
:104A600090E03C870E949C25B3943C85F5CFB3141D
:104A700010F43B1801C0312C34FF12C0B70180E3A1
:104A800090E03C870E949C253C8532FF17C031FD99
:104A900003C088E790E002C088E590E0B7010CC051
:104AA000832F867859F031FF02C08BE201C080E28B
:104AB00037FD8DE2B70190E00E949C25A51438F4E3
:104AC000B70180E390E00E949C255A94F7CFAA9406
:104AD000F401EA0DF11D8081B70190E00E949C2550
:104AE000A110F5CF332009F451CEB70180E290E058
:104AF0000E949C253A94F6CFF7018681978102C0E7
:104B00008FEF9FEF2C96E2E10C94452AFC01059073
:104B1000615070400110D8F7809590958E0F9F1FBF
:104B20000895FC016150704001900110D8F7809504
:104B300090958E0F9F1F08950F931F93CF93DF9330
:104B4000FB01238121FD03C08FEF9FEF28C022FFCF
:104B500016C046815781248135814217530744F49A
:104B6000A081B1819D012F5F3F4F318320838C93C2
:104B7000268137812F5F3F4F3783268310C0EB019B
:104B8000092F182F0084F185E02D0995892BE1F676
:104B90008E819F8101969F838E83812F902FDF913D
:104BA000CF911F910F910895FA01AA27283051F152
:104BB000203181F1E8946F936E7F6E5F7F4F8F4F4E
:104BC0009F4FAF4FB1E03ED0B4E03CD0670F781FAD
:104BD000891F9A1FA11D680F791F8A1F911DA11D92
:104BE0006A0F711D811D911DA11D20D009F46894CB
:104BF0003F912AE0269F11243019305D3193DEF673
:104C0000CF010895462F4770405D4193B3E00FD028
:104C1000C9F7F6CF462F4F70405D4A3318F0495D13
:104C200031FD4052419302D0A9F7EACFB4E0A695F6
:104C30009795879577956795BA95C9F70097610518
:104C4000710508959B01AC010A2E0694579547956E
:104C500037952795BA95C9F7620F731F841F951F63
:104C6000A01D0895A0E0B0E0E8E3F6E20C94292A44
:104C70005C016B017A016115710519F0FB019183EB
:104C80008083E114F10429F0C7010297839708F0AB
:104C9000F1C0E5012196F5011081812F90E00E947D
:104CA0004727892B11F05E01F4CF1D3229F421969C
:104CB000F501118101E007C01B3221F4E5012296C4
:104CC000F501118100E0E114F10459F1F0E1EF1672
:104CD000F10461F41033E1F488818F7D883569F542
:104CE00019812296026070E1E72EF12C88E0E81627
:104CF000F10439F12CF4F2E0EF16F104C9F12AC005
:104D00008AE0E816F10479F0E0E1EE16F10411F51D
:104D100050E1E52EF12C812C912CA12C68E0B62ECF
:104D20002CC01033C9F23AE0E32EF12C4CEC842E67
:104D3000982CA82C4CE0B42E20C010E3E114F10410
:104D4000A9F698E0E92EF12C812C912CA12C20E1E0
:104D5000B22E13C060E070E080E090E897010F2C65
:104D6000000C440B550B0E94FC2949015A0105C057
:104D7000812C912CA12C80E4B82E60E020E030E062
:104D8000A90127010F2C000C660877081E01E0ED31
:104D9000E10FEA3060F08FEB810F8A3110F4E9EC1B
:104DA00005C08FE9810F8A3128F5E9EAE10F8E2FDE
:104DB00090E08E159F05F4F467FD18C082169306E7
:104DC000A406B50690F0C301B2010E94EC299B0134
:104DD000AC012E0F311D411D511D21303105410502
:104DE000F0E85F0710F461E001C06FEF2196F10178
:104DF0001081CCCF802F8170C114D10471F0662353
:104E000029F02197F601D183C08307C001FF19C0A3
:104E10002297F601D183C08314C067FF12C08111AD
:104E200005C02FEF3FEF4FEF5FE704C020E030E019
:104E300040E050E882E290E09093A9068093A806B3
:104E400016C0882341F050954095309521953F4FED
:104E50004F4F5F4F0CC057FF0AC082E290E0909323
:104E6000A9068093A8062FEF3FEF4FEF5FE7B90148
:104E7000CA0104C060E070E080E090E0CDB7DEB72A
:104E8000E2E10C94452A662777270C94502791116C
:104E90000C94AD28803219F089508550C8F70895D8
:104EA000A0E0B0E0E6E5F7E20C942D2AEC017B01EE
:104EB0006115710519F0DB018D939C938E010F5FD5
:104EC0001F4F7880872D90E00E944727892B11F093
:104ED000E801F4CFBDE27B1205C00F5F1F4F798060
:104EE000C1E008C0EBE27E1204C08E010E5F1F4FCE
:104EF0007980C0E06801F1E0CF1AD10843E050E0CA
:104F000062E671E0C6010E94B028892BF1F46801C5
:104F100022E0C20ED11C45E050E06DE571E0C60113
:104F20000E94B028892B21F4680187E0C80ED11CAB
:104F3000E114F10419F0D701CD92DC92C111FFC048
:104F400060E070E080E89FE703C143E050E06AE57D
:104F500071E0C6010E94B028892B51F4E114F104DC
:104F600009F4F2C00E5F1F4FF70111830083ECC0FC
:104F7000680160E070E0CB0100E010E0F601D0EDE8
:104F8000D70DDA3058F52C2F2260622E2C2F287086
:104F9000C2FF05C0211128C00F5F1F4F25C022236B
:104FA00011F001501109A5E0B0E09B01AC010E9495
:104FB0001E2A4B015C01880C991CAA1CBB1CC50154
:104FC000B4016D0F711D811D911D6839A9E97A0722
:104FD0008A07A9E19A0740F0C66005C0DE3F51F498
:104FE000C3FD44C0C8606C2EBFEFCB1ADB0A7080D3
:104FF000C62DC4CF2D2F2F7D2531C1F540814D32D7
:1050000011F4C06106C04B3221F0319621E030E04E
:1050100006C03296D60111964C9122E030E0A0ED08
:10502000A40FAA3018F0E21BF30B20C040E050E0C0
:105030004038BCE05B075CF49A01220F331F220F5B
:10504000331F420F531F440F551F4A0F511D3196F6
:10505000DF0111972C91A0EDA20FAA3048F3C4FFF5
:1050600003C0519541955109040F151FC1FF07C099
:10507000E114F10421F03197D701ED93FC930E94E4
:10508000CD28C370C33019F06B017C0106C06B01E1
:105090007C01F7FAF094F7F8F09420E030E0A901F1
:1050A000C701B6010E94C828882309F445C017FF2C
:1050B00006C0119501951109C9E7D1E002C0C1E907
:1050C000D1E05E01B8E1AB1AB1084601BE2DAF2DAB
:1050D00090E2E92EF12C0E151F0584F0FE012591BA
:1050E000359145915491B4018B2F9A2F0E942E290E
:1050F0004B01B82FA92F0E191F09EDCF2497F59456
:10510000E794CA15DB0539F76401EB2EFA2E8E2DD4
:10511000880F8F2D881F8F3F49F020E030E0A901D4
:10512000C701B6010E94C828811106C082E290E042
:105130009093A9068093A806C701B60109C060E054
:1051400070E080E89FEF04C060E070E080EC9FE7D3
:10515000CDB7DEB7EEE00C94492A99278827089549
:10516000FB01DC014150504088F08D9181341CF0EE
:105170008B350CF4805E659161341CF06B350CF45A
:10518000605E861B611171F3990B0895881BFCCF3B
:105190000E940A2908F481E00895E89409C097FB69
:1051A0003EF490958095709561957F4F8F4F9F4FFE
:1051B0009923A9F0F92F96E9BB279395F695879542
:1051C00077956795B795F111F8CFFAF4BB0F11F405
:1051D00060FF1BC06F5F7F4F8F4F9F4F16C08823AC
:1051E00011F096E911C0772321F09EE8872F762FE2
:1051F00005C0662371F096E8862F70E060E02AF023
:105200009A95660F771F881FDAF7880F969587950E
:1052100097F90895990F0008550FAA0BE0E8FEEFE3
:1052200016161706E807F907C0F012161306E4076A
:10523000F50798F0621B730B840B950B39F40A2663
:1052400061F0232B242B252B21F408950A2609F441
:10525000A140A6958FEF811D811D08950E944129CF
:105260000C94B2290E94A42938F00E94AB2920F0A6
:10527000952311F00C949B290C94A12911240C94D2
:10528000E6290E94C32970F3959FC1F3950F50E062
:10529000551F629FF001729FBB27F00DB11D639FE8
:1052A000AA27F00DB11DAA1F649F6627B00DA11D8E
:1052B000661F829F2227B00DA11D621F739FB00D34
:1052C000A11D621F839FA00D611D221F749F3327A4
:1052D000A00D611D231F849F600D211D822F762F3D
:1052E0006A2F11249F5750409AF0F1F088234AF01A
:1052F000EE0FFF1FBB1F661F771F881F9150504086
:10530000A9F79E3F510580F00C949B290C94E62947
:105310005F3FE4F3983ED4F3869577956795B7950C
:10532000F795E7959F5FC1F7FE2B880F911D969526
:10533000879597F9089597F99F6780E870E060E096
:1053400008959FEF80EC089500240A94161617061E
:1053500018060906089500240A9412161306140666
:1053600005060895092E0394000C11F4882352F0C9
:10537000BB0F40F4BF2B11F460FF04C06F5F7F4F81
:105380008F4F9F4F089557FD9058440F551F59F068
:105390005F3F71F04795880F97FB991F61F09F3F22
:1053A00079F087950895121613061406551FF2CF4B
:1053B0004695F1DF08C0161617061806991FF1CF9B
:1053C00086957105610508940895E894BB276627C2
:1053D0007727CB0197F90895DB018F939F930E9464
:1053E0001E2ABF91AF91A29F800D911DA39F900D8A
:1053F000B29F900D11240895A1E21A2EAA1BBB1B87
:10540000FD010DC0AA1FBB1FEE1FFF1FA217B30790
:10541000E407F50720F0A21BB30BE40BF50B661FA6
:10542000771F881F991F1A9469F76095709580956A
:1054300090959B01AC01BD01CF0108950E94602AA7
:10544000A59F900DB49F900DA49F800D911D1124D8
:1054500008952F923F924F925F926F927F928F9218
:105460009F92AF92BF92CF92DF92EF92FF920F93F3
:105470001F93CF93DF93CDB7DEB7CA1BDB0B0FB6FD
:10548000F894DEBF0FBECDBF09942A8839884888BA
:105490005F846E847D848C849B84AA84B984C88450
:1054A000DF80EE80FD800C811B81AA81B981CE0F47
:1054B000D11D0FB6F894DEBF0FBECDBFED0108952C
:1054C000A29FB001B39FC001A39F700D811D112445
:1054D000911DB29F700D811D1124911D089510E042
:1054E000CCECD0E004C0FE010E94891E2196CD3C88
:0854F000D107C9F7F894FFCFC2
:1054F80001FFFFFFFF0000AA068000000000000077
:105508000000000000000000010002000A00120074
:105518001100100008000000040005000600070044
:1055280000000000450AA8100E0AEC09000A8C0ABF
:10553800000000009710A810000000001801E40205
:10554800F70037084108D401000000004701A810FF
:105558009B01B3012E01460100000000B80AA81003
:10556800B80AB80AB80AB80A00000000B80AA810B1
:105578005B494E464F5D20496E697469616C697A72
:10558800696E6720534420436172642E202E202EBA
:1055980000534420636172642069732068797065E0
:1055A8007220626A6F726B65642E004D7946696C71
:1055B8006525692E747874002F00486F6C79207304
:1055C800686974736E61636B73204261746D616E98
:1055D8002C2074686973207468696E672066756327
:1055E8006B656420757020616761696E21002450C5
:1055F8004D544B3232302C313030302A3146002471
:10560800504D544B3330302C313030302C302C301E
:105618002C302C302A31430024504D544B33313434
:105628002C302C312C302C302C302C302C302C3091
:105638002C302C302C302C302C302C302C302C3082
:105648002C302C302C302A3239002C000D0A000066
:00000001FF
