:100000000C9466000C948E000C948E000C948E0060
:100010000C948E000C948E000C948E000C948E0028
:100020000C948E000C948E000C948E000C948E0018
:100030000C948E000C948E000C948E000C948E0008
:100040000C94C40A0C948E000C94D9090C94B30936
:100050000C948E000C948E000C948E000C948E00E8
:100060000C948E000C948E000000000024002700E9
:100070002A007C3C3E5E2B3D3F2F5B5D3B2C2A22C1
:100080005C000000000800020100000304070000FB
:10009000000000000000010204081020408001025E
:1000A00004081020010204081020000000002500B0
:1000B00028002B00040404040404040402020202C5
:1000C0000202030303030303AB189B1811241FBE92
:1000D000CFEFD8E0DEBFCDBF12E0A0E0B1E0EAE1B3
:1000E000FEE302C005900D92A034B107D9F726E0D7
:1000F000A0E4B2E001C01D92A631B207E1F710E022
:10010000C5E6D0E004C02197FE010E948D19C436D7
:10011000D107C9F70E9429110C94001F0C9400000C
:10012000DC015996ED91FC915A973097B9F083898B
:100130009489A589B6894285538564857585841B14
:10014000950BA60BB70B811520E89207A105B10509
:1001500038F08FEF9FE7A0E0B0E0089580E090E0F6
:100160000895CF93DF931F92CDB7DEB76983DC018B
:10017000ED91FC910280F381E02D41E050E0BE0161
:100180006F5F7F4F09950F90DF91CF910895FC012C
:10019000818D928D009711F00C941F0D0895CF93CF
:1001A000DF93EC01898D9A8D009739F481E090E01E
:1001B0009B838A8380E090E00BC0FC011382128253
:1001C0000E945D0DE98DFA8D22813381232B71F719
:1001D000DF91CF9108958F929F92AF92BF92CF926D
:1001E000DF92EF92FF920F931F93CF93DF93EC0177
:1001F0008D81811102C080E077C00B891C892D8917
:100200003E890417150726073707A8F36A017B0103
:10021000823029F4CA86DB86EC86FD860DC0C114C7
:10022000D104E104F10451F41E821F82188619865C
:100230001A861B861C861D8681E056C08A849B8494
:10024000AC84BD84EB8DFC8D258530E0275F3F4F6E
:10025000B501A4014150510961097109022E04C080
:1002600076956795579547950A94D2F7D701C601B9
:100270000197A109B10904C0B695A79597958795EF
:100280002A95D2F784179507A607B70720F0892883
:100290008A288B2849F44F89588D698D7A8D4E8331
:1002A0005F836887798704C0841B950BA60BB70B07
:1002B0004C015D018E010A5F1F4F81149104A1045E
:1002C000B10409F4A7CF4E815F81688579859801D3
:1002D0008B8D9C8D0E94320C91E0891A9108A108A7
:1002E000B1088111EACF87CFDF91CF911F910F9194
:1002F000FF90EF90DF90CF90BF90AF909F908F9046
:1003000008958F929F92AF92BF92CF92DF92EF9219
:10031000FF920F931F93CF93DF9300D000D0CDB700
:10032000DEB77C0180E2689F6001112496012850AD
:100330003D4FD9011B969C91917121F0842F8274BD
:1003400009F097C0142FF701628B80910101909101
:100350000201A0910301B091040186879787A08BC9
:10036000B18BF601E850FD4F4489558960E070E09B
:10037000BA0155274427D70157964D935D936D9346
:100380007C935A97828D938DA0E0B0E0482B592B37
:100390006A2B7B2BD70157964D935D936D937C937E
:1003A0005A97D9011B968C91887159F4848D958D3B
:1003B000A68DB78DF701838B948BA58BB68B81E0CF
:1003C00012C0803109F055C097012D5E3F4FD70113
:1003D0005B968D919C915C970E94B60C882309F4E2
:1003E00048C084E0F7018583812F8F70D701149670
:1003F0008C931497F70116821782108611861A962D
:100400001D921D921D921C921D9716FF34C01596C9
:100410008C91813071F511FF2CC0F701438954890B
:1004200065897689452B462B472B09F461C040E04E
:1004300050E0BA01C7010E94EB008823D1F0F70118
:100440008788908CA18CB28CC38CD48C82E090E095
:10045000A0E0B0E0F60180839183A283B3839E0184
:100460002F5F3F4FB501A401C6010E94320C8111DC
:1004700004C080E03DC081E03BC000E010E0980196
:10048000B501A401C6010E94920B882391F38980D3
:100490009A80AB80BC80D60157968C91803129F030
:1004A00088EF9FEFAFEFBFE004C088EF9FEFA0E0C1
:1004B000B0E088169906AA06BB0688F2D7015796BF
:1004C0001D921D921D921C925A97F701138A148A4D
:1004D000158A168A848180688483C7010E941F0D53
:1004E000882339F240E050E0BA01C7010E94EB00D6
:1004F0000F900F900F900F90DF91CF911F910F9160
:10050000FF90EF90DF90CF90BF90AF909F908F9033
:100510000895CF93DF93EC010E941F0D882311F003
:100520001D8281E0DF91CF9108953F924F925F92BB
:100530006F927F928F929F92AF92BF92CF92DF92F3
:10054000EF92FF920F931F93CF93DF93CDB7DEB758
:100550002C970FB6F894DEBF0FBECDBF5C01DC0157
:100560005B968D909C905C971696CD90DD90ED906B
:10057000FC901997C114D104E104F10439F0BFEFE4
:10058000CB1ADB0AEB0AFB0A312C07C0F401C0804E
:10059000D180E280F38033243394F4018185928505
:1005A000A385B4859C01AD012F5F3F4F4F4F5F4F37
:1005B00029873A874B875C87260137011D821E8277
:1005C0001F821886F40181859285A385B4852D81CB
:1005D0003E814F815885281739074A075B0708F085
:1005E00063C089859A85AB85BC858C159D05AE0554
:1005F000BF0550F482E0C82ED12CE12CF12C92E002
:10060000492E512C612C712C9E012F5F3F4FB70159
:10061000A601C4010E94320C882309F445C08981D7
:100620009A81AB81BC81892B8A2B8B2B41F02601CF
:1006300037019FEF491A590A690A790A05C0C4149B
:10064000D504E604F70491F02D813E814F81588551
:100650002F5F3F4F4F4F5F4F2D833E834F83588710
:100660003FEFC31AD30AE30AF30AACCF0FEF1FEF31
:100670002FEF3FE0B301A201C4010E94920B882337
:1006800099F0D50116964D915D916D917C911997D8
:10069000411551056105710549F093018201C401BD
:1006A0000E94920B811102C080E02AC0D5011696EB
:1006B0004D925D926D927C921997332051F0D30147
:1006C000C2010196A11DB11DF40180839183A28313
:1006D000B383F5018789908DA18DB28D892B8A2BEB
:1006E0008B2B69F4D50157964D925D926D927C9259
:1006F0005A9714968C911497806814968C9381E085
:100700002C960FB6F894DEBF0FBECDBFDF91CF9110
:100710001F910F91FF90EF90DF90CF90BF90AF901F
:100720009F908F907F906F905F904F903F90089533
:100730008FB7F8948091E9028FBF089561E0FC01C2
:1007400084810E940B0A8091E80281111092E802D4
:1007500008958EBD00000DB407FEFDCF8EB508953F
:100760008FEF0C94A9030F931F93CF93DF93EB01AB
:100770000E94B80A8B010E94B0038F3F49F00E948B
:10078000B80A601B710B6C177D07A8F380E001C0ED
:1007900081E0DF91CF911F910F910895CF93DF9367
:1007A000EC018E81882389F08F8198859C012F5FD1
:1007B0003F4F38872F838230924018F40E94B00355
:1007C000F3CFCE010E949E031E82DF91CF91089548
:1007D0008CBD9DBD0895CF93DF93EC018091E8021D
:1007E000811109C081E08093E80280919705909182
:1007F00098050E94E80360E08C81DF91CF910C9412
:100800000B0ACF92DF92FF920F931F93CF93DF9348
:1008100000D000D0CDB7DEB76C01F62E29833A8325
:100820004B835C830E94CE03C6010E94EB036CE203
:1008300071E0C6010E94B3038F2D80640E94A9035A
:1008400008E110E05C814B813A812981DA01C9011C
:10085000002E04C0B695A795979587950A94D2F770
:1008600029833A834B835C830E94A90308501109B2
:1008700029813A814B815C81083F8FEF180731F75E
:10088000FF2029F0E8E0FE1204C087E803C085E9F4
:1008900001C08FEF0E94A90310E00E94B003F6018F
:1008A000828787FF04C01F3F11F01F5FF6CF0F90B4
:1008B0000F900F900F90DF91CF911F910F91FF90AC
:1008C000DF90CF900895AF92BF92CF92DF92EF92D8
:1008D000FF920F931F93CF93DF93EC016901C8013F
:1008E000820F931F8130924008F070C08E81882360
:1008F00071F088819981AA81BB81481759076A07DD
:100900007B0729F48F819885C816D906B0F54883EE
:1009100059836A837B838B85833039F089E0440F68
:10092000551F661F771F8A95D1F79A01AB0161E1C8
:10093000CE010E940104882319F083E08D8346C014
:100940000E94B80A5B010E94B0038A878F3F49F476
:100950000E94B80A6A197B096D327140A0F38FE0DA
:1009600003C08E3F31F08DE08D83CE010E949E0347
:100970002DC018861F8281E08E838F8198858C150B
:100980009D0540F40E94B0038F8198850196988759
:100990008F83F3CF6701E00EF11ECE14DF0431F038
:1009A0000E94B003F60181936F01F7CF8F81988584
:1009B000080F191F18870F838985882319F00115DF
:1009C000124048F0CE010E94CE0305C0CE010E9425
:1009D0009E0380E001C081E0DF91CF911F910F91D4
:1009E000FF90EF90DF90CF90BF90AF9008952F923F
:1009F0003F924F925F926F927F928F929F92AF92AF
:100A0000BF92CF92DF92EF92FF920F931F93CF93FB
:100A1000DF9300D0CDB7DEB7FC018581882309F4D0
:100A2000D9C0848180FFD6C021E02A8343895489BC
:100A30006589768982859385A485B5854817590788
:100A40006A077B0709F41A826F013A81832F90E0CD
:100A5000DE0111964D013F01B6E06B0E711C892B32
:100A600009F47DC0D6011A964D915D916D917C91EE
:100A70001D975A01B1E0BB22F60125811A012B0115
:100A800089E056944794379427948A95D1F7838DBB
:100A9000948D223061F4FC01828D938DA48DB58DEF
:100AA000BC01CD01620D731D841D951D45C0DC0187
:100AB00014961C9111501221A114B104D1F41111FA
:100AC00018C0452B462B472B51F4F6018789908D92
:100AD000A18DB28D86839783A087B1870AC0468196
:100AE00057816085718593010E94320C882309F437
:100AF00071C0F601238D348D86819781A085B185E3
:100B00000297A109B109AC01BD01F901058404C036
:100B1000440F551F661F771F0A94D2F78685978565
:100B2000A089B189840F951FA61FB71FBC01CD01F5
:100B3000610F711D811D911DD60114962C9126FF08
:100B400014C0009101011091020120910301309124
:100B50000401601771078207930751F506C0FA81F7
:100B6000FF23C1F1898190E037C040E00E94490B2A
:100B7000882381F1F501E850FD4FD401CF010196A2
:100B8000E817F90719F021912D93FACFEFEF8E1A9C
:100B90009E0AF60182859385A485B5850196A11DDF
:100BA000B11D82879387A487B58780E090E057CFF7
:100BB000740101E010E09501AB01BC018091F804E3
:100BC0009091F9040E946304882321F0BFEF8B1AEF
:100BD0009B0ADFCF8FEF9FEF0F900F90DF91CF91A8
:100BE0001F910F91FF90EF90DF90CF90BF90AF904B
:100BF0009F908F907F906F905F904F903F902F903D
:100C000008954F925F926F927F929F92AF92BF92A0
:100C1000CF92DF92EF92FF920F931F93CF93DF93C8
:100C2000CDB7DEB72B970FB6F894DEBF0FBECDBFA2
:100C30007C01DC011596AC90A1108AC1FE013196B1
:100C40006F0190E28BE08E0F91938E13FDCFDA014E
:100C500030E087E09D91992339F19E3219F0E2E767
:100C6000F0E00AC08A3009F474C138E08AE0F2CFBB
:100C70003196491709F46DC144914111F9CF831799
:100C800008F467C14FED490F4E3508F062C141E0ED
:100C9000430FF601E30FF11D3FE9390F3A3108F434
:100CA00090529083342FD6CF8981803209F451C17C
:100CB000B22E8B01DB015B968D919C915C97F701C5
:100CC000948F838F16961D921D921D921C921997D8
:100CD000FB011286138614861586712CF801828515
:100CE0009385A485B5854389548965897689841758
:100CF0009507A607B70708F061C025E0B695A79548
:100D0000979587952A95D1F7F82FFF706F2ED80108
:100D100015968C91823008F41CC1C8010E94F7041A
:100D200097FD17C1F80182859385A485B5854F96F7
:100D3000A11DB11D82879387A487B587F0E26F9EBE
:100D4000C0011124BC0168507D4F6115710509F483
:100D500000C1DB012C91222319F0253EC1F427C0EC
:100D600071100EC0F701628A409101015091020199
:100D7000609103017091040146875787608B718BE6
:100D8000FC01E850FD4F8081811113C015C04BE07C
:100D900050E0C6010E94941B892B09F09FCF8B2D38
:100DA0008073803309F4D5C04B2D662DCCC07720DD
:100DB000C9F27724739492CF772473948B2D827128
:100DC000823109F0C6C07720D1F0D7011E966D910F
:100DD0007D918D919C91519741E00E94490B882310
:100DE00009F4B7C0F7016289F0E26F9FB0011124E6
:100DF00068507D4F6115710509F079C0AAC0D8010E
:100E000015968C91823009F4A4C0C8010E94950205
:100E1000882309F49EC0D8015B96ED91FC915C9704
:100E200016964D905D906D907C901997B2E04B1A9C
:100E3000510861087108058404C0440C551C661CE7
:100E4000771C0A94D2F786859785A089B189480EC8
:100E5000591E6A1E7B1E9480E1E04E1A51086108FB
:100E60007108992009F10E940E0B882309F471C0C2
:100E7000E8EFF2E0119224E0E83FF207D9F7D3015E
:100E8000C201890D911DA11DB11D80930101909397
:100E90000201A0930301B09304018091EA028160F2
:100EA0008093EA029A94DDCFD8015B96ED91FC9194
:100EB0005C9780E092E0A0E0B0E0058404C0880F79
:100EC000991FAA1FBB1F0A94D2F7F80143895489BE
:100ED00065897689840F951FA61FB71F838B948B16
:100EE000A58BB68BD70152961C9268EF72E080E218
:100EF000FB0111928A95E9F78BE0F601DB01019085
:100F00000D928A95E1F781E298E2DB0151969C937C
:100F10008E93509720E038E01F963C932E931E97B7
:100F200053969C938E93529759969C938E93589771
:100F300057963C932E9356970E940E0B882349F0A8
:100F40004B2DF7016289C7010E948101A82E01C0C3
:100F5000A12C8A2D2B960FB6F894DEBF0FBECDBF05
:100F6000DF91CF911F910F91FF90EF90DF90CF9085
:100F7000BF90AF909F907F906F905F904F9008953B
:100F8000FC01818D928D009711F00C94F7048FEF86
:100F90009FEF08950F931F93CF93DF93FC01818DF3
:100FA000928D0097B9F0EF010E94F7048C010F3F7A
:100FB0008FEF180791F0898D9A8DFC01428553853A
:100FC0006485758541505109610971090E94EB00E2
:100FD000C80105C080E090E002C08FEF9FEFDF9175
:100FE000CF911F910F910895EF92FF920F931F934E
:100FF000CF93DF93EC01790141155105610571052E
:1010000011F482E13CC08B85833039F089E0440FD4
:10101000551F661F771F8A95D1F79A01AB0168E1CA
:10102000CE010E940104882311F084E028C08EEFD5
:101030000E94A90387018EEFF81AF80181918F01B0
:101040000E94A9030E151F05C1F78FEF0E94A90387
:101050008FEF0E94A9030E94B0038A878F718530A9
:1010600031F081E18D83CE010E949E0309C068E5C5
:1010700072E0CE010E94B303811107C085E18D8328
:10108000CE010E949E0380E013C020E030E0A90161
:101090006DE0CE010E940104811104C00E94B003E2
:1010A000882311F084E1EBCFCE010E949E0381E002
:1010B000DF91CF911F910F91FF90EF900895FC0168
:1010C000DB0112968D919C9113979383828384E424
:1010D00091E09183808314968C9114978483159664
:1010E0008C911597858316964D915D916D917C91AC
:1010F000199746835783608771871A964D915D9142
:101100006D917C911D9742875387648775871E96E2
:101110004D915D916D917C91519746875787608B7A
:10112000718B52968C915297828B53964D915D9113
:101130006D917C915697438B548B658B768B57962C
:101140004D915D916D917C915A97478B508F618F36
:10115000728F5B968D919C915C97948F838F08958D
:10116000EF92FF920F931F93CF93DF93EC017B01DC
:101170008A011B821A8288EE93E0A0E0B0E08C83A3
:101180009D83AE83BF838CE491E0998388838DE156
:1011900090E00E9498199A8F898F009779F02DE13D
:1011A000F701DC0101900D922A95E1F74CE050E047
:1011B000B801CE010C960E94BC1B188EDF91CF9116
:1011C0001F910F91FF90EF900895FC01918D828DFA
:1011D000981761F0828DDF01A80FB11D5D968C918B
:1011E000928D9F5F9F73928F90E008958FEF9FEF96
:1011F0000895FC01918D828D981731F0828DE80F52
:10120000F11D858D90E008958FEF9FEF0895FC010B
:10121000918D228D892F90E0805C9F4F821B9109D8
:101220008F73992708958AEF94E00E94070921E0BF
:10123000892B09F420E0822F0895FC01848DDF01C1
:10124000A80FB11DA35ABF4F2C91848D90E0019639
:101250008F739927848FA689B7892C93A089B18928
:101260008C9180648C93938D848D981306C0028832
:10127000F389E02D80818F7D80830895EF92FF9226
:101280000F931F93CF93DF93EC0181E0888F9B8DA9
:101290008C8D981305C0E889F989808185FD24C06B
:1012A000F62E0B8D10E00F5F1F4F0F731127E02EEE
:1012B0008C8DE8120CC00FB607FCFACFE889F989CB
:1012C000808185FFF5CFCE010E941D09F1CF8B8D66
:1012D000FE01E80FF11DE35AFF4FF0820B8FEA8900
:1012E000FB898081806207C0EE89FF896083E8897D
:1012F000F98980818064808381E090E0DF91CF91E3
:101300001F910F91FF90EF900895CF93DF93EC0121
:10131000888D8823C9F0EA89FB89808185FD05C015
:10132000A889B9898C9186FD0FC00FB607FCF5CF4F
:10133000808185FFF2CFA889B9898C9185FFEDCF97
:10134000CE010E941D09E7CFDF91CF91089580E083
:1013500090E0892B29F00E94130981110C94000060
:1013600008950E948F1B1F920F920FB60F921124A7
:101370002F933F934F935F936F937F938F939F939D
:10138000AF93BF93EF93FF938AEF94E00E941D0900
:10139000FF91EF91BF91AF919F918F917F916F914D
:1013A0005F914F913F912F910F900FBE0F901F9023
:1013B00018951F920F920FB60F9211242F938F93AF
:1013C0009F93EF93FF93E0910A05F0910B058081C5
:1013D000E0911005F091110582FD12C0908180917D
:1013E00013058F5F8F7320911405821751F0E091E0
:1013F0001305F0E0E650FB4F958F8093130501C075
:101400008081FF91EF919F918F912F910F900FBE4F
:101410000F901F90189590E0FC01EE57FF4F34910C
:10142000FC01EA56FF4F2491FC01EC54FF4FE4917C
:10143000EE2309F43BC0332339F1333091F038F413
:101440003130A9F0323001F584B58F7D12C03730CC
:1014500091F03830A1F03430B9F4809180008F7D64
:1014600003C0809180008F77809380000DC084B589
:101470008F7784BD09C08091B0008F7703C08091C1
:10148000B0008F7D8093B000F0E0EE0FFF1FE655B7
:10149000FF4FA591B4918FB7F894EC91611103C0FF
:1014A00020952E2301C02E2B2C938FBF0895CF9310
:1014B000DF9390E0FC01EA56FF4F2491FC01EC54CD
:1014C000FF4F8491882361F190E0880F991FFC0100
:1014D000E859FF4FC591D491FC01E655FF4FA59106
:1014E000B491611109C09FB7F89488812095822337
:1014F0008883EC912E230BC0623061F49FB7F8947F
:101500003881822F809583238883EC912E2B2C9316
:101510009FBF06C08FB7F894E8812E2B28838FBF1A
:10152000DF91CF9108953FB7F8948091F4029091A4
:10153000F502A091F602B091F70226B5A89B05C06E
:101540002F3F19F00196A11DB11D3FBFBA2FA92F42
:10155000982F8827820F911DA11DB11DBC01CD01BF
:1015600042E0660F771F881F991F4A95D1F70895AB
:101570002FB7F8946091F0027091F1028091F2021D
:101580009091F3022FBF08951F920F920FB60F9202
:1015900011242F933F938F939F93AF93BF93809189
:1015A000F0029091F102A091F202B091F302309119
:1015B000EF0223E0230F2D3720F40196A11DB11D6A
:1015C00005C026E8230F0296A11DB11D2093EF024E
:1015D0008093F0029093F102A093F202B093F30291
:1015E0008091F4029091F502A091F602B091F70279
:1015F0000196A11DB11D8093F4029093F502A09372
:10160000F602B093F702BF91AF919F918F913F91F6
:101610002F910F900FBE0F901F9018958091EA02A6
:101620008823A9F1409101015091020160910301C9
:101630007091040128EF32E08091F8049091F90450
:101640000E94F407811102C080E008954091EB02EE
:101650005091EC026091ED027091EE02411551053E
:101660006105710591F028EF32E08091F8049091C6
:10167000F9040E94F407882339F31092EB021092C8
:10168000EC021092ED021092EE021092EA0281E05A
:1016900008958F929F92AF92BF92EF92FF920F9315
:1016A0001F93CF934B015C01C42F80910101909156
:1016B0000201A0910301B091040188159905AA05C2
:1016C000BB0501F10E940E0B811102C080E020C019
:1016D00088EFE82E82E0F82E00E012E020E030E013
:1016E000B501A4018091F8049091F9040E9463046B
:1016F000882361F38092010190920201A09203017C
:10170000B09204018091EA02C82BC093EA0281E002
:10171000CF911F910F91FF90EF90BF90AF909F904E
:101720008F9008954F925F926F927F928F929F92C7
:10173000AF92BF92CF92DF92EF92FF920F931F93DF
:10174000CF93DF93EC016A017B012801390142301C
:1017500051056105710510F480E073C089859A8593
:10176000AB85BC850196A11DB11D84179507A60701
:10177000B70790F38B889C88AD88BE888F898031AD
:1017800029F4BB27AF2D9E2D8D2D09C0DB01CA0189
:1017900047E0B695A795979587954A95D1F7880E16
:1017A000991EAA1EBB1E8091010190910201A09179
:1017B0000301B091040188169906AA06BB0679F4C4
:1017C0008F898031A1F4DD24EE24FF24C601880F27
:1017D000991FFC01E850FD4F5182408219C040E042
:1017E000C501B4010E94490B8111EACFB5CFE8943D
:1017F000C7F8DD24EE24FF24C601880F991F880F47
:10180000991FFC01E850FD4F408251826282738231
:101810008091EA0281608093EA028A89823080F0B6
:101820008D819E81AF81B885880E991EAA1EBB1E30
:101830008092EB029092EC02A092ED02B092EE0246
:1018400081E0DF91CF911F910F91FF90EF90DF909A
:10185000CF90BF90AF909F908F907F906F905F9050
:101860004F9008958F929F92AF92BF92CF92DF9246
:10187000EF92FF920F931F93CF93DF93FC0181852B
:101880009285A385B4850196A11DB11D8417950786
:10189000A607B70710F480E05CC083899489A58906
:1018A000B689C789C03129F4852E962EA72EBB2470
:1018B00009C04A015B01C7E0B694A7949794879446
:1018C000CA95D1F7E9016A017B018F01BC01CD0105
:1018D000680D791D8A1D9B1D809001019090020169
:1018E000A0900301B0900401681579058A059B0555
:1018F00099F4F80187898031A9F4B701A601552729
:1019000066277727440F551FFA01E850FD4F808165
:101910009181A0E0B0E018C040E00E94490B811125
:10192000E8CFB9CFB701A6014F77552766277727AC
:10193000440F551F440F551FFA01E850FD4F808199
:101940009181A281B381BF7088839983AA83BB836D
:1019500081E0DF91CF911F910F91FF90EF90DF9089
:10196000CF90BF90AF909F908F9008954F925F92CD
:101970006F927F92AF92BF92CF92DF92EF92FF92DF
:101980000F931F93CF93DF9300D000D0CDB7DEB776
:101990008C0149835A836B837C835901C12CD12CE0
:1019A0007601412C82E0582E612C712C49815A819C
:1019B0006B817C819E012F5F3F4FC8010E94320CDA
:1019C000882351F1D301C201F801058404C0880FB6
:1019D000991FAA1FBB1F0A94D2F7C80ED91EEA1E70
:1019E000FB1E49815A816B817C818789803129F076
:1019F00088EF9FEFAFEFBFE004C088EF9FEFA0E05C
:101A0000B0E0481759076A077B0780F2F501C082EA
:101A1000D182E282F38281E00F900F900F900F90BD
:101A2000DF91CF911F910F91FF90EF90DF90CF90BA
:101A3000BF90AF907F906F905F904F900895CF933D
:101A4000DF93EC018D818823A1F18C8187FF2DC06C
:101A50006E857F858889998941E00E94490B88239A
:101A600041F1EA8980E2E89FF0011124DF01A850EA
:101A7000BD4F1097F1F08D81823050F44B895C8915
:101A80006D897E895C964D935D936D937C935F9792
:101A90008F89988DA98DBA8DE850FD4F938F828FD5
:101AA000B58BA48B8C818F778C83DF91CF910C9435
:101AB0000E0B80E0DF91CF9108952F923F924F92CD
:101AC0005F926F927F928F929F92AF92BF92CF92CE
:101AD000DF92EF92FF920F931F93CF93DF9300D08B
:101AE00000D0CDB7DEB78C015B011A01DC01159681
:101AF0008C9115978130C9F414968C9181FF15C093
:101B000082FF1BC0F80143895489658976898285E3
:101B10009385A485B58584179507A607B70769F04F
:101B2000C8010E94EB00811108C081E090E0F8013B
:101B30009383828380E090E039C1610183C0D80142
:101B40005B968D919C915C97FC01248121502A0128
:101B50003B0139E076946794579447943A95D1F7CE
:101B6000722E74207A01F1E0FF22772009F476C00A
:101B700080E092E08E199F0946018C159D0508F4BE
:101B80004C01D8015B962D913C915C9716968D91F6
:101B90009D910D90BC91A02D0297A109B109F90169
:101BA000058404C0880F991FAA1FBB1F0A94D2F78F
:101BB0004685578560897189840F951FA61FB71FB9
:101BC0009C01AD01270D311D411D511D29013A0117
:101BD000811432E0930609F088C080910101909150
:101BE0000201A0910301B091040184159505A60599
:101BF000B70559F48FEF9FEFDC01809301019093BB
:101C00000201A0930301B09304019501B301A20165
:101C10008091F8049091F9040E94F407882309F454
:101C200084CF9EEFB91AC818D908F8018285938528
:101C3000A485B585880D991DA11DB11D8287938747
:101C4000A487B587D8011A964D915D916D917C91CD
:101C50001D97C114D10409F072CF87C0E114F104BB
:101C600009F086CF16964D915D916D917C911997F3
:101C7000411551056105710559F457968D919D9156
:101C80000D90BC91A02D0097A105B10541F521C093
:101C90009E012F5F3F4F0E94320C882309F44BCFE7
:101CA00089819A81AB81BC81F801238D348DF90142
:101CB0002789203129F048EF5FEF6FEF7FE004C004
:101CC00048EF5FEF60E070E084179507A607B7075D
:101CD00030F0C8010E94950281114ACF26CFF80149
:101CE00086839783A087B18743CFE114F10429F558
:101CF000D8011A964D915D916D917C911D975396E7
:101D00008D919D910D90BC91A02D481759076A07A0
:101D10007B0798F00E940E0B882309F406CF4092AF
:101D200001015092020160920301709204018091BE
:101D3000EA0281608093EA0208C041E0C301B20177
:101D40000E94490B882309F4F0CED501F701E85031
:101D5000FD4FCF01880D991DE817F90719F02D9156
:101D60002193FACFA80CB91C5ECF53968D919D910B
:101D70000D90BC91A02D84179507A607B70740F4D6
:101D8000F801438B548B658B768B848180688483C8
:101D9000D80114968C9183FD02C0C10107C0C8010F
:101DA0000E941F0D882309F4C0CEF7CF0F900F902B
:101DB0000F900F90DF91CF911F910F91FF90EF90B7
:101DC000DF90CF90BF90AF909F908F907F906F905B
:101DD0005F904F903F902F900895CF93DF931F9285
:101DE000CDB7DEB7698341E050E0BE016F5F7F4F42
:101DF0000E945D0D0F90DF91CF910895CF92DF92F9
:101E0000EF92FF920F931F93CF93DF936C017A01B0
:101E10008B01C0E0D0E0CE15DF0589F0D8016D91CF
:101E20008D01D601ED91FC910190F081E02DC6016C
:101E30000995892B11F47E0102C02196ECCFC701D0
:101E4000DF91CF911F910F91FF90EF90DF90CF9096
:101E50000895E091FF05F09100068E179F07F0F5B9
:101E600030910406332361F0639FB0011124672F82
:101E7000439FA0011124452F239F90011124232F5C
:101E800030910A0650910706E0910506F09106068A
:101E9000351308C0DC01AA0FBB1F8A0F9B1F8E0FD2
:101EA0009F1F0AC0880F991F880F991F8E0F9F1FB1
:101EB000FC01E30FF11D108230910706FC01E30FD6
:101EC000F11D608330910806FC01E30FF11D408392
:101ED00030910906FC01E30FF11D20830895CF9393
:101EE000DF93009779F0FC0101900020E9F731972A
:101EF000AF01481B590BBC018AEF94E00E94FE0E13
:101F0000EC0102C0C0E0D0E042E050E06CE372E0DF
:101F10008AEF94E00E94FE0E8C0F9D1FDF91CF91FF
:101F200008958F929F92AF92BF92CF92DF92EF92DD
:101F3000FF92CF93DF93C82F89E995E09093F9043E
:101F40008093F804CC2369F1C53010F080E00DC116
:101F500040E060E070E0CB010E94490B8823B1F3C0
:101F600020E1C29FC001112488519D4FFC01E25421
:101F7000FE4F20812F7751F73C964081518162813D
:101F80007381443651056105710500F33497C080B3
:101F9000D180E280F380C114D104E104F10421F482
:101FA000D5CFC12CD12C760140E0C701B6010E94EB
:101FB000490B882359F28091030390910403811502
:101FC000924021F6A0910803AA2309F4BFCF6091A3
:101FD0000603709107036115710509F4B7CF2091CD
:101FE0000503222309F4B2CFA093B7052093A905D6
:101FF00080E030E0E1E0F0E0C82FAF01082E02C041
:10200000440F551F0A94E2F72417350741F0982F23
:102010008F5F983089F789E08093B20597CF8093DE
:10202000B20520910E0330910F032115310519F0EF
:1020300040E050E008C020911C0330911D03409106
:102040001E0350911F032093AA053093AB054093C4
:10205000AC055093AD0546015701860E971EA11C95
:10206000B11C8092B8059092B905A092BA05B092C1
:10207000BB05E0910903F0910A03F093BE05E093DC
:10208000BD05B0E00E94AF1E860E971EA81EB91EA9
:102090008092BF059092C005A092C105B092C20582
:1020A00085E0EE0FFF1F8A95E1F7E150FE4FEF2F1D
:1020B000FF27E6958E0E9F1EA11CB11C8092B305D2
:1020C0009092B405A092B505B092B60520910B038D
:1020D00030910C032115310521F0A90160E070E079
:1020E00008C0409118035091190360911A03709130
:1020F0001B03D701C60188199909AA09BB09840FD6
:10210000951FA61FB71F04C0B695A79597958795ED
:10211000CA95D2F78093AE059093AF05A093B00512
:10212000B093B105853F2FE09207A105B10510F4EA
:102130008CE018C0853F9F4FA105B10510F480E1E8
:1021400011C08091240390912503A0912603B091A2
:1021500027038093BF059093C005A093C105B0935A
:10216000C20580E28093BC0581E0DF91CF91FF90B2
:10217000EF90DF90CF90BF90AF909F908F90089599
:10218000CF93DF93FC01248135814217530780F4FC
:10219000FB01DC01CD91DC9160817181CE01840F66
:1021A000951F0E94CB1B009719F08C1B9D0B02C042
:1021B0008FEF9FEFDF91CF910895EF92FF920F93F2
:1021C0001F93CF93DF93EC01198218821B821A822E
:1021D0001D821C8261157105A9F17B01FB01019033
:1021E0000020E9F731978F01061B170BB8016F5FCD
:1021F0007F4F80E090E00E94C51A009759F09983C4
:1022000088831B830A832C813D81232B81F4FC016D
:1022100010820DC088819981009711F00E942D1ABB
:10222000198218821D821C821B821A820BC01D8398
:102230000C83B701DF91CF911F910F91FF90EF9029
:102240000C94B51BDF91CF911F910F91FF90EF90F0
:102250000895CF93DF93CDB7DEB7CA58D1090FB633
:10226000F894DEBF0FBECDBF789484B5826084BD84
:1022700084B5816084BD85B5826085BD85B581608A
:1022800085BD80916E00816080936E001092810008
:1022900080918100826080938100809181008160C3
:1022A0008093810080918000816080938000809184
:1022B000B10084608093B1008091B0008160809310
:1022C000B00080917A00846080937A0080917A00D7
:1022D000826080937A0080917A00816080937A0096
:1022E00080917A00806880937A001092C100E0911A
:1022F0000A05F0910B0582E08083E0910605F091DC
:1023000007051082E0910805F091090580E18083BE
:1023100010921205E0910E05F0910F0586E0808382
:10232000E0910C05F0910D05808180618083E09142
:102330000C05F0910D05808188608083E0910C058B
:10234000F0910D05808180688083E0910C05F0910B
:102350000D0580818F7D808380E791E00E946F0F63
:102360001092A4051092A20510929F0510929E054E
:102370008AE080939D050E94B80A8B0161E08091FC
:102380009D050E94570A61E080919D050E940B0AFD
:10239000FFB6F89480914002811127C0EEEBF0E087
:1023A0008491E0EAF0E09491E82FF0E0EE0FFF1F57
:1023B000E859FF4FA591B491EC91E92321F461E034
:1023C0008AE00E940B0A61E08AE00E94570A8CB5FD
:1023D00080618CBD8CB580648CBD61E08DE00E9415
:1023E000570A61E08BE00E94570A809140028F5F9C
:1023F00080934002FFBE82E5809397051092980576
:1024000080919705909198050E94E8037AE0F72E55
:102410008FEF0E94A903FA94F110FACF89E995E0B1
:102420000E94EB0320E030E0A90160E089E995E03B
:102430000E940104F82E8093A30581E0F81649F06C
:102440000E94B80A601B710B613D774058F381E030
:1024500056C02AEA31E040E050E068E089E995E0C2
:102460000E94010482FF03C0F092A40510C064E042
:10247000F62E0E94B0038093A305FA94F110F9CFD1
:102480008A3A11F082E03BC082E08093A4058091FB
:10249000A405823021F0C12CD12C760105C0C12CBD
:1024A000D12CE12C50E4F52E20E030E0A90167E3C7
:1024B00089E995E00E940104A701960169E289E992
:1024C00095E00E9401048093A305882349F00E94AF
:1024D000B80A601B710B613D774030F388E00FC094
:1024E0008091A405823001F520E030E0A9016AE383
:1024F00089E995E00E940104882341F086E08093F9
:102500009E0589E995E00E949E03AEC00E94B0033B
:10251000807C803C19F483E08093A4050E94B00382
:102520000E94B0030E94B00389E995E00E949E03D7
:1025300080E5809397051092980581E00E94910FA5
:10254000882329F08091C805882341F08DC080E060
:102550000E94910F882309F487C0F4CF8091BC05B5
:10256000803109F582E08093C8051092DA05109257
:10257000DB051092DC051092DD058091BD05909180
:10258000BE05A0E0B0E045E0880F991FAA1FBB1F61
:102590004A95D1F78093D6059093D705A093D80597
:1025A000B093D9051FC0803209F05EC083E08093EC
:1025B000C8054091BF055091C0056091C10570915B
:1025C000C2054093DA055093DB056093DC057093F8
:1025D000DD0526ED35E085EA95E00E94B60C8823FE
:1025E00009F442C085EA95E09093DF058093DE050B
:1025F00081E08093C7051092C9051092CA05109218
:10260000CB051092CC051092CD051092CE051092FC
:10261000CF051092D0051092D1051092D2051092DC
:10262000D3051092D4051092D505612C712C8E0122
:102630000D581F4FA0910B01B0910C01CA57DF4FED
:10264000B983A883C658D040F8013296C857DF4FE7
:10265000F983E883C858D0405E01FBE3AF0EB11C9C
:10266000CE0101966C0183C081E991E00E946F0F59
:1026700010920001CBC121E0AE01485A5F4FB70173
:10268000892D982D0E940106382EE3ECEE16E5E028
:10269000FE0609F0AFC0882309F4B1C0CE014E9602
:1026A0007C019E2D8F2DE92CF82C4C01252D342DED
:1026B000F801E20FF31F80818F3211F42F5F3F4F3B
:1026C000FE01E85AFF4F40E050E0D801A20FB31FCF
:1026D0008C918F3251F0882341F04F5F5F4F2F5F15
:1026E0003F4F81934C30510581F7E8E5F0E0EC0F66
:1026F000FD1FE40FF51F1082F801E20FF31F808128
:102700008F3211F42F5F3F4F522E432EF801E20F0C
:10271000F31F30801C821B82A4E4B1E0BA83A9833A
:102720001E8221E0AE01485A5F4FB701C6010E94E8
:102730000106882309F455C0C6010E9489023110A0
:102740009ACFF3ECEF16F5E0FF0619F0C7010E94EF
:10275000890223E66216710411F410920001BFEFA2
:102760006B1A7B0AE4E66E16710409F44FC1CA576E
:10277000DF4FE881F981C658D040D801ED93FC9332
:102780008AE0C857DF4FA881B981C858D0401D9250
:102790008A95E9F77F926F92ABEAB1E0BF93AF936E
:1027A0001F930F930E94E51B1EAE1DAE84E491E0C3
:1027B0009CAF8BAF21961FAE219719A218A29F8FB5
:1027C0008E8F1BA20F900F900F900F900F900F9075
:1027D000512C412C9A2C8B2C33ECE32E35E0F32E2C
:1027E00065CFB3ECEB16B5E0FB0649F0C7010E94DC
:1027F000890205C0C7010E948902311052CF3E01F3
:102800008EE1680E711C63EC75E0C3010E945F08E5
:102810001C821B8284E491E09A8389831E823C2C73
:102820002D2C230148016FE270E0C4010E94AA1B15
:10283000009709F440C0D4012C912F3221F4BFEF4E
:102840008B1A9B0AF0CF88198D3008F08CE0E82EA7
:10285000F12CA701B401CE01885A9F4F0E94BC1BE6
:10286000E8E5F0E0EC0FFD1FEE0DFF1D1082832D5B
:10287000922D0E94890221E0AE01485A5F4FB201B9
:10288000832D922D0E94010681110AC01EAE1DAE3D
:1028900084E491E09CAF8BAF21961FAE219718C0C6
:1028A0008E0C9F1CC2010E948902942D852D432C01
:1028B000522C1C01B8CFF401E01BF10BCC57DF4FB9
:1028C000F983E883C458D040B201C5010E945F0873
:1028D000CC57DF4F88819981C458D040080F191F09
:1028E000D8018C91811107C0B501C6010E945F0813
:1028F00048EB51E044C019A218A284E491E09F8FF4
:102900008E8F1BA221968FAD2197811116C06C96D8
:102910001FAE1EAE6C9788EE93E0A0E0B0E0A096EC
:102920008CAF9DAFAEAFBFAFA097E3961FAE1EAE0C
:10293000E397A5961FAEA59728C0825023E1A80172
:10294000823040F463EC75E0C3010E9401068111FE
:102950000AC0DDCFB501C3010E9401068823B9F288
:10296000C5010E94890249A95AA96BA97CA9C30182
:102970000E94EB00B301C6010E945F08A801B601E6
:10298000CE01885A9F4F0E94B0086C968EAD9FADC5
:102990006C979093E5058093E405A0968CAD9DAD72
:1029A000AEADBFADA0978093E6059093E705A093E9
:1029B000E805B093E905A4968CAD9DADAEADBFAD75
:1029C000A4978093EA059093EB05A093EC05B09350
:1029D000ED058DE0E8E5F0E0EC0FFD1F3C96AEEE76
:1029E000B5E001900D928A95E1F7E396EEADFFAD6B
:1029F000E397F093FC05E093FB05309719F0858190
:102A0000811104C08AEB91E00E946F0F8BE0E9E531
:102A1000F2E0DF01282F1D922A95E9F7EDE4F2E0BC
:102A2000DF011D928A95E9F787E0E5E4F2E0DF0136
:102A30001D928A95E9F7C0904102D0904202E09041
:102A40004302F09044020E94B80A6C157D058E0581
:102A50009F0560F50E94930A4B015C0124E6C22E9B
:102A6000D12CE12CF12C0E94930ADC01CB018819B6
:102A70009909AA09BB09883E9340A105B10580F0D8
:102A8000B1E0CB1AD108E108F108E8EE8E0EE3E0E0
:102A90009E1EA11CB11CC114D104E104F10419F75C
:102AA000C114D104E104F104F1F6C5CF0E94B80AC3
:102AB000DC01CB0188519C4FAF4FBF4F8093410247
:102AC00090934202A0934302B093440280E8EEEE5A
:102AD000F1E0A8E6B2E001900D928A95E1F78091CD
:102AE0006B02823561F020E030E044EB51EC60E0B5
:102AF00070E0CB010E94931987FFD2C0E8C068E65E
:102B000072E0CE014E960E94DD1022E00FEF1FEF23
:102B10006AE372E0CE010196C657DF4F2883CA5898
:102B2000D0400E94DD10A8014F5F5F4FBE016F5F74
:102B30007F4FCE014E960E94C0108C0189819A81F0
:102B40000E942D1AC657DF4F2881CA58D040213025
:102B500011F021E0DDCFF801E859FD4F818181348A
:102B600011F010E096C0780123E0E20EF11C6AE358
:102B700072E0CE0101960E94DD10A8014C5F5F4F0C
:102B8000BE016F5F7F4FCE014E960E94C0108C0138
:102B900089819A810E942D1A0F3F8FEF180709F340
:102BA000A8014E195F09B70168597D4F89E592E088
:102BB0000E94A11BF801E859FD4F818180935802C2
:102BC0000D5F1F4F6AE372E0CE0101960E94DD1097
:102BD000A801BE016F5F7F4FCE014E960E94C010CC
:102BE0007C0189819A810E942D1A9FEFE916F906CE
:102BF00009F4B7CFA701401B510BB80168597D4FAD
:102C00008DE492E00E94A11BF701E859FD4F8181FC
:102C100080934C026AE372E0CE0101960E94DD10BF
:102C2000A7014D5F5F4FBE016F5F7F4FCE014E9694
:102C30000E94C0108C0189819A810E942D1A0F3F39
:102C4000AFEF1A0709F48DCF0F5F1F4F6AE372E0F1
:102C5000CE0101960E94DD10A801BE016F5F7F4F7B
:102C6000CE014E960E94C0107C0189819A810E94FB
:102C70002D1ABFEFEB16FB0609F473CFA701401B1B
:102C8000510BB80168597D4F85E492E00E94A11B69
:102C900011E08E8D9F8D0E942D1A111124CF48C2F4
:102CA00020E030E044EB51E460E070E0CB010E94B2
:102CB000861E181664F020E04FEF60E081E090E09F
:102CC0000E94290F1092650210926402E3C020E076
:102CD00030E044EB51E460E070E0CB010E949319D6
:102CE00087FD15C020E030E04BE952E460E070E081
:102CF000CB010E94861E181654F020E04FEF60E0D2
:102D000082E090E00E94290F81E090E0BFC020E0C7
:102D100030E04BE952E460E070E0CB010E9493198F
:102D200087FD15C020E030E045EF52E460E070E040
:102D3000CB010E94861E181654F020E04FEF60E091
:102D40008AE090E00E94290F82E090E09FC020E09E
:102D500030E045EF52E460E070E0CB010E9493194F
:102D600087FD15C020E030E847E253E460E070E002
:102D7000CB010E94861E181654F020E04FEF60E051
:102D800082E190E00E94290F83E090E07FC020E084
:102D900030E045EF52EC60E070E0CB010E94861E0F
:102DA0001816ACF020E030E847E253EC60E070E049
:102DB000CB010E94931987FD0AC020E04FEF60E02D
:102DC00080E190E00E94290F85E090E05FC020E064
:102DD00030E04BE952EC60E070E0CB010E94861ECF
:102DE0001816ACF020E030E045EF52EC60E070E007
:102DF000CB010E94931987FD0AC020E04FEF60E0ED
:102E000088E090E00E94290F86E090E03FC020E03B
:102E100030E044EB51EC60E070E0CB010E94861E94
:102E20001816ACF020E030E04BE952EC60E070E0C6
:102E3000CB010E94931987FD0AC020E04FEF60E0AC
:102E400080E090E00E94290F87E090E01FC020E022
:102E500030E847E253E460E070E0CB010E94931950
:102E600087FF0BC020E030E847E253EC60E070E001
:102E7000CB010E94861E18166CF020E04FEF60E038
:102E800081E190E00E94290F84E090E09093650238
:102E90008093640298E1E92E91E0F92E00E010E0C1
:102EA00080916402909165020817190741F020E0B3
:102EB00040E060E0F701808191810E94290F0F5F5F
:102EC0001F4FF2E0EF0EF11C0830110549F788E2C0
:102ED000E82E81E0F82E00E010E020E00115110559
:102EE00029F44FEF60E084E090E005C040E060E04E
:102EF000D7018D919C910E94290F0F5F1F4FB2E067
:102F0000EB0EF11C0430110541F71092670210928C
:102F100066022FEF4FEF6FEF86E190E00E94290FDE
:102F20008091050690910606892B09F401C10E9443
:102F3000930A00910B0610910C0620910D0630911A
:102F40000E06DC01CB01801B910BA20BB30BC297C9
:102F5000A105B10560F3F8948091010690910206F5
:102F60009CAF8BAFE0910506F0910606DF0111964C
:102F70008081CD57DF4F8883C358D0409091FD05A5
:102F8000E0910F06F091100680911106992309F443
:102F900056C09081982BCE57DF4F9883C258D040AF
:102FA000908180958923CF57DF4F8883C158D040C7
:102FB000CF57DF4F8881C158D040E4968FAFE49758
:102FC00088E069968FAF6997CE57DF4F5881C25816
:102FD000D040CF57DF4F6881C158D040CD57DF4F29
:102FE0004881C358D04069963FAD6997E4962FADAC
:102FF000E4978BAD9CAD508347FD252F3A952083F8
:10300000262F39F0441F00C000006083000000C07C
:10301000F2CF38E04D9160830000019761F7F093A3
:103020001006E0930F06CD57DF4F4883C358D040BA
:1030300069963FAF6997E4962FAFE4976CC0908193
:10304000982BCE57DF4F9883C258D04090818095FF
:103050008923CF57DF4F8883C158D040CF57DF4FE8
:103060008881C158D040C058DF4F8883C058D040B5
:1030700088E0C158DF4F8883CF57D040CE57DF4F0D
:103080005881C258D040CF57DF4F6881C158D040D7
:10309000CD57DF4F4881C358D040C158DF4F3881EA
:1030A000CF57D040C058DF4F2881C058D0408BAD9B
:1030B0009CAD508347FD252F00C000C0208300C079
:1030C00000C000C000C000C060830000262F3A95F9
:1030D00041F0441F000000C000C000C000C000C09C
:1030E000E8CF38E04D9100C0608300C0019709F738
:1030F000F0931006E0930F06CD57DF4F4883C35877
:10310000D040C158DF4F3883CF57D040C058DF4F31
:103110002883C058D0409CAF8BAF78940E94930A0C
:1031200060930B0670930C0680930D0690930E0629
:103130000E94A70980CC8091050690910606009711
:1031400011F00E942D1A8091030687FD03C060E0F4
:103150000C94570A08951092FD041092FC0488EE16
:1031600093E0A0E0B0E08093FE049093FF04A0936E
:103170000005B093010584E391E09093FB048093F4
:10318000FA0485EC90E0909307058093060584ECA3
:1031900090E0909309058093080580EC90E090936F
:1031A0000B0580930A0581EC90E090930D058093C8
:1031B0000C0582EC90E090930F0580930E0586EC51
:1031C00090E09093110580931005109213051092D2
:1031D0001405109215051092160580E58093970549
:1031E0001092980510929E0510929F051092A205CC
:1031F0001092A40582E090E0A0E0B0E08093A505E5
:103200009093A605A093A705B093A8051092BC05BE
:103210001092C6051092C50584E491E09093C40510
:103220008093C3051092C8051092FE051092040603
:1032300010920B0610920C0610920D0610920E06BC
:1032400081E080930A06809307061092080692E0B8
:10325000909309068093FD0588E790E0909302061D
:10326000809301060E9498199093060680930506A4
:10327000009761F028E7FC0111922A95E9F788E2AE
:1032800090E0909300068093FF0508C0109202061C
:1032900010920106109200061092FF0586E08093BE
:1032A00003068091FE05882341F061E086E00E94DC
:1032B000570A60E086E00E940B0AEAEBF0E0E49136
:1032C000F0E0EE0FFF1FE655FF4F8591949190932C
:1032D000100680930F06ECE9F0E0E491E09311060C
:1032E0001092E5051092E40588EE93E0A0E0B0E0CE
:1032F0008093E6059093E705A093E805B093E90570
:103300008CE491E09093E3058093E2051092FC0534
:103310001092FB051092EE050895EE0FFF1F059029
:10332000F491E02D09940E948B1E08F48FEF08950C
:10333000CF93DF938230910510F482E090E0E0912A
:103340001406F091150620E030E0C0E0D0E03097A0
:1033500011F14081518148175907C0F048175907AA
:1033600061F482819381209719F09B838A832BC01B
:10337000909315068093140626C02115310519F087
:103380004217530718F49A01BE01DF01EF010280D2
:10339000F381E02DDCCF2115310509F1281B390B14
:1033A0002430310590F412968D919C9113976115FC
:1033B000710521F0FB019383828304C0909315066D
:1033C00080931406FD01329644C0FD01E20FF31F05
:1033D00081939193225031092D933C933AC02091CF
:1033E000120630911306232B41F4209107013091EE
:1033F00008013093130620931206209105013091A5
:1034000006012115310541F42DB73EB74091090160
:1034100050910A01241B350BE0911206F09113061E
:10342000E217F307A0F42E1B3F0B2817390778F09B
:10343000AC014E5F5F4F2417350748F04E0F5F1FFA
:1034400050931306409312068193919302C0E0E0DB
:10345000F0E0CF01DF91CF9108950F931F93CF93A9
:10346000DF93009709F48CC0FC013297138212821B
:1034700000911406109115060115110581F42081A3
:103480003181820F931F2091120630911306281765
:10349000390779F5F0931306E093120671C0D8014D
:1034A00040E050E0AE17BF0750F412962D913C91CA
:1034B0001397AD012115310509F1D901F3CF9D0114
:1034C000DA013383228360817181860F971F82170F
:1034D000930769F4EC0128813981260F371F2E5F8D
:1034E0003F4F318320838A819B8193838283452B45
:1034F00029F4F0931506E093140642C01396FC934A
:10350000EE931297ED01499159919E01240F351FB9
:10351000E217F30771F480819181840F951F029661
:1035200011969C938E938281938113969C938E9394
:103530001297E0E0F0E0D80112968D919C911397DC
:10354000009719F0F8018C01F6CF8D919C919801AC
:103550002E5F3F4F820F931F20911206309113066A
:103560002817390769F4309729F41092150610923C
:10357000140602C0138212821093130600931206DF
:10358000DF91CF911F910F910895A0E0B0E0EBEC97
:10359000FAE10C94BE1EEC01009721F4CB010E94CD
:1035A0009819B8C0FC01E60FF71F9C0122503109A1
:1035B000E217F30708F4ACC0D9010D911C911197E3
:1035C00006171707B0F00530110508F49FC0C801B1
:1035D00004978617970708F499C002501109061B33
:1035E000170B019311936D937C93CF010E942D1AB9
:1035F0008DC05B01A01AB10A4C01800E911EA091F2
:103600001406B091150640E050E0E12CF12C109723
:1036100009F44AC0A815B905D1F56D907C901197B1
:10362000630182E0C80ED11CCA14DB0480F1A3013F
:103630004A195B096A0182E0C80ED11C1296BC903F
:1036400012971396AC91B5E0CB16D10440F0B2823C
:10365000A38351834083D9016D937C930AC00E5F8D
:103660001F4FC301800F911FF90191838083EB2DC0
:10367000FA2FE114F10431F0D7011396FC93EE9385
:10368000129744C0F0931506E09314063FC08D9145
:103690009C9111974817590708F4AC017D011296C7
:1036A0000D90BC91A02DB3CF80911206909113067E
:1036B00088159905E1F446175707C8F4809105016C
:1036C00090910601009741F48DB79EB74091090192
:1036D00050910A01841B950BE817F907C8F4F09381
:1036E0001306E0931206F901718360830FC0CB01CA
:1036F0000E9498197C01009759F0A801BE010E9410
:10370000A11BCE010E942D1AC70104C0CE0102C028
:1037100080E090E0CDB7DEB7EEE00C94DA1E81E0F9
:1037200090E0F8940C94001FFB01DC0104C08D9123
:103730000190801921F441505040C8F7881B990B23
:103740000895FB01DC0102C001900D9241505040F0
:10375000D8F70895FC018191861721F08823D9F7C5
:10376000992708953197CF010895FB01DC0101905D
:103770000D920020E1F70895FB01DC01415050401B
:1037800048F001900D920020C9F701C01D924150F0
:103790005040E0F70895FB0151915523A9F0BF0176
:1037A000DC014D9145174111E1F759F4CD0101902C
:1037B000002049F04D9140154111C9F3FB01411121
:1037C000EFCF81E090E001970895AEE0B0E0EBEE3E
:1037D000FBE10C94C81E0D891E8986E08C831A8338
:1037E00009838FEF9FE79E838D83AE01475E5F4F16
:1037F0006F89788DCE0101960E94081C2F81388533
:10380000F801E20FF31F10822E96E4E00C94E41E00
:10381000ACE0B0E0EEE0FCE10C94BA1E7C016B0180
:103820008A01FC0117821682838181FFBDC1CE010E
:1038300001964C01F7019381F60193FD859193FF69
:1038400081916F01882309F4ABC1853239F493FD6E
:10385000859193FF81916F01853229F4B70190E042
:103860000E94F01DE7CF512C312C20E02032A0F433
:103870008B3269F030F4803259F0833269F4206180
:103880002CC08D3239F0803339F4216026C022609B
:10389000246023C0286021C027FD27C030ED380FE9
:1038A0003A3078F426FF06C0FAE05F9E300D11240E
:1038B000532E13C08AE0389E300D1124332E20621F
:1038C0000CC08E3221F426FD6BC1206406C08C36FC
:1038D00011F4206802C0883641F4F60193FD859109
:1038E00093FF81916F018111C1CF982F9F7D9554D6
:1038F000933028F40C5F1F4FFFE3F9830DC083362C
:1039000031F0833771F0833509F05BC022C0F801D4
:10391000808189830E5F1F4F44244394512C5401AE
:1039200015C03801F2E06F0E711CF801A080B18063
:1039300026FF03C0652D70E002C06FEF7FEFC50169
:103940002C870E94E51D2C0183012C852F77222EC8
:1039500017C03801F2E06F0E711CF801A080B18031
:1039600026FF03C0652D70E002C06FEF7FEFC50139
:103970002C870E94DA1D2C012C852068222E8301C1
:1039800023FC1BC0832D90E048165906B0F4B70104
:1039900080E290E00E94F01D3A94F4CFF50127FCFC
:1039A000859127FE81915F01B70190E00E94F01D93
:1039B00031103A94F1E04F1A51084114510471F753
:1039C000E5C0843611F0893639F5F80127FF07C0C4
:1039D00060817181828193810C5F1F4F08C060817B
:1039E0007181072E000C880B990B0E5F1F4F2F76ED
:1039F000722E97FF09C090958095709561957F4FC5
:103A00008F4F9F4F2068722E2AE030E0A4010E9461
:103A1000281EA82EA81844C0853729F42F7EB22E60
:103A20002AE030E025C0F22FF97FBF2E8F36C1F09B
:103A300018F4883579F0B4C0803719F0883721F050
:103A4000AFC02F2F2061B22EB4FE0DC08B2D84602D
:103A5000B82E09C024FF0AC09F2F9660B92E06C059
:103A600028E030E005C020E130E002C020E132E093
:103A7000F801B7FE07C060817181828193810C5F7C
:103A80001F4F06C06081718180E090E00E5F1F4F84
:103A9000A4010E94281EA82EA818FB2DFF777F2EB8
:103AA00076FE0BC0372D3E7FA51450F474FE0AC07D
:103AB00072FC08C0372D3E7E05C0BA2C372D03C0DE
:103AC000BA2C01C0B52C34FF0DC0FE01EA0DF11D6A
:103AD0008081803311F4397E09C032FF06C0B3946F
:103AE000B39404C0832F867809F0B39433FD13C0D8
:103AF00030FF06C05A2CB31418F4530C5B18B32CC7
:103B0000B31468F4B70180E290E03C870E94F01D96
:103B1000B3943C85F5CFB31410F43B1801C0312C9D
:103B200034FF12C0B70180E390E03C870E94F01D93
:103B30003C8532FF17C031FD03C088E790E002C02A
:103B400088E590E0B7010CC0832F867859F031FFEB
:103B500002C08BE201C080E237FD8DE2B70190E048
:103B60000E94F01DA51438F4B70180E390E00E9494
:103B7000F01D5A94F7CFAA94F401EA0DF11D80814B
:103B8000B70190E00E94F01DA110F5CF332009F499
:103B900051CEB70180E290E00E94F01D3A94F6CF3A
:103BA000F7018681978102C08FEF9FEF2C96E2E1AB
:103BB0000C94D61EFC010590615070400110D8F79E
:103BC000809590958E0F9F1F0895FC016150704065
:103BD00001900110D8F7809590958E0F9F1F089542
:103BE0000F931F93CF93DF93FB01238121FD03C02C
:103BF0008FEF9FEF28C022FF16C046815781248196
:103C000035814217530744F4A081B1819D012F5F94
:103C10003F4F318320838C93268137812F5F3F4F25
:103C20003783268310C0EB01092F182F0084F185FC
:103C3000E02D0995892BE1F68E819F8101969F8366
:103C40008E83812F902FDF91CF911F910F91089537
:103C5000FA01AA27283051F1203181F1E8946F93BD
:103C60006E7F6E5F7F4F8F4F9F4FAF4FB1E03ED063
:103C7000B4E03CD0670F781F891F9A1FA11D680F01
:103C8000791F8A1F911DA11D6A0F711D811D911D34
:103C9000A11D20D009F468943F912AE0269F1124A9
:103CA0003019305D3193DEF6CF010895462F47700D
:103CB000405D4193B3E00FD0C9F7F6CF462F4F7068
:103CC000405D4A3318F0495D31FD4052419302D0C6
:103CD000A9F7EACFB4E0A69597958795779567956C
:103CE000BA95C9F700976105710508959B01AC016C
:103CF0000A2E06945795479537952795BA95C9F793
:103D0000620F731F841F951FA01D08950E948B1EB4
:103D100008F481E00895990F0008550FAA0BE0E818
:103D2000FEEF16161706E807F907C0F0121613067D
:103D3000E407F50798F0621B730B840B950B39F4BD
:103D40000A2661F0232B242B252B21F408950A2623
:103D500009F4A140A6958FEF811D811D08950E9451
:103D6000F11EA59F900DB49F900DA49F800D911DF5
:103D7000112408952F923F924F925F926F927F92FB
:103D80008F929F92AF92BF92CF92DF92EF92FF926B
:103D90000F931F93CF93DF93CDB7DEB7CA1BDB0B17
:103DA0000FB6F894DEBF0FBECDBF09942A883988BC
:103DB00048885F846E847D848C849B84AA84B984C3
:103DC000C884DF80EE80FD800C811B81AA81B981CF
:103DD000CE0FD11D0FB6F894DEBF0FBECDBFED01E3
:103DE0000895A29FB001B39FC001A39F700D811DD4
:103DF0001124911DB29F700D811D1124911D0895F4
:103E000010E0C5E6D0E004C0FE010E948D192196A5
:0A3E1000C636D107C9F7F894FFCFBA
:103E1A0001FFFFFFFF0000160680000000000000FF
:103E2A000000000000000000010002000A00120069
:103E3A001100100008000000040005000600070039
:103E4A00000000003E09FE0E0709E508F908850989
:103E5A0000000000ED0EFE0E00000000B100CF00D1
:103E6A009000C007CA07C70000000000B109FE0E93
:103E7A00B109B109B109B10900000000B109FE0E8A
:103E8A005B494E464F5D20496E697469616C697A77
:103E9A00696E6720534420436172642E202E202EBF
:103EAA0000534420636172642069732068797065E5
:103EBA007220626A6F726B65642E004D7946696C76
:103ECA006525692E747874002F00486F6C79207309
:103EDA00686974736E61636B73204261746D616E9D
:103EEA002C2074686973207468696E67206675632C
:103EFA006B656420757020616761696E21002447D3
:103F0A0050524D432C3036343935312E3030302C26
:103F1A00412C323330372E313235362C4E2C313259
:103F2A003031362E343433382C452C302E30332C65
:103F3A003136352E34382C3236303430362C332E56
:103F4A0030352C572C412A3243002C000D0A000030
:00000001FF
