:100000000C9458000C9480000C9480000C94800098
:100010000C9480000C9480000C9480000C94800060
:100020000C9480000C9480000C9480000C94800050
:100030000C9480000C9480000C9480000C94800040
:100040000C9470080C9480000C943E080C941808D2
:100050000C9480000C9480000C9480000C94800020
:100060000C9480000C948000000000002500280003
:100070002B00040404040404040402020202020229
:10008000030303030303010204081020408001025C
:1000900004081020010204081020000000080002DB
:1000A0000100000304070000000000000000370CFE
:1000B00011241FBECFEFD8E0DEBFCDBF11E0A0E01E
:1000C000B1E0ECE0FEE102C005900D92AC3AB10760
:1000D000D9F725E0ACEAB1E001C01D92AC37B20718
:1000E000E1F710E0C8E5D0E004C02197FE010E94CE
:1000F0007F0CC735D107C9F70E94130A0C94040F6F
:100100000C940000FC01918D828D981761F0828D16
:10011000DF01A80FB11D5D968C91928D9F5F9F733B
:10012000928F90E008958FEF9FEF0895FC01918DDD
:10013000828D981731F0828DE80FF11D858D90E04A
:1001400008958FEF9FEF0895FC01918D228D892FE7
:1001500090E0805C9F4F821B91098F7399270895CF
:1001600080E994E00E94A40021E0892B09F420E0BA
:10017000822F0895FC01848DDF01A80FB11DA35AC1
:10018000BF4F2C91848D90E001968F739927848FB7
:10019000A689B7892C93A089B1898C9180648C93AE
:1001A000938D848D981306C00288F389E02D808199
:1001B0008F7D80830895EF92FF920F931F93CF93CB
:1001C000DF93EC0181E0888F9B8D8C8D981305C0A7
:1001D000E889F989808185FD24C0F62E0B8D10E019
:1001E0000F5F1F4F0F731127E02E8C8DE8120CC08C
:1001F0000FB607FCFACFE889F989808185FFF5CF32
:10020000CE010E94BA00F1CF8B8DFE01E80FF11DE7
:10021000E35AFF4FF0820B8FEA89FB89808180626D
:1002200007C0EE89FF896083E889F989808180644D
:10023000808381E090E0DF91CF911F910F91FF903B
:10024000EF900895CF93DF93EC01888D8823C9F058
:10025000EA89FB89808185FD05C0A889B9898C91CF
:1002600086FD0FC00FB607FCF5CF808185FFF2CF6A
:10027000A889B9898C9185FFEDCFCE010E94BA0083
:10028000E7CFDF91CF91089580E090E0892B29F0AE
:100290000E94B00081110C940000089590E0FC01D0
:1002A000E656FF4F3491FC01EA57FF4F2491FC01C1
:1002B000EE58FF4FE491EE2309F43BC0332339F1AC
:1002C000333091F038F43130A9F0323001F584B593
:1002D0008F7D12C0373091F03830A1F03430B9F44E
:1002E000809180008F7D03C0809180008F77809304
:1002F00080000DC084B58F7784BD09C08091B000A7
:100300008F7703C08091B0008F7D8093B000F0E0C4
:10031000EE0FFF1FE859FF4FA591B4918FB7F894E6
:10032000EC91611103C020952E2301C02E2B2C933C
:100330008FBF08953FB7F8948091B9039091BA03A5
:10034000A091BB03B091BC0326B5A89B05C02F3F6D
:1003500019F00196A11DB11D3FBFBA2FA92F982FEB
:100360008827820F911DA11DB11DBC01CD0142E066
:10037000660F771F881F991F4A95D1F708958F92AE
:100380009F92AF92BF92CF92DF92EF92FF926B015A
:100390007C010E949A014B015C01C114D104E1046B
:1003A000F104F1F00E949A01DC01CB01881999094E
:1003B000AA09BB09883E9340A105B10570F321E06D
:1003C000C21AD108E108F10888EE880E83E0981E71
:1003D000A11CB11CC114D104E104F10419F7DDCF53
:1003E000FF90EF90DF90CF90BF90AF909F908F9055
:1003F00008952FB7F8946091B5037091B60380917A
:10040000B7039091B8032FBF089561E0FC01848188
:100410000E944E018091AC0181111092AC010895AF
:100420008EBD00000DB407FEFDCF8EB508958FEF91
:100430000C9410020F931F93CF93DF93EB010E9454
:10044000F9018B010E9417028F3F49F00E94F901C8
:10045000601B710B6C177D07A8F380E001C081E081
:10046000DF91CF911F910F910895CF93DF93EC010E
:100470008E81882389F08F8198859C012F5F3F4F63
:1004800038872F838230924018F40E941702F3CFEE
:10049000CE010E9405021E82DF91CF910895CF9276
:1004A000DF92FF920F931F93CF93DF9300D000D082
:1004B000CDB7DEB76C01F62E29833A834B835C837C
:1004C0000E9435028091AC0129813A814B815C8187
:1004D000811109C081E08093AC0190912D0580913C
:1004E0002E059CBD8DBD60E0F601848129833A8391
:1004F0004B835C830E944E016CE271E0C6010E9456
:100500001A028F2D80640E94100208E110E05C81C5
:100510004B813A812981DA01C901002E04C0B695C8
:10052000A795979587950A94D2F729833A834B83A9
:100530005C830E9410020850110929813A814B8185
:100540005C81083FFFEF1F0731F7FF2029F088E0AB
:10055000F81204C087E803C085E901C08FEF0E944C
:10056000100210E00E941702F601828787FF04C084
:100570001F3F11F01F5FF6CF0F900F900F900F905D
:10058000DF91CF911F910F91FF90DF90CF90089551
:10059000EF92FF920F931F93CF93DF93EC017901BA
:1005A000411551056105710511F482E13CC08B854F
:1005B000833039F089E0440F551F661F771F8A95F5
:1005C000D1F79A01AB0168E1CE010E944F02882366
:1005D00011F084E028C08EEF0E94100287018EEF98
:1005E000F81AF80181918F010E9410020E151F0563
:1005F000C1F78FEF0E9410028FEF0E9410020E943D
:1006000017028A878F71853031F081E18D83CE01A9
:100610000E94050209C068E572E0CE010E941A023C
:10062000811107C085E18D83CE010E94050280E023
:1006300013C020E030E0A9016DE0CE010E944F021E
:10064000811104C00E941702882311F084E1EBCFCE
:10065000CE010E94050281E0DF91CF911F910F91A1
:10066000FF90EF900895CF93DF938091AF0188239F
:1006700099F1C091AD01D091AE014091000150912E
:100680000101609102017091030124EB31E0CE0180
:100690000E94C802811102C080E01FC04091B001D9
:1006A0005091B1016091B2017091B30141155105B2
:1006B0006105710579F024EB31E0CE010E94C8029A
:1006C000882351F31092B0011092B1011092B2013F
:1006D0001092B3011092AF0181E0DF91CF910895A4
:1006E000BF92CF92DF92EF92FF920F931F93CF931F
:1006F000DF936B017C01B42E809100019091010188
:10070000A0910201B09103018C159D05AE05BF05B6
:1007100009F476C00E943303882309F478C0C0919D
:10072000AD01D091AE018E81882369F088819981D5
:10073000AA81BB81C816D906EA06FB0621F48F817F
:100740009885892BB1F1C882D982EA82FB828B8598
:10075000A7019601833039F089E0220F331F441F2F
:10076000551F8A95D1F761E1CE010E944F0288237F
:1007700019F083E08D8337C00E94F9018B010E943C
:1007800017028A878F3F49F40E94F901601B710BA1
:100790006D327140A0F38FE003C08E3F31F08DE0E9
:1007A0008D83CE010E9405021EC018861F8281E043
:1007B0008E8304EB11E00E941702F80181938F01F0
:1007C000F3E0043B1F07B9F78F8198859E5F9887F8
:1007D0008F832985222319F08115924048F0CE019C
:1007E0000E94350205C0CE010E94050280E00FC0C4
:1007F000C0920001D0920101E0920201F092030147
:100800008091AF01482F4B294093AF0181E0DF91E8
:10081000CF911F910F91FF90EF90DF90CF90BF90FD
:1008200008954F925F926F927F928F929F92AF92B4
:10083000BF92CF92DF92EF92FF920F931F93CF93CD
:10084000DF93EC016A017B01280139014230510537
:100850006105710510F480E073C089859A85AB85C8
:10086000BC850196A11DB11D84179507A607B70782
:1008700090F38B889C88AD88BE888F89803129F45D
:10088000BB27AF2D9E2D8D2D09C0DB01CA0147E08E
:10089000B695A795979587954A95D1F7880E991E95
:1008A000AA1EBB1E8091000190910101A09102013E
:1008B000B091030188169906AA06BB0679F48F89C0
:1008C0008031A1F4DD24EE24FF24C601880F991F96
:1008D000FC01EC54FE4F5182408219C040E0C5013A
:1008E000B4010E9470038111EACFB5CFE894C7F834
:1008F000DD24EE24FF24C601880F991F880F991F5D
:10090000FC01EC54FE4F40825182628273828091DE
:10091000AF0181608093AF018A89823080F08D8140
:100920009E81AF81B885880E991EAA1EBB1E80923B
:10093000B0019092B101A092B201B092B30181E0F6
:10094000DF91CF911F910F91FF90EF90DF90CF90AB
:10095000BF90AF909F908F907F906F905F904F90DF
:1009600008958F929F92AF92BF92CF92DF92EF92B3
:10097000FF920F931F93CF93DF93FC0181859285A4
:10098000A385B4850196A11DB11D84179507A607FF
:10099000B70710F480E05CC083899489A589B68983
:1009A000C789C03129F4852E962EA72EBB2409C0F5
:1009B0004A015B01C7E0B694A79497948794CA95BF
:1009C000D1F7E9016A017B018F01BC01CD01680DFE
:1009D000791D8A1D9B1D8090000190900101A090BF
:1009E0000201B0900301681579058A059B0599F409
:1009F000F80187898031A9F4B701A6015527662738
:100A00007727440F551FFA01EC54FE4F80819181E6
:100A1000A0E0B0E018C040E00E9470038111E8CF70
:100A2000B9CFB701A6014F77552766277727440F1F
:100A3000551F440F551FFA01EC54FE4F80819181E0
:100A4000A281B381BF7088839983AA83BB8381E02D
:100A5000DF91CF911F910F91FF90EF90DF90CF909A
:100A6000BF90AF909F908F9008953F924F925F926A
:100A70006F927F928F929F92AF92BF92CF92DF92AE
:100A8000EF92FF920F931F93CF93DF93CDB7DEB713
:100A90002C970FB6F894DEBF0FBECDBF5C01DC0112
:100AA0005B968D909C905C971696CD90DD90ED9026
:100AB000FC901997C114D104E104F10439F0BFEF9F
:100AC000CB1ADB0AEB0AFB0A312C07C0F401C08009
:100AD000D180E280F38033243394F40181859285C0
:100AE000A385B4859C01AD012F5F3F4F4F4F5F4FF2
:100AF00029873A874B875C87260137011D821E8232
:100B00001F821886F40181859285A385B4852D8185
:100B10003E814F815885281739074A075B0708F03F
:100B200063C089859A85AB85BC858C159D05AE050E
:100B3000BF0550F482E0C82ED12CE12CF12C92E0BC
:100B4000492E512C612C712C9E012F5F3F4FB70114
:100B5000A601C4010E94B104882309F445C089811B
:100B60009A81AB81BC81892B8A2B8B2B41F026018A
:100B700037019FEF491A590A690A790A05C0C41456
:100B8000D504E604F70491F02D813E814F8158850C
:100B90002F5F3F4F4F4F5F4F2D833E834F835887CB
:100BA0003FEFC31AD30AE30AF30AACCF0FEF1FEFEC
:100BB0002FEF3FE0B301A201C4010E94110488237A
:100BC00099F0D50116964D915D916D917C91199793
:100BD000411551056105710549F093018201C40178
:100BE0000E941104811102C080E02AC0D50116962E
:100BF0004D925D926D927C921997332051F0D30102
:100C0000C2010196A11DB11DF40180839183A283CD
:100C1000B383F5018789908DA18DB28D892B8A2BA5
:100C20008B2B69F4D50157964D925D926D927C9213
:100C30005A9714968C911497806814968C9381E03F
:100C40002C960FB6F894DEBF0FBECDBFDF91CF91CB
:100C50001F910F91FF90EF90DF90CF90BF90AF90DA
:100C60009F908F907F906F905F904F903F900895EE
:100C70004F925F926F927F928F929F92AF92BF92AC
:100C8000EF92FF920F931F93CF93DF9300D000D08A
:100C90001F92CDB7DEB78C016D83DC0115968C9168
:100CA0001597813009F057C014968C9181FF53C07D
:100CB0005AC0038CF48DE02D258530E0275F3F4F2F
:100CC0002A013B01B1E04B1A510861087108022E5C
:100CD00004C076946794579447940A94D2F7D50148
:100CE000C4010197A109B10904C0B695A7959795CC
:100CF00087952A95D2F784159505A605B70508F0BE
:100D000070C0F8014789508D618D728D468357837D
:100D1000608771872C013D017801E6E0EE0EF11C41
:100D2000D801411451046104710409F464C0169699
:100D30004D915D916D917C91199797015B968D9185
:100D40009C915C970E94B104B1E04B1A5108610874
:100D500071088111E5CF81E090E0F80193838283EF
:100D600080E090E04FC182FF0EC0F80142855385BC
:100D70006485758583889488A588B6884815590543
:100D80006A057B05F1F4D8011A964D915D916D913C
:100D90007C911D975B968D919C915C97FC01748072
:100DA0007A944A015B0129E0B694A79497948794BA
:100DB0002A95D1F778207A01F1E0FF22772011F10E
:100DC00064C081149104A104B10409F072CF1682A9
:100DD000178210861186F8011286138614861586EE
:100DE000D2CF452B462B472B09F48BCF841995097D
:100DF000A609B7098FCF1A968D929D92AD92BC929B
:100E00001D97C1CFE114F10409F03FC0F8014681FC
:100E1000578160857185411551056105710549F45A
:100E20008789908DA18DB28D0097A105B10541F5FF
:100E300021C09E012F5F3F4F0E94B104882309F417
:100E40008FCF89819A81AB81BC81F801238D348D4C
:100E5000F9012789203129F048EF5FEF6FEF7FE03C
:100E600004C048EF5FEF60E070E084179507A607C5
:100E7000B70730F0C8010E943505811106C06BCF5D
:100E8000F80186839783A087B187D8015B96ED919F
:100E9000FC915C9716968D909D90AD90BC901997A3
:100EA000B2E08B1A9108A108B108058404C0880C2F
:100EB000991CAA1CBB1C0A94D2F786859785A08929
:100EC000B189880E991EAA1EBB1E870C911CA11CFD
:100ED000B11CE114F10409F5F801428553856485DC
:100EE000758583899489A589B689481759076A0742
:100EF0007B0798F00E943303882309F42CCF80925B
:100F0000000190920101A0920201B0920301809130
:100F1000AF0181608093AF0108C041E0C501B40119
:100F20000E947003882309F416CFF701EC54FE4F9A
:100F30008D818083F80182859385A485B58501968E
:100F4000A11DB11D82879387A487B58743895489E2
:100F500065897689481759076A077B0738F4838BB8
:100F6000948BA58BB68B848180688483D80114967A
:100F70008C9183FD03C081E090E044C0F80195812D
:100F8000992309F4E8CE87FF38C066857785808984
:100F9000918941E00E947003882309F4DCCED801D6
:100FA0005296EC91B0E2EB9F90011124D901AC5420
:100FB000BE4F109709F4CFCEF8018581823050F4EE
:100FC00043895489658976895C964D935D936D93C9
:100FD0007C935F97F8018789908DA18DB28DF9017F
:100FE000EC54FE4F938F828FB58BA48BD80114964F
:100FF0008C9114978F7714968C930E9433038111F0
:10100000BACFA9CE0F900F900F900F900F90DF9155
:10101000CF911F910F91FF90EF90BF90AF909F9055
:101020008F907F906F905F904F9008950E947C0EFC
:101030001F920F920FB60F9211242F933F934F934D
:101040005F936F937F938F939F93AF93BF93EF9330
:10105000FF9380E994E00E94BA00FF91EF91BF9165
:10106000AF919F918F917F916F915F914F913F9140
:101070002F910F900FBE0F901F9018951F920F92F7
:101080000FB60F9211242F938F939F93EF93FF939B
:10109000E091A004F091A1048081E091A604F09178
:1010A000A70482FD12C090818091A9048F5F8F7385
:1010B0002091AA04821751F0E091A904F0E0E057D2
:1010C000FB4F958F8093A90401C08081FF91EF9120
:1010D0009F918F912F910F900FBE0F901F90189599
:1010E0001F920F920FB60F9211242F933F938F935D
:1010F0009F93AF93BF938091B5039091B603A09156
:10110000B703B091B8033091B40323E0230F2D3718
:1011100020F40196A11DB11D05C026E8230F0296FB
:10112000A11DB11D2093B4038093B5039093B60322
:10113000A093B703B093B8038091B9039091BA0319
:10114000A091BB03B091BC030196A11DB11D80937A
:10115000B9039093BA03A093BB03B093BC03BF91B0
:10116000AF919F918F913F912F910F900FBE0F9054
:101170001F901895CF92DF92EF92FF920F931F93DB
:10118000CF93DF936C017A018B01C0E0D0E0CE15E4
:10119000DF0589F0D8016D918D01D601ED91FC91AB
:1011A0000190F081E02DC6010995892B11F47E0193
:1011B00002C02196ECCFC701DF91CF911F910F9113
:1011C000FF90EF90DF90CF900895E0E9F4E0A089E0
:1011D000B18982E08C93A485B5851C92A685B785DC
:1011E00080E18C93108EA489B58986E08C93A289C6
:1011F000B3898C9180618C93A289B3898C9188602A
:101200008C93A289B3898C9180688C930288F3892E
:10121000E02D80818F7D80830895CF93DF93FC0143
:10122000248135814217530780F4FB01DC01CD9105
:10123000DC9160817181CE01840F951F0E94910E17
:10124000009719F08C1B9D0B02C08FEF9FEFDF9171
:10125000CF910895EF92FF920F931F93CF93DF9357
:10126000EC01198218821B821A821D821C82611570
:101270007105A9F17B01FB0101900020E9F731978D
:101280008F01061B170BB8016F5F7F4F80E090E066
:101290000E94B20D009759F0998388831B830A83BB
:1012A0002C813D81232B81F4FC0110820DC08881AB
:1012B0009981009711F00E941A0D198218821D82DF
:1012C0001C821B821A820BC01D830C83B701DF9125
:1012D000CF911F910F91FF90EF900C948A0EDF91A8
:1012E000CF911F910F91FF90EF90089561157105B7
:1012F00079F0FB0101900020E9F73197AF01461B1F
:10130000570BDC01ED91FC910280F381E02D0994F3
:1013100080E090E008954F925F926F927F92EF92FB
:10132000FF920F931F93CF93DF93CDB7DEB7A197B3
:101330000FB6F894DEBF0FBECDBF7C01FA01CB0122
:1013400019A2223008F42AE08E010F5D1F4F422EB1
:10135000512C612C712CBF01A30192010E94AB0E94
:10136000F901CA01015011096A3014F4605D01C02D
:10137000695CD8016C93232B242B252B61F7B801D2
:10138000C7010E947609A1960FB6F894DEBF0FBE82
:10139000CDBFDF91CF911F910F91FF90EF907F9084
:1013A0006F905F904F900895CF92DF92EF92FF92EF
:1013B000CF93DF936C01990FEE08FF08F7FE1CC076
:1013C000E0919004F09191040190F081E02D6DE2A4
:1013D00080E994E00995EC0144275527BA014C199E
:1013E0005D096E097F092AE080E994E00E948B097B
:1013F0007C01EC0EFD1E08C02AE0B701A60180E9C1
:1014000094E00E948B097C0160EA71E080E994E03D
:101410000E9476098E0D9F1DDF91CF91FF90EF9076
:10142000DF90CF900895CF93DF93CDB7DEB72D97A0
:101430000FB6F894DEBF0FBECDBF789484B582603E
:1014400084BD84B5816084BD85B5826085BD85B568
:10145000816085BD80916E00816080936E001092E6
:101460008100809181008260809381008091810061
:1014700081608093810080918000816080938000F2
:101480008091B10084608093B1008091B000816050
:101490008093B00080917A00846080937A0080917C
:1014A0007A00826080937A0080917A0081608093D4
:1014B0007A0080917A00806880937A001092C1004F
:1014C00010928C0410928D0410928E0410928F044E
:1014D00010925A0410925B0410925C0410925D0406
:1014E00060ED77E080E090E00E94BF0180E994E049
:1014F00090938B0480938A040E94E5080E94F9016E
:1015000000915A0410915B0420915C0430915D04B9
:10151000DC01CB01801B910BA20BB30BC297A10581
:10152000B10538F463E070E080E090E00E94BF0114
:10153000E5CF0E94F90160935A0470935B04809395
:101540005C0490935D0462E271E080918A04909162
:101550008B040E9476096AE070E080E090E00E94CF
:10156000BF0181E080935E040E94E5088BE0EAEC15
:10157000F3E0DF01982F1D929A95E9F7EEEBF3E087
:10158000DF011D928A95E9F780E8D82E80905504F6
:1015900090905604A0905704B09058040E94F9010E
:1015A000681579058A059B0538F464E670E080E0EB
:1015B00090E00E94BF01EACF0E94F901DC01CB015B
:1015C00088519C4FAF4FBF4F809355049093560462
:1015D000A0935704B0935804E4E3F1E0A5EDB3E021
:1015E0008D2D01900D928A95E1F765ED73E0CE01A6
:1015F00007960E942A0922E00FEF1FEF60E871E0D2
:10160000CE0101962D870E942A09A8014F5F5F4FE6
:10161000BE016F5F7F4FCE0107960E940D098C01BE
:1016200089819A810E941A0D2D85213011F021E0C7
:10163000E5CF81E090E00E94D409F801EB52FC4F25
:101640008181813409F06CC082E090E00E94D4096D
:1016500060E871E0CE0101960E942A09A8014C5F62
:101660005F4FBE016F5F7F4FCE0107960E940D094D
:101670007C0189819A810E941A0DBFEFEB16FB064F
:1016800009F44EC00D5F1F4F83E090E00E94D40923
:10169000A701401B510BB8016B527C4F8AEC93E0C1
:1016A0000E94810E84E090E00E94D409F701EB5281
:1016B000FC4F81818093C90360E871E0CE010196FF
:1016C0000E942A09A7014E5F5F4FBE016F5F7F4FE7
:1016D000CE0107960E940D095C0189819A810E94C2
:1016E0001A0D8FEFA816B806D9F087010D5F1F4FAE
:1016F00085E090E00E94D409A501401B510BB80180
:101700006B527C4F8EEB93E00E94810EF501EB5201
:10171000FC4F80818093BD0386E090E00E94D40955
:101720008F8198850E941A0D0E94F90100915A0438
:1017300010915B0420915C0430915D04DC01CB01CD
:10174000801B910BA20BB30BC297A105B10538F416
:1017500063E070E080E090E00E94BF01E5CF0E946E
:10176000F90160935A0470935B0480935C04909336
:101770005D0462E871E080918A0490918B040E947C
:1017800076096AE871E080918A0490918B040E9446
:10179000760965E070E080E090E00E94BF016AE0B9
:1017A00070E080E090E00E94BF0180915E04882399
:1017B00009F454C080918A0490918B04DC01ED916E
:1017C000FC910480F581E02D0995892B99F3809196
:1017D0008A0490918B04DC01ED91FC910480F581E9
:1017E000E02D099518161906CCF580918A04909180
:1017F0008B04DC01ED91FC910680F781E02D0995C9
:1018000099278336910549F08637910539F1883556
:101810009105E9F610925E04DACF63E971E08091F8
:101820008A0490918B040E9476092AE041E050E0FE
:1018300060E070E080918A0490918B040E948B0993
:101840006AE971E080918A0490918B040E94760984
:1018500062E370E080E090E00E94BF0163EA71E023
:1018600080E994E00E9476090E9444018FCEE0E96D
:10187000F4E01382128288EE93E0A0E0B0E084836B
:101880009583A683B7838EE091E09183808385EC76
:1018900090E09587848784EC90E09787868780EC3A
:1018A00090E0918B808B81EC90E0938B828B82EC2B
:1018B00090E0958B848B86EC90E0978B868B118ED5
:1018C000128E138E148EEDE2F5E080E58083118296
:1018D000EFE2F5E0158216821186138682E090E031
:1018E000A0E0B0E084879587A687B78713A215A6E6
:1018F00014A68EE191E093A782A717A60895EE0F94
:10190000FF1F0590F491E02D0994CF93DF9382306F
:10191000910510F482E090E0E0917A05F0917B056A
:1019200020E030E0C0E0D0E0309711F140815181FB
:1019300048175907C0F04817590761F4828193810D
:10194000209719F09B838A832BC090937B0580930B
:101950007A0526C02115310519F04217530718F4EE
:101960009A01BE01DF01EF010280F381E02DDCCF9F
:101970002115310509F1281B390B2430310590F46C
:1019800012968D919C9113976115710521F0FB01C1
:101990009383828304C090937B0580937A05FD0135
:1019A000329644C0FD01E20FF31F819391932250C0
:1019B00031092D933C933AC02091780530917905F7
:1019C000232B41F4209106013091070130937905D2
:1019D00020937805209104013091050121153105EE
:1019E00041F42DB73EB74091080150910901241BE5
:1019F000350BE0917805F0917905E217F307A0F433
:101A00002E1B3F0B2817390778F0AC014E5F5F4F54
:101A10002417350748F04E0F5F1F50937905409308
:101A200078058193919302C0E0E0F0E0CF01DF916F
:101A3000CF9108950F931F93CF93DF93009709F4ED
:101A40008CC0FC0132971382128200917A051091AA
:101A50007B050115110581F420813181820F931FCF
:101A600020917805309179052817390779F5F09399
:101A70007905E093780571C0D80140E050E0AE17D9
:101A8000BF0750F412962D913C911397AD0121158B
:101A9000310509F1D901F3CF9D01DA0133832283A6
:101AA00060817181860F971F8217930769F4EC019B
:101AB00028813981260F371F2E5F3F4F31832083C6
:101AC0008A819B8193838283452B29F4F0937B0544
:101AD000E0937A0542C01396FC93EE931297ED01C2
:101AE000499159919E01240F351FE217F30771F4B4
:101AF00080819181840F951F029611969C938E93FD
:101B00008281938113969C938E931297E0E0F0E08C
:101B1000D80112968D919C911397009719F0F801B6
:101B20008C01F6CF8D919C9198012E5F3F4F820FD3
:101B3000931F20917805309179052817390769F4AA
:101B4000309729F410927B0510927A0502C0138217
:101B500012821093790500937805DF91CF911F9140
:101B60000F910895A0E0B0E0E8EBFDE00C94D10EF9
:101B7000EC01009721F4CB010E94850CB8C0FC0158
:101B8000E60FF71F9C0122503109E217F30708F412
:101B9000ACC0D9010D911C91119706171707B0F031
:101BA0000530110508F49FC0C801049786179707F0
:101BB00008F499C002501109061B170B01931193E9
:101BC0006D937C93CF010E941A0D8DC05B01A01A0A
:101BD000B10A4C01800E911EA0917A05B0917B054F
:101BE00040E050E0E12CF12C109709F44AC0A81510
:101BF000B905D1F56D907C901197630182E0C80E14
:101C0000D11CCA14DB0480F1A3014A195B096A01E3
:101C100082E0C80ED11C1296BC9012971396AC911C
:101C2000B5E0CB16D10440F0B282A3835183408348
:101C3000D9016D937C930AC00E5F1F4FC301800FC3
:101C4000911FF90191838083EB2DFA2FE114F104A8
:101C500031F0D7011396FC93EE93129744C0F093A2
:101C60007B05E0937A053FC08D919C9111974817B1
:101C7000590708F4AC017D0112960D90BC91A02D7E
:101C8000B3CF809178059091790588159905E1F495
:101C900046175707C8F480910401909105010097F9
:101CA00041F48DB79EB74091080150910901841B02
:101CB000950BE817F907C8F4F0937905E0937805D8
:101CC000F901718360830FC0CB010E94850C7C01F8
:101CD000009759F0A801BE010E94810ECE010E941A
:101CE0001A0DC70104C0CE0102C080E090E0CDB75C
:101CF000DEB7EEE00C94ED0E81E090E0F8940C94E9
:101D0000040FFB01DC0102C001900D9241505040D4
:101D1000D8F70895FB01DC0101900D920020E1F756
:101D20000895FB0151915523A9F0BF01DC014D91AC
:101D300045174111E1F759F4CD010190002049F018
:101D40004D9140154111C9F3FB014111EFCF81E0E5
:101D500090E001970895A1E21A2EAA1BBB1BFD017A
:101D60000DC0AA1FBB1FEE1FFF1FA217B307E4077A
:101D7000F50720F0A21BB30BE40BF50B661F771FD2
:101D8000881F991F1A9469F76095709580959095B2
:101D90009B01AC01BD01CF0108952F923F924F925C
:101DA0005F926F927F928F929F92AF92BF92CF92EB
:101DB000DF92EF92FF920F931F93CF93DF93CDB7F4
:101DC000DEB7CA1BDB0B0FB6F894DEBF0FBECDBF6C
:101DD00009942A88398848885F846E847D848C843D
:101DE0009B84AA84B984C884DF80EE80FD800C8146
:101DF0001B81AA81B981CE0FD11D0FB6F894DEBF29
:0C1E00000FBECDBFED010895F894FFCF98
:101E0C00FFFFFFFF00007C05800000000000DB00EE
:101E1C00BA08A400820096002201000000003806D7
:101E2C00BA08564D4450565F317C315F564D445084
:101E3C00560D0A00244750524D432C303634393558
:101E4C00312E3030302C412C323330372E3132356C
:101E5C00362C4E2C31323031362E343433382C452E
:101E6C002C302E30332C3136352E34382C32363053
:101E7C003430362C332E30352C572C412A3243003B
:101E8C002C00564D4450455F31005F564D44504533
:101E9C000D0A00564D4450435F005F564D4450436D
:0C1EAC000D0A00646D4C61743A200000C7
:00000001FF
