:100000000C94CD000C94F5000C94F5000C9454085D
:100010000C9454080C9454080C94F5000C94F500BE
:100020000C94F5000C94F5000C94F5000C94F5007C
:100030000C94F5000C94F5000C94F5000C94F5006C
:100040000C942A0B0C94F5000C94320A0C940C0AB4
:100050000C94F5000C94F5000C94F5000C94F5004C
:100060000C94F5000C94F500036EDB363D9A9999DB
:10007000993DABAAAA2A3E000000803F084AD73B20
:100080003BCE016E84BCBFFDC12F3D6C74319ABD67
:1000900056833DDA3D00C77F11BED9E4BB4C3E918B
:1000A0006BAAAABE000000803F072C7AA5BA6CC5D7
:1000B00090DA3B9365FC8BBC53F810FD3C56928361
:1000C0004DBD879D3AB63DCBC9BF5BBE73DA0FC944
:1000D0003F05A84CCDB2D44EB93836A9020C50B960
:1000E000918688083CA6AAAA2ABE000000803F008C
:1000F00000000000240027002A0000000008000281
:1001000001000003040700000000000000007C3C28
:100110003E5E2B3D3F2F5B5D3B2C2A225C000000A6
:100120000000250028002B0000000000230026000E
:10013000290004040404040404040202020202026A
:10014000030303030303010204081020408001029B
:10015000040810200102040810204E414E494E4967
:100160005459494E46CDCCCC3D0AD7233C17B7D184
:100170003877CC2B329595E6241FB14F0A0000202A
:10018000410000C84200401C4620BCBE4CCA1B0EA9
:100190005AAEC59D74001D1D041D11241FBECFEF56
:1001A000D8E0DEBFCDBF12E0A0E0B1E0E4E0F5E5CD
:1001B00002C005900D92A436B107D9F726E0A4E657
:1001C000B2E001C01D92A23BB207E1F710E0CCEC17
:1001D000D0E004C02197FE010E948F1ECB3CD107C6
:1001E000C9F70E9434130C94752A0C940000DC01AA
:1001F0005996ED91FC915A973097B9F0838994897B
:10020000A589B6894285538564857585841B950BC0
:10021000A60BB70B811520E89207A105B10538F0B0
:100220008FEF9FE7A0E0B0E0089580E090E00895B0
:10023000CF93DF931F92CDB7DEB76983DC01ED91D9
:10024000FC910280F381E02D41E050E0BE016F5F40
:100250007F4F09950F90DF91CF910895209166020D
:10026000309167022817390771F4909164028091E8
:100270006502981741F0E0916402F0E0ED5DFC4FFB
:10028000808190E008958FEF9FEF089508951F9368
:10029000CF93DF93DC015C962D913C915D97211506
:1002A000310539F481E090E013969C938E93129778
:1002B0003DC05196ED91FC91529750969C9150976C
:1002C000892F80951FB75E964C915E9741FB7727EB
:1002D00070F941FD6095F8944081772311F0492B26
:1002E00001C048234083E9012197F1F748E050819C
:1002F00060FF02C0592B01C058235083E9012197A8
:10030000F1F76695415099F7772321F09081892381
:10031000808303C08081982B90831FBF5C968D9152
:100320009C915D970197F1F721E030E0C901DF91E1
:10033000CF911F910895209166023091670228178E
:10034000390771F4809165022091640290E0805C2D
:100350009F4F821B910960E470E00E94671E089520
:1003600080E090E00895209166023091670228179E
:100370003907B9F49091640280916502981789F069
:10038000E0916402F0E0ED5DFC4F80812091640219
:1003900030E02F5F3F4F2F7333272093640290E0AC
:1003A00008958FEF9FEF0895FC01818D928D009746
:1003B00011F00C94850D0895CF93DF93EC01898D96
:1003C0009A8D009739F481E090E09B838A8380E0E6
:1003D00090E00BC0FC01138212820E94590EE98D3D
:1003E000FA8D22813381232B71F7DF91CF9108950C
:1003F000CF93DF93EC010E94850D882311F01D82BD
:1004000081E0DF91CF9108953F924F925F926F927A
:100410007F928F929F92AF92BF92CF92DF92EF9294
:10042000FF920F931F93CF93DF93CDB7DEB72C9737
:100430000FB6F894DEBF0FBECDBF5C01DC015B964A
:100440008D909C905C971696CD90DD90ED90FC90F1
:100450001997C114D104E104F10439F0BFEFCB1AAC
:10046000DB0AEB0AFB0A312C07C0F401C080D18003
:10047000E280F38033243394F40181859285A3854F
:10048000B4859C01AD012F5F3F4F4F4F5F4F2987D0
:100490003A874B875C87260137011D821E821F82A7
:1004A0001886F40181859285A385B4852D813E81CE
:1004B0004F815885281739074A075B0708F063C042
:1004C00089859A85AB85BC858C159D05AE05BF05D4
:1004D00050F482E0C82ED12CE12CF12C92E0492E70
:1004E000512C612C712C9E012F5F3F4FB701A6014B
:1004F000C4010E94980C882309F445C089819A811F
:10050000AB81BC81892B8A2B8B2B41F026013701D3
:100510009FEF491A590A690A790A05C0C414D5041B
:10052000E604F70491F02D813E814F8158852F5FBD
:100530003F4F4F4F5F4F2D833E834F8358873FEF91
:10054000C31AD30AE30AF30AACCF0FEF1FEF2FEF62
:100550003FE0B301A201C4010E94F80B882399F087
:10056000D50116964D915D916D917C91199741152C
:1005700051056105710549F093018201C4010E9492
:10058000F80B811102C080E02AC0D50116964D9269
:100590005D926D927C921997332051F0D301C20184
:1005A0000196A11DB11DF40180839183A283B383C1
:1005B000F5018789908DA18DB28D892B8A2B8B2B8C
:1005C00069F4D50157964D925D926D927C925A973F
:1005D00014968C911497806814968C9381E02C96D5
:1005E0000FB6F894DEBF0FBECDBFDF91CF911F9144
:1005F0000F91FF90EF90DF90CF90BF90AF909F90C2
:100600008F907F906F905F904F903F9008958FB73D
:10061000F894809164038FBF089561E0FC018481A8
:100620000E948D0A809163038111109263030895E3
:100630008EBD00000DB407FEFDCF8EB508958FEF7F
:100640000C9418030F931F93CF93DF93EB010E9439
:100650001E0B8B010E941F038F3F49F00E941E0B4F
:10066000601B710B6C177D07A8F380E001C081E06F
:10067000DF91CF911F910F910895CF93DF93EC01FC
:100680008E81882389F08F8198859C012F5F3F4F51
:1006900038872F838230924018F40E941F03F3CFD3
:1006A000CE010E940D031E82DF91CF9108958CBD73
:1006B0009DBD0895CF93DF93EC0180916303811179
:1006C00009C081E080936303809112069091130624
:1006D0000E94570360E08C81DF91CF910C948D0ACA
:1006E000CF92DF92FF920F931F93CF93DF9300D0AF
:1006F00000D0CDB7DEB76C01F62E29833A834B8349
:100700005C830E943D03C6010E945A036CE271E0C3
:10071000C6010E9422038F2D80640E94180308E105
:1007200010E05C814B813A812981DA01C901002EF8
:1007300004C0B695A795979587950A94D2F7298313
:100740003A834B835C830E94180308501109298166
:100750003A814B815C81083F8FEF180731F7FF200A
:1007600029F0E8E0FE1204C087E803C085E901C073
:100770008FEF0E94180310E00E941F03F60182878A
:1007800087FF04C01F3F11F01F5FF6CF0F900F903F
:100790000F900F90DF91CF911F910F91FF90DF90FD
:1007A000CF900895AF92BF92CF92DF92EF92FF92D7
:1007B0000F931F93CF93DF93EC016901C801820F60
:1007C000931F8130924008F070C08E81882371F0B1
:1007D00088819981AA81BB81481759076A077B07DD
:1007E00029F48F819885C816D906B0F548835983B6
:1007F0006A837B838B85833039F089E0440F551FF2
:10080000661F771F8A95D1F79A01AB0161E1CE018E
:100810000E947003882319F083E08D8346C00E94F4
:100820001E0B5B010E941F038A878F3F49F40E94C1
:100830001E0B6A197B096D327140A0F38FE003C073
:100840008E3F31F08DE08D83CE010E940D032DC0CF
:1008500018861F8281E08E838F8198858C159D0577
:1008600040F40E941F038F819885019698878F839B
:10087000F3CF6701E00EF11ECE14DF0431F00E94C9
:100880001F03F60181936F01F7CF8F819885080FC1
:10089000191F18870F838985882319F001151240C5
:1008A00048F0CE010E943D0305C0CE010E940D0319
:1008B00080E001C081E0DF91CF911F910F91FF9007
:1008C000EF90DF90CF90BF90AF9008952F923F921E
:1008D0004F925F926F927F928F929F92AF92BF9250
:1008E000CF92DF92EF92FF920F931F93CF93DF93FC
:1008F00000D0CDB7DEB7FC018581882309F4D9C0CB
:10090000848180FFD6C021E02A8343895489658988
:10091000768982859385A485B585481759076A0726
:100920007B0709F41A826F013A81832F90E0DE0180
:1009300011964D013F01B6E06B0E711C892B09F435
:100940007DC0D6011A964D915D916D917C911D9758
:100950005A01B1E0BB22F60125811A012B0189E081
:1009600056944794379427948A95D1F7838D948D24
:10097000223061F4FC01828D938DA48DB58DBC0174
:10098000CD01620D731D841D951D45C0DC011496BB
:100990001C9111501221A114B104D1F4111118C0ED
:1009A000452B462B472B51F4F6018789908DA18D5D
:1009B000B28D86839783A087B1870AC0468157810D
:1009C0006085718593010E94980C882309F471C099
:1009D000F601238D348D86819781A085B18502979C
:1009E000A109B109AC01BD01F901058404C0440F9E
:1009F000551F661F771F0A94D2F786859785A089B1
:100A0000B189840F951FA61FB71FBC01CD01610FCF
:100A1000711D811D911DD60114962C9126FF14C0C5
:100A20000091010110910201209103013091040114
:100A3000601771078207930751F506C0FA81FF23FB
:100A4000C1F1898190E037C040E00E94AF0B88235C
:100A500081F1F501ED58FC4FD401CF010196E81763
:100A6000F90719F021912D93FACFEFEF8E1A9E0A14
:100A7000F60182859385A485B5850196A11DB11DDA
:100A800082879387A487B58780E090E057CF740171
:100A900001E010E09501AB01BC01809173059091DC
:100AA00074050E94D203882321F0BFEF8B1A9B0AA2
:100AB000DFCF8FEF9FEF0F900F90DF91CF911F91BE
:100AC0000F91FF90EF90DF90CF90BF90AF909F90ED
:100AD0008F907F906F905F904F903F902F900895F0
:100AE0004F925F926F927F929F92AF92BF92CF92FE
:100AF000DF92EF92FF920F931F93CF93DF93CDB7C7
:100B0000DEB72B970FB6F894DEBF0FBECDBF7C01CA
:100B1000DC011596AC90A1108AC1FE0131966F01DF
:100B200090E28BE08E0F91938E13FDCFDA0130E0CF
:100B300087E09D91992339F19E3219F0EEE0F1E0C2
:100B40000AC08A3009F474C138E08AE0F2CF3196E5
:100B5000491709F46DC144914111F9CF831708F485
:100B600067C14FED490F4E3508F062C141E0430FB8
:100B7000F601E30FF11D3FE9390F3A3108F49052C5
:100B80009083342FD6CF8981803209F451C1B22E9F
:100B90008B01DB015B968D919C915C97F701948FA3
:100BA000838F16961D921D921D921C921997FB0120
:100BB0001286138614861586712CF801828593851A
:100BC000A485B585438954896589768984179507F5
:100BD000A607B70708F061C025E0B695A7959795D9
:100BE00087952A95D1F7F82FFF706F2ED8011596AB
:100BF0008C91823008F41CC1C8010E94660497FDE4
:100C000017C1F80182859385A485B5854F96A11DEE
:100C1000B11D82879387A487B587F0E26F9EC001DC
:100C20001124BC016D587C4F6115710509F400C198
:100C3000DB012C91222319F0253EC1F427C071104D
:100C40000EC0F701628A409101015091020160914A
:100C500003017091040146875787608B718BFC01FB
:100C6000ED58FC4F8081811113C015C04BE050E05E
:100C7000C6010E944623892B09F09FCF8B2D8073DC
:100C8000803309F4D5C04B2D662DCCC07720C9F236
:100C90007724739492CF772473948B2D8271823151
:100CA00009F0C6C07720D1F0D7011E966D917D91D5
:100CB0008D919C91519741E00E94AF0B882309F4DC
:100CC000B7C0F7016289F0E26F9FB00111246D583F
:100CD0007C4F6115710509F079C0AAC0D80115963D
:100CE0008C91823009F4A4C0C8010E9404028823B8
:100CF00009F49EC0D8015B96ED91FC915C97169625
:100D00004D905D906D907C901997B2E04B1A510810
:100D100061087108058404C0440C551C661C771CCE
:100D20000A94D2F786859785A089B189480E591E05
:100D30006A1E7B1E9480E1E04E1A5108610871081A
:100D4000992009F10E94740B882309F471C0E3E72C
:100D5000F3E0119225E0E337F207D9F7D301C2019E
:100D6000890D911DA11DB11D809301019093020178
:100D7000A0930301B0930401809165038160809387
:100D800065039A94DDCFD8015B96ED91FC915C9759
:100D900080E092E0A0E0B0E0058404C0880F991FD5
:100DA000AA1FBB1F0A94D2F7F801438954896589A9
:100DB0007689840F951FA61FB71F838B948BA58BF5
:100DC000B68BD70152961C9263E773E080E2FB0179
:100DD00011928A95E9F78BE0F601DB0101900D9203
:100DE0008A95E1F781E298E2DB0151969C938E931C
:100DF000509720E038E01F963C932E931E97539611
:100E00009C938E93529759969C938E93589757968E
:100E10003C932E9356970E94740B882349F04B2DD8
:100E2000F7016289C7010E94FA0FA82E01C0A12C08
:100E30008A2D2B960FB6F894DEBF0FBECDBFDF9183
:100E4000CF911F910F91FF90EF90DF90CF90BF90C7
:100E5000AF909F907F906F905F904F900895FC01AE
:100E6000818D928D009711F00C9466048FEF9FEFA7
:100E700008950F931F93CF93DF93FC01818D928D83
:100E80000097B9F0EF010E9466048C010F3F8FEFCD
:100E9000180791F0898D9A8DFC01428553856485F0
:100EA000758541505109610971090E94C30DC8013E
:100EB00005C080E090E002C08FEF9FEFDF91CF91FF
:100EC0001F910F910895EF92FF920F931F93CF936D
:100ED000DF93EC017901411551056105710511F4AC
:100EE00082E13CC08B85833039F089E0440F551F87
:100EF000661F771F8A95D1F79A01AB0168E1CE0191
:100F00000E947003882311F084E028C08EEF0E94B5
:100F1000180387018EEFF81AF80181918F010E9462
:100F200018030E151F05C1F78FEF0E9418038FEFEE
:100F30000E9418030E941F038A878F71853031F049
:100F400081E18D83CE010E940D0309C068E572E046
:100F5000CE010E942203811107C085E18D83CE015D
:100F60000E940D0380E013C020E030E0A9016DE095
:100F7000CE010E947003811104C00E941F038823C8
:100F800011F084E1EBCFCE010E940D0381E0DF91EF
:100F9000CF911F910F91FF90EF900895FC01DB011D
:100FA00012968D919C9113979383828384E491E0B0
:100FB0009183808314968C911497848315968C91D9
:100FC0001597858316964D915D916D917C9119973A
:100FD00046835783608771871A964D915D916D9115
:100FE0007C911D9742875387648775871E964D9124
:100FF0005D916D917C91519746875787608B718B7E
:1010000052968C915297828B53964D915D916D9132
:101010007C915697438B548B658B768B57964D916D
:101020005D916D917C915A97478B508F618F728F34
:101030005B968D919C915C97948F838F0895EF922E
:10104000FF920F931F93CF93DF93EC017B018A01F3
:101050001B821A8288EE93E0A0E0B0E08C839D832F
:10106000AE83BF838CE491E0998388838DE190E027
:101070000E944A219A8F898F009779F02DE1F7011C
:10108000DC0101900D922A95E1F74CE050E0B801A7
:10109000CE010C960E946E23188EDF91CF911F9186
:1010A0000F91FF90EF9008951F920F920FB60F923D
:1010B00011242F933F934F935F936F937F938F935D
:1010C0009F93AF93BF93EF93FF93E0916602F091EC
:1010D0006702309709F451C0968DA685B78585853E
:1010E00091FF04C09C91892329F447C09C918923D6
:1010F00009F043C0A389B4899C918589809589238F
:101100008C93868997890197F1F7608D718DA685FB
:10111000B785558538E020E0CB010197F1F7822FA4
:1011200090E095958795282F4C91452309F02068EC
:10113000315091F7868D81FD20958091650290E078
:1011400001968F73992730916402381749F0A09166
:101150006502B0E0AD5DBC4F2C938093650203C087
:10116000868D8160868F828D938D0197F1F7A3899B
:10117000B4899C918589892B8C93FF91EF91BF91C4
:10118000AF919F918F917F916F915F914F913F911F
:101190002F910F900FBE0F901F901895E09166024F
:1011A000F0916702E817F90769F4A389B4899C9163
:1011B0008589809589238C9310926702109266022C
:1011C00081E0089580E008958F929F92AF92BF9240
:1011D000CF92DF92EF92FF920F931F93CF93DF9303
:1011E000EC017B01CB010E9449270E940620CB0124
:1011F00064E670E00E94671E8B01C7010E944927C8
:101200004B015C01B801012E000C880B990B0E9468
:10121000D5286B017C0184E6809FB001819F700D11
:101220001124072E000C880B990B0E94D5289B01D6
:10123000AC01C501B4010E94951E20E030E040E7FA
:1012400052E40E94941F9B01AC01C701B6010E94A9
:10125000961E22E0CC35D20719F0CE55D24009F4C3
:101260009058DF91CF911F910F91FF90EF90DF90F9
:10127000CF90BF90AF909F908F900895FC01918D7B
:10128000828D981761F0828DDF01A80FB11D5D96E8
:101290008C91928D9F5F9F73928F90E008958FEF56
:1012A0009FEF0895FC01918D828D981731F0828D0A
:1012B000E80FF11D858D90E008958FEF9FEF089561
:1012C000FC01918D228D892F90E0805C9F4F821BC5
:1012D00091098F739927089585E795E00E94600929
:1012E00021E0892B09F420E0822F0895FC01848DF0
:1012F000DF01A80FB11DA35ABF4F2C91848D90E040
:1013000001968F739927848FA689B7892C93A0891A
:10131000B1898C9180648C93938D848D981306C0D1
:101320000288F389E02D80818F7D80830895EF927C
:10133000FF920F931F93CF93DF93EC0181E0888F8F
:101340009B8D8C8D981305C0E889F989808185FD76
:1013500024C0F62E0B8D10E00F5F1F4F0F73112767
:10136000E02E8C8DE8120CC00FB607FCFACFE8898E
:10137000F989808185FFF5CFCE010E947609F1CFF2
:101380008B8DFE01E80FF11DE35AFF4FF0820B8FAA
:10139000EA89FB898081806207C0EE89FF896083CA
:1013A000E889F98980818064808381E090E0DF9121
:1013B000CF911F910F91FF90EF900895CF93DF93FE
:1013C000EC01888D8823C9F0EA89FB89808185FD3D
:1013D00005C0A889B9898C9186FD0FC00FB607FC9E
:1013E000F5CF808185FFF2CFA889B9898C9185FFDF
:1013F000EDCFCE010E947609E7CFDF91CF9108951E
:1014000080E090E0892B29F00E946C0981110C94F6
:10141000000008950E9441231F920F920FB60F9271
:1014200011242F933F934F935F936F937F938F93E9
:101430009F93AF93BF93EF93FF9385E795E00E944F
:101440007609FF91EF91BF91AF919F918F917F911D
:101450006F915F914F913F912F910F900FBE0F9021
:101460001F9018951F920F920FB60F9211242F9371
:101470008F939F93EF93FF93E0918505F0918605FD
:101480008081E0918B05F0918C0582FD12C09081E6
:1014900080918E058F5F8F7320918F05821751F099
:1014A000E0918E05F0E0EB58FA4F958F80938E0512
:1014B00001C08081FF91EF919F918F912F910F90AB
:1014C0000FBE0F901F901895833081F028F4813063
:1014D00099F08230A1F008958730A9F08830B9F0F2
:1014E0008430D1F4809180008F7D03C08091800092
:1014F0008F7780938000089584B58F7702C084B57C
:101500008F7D84BD08958091B0008F7703C0809156
:10151000B0008F7D8093B00008951F93CF93DF9329
:10152000282F30E0F901E650FF4F8491F901EA5B82
:10153000FE4FD491F901EE5CFE4FC491CC23C9F06B
:10154000162F81110E94640AEC2FF0E0EE0FFF1FAE
:10155000E25EFE4FA591B4918FB7F894111105C0CA
:101560009C91ED2FE095E92302C0EC91ED2BEC93DB
:101570008FBFDF91CF911F910895CF93DF9390E0BC
:10158000FC01EA5BFE4F2491FC01EE5CFE4F84916E
:10159000882361F190E0880F991FFC01E051FF4F13
:1015A000C591D491FC01E25EFE4FA591B491611109
:1015B00009C09FB7F8948881209582238883EC9195
:1015C0002E230BC0623061F49FB7F8943881822FCC
:1015D000809583238883EC912E2B2C939FBF06C08C
:1015E0008FB7F894E8812E2B28838FBFDF91CF919E
:1015F00008953FB7F89480916F0390917003A09184
:101600007103B091720326B5A89B05C02F3F19F056
:101610000196A11DB11D3FBFBA2FA92F982F882772
:10162000820F911DA11DB11DBC01CD0142E0660FCD
:10163000771F881F991F4A95D1F708952FB7F894FF
:1016400060916B0370916C0380916D0390916E03B8
:101650002FBF08951F920F920FB60F9211242F9350
:101660003F938F939F93AF93BF9380916B03909120
:101670006C03A0916D03B0916E0330916A0323E077
:10168000230F2D3720F40196A11DB11D05C026E8BA
:10169000230F0296A11DB11D20936A0380936B0353
:1016A00090936C03A0936D03B0936E0380916F03CE
:1016B00090917003A0917103B09172030196A11DE6
:1016C000B11D80936F0390937003A0937103B09347
:1016D0007203BF91AF919F918F913F912F910F9086
:1016E0000FBE0F901F901895809165038823A9F174
:1016F0004091010150910201609103017091040138
:1017000023E733E080917305909174050E9463078D
:10171000811102C080E008954091660350916703F3
:101720006091680370916903411551056105710568
:1017300091F023E733E080917305909174050E9446
:101740006307882339F3109266031092670310929F
:101750006803109269031092650381E008958F92E7
:101760009F92AF92BF92EF92FF920F931F93CF93EE
:101770004B015C01C42F8091010190910201A09165
:101780000301B091040188159905AA05BB0501F173
:101790000E94740B811102C080E020C083E7E82E14
:1017A00083E0F82E00E012E020E030E0B501A40173
:1017B00080917305909174050E94D203882361F390
:1017C0008092010190920201A0920301B092040163
:1017D00080916503C82BC093650381E0CF911F9171
:1017E0000F91FF90EF90BF90AF909F908F900895D2
:1017F0004F925F926F927F928F929F92AF92BF9221
:10180000CF92DF92EF92FF920F931F93CF93DF93CC
:10181000EC016A017B012801390142305105610563
:10182000710510F480E073C089859A85AB85BC850D
:101830000196A11DB11D84179507A607B70790F360
:101840008B889C88AD88BE888F89803129F4BB271E
:10185000AF2D9E2D8D2D09C0DB01CA0147E0B69545
:10186000A795979587954A95D1F7880E991EAA1E38
:10187000BB1E8091010190910201A0910301B091E2
:10188000040188169906AA06BB0679F48F8980316F
:10189000A1F4DD24EE24FF24C601880F991FFC016A
:1018A000ED58FC4F5182408219C040E0C501B4019F
:1018B0000E94AF0B8111EACFB5CFE894C7F8DD24C1
:1018C000EE24FF24C601880F991F880F991FFC0181
:1018D000ED58FC4F40825182628273828091650391
:1018E0008160809365038A89823080F08D819E813A
:1018F000AF81B885880E991EAA1EBB1E8092660312
:1019000090926703A0926803B092690381E0DF912F
:10191000CF911F910F91FF90EF90DF90CF90BF90EC
:10192000AF909F908F907F906F905F904F900895B1
:101930008F929F92AF92BF92CF92DF92EF92FF92DF
:101940000F931F93CF93DF93FC0181859285A3852D
:10195000B4850196A11DB11D84179507A607B70789
:1019600010F480E05CC083899489A589B689C78911
:10197000C03129F4852E962EA72EBB2409C04A011A
:101980005B01C7E0B694A79497948794CA95D1F762
:10199000E9016A017B018F01BC01CD01680D791D50
:1019A0008A1D9B1D8090010190900201A09003016F
:1019B000B0900401681579058A059B0599F4F80132
:1019C00087898031A9F4B701A601552766277727B3
:1019D000440F551FFA01ED58FC4F80819181A0E022
:1019E000B0E018C040E00E94AF0B8111E8CFB9CF42
:1019F000B701A6014F77552766277727440F551F54
:101A0000440F551FFA01ED58FC4F80819181A2814E
:101A1000B381BF7088839983AA83BB8381E0DF9100
:101A2000CF911F910F91FF90EF90DF90CF90BF90DB
:101A3000AF909F908F9008954F925F926F927F9298
:101A4000AF92BF92CF92DF92EF92FF920F931F93CC
:101A5000CF93DF9300D000D0CDB7DEB78C014983A0
:101A60005A836B837C835901C12CD12C7601412C84
:101A700082E0582E612C712C49815A816B817C81C6
:101A80009E012F5F3F4FC8010E94980C882351F19F
:101A9000D301C201F801058404C0880F991FAA1F51
:101AA000BB1F0A94D2F7C80ED91EEA1EFB1E49813D
:101AB0005A816B817C818789803129F088EF9FEF83
:101AC000AFEFBFE004C088EF9FEFA0E0B0E04817A1
:101AD00059076A077B0780F2F501C082D182E28252
:101AE000F38281E00F900F900F900F90DF91CF91D4
:101AF0001F910F91FF90EF90DF90CF90BF90AF902C
:101B00007F906F905F904F900895CF93DF93EC019B
:101B10008D818823A1F18C8187FF2DC06E857F8503
:101B20008889998941E00E94AF0B882341F1EA89B5
:101B300080E2E89FF0011124DF01AD58BC4F1097FF
:101B4000F1F08D81823050F44B895C896D897E89FA
:101B50005C964D935D936D937C935F978F89988D81
:101B6000A98DBA8DED58FC4F938F828FB58BA48BC6
:101B70008C818F778C83DF91CF910C94740B80E0F4
:101B8000DF91CF9108958F929F92AF92BF92CF92A3
:101B9000DF92EF92FF920F931F93CF93DF93EC01AD
:101BA0008D81811102C080E077C00B891C892D894D
:101BB0003E890417150726073707A8F36A017B013A
:101BC000823029F4CA86DB86EC86FD860DC0C114FE
:101BD000D104E104F10451F41E821F821886198693
:101BE0001A861B861C861D8681E056C08A849B84CB
:101BF000AC84BD84EB8DFC8D258530E0275F3F4FA5
:101C0000B501A4014150510961097109022E04C0B6
:101C100076956795579547950A94D2F7D701C601EF
:101C20000197A109B10904C0B695A7959795879525
:101C30002A95D2F784179507A607B70720F08928B9
:101C40008A288B2849F44F89588D698D7A8D4E8367
:101C50005F836887798704C0841B950BA60BB70B3D
:101C60004C015D018E010A5F1F4F81149104A10494
:101C7000B10409F4A7CF4E815F8168857985980109
:101C80008B8D9C8D0E94980C91E0891A9108A10877
:101C9000B1088111EACF87CFDF91CF911F910F91CA
:101CA000FF90EF90DF90CF90BF90AF909F908F907C
:101CB00008952F923F924F925F926F927F928F92F0
:101CC0009F92AF92BF92CF92DF92EF92FF920F93CB
:101CD0001F93CF93DF9300D000D0CDB7DEB78C0138
:101CE0005B011A01DC0115968C9115978130C9F4BE
:101CF00014968C9181FF15C082FF1BC0F8014389A7
:101D000054896589768982859385A485B5858417EC
:101D10009507A607B70769F0C8010E94C30D811196
:101D200008C081E090E0F8019383828380E090E036
:101D300039C1610183C0D8015B968D919C915C97FC
:101D4000FC01248121502A013B0139E076946794FB
:101D5000579447943A95D1F7722E74207A01F1E0A6
:101D6000FF22772009F476C080E092E08E199F0967
:101D700046018C159D0508F44C01D8015B962D9108
:101D80003C915C9716968D919D910D90BC91A02DE4
:101D90000297A109B109F901058404C0880F991FB0
:101DA000AA1FBB1F0A94D2F746855785608971899F
:101DB000840F951FA61FB71F9C01AD01270D311D74
:101DC000411D511D29013A01811432E0930609F0A9
:101DD00088C08091010190910201A0910301B0910E
:101DE000040184159505A605B70559F48FEF9FEFFB
:101DF000DC018093010190930201A0930301B09351
:101E000004019501B301A2018091730590917405BD
:101E10000E946307882309F484CF9EEFB91AC8187B
:101E2000D908F80182859385A485B585880D991D0B
:101E3000A11DB11D82879387A487B587D8011A9603
:101E40004D915D916D917C911D97C114D10409F064
:101E500072CF87C0E114F10409F086CF16964D9138
:101E60005D916D917C911997411551056105710541
:101E700059F457968D919D910D90BC91A02D00978E
:101E8000A105B10541F521C09E012F5F3F4F0E9482
:101E9000980C882309F44BCF89819A81AB81BC814E
:101EA000F801238D348DF9012789203129F048EF7D
:101EB0005FEF6FEF7FE004C048EF5FEF60E070E03E
:101EC00084179507A607B70730F0C8010E940402DF
:101ED00081114ACF26CFF80186839783A087B187E7
:101EE00043CFE114F10429F5D8011A964D915D9183
:101EF0006D917C911D9753968D919D910D90BC9104
:101F0000A02D481759076A077B0798F00E94740BA9
:101F1000882309F406CF4092010150920201609299
:101F200003017092040180916503816080936503D1
:101F300008C041E0C301B2010E94AF0B882309F43D
:101F4000F0CED501F701ED58FC4FCF01880D991D5A
:101F5000E817F90719F02D912193FACFA80CB91CB5
:101F60005ECF53968D919D910D90BC91A02D8417BD
:101F70009507A607B70740F4F801438B548B658B90
:101F8000768B848180688483D80114968C9183FD3C
:101F900002C0C10107C0C8010E94850D882309F451
:101FA000C0CEF7CF0F900F900F900F90DF91CF9191
:101FB0001F910F91FF90EF90DF90CF90BF90AF9067
:101FC0009F908F907F906F905F904F903F902F9059
:101FD0000895CF93DF931F92CDB7DEB7698341E0B9
:101FE00050E0BE016F5F7F4F0E94590E0F90DF914E
:101FF000CF9108958F929F92AF92BF92CF92DF922E
:10200000EF92FF920F931F93CF93DF9300D000D0F6
:10201000CDB7DEB77C0180E2689F60011124960194
:102020002D583C4FD9011B969C91917121F0842F22
:10203000827409F097C0142FF701628B809101011F
:1020400090910201A0910301B091040186879787C6
:10205000A08BB18BF601ED58FC4F4489558960E0A7
:1020600070E0BA0155274427D70157964D935D93E9
:102070006D937C935A97828D938DA0E0B0E0482BAE
:10208000592B6A2B7B2BD70157964D935D936D93FC
:102090007C935A97D9011B968C91887159F4848D41
:1020A000958DA68DB78DF701838B948BA58BB68B01
:1020B00081E012C0803109F055C097012D5E3F4F7D
:1020C000D7015B968D919C915C970E941C0D882393
:1020D00009F448C084E0F7018583812F8F70D70110
:1020E00014968C931497F701168217821086118626
:1020F0001A961D921D921D921C921D9716FF34C0B8
:1021000015968C91813071F511FF2CC0F701438930
:10211000548965897689452B462B472B09F461C084
:1021200040E050E0BA01C7010E94C30D8823D1F0FE
:10213000F7018788908CA18CB28CC38CD48C82E000
:1021400090E0A0E0B0E0F60180839183A283B383A6
:102150009E012F5F3F4FB501A401C6010E94980C5C
:10216000811104C080E03DC081E03BC000E010E090
:102170009801B501A401C6010E94F80B882391F3D0
:1021800089809A80AB80BC80D60157968C91803133
:1021900029F088EF9FEFAFEFBFE004C088EF9FEF1B
:1021A000A0E0B0E088169906AA06BB0688F2D7011F
:1021B00057961D921D921D921C925A97F701138AF1
:1021C000148A158A168A848180688483C7010E94D4
:1021D000850D882339F240E050E0BA01C7010E9422
:1021E000C30D0F900F900F900F90DF91CF911F9123
:1021F0000F91FF90EF90DF90CF90BF90AF909F90A6
:102200008F900895CF92DF92EF92FF920F931F93DA
:10221000CF93DF936C017A018B01C0E0D0E0CE1543
:10222000DF0589F0D8016D918D01D601ED91FC910A
:102230000190F081E02DC6010995892B11F47E01F2
:1022400002C02196ECCFC701DF91CF911F910F9172
:10225000FF90EF90DF90CF9008956115710579F0B0
:10226000FB0101900020E9F73197AF01461B570BA6
:10227000DC01ED91FC910280F381E02D099480E076
:1022800090E00895E0917A06F0917B068E179F0703
:10229000F0F530917F06332361F0639FB001112484
:1022A000672F439FA0011124452F239F90011124E4
:1022B000232F3091850650918206E0918006F0919F
:1022C0008106351308C0DC01AA0FBB1F8A0F9B1FB4
:1022D0008E0F9F1F0AC0880F991F880F991F8E0F9E
:1022E0009F1FFC01E30FF11D108230918206FC015B
:1022F000E30FF11D608330918306FC01E30FF11DB4
:10230000408330918406FC01E30FF11D2083089582
:102310008F929F92AF92BF92CF92DF92EF92FF92F5
:10232000CF93DF93C82F84E196E090937405809358
:102330007305CC2369F1C53010F080E00DC140E099
:1023400060E070E0CB010E94AF0B8823B1F320E185
:10235000C29FC00111248D599C4FFC01E254FE4FD5
:1023600020812F7751F73C964081518162817381A2
:10237000443651056105710500F33497C080D18062
:10238000E280F380C114D104E104F10421F4D5CF3B
:10239000C12CD12C760140E0C701B6010E94AF0BE1
:1023A000882359F280917E0390917F03811592409A
:1023B00021F6A0918303AA2309F4BFCF6091810382
:1023C000709182036115710509F4B7CF20918003E4
:1023D000222309F4B2CFA09332062093240680E092
:1023E00030E0E1E0F0E0C82FAF01082E02C0440F5A
:1023F000551F0A94E2F72417350741F0982F8F5F95
:10240000983089F789E080932D0697CF80932D0629
:102410002091890330918A032115310519F040E09C
:1024200050E008C0209197033091980340919903A0
:1024300050919A0320932506309326064093270651
:102440005093280646015701860E971EA11CB11C09
:102450008092330690923406A0923506B0923606EA
:10246000E0918403F0918503F0933906E0933806F8
:10247000B0E00E94242A860E971EA81EB91E8092E4
:102480003A0690923B06A0923C06B0923D0685E04B
:10249000EE0FFF1F8A95E1F7E150FE4FEF2FFF2768
:1024A000E6958E0E9F1EA11CB11C80922E06909266
:1024B0002F06A0923006B09231062091860330910B
:1024C00087032115310521F0A90160E070E008C003
:1024D00040919303509194036091950370919603FA
:1024E000D701C60188199909AA09BB09840F951F4C
:1024F000A61FB71F04C0B695A79597958795CA954F
:10250000D2F78093290690932A06A0932B06B093C6
:102510002C06853F2FE09207A105B10510F48CE051
:1025200018C0853F9F4FA105B10510F480E111C08F
:1025300080919F039091A003A091A103B091A20369
:1025400080933A0690933B06A0933C06B0933D06D9
:1025500080E28093370681E0DF91CF91FF90EF908A
:10256000DF90CF90BF90AF909F908F900895CF93C2
:10257000DF93FC01248135814217530780F4FB016E
:10258000DC01CD91DC9160817181CE01840F951FBA
:102590000E947D23009719F08C1B9D0B02C08FEFCA
:1025A0009FEFDF91CF910895EF92FF920F931F93CA
:1025B000CF93DF93EC01198218821B821A821D824D
:1025C0001C8261157105A9F17B01FB0101900020BE
:1025D000E9F731978F01061B170BB8016F5F7F4F2B
:1025E00080E090E00E947722009759F099838883D9
:1025F0001B830A832C813D81232B81F4FC011082F3
:102600000DC088819981009711F00E94DF21198205
:1026100018821D821C821B821A820BC01D830C83B0
:10262000B701DF91CF911F910F91FF90EF900C9424
:102630006723DF91CF911F910F91FF90EF90089545
:102640000F931F93CF93DF93EC010E942D118C0108
:1026500060E672E0CE010E942D11800F911FDF9184
:10266000CF911F910F910895CF93DF93CDB7DEB730
:10267000C859D1090FB6F894DEBF0FBECDBF78940C
:1026800084B5826084BD84B5816084BD85B5826077
:1026900085BD85B5816085BD80916E008160809328
:1026A0006E00109281008091810082608093810091
:1026B00080918100816080938100809180008160A1
:1026C000809380008091B10084608093B1008091FC
:1026D000B00081608093B00080917A008460809324
:1026E0007A0080917A00826080937A0080917A00EB
:1026F000816080937A0080917A00806880937A006C
:102700001092C10060E871E085E795E00E94201317
:1027100010921F0610921D0610921A0610921906AA
:102720008AE0809318060E941E0B8B0161E0809165
:1027300018060E94BD0A61E0809118060E948D0A69
:10274000FFB6F89480916802811127C0ECE3F1E0B4
:102750008491E0E5F1E09491E82FF0E0EE0FFF1FA7
:10276000E051FF4FA591B491EC91E92321F461E090
:102770008AE00E948D0A61E08AE00E94BD0A8CB561
:1027800080618CBD8CB580648CBD61E08DE00E9461
:10279000BD0A61E08BE00E94BD0A809168028F5FF4
:1027A00080936802FFBE82E58093120610921306A2
:1027B00080911206909113060E945703AAE0FA2E08
:1027C0008FEF0E941803FA94F110FACF84E196E09B
:1027D0000E945A0320E030E0A90160E084E196E025
:1027E0000E947003F82E80931E0681E0F81649F0CF
:1027F0000E941E0B601B710B613D774058F381E016
:1028000056C02AEA31E040E050E068E084E196E01A
:102810000E94700382FF03C0F0921F0610C0F4E014
:10282000FF2E0E941F0380931E06FA94F110F9CF29
:102830008A3A11F082E03BC082E080931F068091CB
:102840001F06823021F0C12CD12C760105C0C12C8D
:10285000D12CE12CE0E4FE2E20E030E0A90167E37A
:1028600084E196E00E947003A701960169E284E189
:1028700096E00E94700380931E06882349F00E9410
:102880001E0B601B710B613D774030F388E00FC079
:1028900080911F06823001F520E030E0A9016AE353
:1028A00084E196E00E947003882341F086E08093E3
:1028B000190684E196E00E940D03AFC00E941F0339
:1028C000807C803C19F483E080931F060E941F03E4
:1028D0000E941F030E941F0384E196E00E940D03E3
:1028E00080E5809312061092130681E00E94881101
:1028F000882329F080914306882341F08EC080E030
:102900000E948811882309F488C0F4CF809137068B
:10291000803109F582E080934306109255061092AB
:1029200056061092570610925806809138069091DC
:102930003906A0E0B0E075E0880F991FAA1FBB1F01
:102940007A95D1F78093510690935206A09353063F
:10295000B09354061FC0803209F05FC083E08093BB
:10296000430640913A0650913B0660913C067091B7
:102970003D06409355065093560660935706709354
:10298000580621E536E080E296E00E941C0D88237F
:1029900009F443C080E296E090935A06809359066A
:1029A00081E08093420610924406109245061092F0
:1029B0004606109247061092480610924906109259
:1029C0004A0610924B0610924C0610924D06109239
:1029D0004E0610924F0610925006612C712C7E010B
:1029E000A3E7EA0EF11CE0910B01F0910C01C8572E
:1029F000DF4FF983E883C858D040C7010296C45717
:102A0000DF4F99838883CC58D0405E019BE3A90EA9
:102A1000B11CDE0111966D0183C061EA71E085E7AA
:102A200095E00E94201310920001CDC121E0AE017B
:102A3000485A5F4FB801892D982D0E947005382E95
:102A4000A6E00E331A0709F0ABC0882309F4ADC025
:102A50008E01025E1F4F902F812F092D182D4C01E2
:102A6000252D342DF701E20FF31F80818F3211F4F1
:102A70002F5F3F4FFE01E85AFF4F40E050E0D70183
:102A8000A20FB31F8C918F3251F0882341F04F5F1A
:102A90005F4F2F5F3F4F81934C30510581F7E8E541
:102AA000F0E0EC0FFD1FE40FF51F1082F701E20FBD
:102AB000F31F80818F3211F42F5F3F4F522E432E30
:102AC000F701E20FF31F30801C821B8284E491E047
:102AD0009A8389831E8221E0AE01485A5F4FB80174
:102AE000C6010E947005882309F452C0C6010E94E5
:102AF000F80131109BCFB6E00E331B0719F0C80167
:102B00000E94F801E3E66E16710411F410920001C0
:102B1000BFEF6B1A7B0AE4E66E16710409F453C129
:102B2000C857DF4F88819981C858D040F7019183F9
:102B300080838AE0C457DF4FA881B981CC58D04048
:102B40001D928A95E9F77F926F92ABEBB1E0BF934C
:102B5000AF93FF92EF920E9497231EAE1DAE84E4C6
:102B600091E09CAF8BAF21961FAE219719A218A2BE
:102B70009F8F8E8F1BA20F900F900F900F900F9032
:102B80000F90512C412C9A2C8B2C0EE316E068CF21
:102B900096E00E33190749F0C8010E94F80105C0FC
:102BA000C8010E94F801311056CF3E01FEE16F0EC0
:102BB000711C6EE376E0C3010E94CE071C821B826B
:102BC00084E491E09A8389831E823C2C2D2C23017E
:102BD00047016FE270E0C4010E945C23009709F492
:102BE00045C0D4012C912F3249F4BFEF8B1A9B0AB8
:102BF000C101342C252C492E582E32C088198D3015
:102C000008F08CE0082F10E0A801B401CE01885A2A
:102C10009F4F0E946E23E8E5F0E0EC0FFD1FE00FF0
:102C2000F11F1082832D922D0E94F80121E0AE0148
:102C3000485A5F4FB201832D922D0E947005811179
:102C40000AC01EAE1DAE84E491E09CAF8BAF21960E
:102C50001FAE219718C0800E911EC2010E94F8017C
:102C6000942D852D432C522C1C01B3CFF401EE1969
:102C7000FF09CC57DF4FF983E883C458D040B20135
:102C8000C5010E94CE07CC57DF4F88819981C45877
:102C9000D040E80EF91ED7018C91811107C0B50113
:102CA000C6010E94CE0748EC51E044C019A218A208
:102CB00084E491E09F8F8E8F1BA221968FAD219788
:102CC000811116C06C961FAE1EAE6C9788EE93E015
:102CD000A0E0B0E0A0968CAF9DAFAEAFBFAFA09725
:102CE000E3961FAE1EAEE397A5961FAEA59728C02C
:102CF000825023E1A701823040F46EE376E0C30105
:102D00000E94700581110AC0DDCFB501C3010E9488
:102D100070058823B9F2C5010E94F80149A95AA992
:102D20006BA97CA9C3010E94C30DB301C6010E9417
:102D3000CE07A701B601CE01885A9F4F0E941F08F7
:102D40006C968EAD9FAD6C979093600680935F06F6
:102D5000A0968CAD9DADAEADBFADA0978093610642
:102D600090936206A0936306B0936406A4968CAD1C
:102D70009DADAEADBFADA4978093650690936606FA
:102D8000A0936706B09368068DE0E8E5F0E0EC0FED
:102D9000FD1F3C96A9E6B6E001900D928A95E1F7F9
:102DA000E396EEADFFADE397F0937706E0937606FA
:102DB000309719F08581811106C06AEC71E085E7D2
:102DC00095E00E9420131092A8061092A706109278
:102DD000A6061092A5061092A4061092A3068DE9ED
:102DE00091E09093AA068093A90690919906963156
:102DF00008F057C02DEB30E03093A4062093A306D3
:102E00002BE931E03093A6062093A5062CE231E0B1
:102E10003093A8062093A70620916800983050F0C0
:102E200031E09E3008F430E081E001C0880F3A952F
:102E3000EAF701C084E0822B80936800983038F074
:102E40009E3040F0963148F020E030E008C02DE69A
:102E500030E005C02BE630E002C02CE630E03093D5
:102E6000A1062093A006983030F481E001C0880FBD
:102E70009A95EAF70EC0292F30E09E3018F42850BA
:102E8000310902C02E50310981E001C0880F2A9516
:102E9000EAF78093A2068091A9069091AA0601976D
:102EA000F1F78091A7069091A806892B21F18091D6
:102EB000660290916702F6E08D389F07E1F0009777
:102EC00011F00E94CE088091AB068E7F8093AB06F6
:102ED00010926502109264028DE896E0909367026A
:102EE00080936602E091A006F091A1069081809106
:102EF000A206892B80836EEF71E08DE896E00E9438
:102F000020136FE072E08DE896E00E94201368E2E3
:102F100072E08DE896E00E9420138BE0EBE8F2E08F
:102F2000DF01282F1D922A95E9F7EBE7F2E0DF0198
:102F30001D928A95E9F787E0EBE9F2E0DF011D9247
:102F40008A95E9F762E083E00E94BD0A69E4262ED3
:102F500061E0362E05E311E050E1E52E57E2F52E53
:102F6000EDEFF0E08491F101C490F801D490DD2000
:102F700089F081110E94640AED2DF0E0EE0FFF1F31
:102F8000E85DFE4FA591B4918C91C82219F0109282
:102F9000220318C0B1E0EB1AF10811F78091220367
:102FA00081110DC08091750290917602019664E0C6
:102FB00070E00E94671E909376028093750281E014
:102FC0008093220380E8E2EAF2E0DF011D928A9515
:102FD000E9F7F12C8DE896E00E942E010196D1F3DD
:102FE0008DE896E00E94B301EF2DF0E0EE55FD4F25
:102FF0008083FF2029F0843219F48093A202F12CFF
:103000008091A202843231F781E08F0DEF2DF0E044
:10301000EE55FD4F90819A3011F0F82EDBCF90E005
:10302000FC01E056FD4F10827C01E5E0EE1AF1084C
:10303000F701EE55FD4F20812A3259F640E150E06C
:1030400060E070E082569D4F0E94382621E0822F7A
:1030500090E08E159F053CF4FC01EE55FD4F8081FC
:1030600068272F5FF4CF6111B4CF8091B40281340F
:1030700009F0AFCF8091A502823509F039C262EA2A
:1030800072E0CE014E960E94D41222E0EE24EA9421
:10309000FE2C6AE572E0CE010196C856DF4F288308
:1030A000C859D0400E94D412A7014F5F5F4FBE01A4
:1030B0006F5F7F4FCE014E960E94B7127C018981CF
:1030C0009A810E94DF21C856DF4F2881C859D0401D
:1030D000213011F021E0DDCFF701EE55FD4F818168
:1030E000813411F0F12C99C06701E3E0CE0ED11CC0
:1030F0006AE572E0CE0101960E94D412A7014C5FEE
:103100005F4FBE016F5F7F4FCE014E960E94B71298
:103110007C0189819A810E94DF21FFEFEF16FF0673
:1031200009F3A7014C195D09B6016E557D4F8BE877
:1031300092E00E945323F701EE55FD4F8181809369
:10314000960223E0E20EF11C6AE572E0CE010196E0
:103150000E94D412A701BE016F5F7F4FCE014E9631
:103160000E94B7126C0189819A810E94DF218FEF42
:10317000C816D80609F4B6CFA6014E195F09B701E3
:103180006E557D4F8BE792E00E945323F601EE557A
:10319000FD4F8181809386026AE572E0CE0101963F
:1031A0000E94D412A6014D5F5F4FBE016F5F7F4F3B
:1031B000CE014E960E94B7127C0189819A810E94AD
:1031C000DF219FEFE916F90609F48CCFAFEFEA1A79
:1031D000FA0A6AE572E0CE0101960E94D412A701B4
:1031E000BE016F5F7F4FCE014E960E94B7126C01F9
:1031F00089819A810E94DF21BFEFCB16DB0609F49B
:1032000071CFA6014E195F09B7016E557D4F8BE94D
:1032100092E00E945323FF24F3948E8D9F8D0E9491
:10322000DF21FF2009F4EDC38BE992E00E944927DA
:1032300060939702709398028093990290939A02F8
:10324000809196026BE872E0082E000C990B0E94A8
:10325000E4086093870270938802809389029093B8
:103260008A02809186026BE772E0082E000C990BAF
:103270000E94E40860937702709378028093790249
:1032800090937A0240909702509098026090990231
:1032900070909A022BED3FE049E450E40E943429FB
:1032A00020E030E044E353E40E94941FCC57DF4F0A
:1032B000688379838A839B83C458D0409B01AC0187
:1032C00060E070E0CB010E94951E6B017C010E94C2
:1032D000E320C457DF4F688379838A839B83CC586C
:1032E000D0402BED3FE049E450E4609187027091BB
:1032F00088028091890290918A020E94342920E0FC
:1033000030E044E353E40E94941F4B015C010E94AF
:103310008F1FC857DF4F688379838A839B83C85880
:10332000D040C501B4010E94E320C057DF4F68833D
:1033300079838A839B83C059D040C701B6010E941C
:103340008F1FCC56DF4F688379838A839B83C45950
:10335000D04020E030E0A901C857DF4F6881798173
:103360008A819B81C858D0400E9434296B017C011E
:10337000CC56DF4F288139814A815B81C459D040C6
:10338000C057DF4F688179818A819B81C059D040C5
:103390000E9434299B01AC01C701B6010E94951E11
:1033A0009B01AC01C457DF4F688179818A819B8181
:1033B000CC58D0400E94301F20E030E044E353E47A
:1033C0000E9434292BED3FE049E450E40E94941F11
:1033D0006B017C0120E030E0A9010E94CE2887FF2C
:1033E0000AC020E030E044EB53E4C701B6010E947C
:1033F000961E6B017C01A3019201C701B6010E94D8
:10340000D62018162CF4A3019201C701B6010CC0F6
:10341000A7019601C301B2010E94951E9B01AC0158
:1034200060E070E084EB93E40E94951E609371026B
:1034300070937202809373029093740220E030E0E4
:1034400040E05FE3C501B4010E9434290E94E320FB
:103450006B017C0120E030E040E05FE3CC57DF4FC0
:10346000688179818A819B81C458D0400E94342927
:103470000E94E3204B015C01A7019601C701B60140
:103480000E9434296B017C01A5019401C501B4019E
:103490000E9434299B01AC01C857DF4F68817981B4
:1034A0008A819B81C858D0400E9434299B01AC017D
:1034B000C701B6010E94961E0E94F1200E94021FC1
:1034C0009B01AC010E94961E20E030E747E755E4DF
:1034D0000E94342920E030E045EA55E40E94342976
:1034E00060936D0270936E0280936F0290937002EE
:1034F00080906D0290906E02A0906F02B09070026A
:10350000C0907102D0907202E0907302F090740249
:1035100020E030E044EB51ECC701B6010E94D62018
:1035200087FD16C020E030E044EB51E4C701B6014E
:103530000E94CE28181664F020E04FEF60E081E092
:1035400090E00E94421110926A0210926902D5C066
:1035500020E030E044EB51E4C701B6010E94D620E0
:1035600087FD14C020E030E04BE952E4C701B6010A
:103570000E94CE28181654F020E04FEF60E082E061
:1035800090E00E94421181E090E0B3C020E030E082
:103590004BE952E4C701B6010E94D62087FD14C052
:1035A00020E030E045EF52E4C701B6010E94CE288A
:1035B000181654F020E04FEF60E08AE090E00E949F
:1035C000421182E090E095C020E030E045EF52E407
:1035D000C701B6010E94D62087FD14C020E030E864
:1035E00047E253E4C701B6010E94CE28181654F0F2
:1035F00020E04FEF60E082E190E00E94421183E022
:1036000090E077C020E030E045EF52ECC701B60112
:103610000E94CE281816A4F020E030E847E253ECD0
:10362000C701B6010E94D62087FD0AC020E04FEFF7
:1036300060E080E190E00E94421185E090E059C096
:1036400020E030E04BE952ECC701B6010E94CE28E1
:103650001816A4F020E030E045EF52ECC701B601A7
:103660000E94D62087FD0AC020E04FEF60E088E08E
:1036700090E00E94421186E090E03BC020E030E004
:1036800044EB51ECC701B6010E94CE281816A4F0F5
:1036900020E030E04BE952ECC701B6010E94D62091
:1036A00087FD0AC020E04FEF60E080E090E00E94DC
:1036B000421187E090E01DC020E030E847E253E48B
:1036C000C701B6010E94D62087FF0AC020E030E87B
:1036D00047E253ECC701B6010E94CE2818166CF0E1
:1036E00020E04FEF60E081E190E00E94421184E031
:1036F00090E090936A028093690298E1C92E91E06C
:10370000D92EE12CF12C8091690290916A02E81681
:10371000F90641F020E040E060E0F601808191810F
:103720000E944211FFEFEF1AFF0A22E0C20ED11CE5
:1037300088E0E816F10439F788E2C82E81E0D82E37
:10374000E12CF12C809175029091760220E0E81630
:10375000F90631F44FEF60E0D6018D919C9105C0E0
:1037600040E060E0F601808191810E944211FFEF0C
:10377000EF1AFF0A22E0C20ED11C84E0E816F10421
:1037800009F7C501B4010E9406209B0170936C02E9
:1037900060936B02283E93E039071CF020E040E084
:1037A00023C0243FA1E03A071CF020E045E41CC000
:1037B0002A3F31051CF020E047ED16C02B343105BF
:1037C0001CF02FEF40E005C02832310524F020E046
:1037D0004FEF60E00AC02A30310524F021EF40E0CD
:1037E00061EF03C02FEF4FEF6FEF86E190E00E9493
:1037F00042118091800690918106892B09F401C1C4
:103800000E94F90AC0908606D0908706E09088064C
:10381000F0908906DC01CB018C199D09AE09BF0926
:10382000C297A105B10560F3F89480917C06909150
:103830007D069CAF8BAFE0918006F0918106DF01A1
:1038400011968081CD57DF4F8883C358D040909127
:103850007806E0918A06F0918B0680918C06992378
:1038600009F456C09081982BCE57DF4F9883C258E9
:10387000D040908180958923CF57DF4F8883C158EE
:10388000D040CF57DF4F8881C158D040E4968FAFEA
:10389000E49788E069968FAF6997CE57DF4F5881DC
:1038A000C258D040CF57DF4F6881C158D040CD5764
:1038B000DF4F4881C358D04069963FAD6997E49681
:1038C0002FADE4978BAD9CAD508347FD252F3A95E6
:1038D0002083262F39F0441F00C0000060830000C1
:1038E00000C0F2CF38E04D9160830000019761F78E
:1038F000F0938B06E0938A06CD57DF4F4883C35879
:10390000D04069963FAF6997E4962FAFE4976CC0BB
:103910009081982BCE57DF4F9883C258D04090812A
:1039200080958923CF57DF4F8883C158D040CF5728
:10393000DF4F8881C158D040C058DF4F8883C058BE
:10394000D04088E0C158DF4F8883CF57D040CE5752
:10395000DF4F5881C258D040CF57DF4F6881C158E0
:10396000D040CD57DF4F4881C358D040C158DF4FBA
:103970003881CF57D040C058DF4F2881C058D04041
:103980008BAD9CAD508347FD252F00C000C0208328
:1039900000C000C000C000C000C060830000262F2F
:1039A0003A9541F0441F000000C000C000C000C0B4
:1039B00000C0E8CF38E04D9100C0608300C001979F
:1039C00009F7F0938B06E0938A06CD57DF4F4883C3
:1039D000C358D040C158DF4F3883CF57D040C0586C
:1039E000DF4F2883C058D0409CAF8BAF78940E94A3
:1039F000F90A6093860670938706809388069093F1
:103A000089060E94000AA8CA8091800690918106CA
:103A1000009711F00E94DF2180917E0687FD03C090
:103A200060E00E94BD0A8CE591E090938E06809341
:103A30008D068DE896E00C94CE08109278051092D1
:103A4000770588EE93E0A0E0B0E08093790590934D
:103A50007A05A0937B05B0937C0524E331E0309395
:103A600076052093750525EC30E030938205209390
:103A7000810524EC30E0309384052093830520EC0D
:103A800030E0309386052093850521EC30E03093BB
:103A900088052093870522EC30E030938A05209337
:103AA000890526EC30E030938C0520938B0510922D
:103AB0008E0510928F05109290051092910520E5C9
:103AC00020931206109213061092190610921A06ED
:103AD00010921D0610921F0642E050E060E070E078
:103AE000409320065093210660932206709323068C
:103AF00010923706109241061092400624E431E0FD
:103B000030933F0620933E06109243061092900693
:103B100010928F068093910690939206A09393063D
:103B2000B09394068CE591E090938E0680938D0679
:103B30001092A4061092A3061092A6061092A50653
:103B40001092A8061092A7061092AA061092A90633
:103B50006091AB066E7F6D7F6093AB06669561707A
:103B600081E0682787E00E948D0A61E087E00E947B
:103B7000BD0AEDE4F1E0E491E0939D06E9E3F1E0B4
:103B8000E491F0E0EE0FFF1FE25EFE4F859194910D
:103B900090939F0680939E0660E088E00E94BD0A95
:103BA0008091AB0681FD04C061E088E00E948D0A2F
:103BB00088E080939906EEE4F1E0E491E0939A06C0
:103BC000EAE3F1E0E491F0E0EE0FFF1FE85DFE4F65
:103BD0008591949190939C0680939B061092790610
:103BE00010927F0610928606109287061092880621
:103BF0001092890681E08093850680938206109258
:103C0000830692E0909384068093780688E790E09C
:103C100090937D0680937C060E944A2190938106B2
:103C200080938006009761F028E7FC0111922A95A5
:103C3000E9F788E290E090937B0680937A0608C0CB
:103C400010927D0610927C0610927B0610927A06E6
:103C500086E080937E0680917906882341F061E0BA
:103C600086E00E94BD0A60E086E00E948D0AE8E3DB
:103C7000F1E0E491F0E0EE0FFF1FE25EFE4F859170
:103C8000949190938B0680938A06ECE4F1E0E491A2
:103C9000E0938C061092600610925F0688EE93E027
:103CA000A0E0B0E08093610690936206A093630663
:103CB000B09364068CE491E090935E0680935D0679
:103CC000109277061092760610926906089597FB77
:103CD000072E16F4009407D077FD09D00E947B1EB2
:103CE00007FC05D03EF4909581959F4F08957095FF
:103CF00061957F4F0895AA1BBB1B51E107C0AA1F06
:103D0000BB1FA617B70710F0A61BB70B881F991F7C
:103D10005A95A9F780959095BC01CD010895EE0FB5
:103D2000FF1F0590F491E02D09945058BB27AA2756
:103D30000E94AD1E0C94B8290E94AA2938F00E9456
:103D4000B12920F039F49F3F19F426F40C94A729E7
:103D50000EF4E095E7FB0C94A129E92F0E94C929F4
:103D600058F3BA17620773078407950720F079F4B0
:103D7000A6F50C94EB290EF4E0950B2EBA2FA02D8E
:103D80000B01B90190010C01CA01A0011124FF2708
:103D9000591B99F0593F50F4503E68F11A16F04003
:103DA000A22F232F342F4427585FF3CF4695379502
:103DB0002795A795F0405395C9F77EF41F16BA0BC7
:103DC000620B730B840BBAF09150A1F0FF0FBB1F75
:103DD000661F771F881FC2F70EC0BA0F621F731FBE
:103DE000841F48F4879577956795B795F7959E3F1B
:103DF00008F0B0CF9395880F08F09927EE0F9795AC
:103E0000879508959F939F77EEE389379E0728F45F
:103E1000E8E6F0E00E9483200CC00E943C2090580D
:103E2000A2EA2AED3FE049EC5FE30E94AD1E0E944A
:103E3000B8290F9007FC905808950E94AA2960F0B5
:103E400080E891E009F49EEF0E94B12928F040E853
:103E500051E071F45EEF0CC00C94A7290C94EB298F
:103E6000E92FE0780E94C92940F3092E052AB1F311
:103E7000261737074807590738F00E2E07F8E025B0
:103E800069F0E025E0640AC0EF6307F8009407FAE0
:103E9000DB01B9019D01DC01CA01AD01EF930E9474
:103EA000AB1F0E94B8290E94601F5F91552339F013
:103EB0002BED3FE049E450FD49EC0C94961E08952B
:103EC000DF93DD27B92FBF7740E85FE316161706AB
:103ED00048075B0718F4D92F0E94DB209F938F932C
:103EE0007F936F930E943121ECE7F0E00E945C2009
:103EF0000E94B8292F913F914F915F910E944729CD
:103F0000DD2351F09058A2EA2AED3FE049EC5FE34F
:103F1000D0785D270E94AD1EDF910C94B8290E94D5
:103F20009920E3950C94C2200E94A81F0C94B829F4
:103F30000E94B12958F00E94AA2940F029F45F3F5D
:103F400029F00C94A12951110C94EC290C94A72967
:103F50000E94C92968F39923B1F3552391F3951B66
:103F6000550BBB27AA2762177307840738F09F5F9A
:103F70005F4F220F331F441FAA1FA9F335D00E2E07
:103F80003AF0E0E832D091505040E695001CCAF774
:103F90002BD0FE2F29D0660F771F881FBB1F261737
:103FA00037074807AB07B0E809F0BB0B802DBF010E
:103FB000FF2793585F4F3AF09E3F510578F00C94DD
:103FC000A1290C94EC295F3FE4F3983ED4F3869545
:103FD00077956795B795F7959F5FC9F7880F911DFE
:103FE0009695879597F90895E1E0660F771F881FEA
:103FF000BB1F621773078407BA0720F0621B730B9D
:10400000840BBA0BEE1F88F7E09508950E940D20EF
:104010006894B1110C94EC2908950E94D12988F07C
:104020009F5798F0B92F9927B751B0F0E1F0660F7C
:10403000771F881F991F1AF0BA95C9F714C0B130BD
:1040400091F00E94EB29B1E008950C94EB29672FC1
:10405000782F8827B85F39F0B93FCCF386957795EC
:104060006795B395D9F73EF49095809570956195D5
:104070007F4F8F4F9F4F0895DF93CF931F930F93E1
:104080008B01EC01E9EAF0E00E945C200E94B82973
:104090009801AE018B01EC0160E070E080E89FE3E5
:1040A0000E94951E0E94F1209801AE010F911F9170
:1040B000CF91DF910C944729DF93CF931F930F93F8
:1040C000FF92EF92DF927B018C01689406C0DA2E9A
:1040D000EF010E944729FE01E894A59125913591B1
:1040E00045915591A6F3EF010E94AD1EFE01970187
:1040F000A801DA9469F7DF90EF90FF900F911F917C
:10410000CF91DF9108959F938F937F936F93FF9348
:10411000EF939B01AC010E943429EF91FF910E9423
:104120005C202F913F914F915F910C9434290C9416
:10413000A7290E94D129D8F3E894E0E0BB279F5734
:10414000F0F02AED3FE049EC06C0EE0FBB0F661F12
:10415000771F881F28F0B23A62077307840728F098
:10416000B25A620B730B840BE3959A9572F7803801
:1041700030F49A95BB0F661F771F881FD2F79048BF
:104180000C943721EF93E0FF07C0A2EA2AED3FE04D
:1041900049EC5FEB0E94AD1E0E94B8290F9003947A
:1041A00001FC9058E1EDF0E00C9483200E9410296E
:1041B00008F48FEF08959B01AC0160E070E080E8A7
:1041C0009FE30C94941F9F930E9499200F9007FCEB
:1041D000EE5F0C94C22019F416F40C94A7290C94E9
:1041E00035210E94D129B8F39923C9F3B6F39F571B
:1041F000550B87FF0E9443210024A0E640EA90016E
:1042000080585695979528F4805C660F771F881F15
:1042100020F026173707480730F4621B730B840B16
:10422000202931294A2BA69517940794202531255A
:104230004A2758F7660F771F881F20F02617370781
:10424000480730F4620B730B840B200D311D411DA8
:10425000A09581F7B901842F9158880F969587957D
:1042600008959B01AC010C9434299F3F31F091508B
:1042700020F4879577956795B795880F911D96954A
:10428000879597F9089591505040660F771F881FC2
:10429000D2F70895CF93DF938230910510F482E036
:1042A00090E0E091AE06F091AF0620E030E0C0E093
:1042B000D0E0309711F14081518148175907C0F083
:1042C0004817590761F482819381209719F09B83E5
:1042D0008A832BC09093AF068093AE0626C021152B
:1042E000310519F04217530718F49A01BE01DF0196
:1042F000EF010280F381E02DDCCF2115310509F1BA
:10430000281B390B2430310590F412968D919C9125
:1043100013976115710521F0FB019383828304C01B
:104320009093AF068093AE06FD01329644C0FD0126
:10433000E20FF31F81939193225031092D933C9307
:104340003AC02091AC063091AD06232B41F4209168
:104350000701309108013093AD062093AC062091FF
:104360000501309106012115310541F42DB73EB705
:104370004091090150910A01241B350BE091AC06D4
:10438000F091AD06E217F307A0F42E1B3F0B2817A0
:10439000390778F0AC014E5F5F4F2417350748F0BE
:1043A0004E0F5F1F5093AD064093AC0681939193DF
:1043B00002C0E0E0F0E0CF01DF91CF9108950F93CC
:1043C0001F93CF93DF93009709F48CC0FC013297C1
:1043D000138212820091AE061091AF0601151105ED
:1043E00081F420813181820F931F2091AC0630919E
:1043F000AD062817390779F5F093AD06E093AC06C2
:1044000071C0D80140E050E0AE17BF0750F41296DB
:104410002D913C911397AD012115310509F1D90179
:10442000F3CF9D01DA013383228360817181860F8E
:10443000971F8217930769F4EC0128813981260FB1
:10444000371F2E5F3F4F318320838A819B81938367
:104450008283452B29F4F093AF06E093AE0642C069
:104460001396FC93EE931297ED01499159919E0199
:10447000240F351FE217F30771F480819181840FB7
:10448000951F029611969C938E9382819381139629
:104490009C938E931297E0E0F0E0D80112968D91F4
:1044A0009C911397009719F0F8018C01F6CF8D912C
:1044B0009C9198012E5F3F4F820F931F2091AC0675
:1044C0003091AD062817390769F4309729F4109216
:1044D000AF061092AE0602C0138212821093AD0690
:1044E0000093AC06DF91CF911F910F910895A0E04A
:1044F000B0E0EDE7F2E20C94332AEC01009721F4EE
:10450000CB010E944A21B8C0FC01E60FF71F9C01B5
:1045100022503109E217F30708F4ACC0D9010D911C
:104520001C91119706171707B0F00530110508F414
:104530009FC0C80104978617970708F499C00250D6
:104540001109061B170B019311936D937C93CF01F7
:104550000E94DF218DC05B01A01AB10A4C01800EC0
:10456000911EA091AE06B091AF0640E050E0E12C64
:10457000F12C109709F44AC0A815B905D1F56D9032
:104580007C901197630182E0C80ED11CCA14DB0431
:1045900080F1A3014A195B096A0182E0C80ED11CAF
:1045A0001296BC9012971396AC91B5E0CB16D1043D
:1045B00040F0B282A38351834083D9016D937C93F1
:1045C0000AC00E5F1F4FC301800F911FF901918335
:1045D0008083EB2DFA2FE114F10431F0D70113960B
:1045E000FC93EE93129744C0F093AF06E093AE06AF
:1045F0003FC08D919C9111974817590708F4AC0161
:104600007D0112960D90BC91A02DB3CF8091AC0688
:104610009091AD0688159905E1F446175707C8F43F
:104620008091050190910601009741F48DB79EB7E6
:104630004091090150910A01841B950BE817F90775
:10464000C8F4F093AD06E093AC06F9017183608382
:104650000FC0CB010E944A217C01009759F0A801AC
:10466000BE010E945323CE010E94DF21C70104C076
:10467000CE0102C080E090E0CDB7DEB7EEE00C9452
:104680004F2A81E090E0F8940C94752AFB01DC013C
:1046900004C08D910190801921F441505040C8F719
:1046A000881B990B0895FB01DC0102C001900D925B
:1046B00041505040D8F70895FC018191861721F0B0
:1046C0008823D9F7992708953197CF010895FB01E1
:1046D000DC0101900D920020E1F70895FB01DC015F
:1046E0004150504048F001900D920020C9F701C0A0
:1046F0001D9241505040E0F70895FB015191552320
:10470000A9F0BF01DC014D9145174111E1F759F4C2
:10471000CD010190002049F04D9140154111C9F3A0
:10472000FB014111EFCF81E090E001970895AEE0E9
:10473000B0E0EDE9F3E20C943D2A0D891E8986E094
:104740008C831A8309838FEF9FE79E838D83AE014D
:10475000475E5F4F6F89788DCE0101960E94BA2324
:104760002F813885F801E20FF31F10822E96E4E0C6
:104770000C94592AACE0B0E0E0ECF3E20C942F2A60
:104780007C016B018A01FC0117821682838181FF03
:10479000BDC1CE0101964C01F7019381F60193FD55
:1047A000859193FF81916F01882309F4ABC1853214
:1047B00039F493FD859193FF81916F01853229F43E
:1047C000B70190E00E94A225E7CF512C312C20E0C8
:1047D0002032A0F48B3269F030F4803259F0833209
:1047E00069F420612CC08D3239F0803339F42160B6
:1047F00026C02260246023C0286021C027FD27C076
:1048000030ED380F3A3078F426FF06C0FAE05F9EAC
:10481000300D1124532E13C08AE0389E300D112420
:10482000332E20620CC08E3221F426FD6BC1206431
:1048300006C08C3611F4206802C0883641F4F601B7
:1048400093FD859193FF81916F018111C1CF982FC5
:104850009F7D9554933028F40C5F1F4FFFE3F9833D
:104860000DC0833631F0833771F0833509F05BC0BA
:1048700022C0F801808189830E5F1F4F4424439436
:10488000512C540115C03801F2E06F0E711CF80173
:10489000A080B18026FF03C0652D70E002C06FEFDD
:1048A0007FEFC5012C870E9497252C0183012C8561
:1048B0002F77222E17C03801F2E06F0E711CF8011D
:1048C000A080B18026FF03C0652D70E002C06FEFAD
:1048D0007FEFC5012C870E948C252C012C85206838
:1048E000222E830123FC1BC0832D90E0481659061D
:1048F000B0F4B70180E290E00E94A2253A94F4CF90
:10490000F50127FC859127FE81915F01B70190E0B9
:104910000E94A22531103A94F1E04F1A5108411437
:10492000510471F7E5C0843611F0893639F5F80184
:1049300027FF07C060817181828193810C5F1F4FC7
:1049400008C060817181072E000C880B990B0E5FE7
:104950001F4F2F76722E97FF09C090958095709506
:1049600061957F4F8F4F9F4F2068722E2AE030E075
:10497000A4010E94DA25A82EA81844C0853729F47E
:104980002F7EB22E2AE030E025C0F22FF97FBF2E15
:104990008F36C1F018F4883579F0B4C0803719F03B
:1049A000883721F0AFC02F2F2061B22EB4FE0DC08A
:1049B0008B2D8460B82E09C024FF0AC09F2F9660FB
:1049C000B92E06C028E030E005C020E130E002C08A
:1049D00020E132E0F801B7FE07C060817181828179
:1049E00093810C5F1F4F06C06081718180E090E071
:1049F0000E5F1F4FA4010E94DA25A82EA818FB2DD8
:104A0000FF777F2E76FE0BC0372D3E7FA51450F426
:104A100074FE0AC072FC08C0372D3E7E05C0BA2C59
:104A2000372D03C0BA2C01C0B52C34FF0DC0FE01D8
:104A3000EA0DF11D8081803311F4397E09C032FF07
:104A400006C0B394B39404C0832F867809F0B3945E
:104A500033FD13C030FF06C05A2CB31418F4530CA6
:104A60005B18B32CB31468F4B70180E290E03C8784
:104A70000E94A225B3943C85F5CFB31410F43B18E3
:104A800001C0312C34FF12C0B70180E390E03C87B5
:104A90000E94A2253C8532FF17C031FD03C088E784
:104AA00090E002C088E590E0B7010CC0832F8678C3
:104AB00059F031FF02C08BE201C080E237FD8DE288
:104AC000B70190E00E94A225A51438F4B70180E355
:104AD00090E00E94A2255A94F7CFAA94F401EA0D1F
:104AE000F11D8081B70190E00E94A225A110F5CFB1
:104AF000332009F451CEB70180E290E00E94A22554
:104B00003A94F6CFF7018681978102C08FEF9FEF2D
:104B10002C96E2E10C944B2AFC0105906150704008
:104B20000110D8F7809590958E0F9F1F0895FC0176
:104B30006150704001900110D8F7809590958E0FCC
:104B40009F1F08950F931F93CF93DF93FB01238142
:104B500021FD03C08FEF9FEF28C022FF16C04681C2
:104B60005781248135814217530744F4A081B181D4
:104B70009D012F5F3F4F318320838C9326813781A6
:104B80002F5F3F4F3783268310C0EB01092F182F6B
:104B90000084F185E02D0995892BE1F68E819F81B6
:104BA00001969F838E83812F902FDF91CF911F914C
:104BB0000F910895FA01AA27283051F1203181F18F
:104BC000E8946F936E7F6E5F7F4F8F4F9F4FAF4F15
:104BD000B1E03ED0B4E03CD0670F781F891F9A1F28
:104BE000A11D680F791F8A1F911DA11D6A0F711DDC
:104BF000811D911DA11D20D009F468943F912AE0E8
:104C0000269F11243019305D3193DEF6CF010895CF
:104C1000462F4770405D4193B3E00FD0C9F7F6CF00
:104C2000462F4F70405D4A3318F0495D31FD4052C8
:104C3000419302D0A9F7EACFB4E0A695979587955E
:104C400077956795BA95C9F700976105710508953D
:104C50009B01AC010A2E06945795479537952795E9
:104C6000BA95C9F7620F731F841F951FA01D089581
:104C7000A0E0B0E0EEE3F6E20C942F2A5C016B01B9
:104C80007A016115710519F0FB0191838083E114AC
:104C9000F10429F0C7010297839708F0F1C0E501FC
:104CA0002196F5011081812F90E00E944D27892BDC
:104CB00011F05E01F4CF1D3229F42196F501118126
:104CC00001E007C01B3221F4E5012296F5011181B4
:104CD00000E0E114F10459F1F0E1EF16F10461F4A0
:104CE0001033E1F488818F7D883569F5198122962A
:104CF000026070E1E72EF12C88E0E816F10439F14A
:104D00002CF4F2E0EF16F104C9F12AC08AE0E816AB
:104D1000F10479F0E0E1EE16F10411F550E1E52E31
:104D2000F12C812C912CA12C68E0B62E2CC01033D4
:104D3000C9F23AE0E32EF12C4CEC842E982CA82CEE
:104D40004CE0B42E20C010E3E114F104A9F698E081
:104D5000E92EF12C812C912CA12C20E1B22E13C034
:104D600060E070E080E090E897010F2C000C440BAD
:104D7000550B0E94022A49015A0105C0812C912C31
:104D8000A12C80E4B82E60E020E030E0A9012701EA
:104D90000F2C000C660877081E01E0EDE10FEA30E9
:104DA00060F08FEB810F8A3110F4E9EC05C08FE9D8
:104DB000810F8A3128F5E9EAE10F8E2F90E08E15F8
:104DC0009F05F4F467FD18C082169306A406B50685
:104DD00090F0C301B2010E94F2299B01AC012E0F99
:104DE000311D411D511D213031054105F0E85F079E
:104DF00010F461E001C06FEF2196F1011081CCCF7A
:104E0000802F8170C114D10471F0662329F021979D
:104E1000F601D183C08307C001FF19C02297F601B4
:104E2000D183C08314C067FF12C0811105C02FEF6A
:104E30003FEF4FEF5FE704C020E030E040E050E894
:104E400082E290E09093B1068093B00616C088236A
:104E500041F050954095309521953F4F4F4F5F4F12
:104E60000CC057FF0AC082E290E09093B106809395
:104E7000B0062FEF3FEF4FEF5FE7B901CA0104C063
:104E800060E070E080E090E0CDB7DEB7E2E10C9446
:104E90004B2A662777270C94562791110C94B32838
:104EA000803219F089508550C8F70895A0E0B0E02D
:104EB000ECE5F7E20C94332AEC017B0161157105F6
:104EC00019F0DB018D939C938E010F5F1F4F78804B
:104ED000872D90E00E944D27892B11F0E801F4CF37
:104EE000BDE27B1205C00F5F1F4F7980C1E008C093
:104EF000EBE27E1204C08E010E5F1F4F7980C0E08E
:104F00006801F1E0CF1AD10843E050E062E671E0B9
:104F1000C6010E94B628892BF1F4680122E0C20E76
:104F2000D11C45E050E06DE571E0C6010E94B62855
:104F3000892B21F4680187E0C80ED11CE114F1042B
:104F400019F0D701CD92DC92C111FFC060E070E092
:104F500080E89FE703C143E050E06AE571E0C601E5
:104F60000E94B628892B51F4E114F10409F4F2C02F
:104F70000E5F1F4FF70111830083ECC0680160E0F2
:104F800070E0CB0100E010E0F601D0EDD70DDA3093
:104F900058F52C2F2260622E2C2F2870C2FF05C0DE
:104FA000211128C00F5F1F4F25C0222311F001508F
:104FB0001109A5E0B0E09B01AC010E94242A4B013D
:104FC0005C01880C991CAA1CBB1CC501B4016D0FA7
:104FD000711D811D911D6839A9E97A078A07A9E128
:104FE0009A0740F0C66005C0DE3F51F4C3FD44C0DF
:104FF000C8606C2EBFEFCB1ADB0A7080C62DC4CF01
:105000002D2F2F7D2531C1F540814D3211F4C06126
:1050100006C04B3221F0319621E030E006C03296D6
:10502000D60111964C9122E030E0A0EDA40FAA30F9
:1050300018F0E21BF30B20C040E050E04038BCE029
:105040005B075CF49A01220F331F220F331F420FBC
:10505000531F440F551F4A0F511D3196DF01119701
:105060002C91A0EDA20FAA3048F3C4FF03C05195C4
:1050700041955109040F151FC1FF07C0E114F10448
:1050800021F03197D701ED93FC930E94D328C37090
:10509000C33019F06B017C0106C06B017C01F7FA8B
:1050A000F094F7F8F09420E030E0A901C701B601D0
:1050B0000E94CE28882309F445C017FF06C0119529
:1050C00001951109C9E7D1E002C0C1E9D1E05E0153
:1050D000B8E1AB1AB1084601BE2DAF2D90E2E92E22
:1050E000F12C0E151F0584F0FE0125913591459197
:1050F0005491B4018B2F9A2F0E9434294B01B82F61
:10510000A92F0E191F09EDCF2497F594E794CA151E
:10511000DB0539F76401EB2EFA2E8E2D880F8F2DCB
:10512000881F8F3F49F020E030E0A901C701B60198
:105130000E94CE28811106C082E290E09093B106D1
:105140008093B006C701B60109C060E070E080E856
:105150009FEF04C060E070E080EC9FE7CDB7DEB762
:10516000EEE00C944F2A992788270895FB01DC0173
:105170004150504088F08D9181341CF08B350CF4F7
:10518000805E659161341CF06B350CF4605E861BAB
:10519000611171F3990B0895881BFCCF0E941029AF
:1051A00008F481E00895E89409C097FB3EF49095D7
:1051B0008095709561957F4F8F4F9F4F9923A9F0F0
:1051C000F92F96E9BB279395F6958795779567957F
:1051D000B795F111F8CFFAF4BB0F11F460FF1BC0C3
:1051E0006F5F7F4F8F4F9F4F16C0882311F096E956
:1051F00011C0772321F09EE8872F762F05C0662304
:1052000071F096E8862F70E060E02AF09A95660FBC
:10521000771F881FDAF7880F9695879597F9089575
:10522000990F0008550FAA0BE0E8FEEF16161706B7
:10523000E807F907C0F012161306E407F50798F01F
:10524000621B730B840B950B39F40A2661F0232B38
:10525000242B252B21F408950A2609F4A140A695B4
:105260008FEF811D811D08950E9447290C94B82954
:105270000E94AA2938F00E94B12920F0952311F04C
:105280000C94A1290C94A72911240C94EC290E94B8
:10529000C92970F3959FC1F3950F50E0551F629F88
:1052A000F001729FBB27F00DB11D639FAA27F00D7F
:1052B000B11DAA1F649F6627B00DA11D661F829FA6
:1052C0002227B00DA11D621F739FB00DA11D621F8B
:1052D000839FA00D611D221F749F3327A00D611DA8
:1052E000231F849F600D211D822F762F6A2F11248A
:1052F0009F5750409AF0F1F088234AF0EE0FFF1FBD
:10530000BB1F661F771F881F91505040A9F79E3F13
:10531000510580F00C94A1290C94EC295F3FE4F333
:10532000983ED4F3869577956795B795F795E79569
:105330009F5FC1F7FE2B880F911D9695879597F972
:10534000089597F99F6780E870E060E008959FEF07
:1053500080EC089500240A9416161706180609060C
:10536000089500240A9412161306140605060895DB
:10537000092E0394000C11F4882352F0BB0F40F463
:10538000BF2B11F460FF04C06F5F7F4F8F4F9F4FA3
:10539000089557FD9058440F551F59F05F3F71F025
:1053A0004795880F97FB991F61F09F3F79F087958C
:1053B0000895121613061406551FF2CF4695F1DF15
:1053C00008C0161617061806991FF1CF86957105A5
:1053D000610508940895E894BB2766277727CB01D9
:1053E00097F90895DB018F939F930E94242ABF9120
:1053F000AF91A29F800D911DA39F900DB29F900D24
:1054000011240895A1E21A2EAA1BBB1BFD010DC099
:10541000AA1FBB1FEE1FFF1FA217B307E407F50764
:1054200020F0A21BB30BE40BF50B661F771F881F40
:10543000991F1A9469F760957095809590959B01D6
:10544000AC01BD01CF0108950E94662AA59F900D71
:10545000B49F900DA49F800D911D112408952F924B
:105460003F924F925F926F927F928F929F92AF92F4
:10547000BF92CF92DF92EF92FF920F931F93CF9341
:10548000DF93CDB7DEB7CA1BDB0B0FB6F894DEBFD8
:105490000FBECDBF09942A88398848885F846E84FE
:1054A0007D848C849B84AA84B984C884DF80EE8048
:1054B000FD800C811B81AA81B981CE0FD11D0FB651
:1054C000F894DEBF0FBECDBFED010895A29FB001DD
:1054D000B39FC001A39F700D811D1124911DB29F28
:1054E000700D811D1124911D089510E0CCECD0E0C9
:1054F00004C0FE010E948F1E2196CD3CD107C9F742
:04550000F894FFCF4D
:1055040001FFFFFFFF0000B2068000000000000062
:105514000000000000000000010002000A00120068
:105524001100100008000000040005000600070038
:10553400000000009709021160093E095209DE09C2
:1055440000000000E90F0211000000001801DC0156
:10555400F7002F073907D4010000000047010211AA
:105564009B01B3012E014601000000000A0A02114A
:105574000A0A0A0A0A0A0A0A000000000A0A0211B0
:105584005B494E464F5D20496E697469616C697A66
:10559400696E6720534420436172642E202E202EAE
:1055A40000534420636172642069732068797065D4
:1055B4007220626A6F726B65642E004D7946696C65
:1055C4006525692E747874002F00486F6C792073F8
:1055D400686974736E61636B73204261746D616E8C
:1055E4002C2074686973207468696E67206675631B
:1055F4006B656420757020616761696E21002450B9
:105604004D544B3232302C313030302A3146002464
:10561400504D544B3330302C313030302C302C3012
:105624002C302C302A31430024504D544B33313428
:105634002C302C312C302C302C302C302C302C3085
:105644002C302C302C302C302C302C302C302C3076
:105654002C302C302C302A3239002C0053005700C7
:045664000D0A00002B
:00000001FF
