:100000000C946B000C9493000C9493000C9493004C
:100010000C9493000C9493000C9493000C94930014
:100020000C9493000C9493000C9493000C94930004
:100030000C9493000C9493000C9493000C949300F4
:100040000C94140B0C9493000C941C0A0C94F60959
:100050000C9493000C9493000C9493000C949300D4
:100060000C9493000C9493000000000024002700DF
:100070002A000000000023002600290000000008DC
:10008000000201000003040700000000000000005F
:100090007C3C3E5E2B3D3F2F5B5D3B2C2A225C006F
:1000A000010204081020408001020408102001020F
:1000B0000408102000000000250028002B00040484
:1000C0000404040404040202020202020303030300
:1000D00003030918F91711241FBECFEFD8E0DEBFC4
:1000E000CDBF12E0A0E0B1E0EAECFCE302C0059075
:1000F0000D92A034B107D9F726E0A0E4B2E001C028
:100100001D92A931B207E1F710E0CAE6D0E004C0C1
:100110002197FE010E941319C936D107C9F70E9421
:100120003B110C94581E0C940000DC015996ED9183
:10013000FC915A973097B9F083899489A589B6893B
:100140004285538564857585841B950BA60BB70B7B
:10015000811520E89207A105B10538F08FEF9FE7E0
:10016000A0E0B0E0089580E090E00895CF93DF93A1
:100170001F92CDB7DEB76983DC01ED91FC9102805F
:10018000F381E02D41E050E0BE016F5F7F4F0995A4
:100190000F90DF91CF910895CF93DF93EC01898D7C
:1001A0009A8D009739F481E090E09B838A8380E008
:1001B00090E00BC0FC01138212820E946F0DE98D4A
:1001C000FA8D22813381232B71F7DF91CF9108952E
:1001D000CF93DF93EC018D818823A1F18C8187FF80
:1001E0002DC06E857F858889998941E00E94990B91
:1001F000882341F1EA8980E2E89FF0011124DF01C0
:10020000A550BD4F1097F1F08D81823050F44B898D
:100210005C896D897E895C964D935D936D937C932B
:100220005F978F89988DA98DBA8DE550FD4F938F7B
:10023000828FB58BA48B8C818F778C83DF91CF914C
:100240000C945E0B80E0DF91CF910895FC01818DCD
:10025000928D009711F00C94E80008958F929F9270
:10026000AF92BF92CF92DF92EF92FF920F931F93C4
:10027000CF93DF93EC018D81811102C080E077C0C4
:100280000B891C892D893E89041715072607370716
:10029000A8F36A017B01823029F4CA86DB86EC86EA
:1002A000FD860DC0C114D104E104F10451F41E8295
:1002B0001F82188619861A861B861C861D8681E079
:1002C00056C08A849B84AC84BD84EB8DFC8D2585CF
:1002D00030E0275F3F4FB501A4014150510961094A
:1002E0007109022E04C076956795579547950A9433
:1002F000D2F7D701C6010197A109B10904C0B6958B
:10030000A795979587952A95D2F784179507A607FD
:10031000B70720F089288A288B2849F44F89588DFF
:10032000698D7A8D4E835F836887798704C0841BCB
:10033000950BA60BB70B4C015D018E010A5F1F4F99
:1003400081149104A104B10409F4A7CF4E815F8107
:100350006885798598018B8D9C8D0E94820C91E037
:10036000891A9108A108B1088111EACF87CFDF91DE
:10037000CF911F910F91FF90EF90DF90CF90BF90A2
:10038000AF909F908F9008958F929F92AF92BF925F
:10039000CF92DF92EF92FF920F931F93CF93DF9351
:1003A00000D000D0CDB7DEB77C0180E2689F60014D
:1003B0001124960125503D4FD9011B969C919171B6
:1003C00021F0842F827409F097C0142FF701628BFB
:1003D0008091010190910201A0910301B09104016B
:1003E00086879787A08BB18BF601E550FD4F448936
:1003F000558960E070E0BA0155274427D701579628
:100400004D935D936D937C935A97828D938DA0E06D
:10041000B0E0482B592B6A2B7B2BD70157964D9375
:100420005D936D937C935A97D9011B968C9188713B
:1004300059F4848D958DA68DB78DF701838B948BA0
:10044000A58BB68B81E012C0803109F055C09701B1
:100450002D5E3F4FD7015B968D919C915C970E94DA
:10046000060D882309F448C084E0F7018583812FB5
:100470008F70D70114968C931497F7011682178208
:10048000108611861A961D921D921D921C921D9720
:1004900016FF34C015968C91813071F511FF2CC078
:1004A000F7014389548965897689452B462B472B6B
:1004B00009F461C040E050E0BA01C7010E942E017A
:1004C0008823D1F0F7018788908CA18CB28CC38CE3
:1004D000D48C82E090E0A0E0B0E0F60180839183CC
:1004E000A283B3839E012F5F3F4FB501A401C601D4
:1004F0000E94820C811104C080E03DC081E03BC0BD
:1005000000E010E09801B501A401C6010E94E20BD1
:10051000882391F389809A80AB80BC80D60157965E
:100520008C91803129F088EF9FEFAFEFBFE004C0DE
:1005300088EF9FEFA0E0B0E088169906AA06BB06F8
:1005400088F2D70157961D921D921D921C925A97C0
:10055000F701138A148A158A168A84818068848335
:10056000C7010E94E800882339F240E050E0BA0158
:10057000C7010E942E010F900F900F900F90DF91F6
:10058000CF911F910F91FF90EF90DF90CF90BF9090
:10059000AF909F908F900895CF93DF93EC010E94CE
:1005A000E800882311F01D8281E0DF91CF9108954A
:1005B0003F924F925F926F927F928F929F92AF92F3
:1005C000BF92CF92DF92EF92FF920F931F93CF9340
:1005D000DF93CDB7DEB72C970FB6F894DEBF0FBE12
:1005E000CDBF5C01DC015B968D909C905C9716966C
:1005F000CD90DD90ED90FC901997C114D104E104E9
:10060000F10439F0BFEFCB1ADB0AEB0AFB0A312CFD
:1006100007C0F401C080D180E280F380332433949A
:10062000F40181859285A385B4859C01AD012F5F7E
:100630003F4F4F4F5F4F29873A874B875C87260193
:1006400037011D821E821F821886F40181859285E2
:10065000A385B4852D813E814F81588528173907A0
:100660004A075B0708F063C089859A85AB85BC851E
:100670008C159D05AE05BF0550F482E0C82ED12C27
:10068000E12CF12C92E0492E512C612C712C9E0111
:100690002F5F3F4FB701A601C4010E94820C88233F
:1006A00009F445C089819A81AB81BC81892B8A2B51
:1006B0008B2B41F0260137019FEF491A590A690A2D
:1006C000790A05C0C414D504E604F70491F02D811D
:1006D0003E814F8158852F5F3F4F4F4F5F4F2D8396
:1006E0003E834F8358873FEFC31AD30AE30AF30AC6
:1006F000ACCF0FEF1FEF2FEF3FE0B301A201C4011A
:100700000E94E20B882399F0D50116964D915D91D8
:100710006D917C911997411551056105710549F05D
:1007200093018201C4010E94E20B811102C080E0AA
:100730002AC0D50116964D925D926D927C921997C2
:10074000332051F0D301C2010196A11DB11DF40166
:1007500080839183A283B383F5018789908DA18DD6
:10076000B28D892B8A2B8B2B69F4D50157964D922C
:100770005D926D927C925A9714968C911497806832
:1007800014968C9381E02C960FB6F894DEBF0FBEC2
:10079000CDBFDF91CF911F910F91FF90EF90DF9030
:1007A000CF90BF90AF909F908F907F906F905F9011
:1007B0004F903F9008958FB7F8948091EC028FBFCF
:1007C000089561E0FC0184810E94770A8091EB0228
:1007D00081111092EB0208958EBD00000DB407FE4A
:1007E000FDCF8EB508958FEF0C94EC030F931F93FC
:1007F000CF93DF93EB010E94080B8B010E94F30360
:100800008F3F49F00E94080B601B710B6C177D072E
:10081000A8F380E001C081E0DF91CF911F910F919B
:100820000895CF93DF93EC018E81882389F08F8127
:1008300098859C012F5F3F4F38872F8382309240ED
:1008400018F40E94F303F3CFCE010E94E1031E824D
:10085000DF91CF9108958CBD9DBD0895CF93DF9317
:10086000EC018091EB02811109C081E08093EB02E1
:1008700080919A0590919B050E942B0460E08C81E9
:10088000DF91CF910C94770ACF92DF92FF920F9372
:100890001F93CF93DF9300D000D0CDB7DEB76C01AC
:1008A000F62E29833A834B835C830E941104C60190
:1008B0000E942E046CE271E0C6010E94F6038F2DA7
:1008C00080640E94EC0308E110E05C814B813A8176
:1008D0002981DA01C901002E04C0B695A795979524
:1008E00087950A94D2F729833A834B835C830E94CD
:1008F000EC030850110929813A814B815C81083F42
:100900008FEF180731F7FF2029F0E8E0FE1204C04E
:1009100087E803C085E901C08FEF0E94EC0310E077
:100920000E94F303F601828787FF04C01F3F11F086
:100930001F5FF6CF0F900F900F900F90DF91CF9128
:100940001F910F91FF90DF90CF900895AF92BF92CB
:10095000CF92DF92EF92FF920F931F93CF93DF938B
:10096000EC016901C801820F931F8130924008F0A9
:1009700070C08E81882371F088819981AA81BB81A2
:10098000481759076A077B0729F48F819885C8168D
:10099000D906B0F5488359836A837B838B8583307E
:1009A00039F089E0440F551F661F771F8A95D1F7EC
:1009B0009A01AB0161E1CE010E944404882319F041
:1009C00083E08D8346C00E94080B5B010E94F30305
:1009D0008A878F3F49F40E94080B6A197B096D32A0
:1009E0007140A0F38FE003C08E3F31F08DE08D8326
:1009F000CE010E94E1032DC018861F8281E08E8304
:100A00008F8198858C159D0540F40E94F3038F819A
:100A10009885019698878F83F3CF6701E00EF11ECA
:100A2000CE14DF0431F00E94F303F60181936F01CD
:100A3000F7CF8F819885080F191F18870F83898535
:100A4000882319F00115124048F0CE010E941104CC
:100A500005C0CE010E94E10380E001C081E0DF918A
:100A6000CF911F910F91FF90EF90DF90CF90BF90AB
:100A7000AF9008952F923F924F925F926F927F9224
:100A80008F929F92AF92BF92CF92DF92EF92FF929E
:100A90000F931F93CF93DF9300D0CDB7DEB7FC0148
:100AA0008581882309F4D9C0848180FFD6C021E0E4
:100AB0002A83438954896589768982859385A485AB
:100AC000B585481759076A077B0709F41A826F0131
:100AD0003A81832F90E0DE0111964D013F01B6E08F
:100AE0006B0E711C892B09F47DC0D6011A964D91AD
:100AF0005D916D917C911D975A01B1E0BB22F60189
:100B000025811A012B0189E0569447943794279444
:100B10008A95D1F7838D948D223061F4FC01828D0A
:100B2000938DA48DB58DBC01CD01620D731D841D07
:100B3000951D45C0DC0114961C9111501221A11481
:100B4000B104D1F4111118C0452B462B472B51F499
:100B5000F6018789908DA18DB28D86839783A087BA
:100B6000B1870AC0468157816085718593010E94D3
:100B7000820C882309F471C0F601238D348D86819F
:100B80009781A085B1850297A109B109AC01BD018A
:100B9000F901058404C0440F551F661F771F0A948E
:100BA000D2F786859785A089B189840F951FA61FE6
:100BB000B71FBC01CD01610F711D811D911DD601B3
:100BC00014962C9126FF14C000910101109102018E
:100BD0002091030130910401601771078207930788
:100BE00051F506C0FA81FF23C1F1898190E037C039
:100BF00040E00E94990B882381F1F501E550FD4FFB
:100C0000D401CF010196E817F90719F021912D932E
:100C1000FACFEFEF8E1A9E0AF60182859385A4859E
:100C2000B5850196A11DB11D82879387A487B587DD
:100C300080E090E057CF740101E010E09501AB0136
:100C4000BC018091FB049091FC040E94A6048823BF
:100C500021F0BFEF8B1A9B0ADFCF8FEF9FEF0F9032
:100C60000F90DF91CF911F910F91FF90EF90DF9048
:100C7000CF90BF90AF909F908F907F906F905F903C
:100C80004F903F902F9008954F925F926F927F9276
:100C90009F92AF92BF92CF92DF92EF92FF920F930B
:100CA0001F93CF93DF93CDB7DEB72B970FB6F89492
:100CB000DEBF0FBECDBF7C01DC011596AC90A1104C
:100CC0008AC1FE0131966F0190E28BE08E0F919305
:100CD0008E13FDCFDA0130E087E09D91992339F141
:100CE0009E3219F0E0E9F0E00AC08A3009F474C1DC
:100CF00038E08AE0F2CF3196491709F46DC144918A
:100D00004111F9CF831708F467C14FED490F4E35F4
:100D100008F062C141E0430FF601E30FF11D3FE926
:100D2000390F3A3108F490529083342FD6CF89810D
:100D3000803209F451C1B22E8B01DB015B968D919B
:100D40009C915C97F701948F838F16961D921D924C
:100D50001D921C921997FB01128613861486158624
:100D6000712CF80182859385A485B58543895489C2
:100D70006589768984179507A607B70708F061C0CB
:100D800025E0B695A795979587952A95D1F7F82FE1
:100D9000FF706F2ED80115968C91823008F41CC11B
:100DA000C8010E943A0597FD17C1F8018285938515
:100DB000A485B5854F96A11DB11D82879387A48711
:100DC000B587F0E26F9EC0011124BC0165507D4FD4
:100DD0006115710509F400C1DB012C91222319F082
:100DE000253EC1F427C071100EC0F701628A409100
:100DF0000101509102016091030170910401468745
:100E00005787608B718BFC01E550FD4F808181110C
:100E100013C015C04BE050E0C6010E94151B892B82
:100E200009F09FCF8B2D8073803309F4D5C04B2DF3
:100E3000662DCCC07720C9F27724739492CF7724A3
:100E400073948B2D8271823109F0C6C07720D1F066
:100E5000D7011E966D917D918D919C91519741E0A6
:100E60000E94990B882309F4B7C0F7016289F0E268
:100E70006F9FB001112465507D4F6115710509F018
:100E800079C0AAC0D80115968C91823009F4A4C00B
:100E9000C8010E94D802882309F49EC0D8015B963D
:100EA000ED91FC915C9716964D905D906D907C90C5
:100EB0001997B2E04B1A510861087108058404C003
:100EC000440C551C661C771C0A94D2F786859785BE
:100ED000A089B189480E591E6A1E7B1E9480E1E0EC
:100EE0004E1A510861087108992009F10E945E0BA1
:100EF000882309F471C0EBEFF2E0119224E0EB3F9C
:100F0000F207D9F7D301C201890D911DA11DB11DB1
:100F10008093010190930201A0930301B093040117
:100F20008091ED0281608093ED029A94DDCFD8012B
:100F30005B96ED91FC915C9780E092E0A0E0B0E0E0
:100F4000058404C0880F991FAA1FBB1F0A94D2F7FB
:100F5000F8014389548965897689840F951FA61FF6
:100F6000B71F838B948BA58BB68BD70152961C929F
:100F70006BEF72E080E2FB0111928A95E9F78BE05A
:100F8000F601DB0101900D928A95E1F781E298E28A
:100F9000DB0151969C938E93509720E038E01F968A
:100FA0003C932E931E9753969C938E9352975996EB
:100FB0009C938E93589757963C932E9356970E94E6
:100FC0005E0B882349F04B2DF7016289C7010E940F
:100FD000C401A82E01C0A12C8A2D2B960FB6F8941F
:100FE000DEBF0FBECDBFDF91CF911F910F91FF905C
:100FF000EF90DF90CF90BF90AF909F907F906F90D9
:101000005F904F900895FC01818D928D009711F0B3
:101010000C943A058FEF9FEF08950F931F93CF9392
:10102000DF93FC01818D928D0097B9F0EF010E9452
:101030003A058C010F3F8FEF180791F0898D9A8D3B
:10104000FC014285538564857585415051096109CC
:1010500071090E942E01C80105C080E090E002C025
:101060008FEF9FEFDF91CF911F910F910895EF9236
:10107000FF920F931F93CF93DF93EC0179014115FA
:1010800051056105710511F482E13CC08B85833007
:1010900039F089E0440F551F661F771F8A95D1F7F5
:1010A0009A01AB0168E1CE010E944404882311F04B
:1010B00084E028C08EEF0E94EC0387018EEFF81ABF
:1010C000F80181918F010E94EC030E151F05C1F7F5
:1010D0008FEF0E94EC038FEF0E94EC030E94F3035A
:1010E0008A878F71853031F081E18D83CE010E9436
:1010F000E10309C068E572E0CE010E94F6038111A8
:1011000007C085E18D83CE010E94E10380E013C01A
:1011100020E030E0A9016DE0CE010E94440481117D
:1011200004C00E94F303882311F084E1EBCFCE01C9
:101130000E94E10381E0DF91CF911F910F91FF9019
:10114000EF900895FC01DB0112968D919C9113970D
:101150009383828384E491E09183808314968C91BD
:101160001497848315968C911597858316964D91C7
:101170005D916D917C911997468357836087718744
:101180001A964D915D916D917C911D974287538781
:10119000648775871E964D915D916D917C915197F5
:1011A00046875787608B718B52968C915297828BB2
:1011B00053964D915D916D917C915697438B548BD5
:1011C000658B768B57964D915D916D917C915A9779
:1011D000478B508F618F728F5B968D919C915C973E
:1011E000948F838F0895EF92FF920F931F93CF9365
:1011F000DF93EC017B018A011B821A8288EE93E067
:10120000A0E0B0E08C839D83AE83BF838CE491E04B
:10121000998388838DE190E00E9419199A8F898FB4
:10122000009779F02DE1F701DC0101900D922A95EC
:10123000E1F74CE050E0B801CE010C960E943D1B56
:10124000188EDF91CF911F910F91FF90EF9008952D
:10125000FC01918D828D981761F0828DDF01A80FBE
:10126000B11D5D968C91928D9F5F9F73928F90E0E0
:1012700008958FEF9FEF0895FC01918D828D98174F
:1012800031F0828DE80FF11D858D90E008958FEF8C
:101290009FEF0895FC01918D228D892F90E0805C55
:1012A0009F4F821B91098F73992708958DEF94E0CA
:1012B0000E944A0921E0892B09F420E0822F089539
:1012C000FC01848DDF01A80FB11DA35ABF4F2C91E3
:1012D000848D90E001968F739927848FA689B789B2
:1012E0002C93A089B1898C9180648C93938D848D8B
:1012F000981306C00288F389E02D80818F7D80835A
:101300000895EF92FF920F931F93CF93DF93EC0119
:1013100081E0888F9B8D8C8D981305C0E889F989B1
:10132000808185FD24C0F62E0B8D10E00F5F1F4FCE
:101330000F731127E02E8C8DE8120CC00FB607FC3E
:10134000FACFE889F989808185FFF5CFCE010E9427
:101350006009F1CF8B8DFE01E80FF11DE35AFF4FBD
:10136000F0820B8FEA89FB898081806207C0EE8959
:10137000FF896083E889F98980818064808381E0C6
:1013800090E0DF91CF911F910F91FF90EF90089522
:10139000CF93DF93EC01888D8823C9F0EA89FB891C
:1013A000808185FD05C0A889B9898C9186FD0FC013
:1013B0000FB607FCF5CF808185FFF2CFA889B989E8
:1013C0008C9185FFEDCFCE010E946009E7CFDF91C0
:1013D000CF91089580E090E0892B29F00E94560972
:1013E00081110C94000008950E94101B1F920F920F
:1013F0000FB60F9211242F933F934F935F936F93E8
:101400007F938F939F93AF93BF93EF93FF938DEF52
:1014100094E00E946009FF91EF91BF91AF919F917D
:101420008F917F916F915F914F913F912F910F908D
:101430000FBE0F901F9018951F920F920FB60F922C
:1014400011242F938F939F93EF93FF93E0910D05BA
:10145000F0910E058081E0911305F091140582FD55
:1014600012C09081809116058F5F8F7320911705B0
:10147000821751F0E0911605F0E0E350FB4F958F95
:101480008093160501C08081FF91EF919F918F910C
:101490002F910F900FBE0F901F901895833081F001
:1014A00028F4813099F08230A1F008958730A9F0B6
:1014B0008830B9F08430D1F4809180008F7D03C0F2
:1014C000809180008F7780938000089584B58F7716
:1014D00002C084B58F7D84BD08958091B0008F7760
:1014E00003C08091B0008F7D8093B00008951F935A
:1014F000CF93DF93282F30E0F901E458FF4F849118
:10150000F901E056FF4FD491F901E254FF4FC49125
:10151000CC23C9F0162F81110E944E0AEC2FF0E067
:10152000EE0FFF1FEC54FF4FA591B4918FB7F894C5
:10153000111105C09C91ED2FE095E92302C0EC91BB
:10154000ED2BEC938FBFDF91CF911F910895CF9337
:10155000DF9390E0FC01E056FF4F2491FC01E25440
:10156000FF4F8491882361F190E0880F991FFC015F
:10157000E859FF4FC591D491FC01EC54FF4FA59160
:10158000B491611109C09FB7F89488812095822396
:101590008883EC912E230BC0623061F49FB7F894DE
:1015A0003881822F809583238883EC912E2B2C9376
:1015B0009FBF06C08FB7F894E8812E2B28838FBF7A
:1015C000DF91CF9108953FB7F8948091F702909101
:1015D000F802A091F902B091FA0226B5A89B05C0C5
:1015E0002F3F19F00196A11DB11D3FBFBA2FA92FA2
:1015F000982F8827820F911DA11DB11DBC01CD011F
:1016000042E0660F771F881F991F4A95D1F708950A
:101610002FB7F8946091F3027091F4028091F50273
:101620009091F6022FBF08951F920F920FB60F925E
:1016300011242F933F938F939F93AF93BF938091E8
:10164000F3029091F402A091F502B091F60230916C
:10165000F20223E0230F2D3720F40196A11DB11DC6
:1016600005C026E8230F0296A11DB11D2093F202AA
:101670008093F3029093F402A093F502B093F602E4
:101680008091F7029091F802A091F902B091FA02CC
:101690000196A11DB11D8093F7029093F802A093CB
:1016A000F902B093FA02BF91AF919F918F913F9150
:1016B0002F910F900FBE0F901F9018958091ED0203
:1016C0008823A9F140910101509102016091030129
:1016D000709104012BEF32E08091FB049091FC04A7
:1016E0000E943708811102C080E008954091EE0207
:1016F0005091EF026091F0027091F1024115510595
:101700006105710591F02BEF32E08091FB0490911F
:10171000FC040E943708882339F31092EE021092DD
:10172000EF021092F0021092F1021092ED0281E0AD
:1017300008958F929F92AF92BF92EF92FF920F9374
:101740001F93CF934B015C01C42F809101019091B5
:101750000201A0910301B091040188159905AA0521
:10176000BB0501F10E945E0B811102C080E020C028
:101770008BEFE82E82E0F82E00E012E020E030E06F
:10178000B501A4018091FB049091FC040E94A60481
:10179000882361F38092010190920201A0920301DB
:1017A000B09204018091ED02C82BC093ED0281E05C
:1017B000CF911F910F91FF90EF90BF90AF909F90AE
:1017C0008F9008954F925F926F927F928F929F9227
:1017D000AF92BF92CF92DF92EF92FF920F931F933F
:1017E000CF93DF93EC016A017B012801390142307C
:1017F00051056105710510F480E073C089859A85F3
:10180000AB85BC850196A11DB11D84179507A60760
:10181000B70790F38B889C88AD88BE888F8980310C
:1018200029F4BB27AF2D9E2D8D2D09C0DB01CA01E8
:1018300047E0B695A795979587954A95D1F7880E75
:10184000991EAA1EBB1E8091010190910201A091D8
:101850000301B091040188169906AA06BB0679F423
:101860008F898031A1F4DD24EE24FF24C601880F86
:10187000991FFC01E550FD4F5182408219C040E0A4
:10188000C501B4010E94990B8111EACFB5CFE8944C
:10189000C7F8DD24EE24FF24C601880F991F880FA6
:1018A000991FFC01E550FD4F408251826282738294
:1018B0008091ED0281608093ED028A89823080F010
:1018C0008D819E81AF81B885880E991EAA1EBB1E90
:1018D0008092EE029092EF02A092F002B092F1029A
:1018E00081E0DF91CF911F910F91FF90EF90DF90FA
:1018F000CF90BF90AF909F908F907F906F905F90B0
:101900004F9008958F929F92AF92BF92CF92DF92A5
:10191000EF92FF920F931F93CF93DF93FC0181858A
:101920009285A385B4850196A11DB11D84179507E5
:10193000A607B70710F480E05CC083899489A58965
:10194000B689C789C03129F4852E962EA72EBB24CF
:1019500009C04A015B01C7E0B694A79497948794A5
:10196000CA95D1F7E9016A017B018F01BC01CD0164
:10197000680D791D8A1D9B1D8090010190900201C8
:10198000A0900301B0900401681579058A059B05B4
:1019900099F4F80187898031A9F4B701A601552788
:1019A00066277727440F551FFA01E550FD4F8081C8
:1019B0009181A0E0B0E018C040E00E94990B811135
:1019C000E8CFB9CFB701A6014F775527662777270C
:1019D000440F551F440F551FFA01E550FD4F8081FC
:1019E0009181A281B381BF7088839983AA83BB83CD
:1019F00081E0DF91CF911F910F91FF90EF90DF90E9
:101A0000CF90BF90AF909F908F9008954F925F922C
:101A10006F927F92AF92BF92CF92DF92EF92FF923E
:101A20000F931F93CF93DF9300D000D0CDB7DEB7D5
:101A30008C0149835A836B837C835901C12CD12C3F
:101A40007601412C82E0582E612C712C49815A81FB
:101A50006B817C819E012F5F3F4FC8010E94820CE9
:101A6000882351F1D301C201F801058404C0880F15
:101A7000991FAA1FBB1F0A94D2F7C80ED91EEA1ECF
:101A8000FB1E49815A816B817C818789803129F0D5
:101A900088EF9FEFAFEFBFE004C088EF9FEFA0E0BB
:101AA000B0E0481759076A077B0780F2F501C0824A
:101AB000D182E282F38281E00F900F900F900F901D
:101AC000DF91CF911F910F91FF90EF90DF90CF901A
:101AD000BF90AF907F906F905F904F9008952F923E
:101AE0003F924F925F926F927F928F929F92AF92AE
:101AF000BF92CF92DF92EF92FF920F931F93CF93FB
:101B0000DF9300D000D0CDB7DEB78C015B011A01A6
:101B1000DC0115968C9115978130C9F414968C913F
:101B200081FF15C082FF1BC0F80143895489658974
:101B3000768982859385A485B58584179507A60740
:101B4000B70769F0C8010E942E01811108C081E029
:101B500090E0F8019383828380E090E039C16101D5
:101B600083C0D8015B968D919C915C97FC01248188
:101B700021502A013B0139E07694679457944794A9
:101B80003A95D1F7722E74207A01F1E0FF22772086
:101B900009F476C080E092E08E199F0946018C1509
:101BA0009D0508F44C01D8015B962D913C915C9702
:101BB00016968D919D910D90BC91A02D0297A10933
:101BC000B109F901058404C0880F991FAA1FBB1F22
:101BD0000A94D2F74685578560897189840F951FCD
:101BE000A61FB71F9C01AD01270D311D411D511DC1
:101BF00029013A01811432E0930609F088C08091EE
:101C0000010190910201A0910301B091040184159A
:101C10009505A605B70559F48FEF9FEFDC0180937A
:101C2000010190930201A0930301B0930401950177
:101C3000B301A2018091FB049091FC040E9437083B
:101C4000882309F484CF9EEFB91AC818D908F8017F
:101C500082859385A485B585880D991DA11DB11D2B
:101C600082879387A487B587D8011A964D915D9195
:101C70006D917C911D97C114D10409F072CF87C07A
:101C8000E114F10409F086CF16964D915D916D91A6
:101C90007C911997411551056105710559F45796C5
:101CA0008D919D910D90BC91A02D0097A105B1053E
:101CB00041F521C09E012F5F3F4F0E94820C882377
:101CC00009F44BCF89819A81AB81BC81F801238DC6
:101CD000348DF9012789203129F048EF5FEF6FEF4C
:101CE0007FE004C048EF5FEF60E070E08417950785
:101CF000A607B70730F0C8010E94D80281114ACF69
:101D000026CFF80186839783A087B18743CFE1145C
:101D1000F10429F5D8011A964D915D916D917C9150
:101D20001D9753968D919D910D90BC91A02D4817B4
:101D300059076A077B0798F00E945E0B882309F415
:101D400006CF40920101509202016092030170920D
:101D500004018091ED0281608093ED0208C041E0B2
:101D6000C301B2010E94990B882309F4F0CED5017A
:101D7000F701E550FD4FCF01880D991DE817F907D0
:101D800019F02D912193FACFA80CB91C5ECF539670
:101D90008D919D910D90BC91A02D84179507A6075C
:101DA000B70740F4F801438B548B658B768B8481A5
:101DB00080688483D80114968C9183FD02C0C10190
:101DC00007C0C8010E94E800882309F4C0CEF7CFFD
:101DD0000F900F900F900F90DF91CF911F910F9167
:101DE000FF90EF90DF90CF90BF90AF909F908F903B
:101DF0007F906F905F904F903F902F900895CF937A
:101E0000DF931F92CDB7DEB7698341E050E0BE019A
:101E10006F5F7F4F0E946F0D0F90DF91CF910895FC
:101E2000CF92DF92EF92FF920F931F93CF93DF93A6
:101E30006C017A018B01C0E0D0E0CE15DF0589F09E
:101E4000D8016D918D01D601ED91FC910190F08149
:101E5000E02DC6010995892B11F47E0102C021965F
:101E6000ECCFC701DF91CF911F910F91FF90EF90C1
:101E7000DF90CF900895E0910206F09103068E174F
:101E80009F07F0F530910706332361F0639FB0019F
:101E90001124672F439FA0011124452F239F9001F8
:101EA0001124232F30910D0650910A06E091080667
:101EB000F0910906351308C0DC01AA0FBB1F8A0F79
:101EC0009B1F8E0F9F1F0AC0880F991F880F991F95
:101ED0008E0F9F1FFC01E30FF11D108230910A0647
:101EE000FC01E30FF11D608330910B06FC01E30F51
:101EF000F11D408330910C06FC01E30FF11D20839E
:101F00000895CF93DF93009779F0FC0101900020B2
:101F1000E9F73197AF01481B590BBC018DEF94E0F5
:101F20000E94100FEC0102C0C0E0D0E042E050E09F
:101F30006CE372E08DEF94E00E94100F8C0F9D1FF8
:101F4000DF91CF9108958F929F92AF92BF92CF92DF
:101F5000DF92EF92FF92CF93DF93C82F8CE995E049
:101F60009093FC048093FB04CC2369F1C53010F0FE
:101F700080E00DC140E060E070E0CB010E94990B71
:101F80008823B1F320E1C29FC001112485519D4FE8
:101F9000FC01E254FE4F20812F7751F73C9640819F
:101FA000518162817381443651056105710500F3E9
:101FB0003497C080D180E280F380C114D104E10461
:101FC000F10421F4D5CFC12CD12C760140E0C7011A
:101FD000B6010E94990B882359F2809106039091D3
:101FE00007038115924021F6A0910B03AA2309F45F
:101FF000BFCF6091090370910A036115710509F45F
:10200000B7CF20910803222309F4B2CFA093BA05D9
:102010002093AC0580E030E0E1E0F0E0C82FAF01B4
:10202000082E02C0440F551F0A94E2F72417350703
:1020300041F0982F8F5F983089F789E08093B5053C
:1020400097CF8093B505209111033091120321158C
:10205000310519F040E050E008C020911F03309195
:10206000200340912103509122032093AD0530932A
:10207000AE054093AF055093B00546015701860E5B
:10208000971EA11CB11C8092BB059092BC05A0922A
:10209000BD05B092BE05E0910C03F0910D03F093E5
:1020A000C105E093C005B0E00E94071E860E971E92
:1020B000A81EB91E8092C2059092C305A092C405C5
:1020C000B092C50585E0EE0FFF1F8A95E1F7E1505C
:1020D000FE4FEF2FFF27E6958E0E9F1EA11CB11C11
:1020E0008092B6059092B705A092B805B092B90556
:1020F00020910E0330910F032115310521F0A90124
:1021000060E070E008C040911B0350911C03609197
:102110001D0370911E03D701C60188199909AA09E8
:10212000BB09840F951FA61FB71F04C0B695A795BE
:1021300097958795CA95D2F78093B1059093B2058C
:10214000A093B305B093B405853F2FE09207A10596
:10215000B10510F48CE018C0853F9F4FA105B10573
:1021600010F480E111C08091270390912803A09181
:102170002903B0912A038093C2059093C305A093CD
:10218000C405B093C50580E28093BF0581E0DF916F
:10219000CF91FF90EF90DF90CF90BF90AF909F9046
:1021A0008F900895CF93DF93FC01248135814217EE
:1021B000530780F4FB01DC01CD91DC9160817181DA
:1021C000CE01840F951F0E944C1B009719F08C1BA9
:1021D0009D0B02C08FEF9FEFDF91CF910895EF929B
:1021E000FF920F931F93CF93DF93EC011982188214
:1021F0001B821A821D821C8261157105A9F17B0167
:10220000FB0101900020E9F731978F01061B170BA6
:10221000B8016F5F7F4F80E090E00E94461A009700
:1022200059F0998388831B830A832C813D81232B5A
:1022300081F4FC0110820DC088819981009711F012
:102240000E94AE19198218821D821C821B821A827A
:102250000BC01D830C83B701DF91CF911F910F91AC
:10226000FF90EF900C94361BDF91CF911F910F914F
:10227000FF90EF900895CF93DF93CDB7DEB7CA58A4
:10228000D1090FB6F894DEBF0FBECDBF789484B5E8
:10229000826084BD84B5816084BD85B5826085BD62
:1022A00085B5816085BD80916E00816080936E00F0
:1022B00010928100809181008260809381008091E2
:1022C0008100816080938100809180008160809393
:1022D00080008091B10084608093B1008091B00053
:1022E00081608093B00080917A00846080937A004E
:1022F00080917A00826080937A0080917A00816078
:1023000080937A0080917A00806880937A0010929E
:10231000C100E0910D05F0910E0582E08083E0910F
:102320000905F0910A051082E0910B05F0910C056A
:1023300080E1808310921505E0911105F09112055E
:1023400086E08083E0910F05F09110058081806127
:102350008083E0910F05F091100580818860808373
:10236000E0910F05F0911005808180688083E091F5
:102370000F05F091100580818F7D808380E791E0CB
:102380000E94810F1092A7051092A5051092A20538
:102390001092A1058AE08093A0050E94080B8B0192
:1023A00061E08091A0050E94A70A61E08091A005EC
:1023B0000E94770AFFB6F89480914002811127C0ED
:1023C000E8ECF0E08491EAEAF0E09491E82FF0E0A4
:1023D000EE0FFF1FE859FF4FA591B491EC91E9234F
:1023E00021F461E08AE00E94770A61E08AE00E94BD
:1023F000A70A8CB580618CBD8CB580648CBD61E012
:102400008DE00E94A70A61E08BE00E94A70A8091FC
:1024100040028F5F80934002FFBE82E580939A0561
:1024200010929B0580919A0590919B050E942B0428
:102430008AE0F82E8FEF0E94EC03FA94F110FACFA5
:102440008CE995E00E942E0420E030E0A90160E0D4
:102450008CE995E00E944404F82E8093A60581E063
:10246000F81649F00E94080B601B710B613D774024
:1024700058F381E056C02AEA31E040E050E068E0DD
:102480008CE995E00E94440482FF03C0F092A70506
:1024900010C0B4E0FB2E0E94F3038093A605FA94CB
:1024A000F110F9CF8A3A11F082E03BC082E08093CC
:1024B000A7058091A705823021F0C12CD12C76018F
:1024C00005C0C12CD12CE12CA0E4FA2E20E030E094
:1024D000A90167E38CE995E00E944404A7019601F5
:1024E00069E28CE995E00E9444048093A605882364
:1024F00049F00E94080B601B710B613D774030F37F
:1025000088E00FC08091A705823001F520E030E01F
:10251000A9016AE38CE995E00E944404882341F014
:1025200086E08093A1058CE995E00E94E103AEC0AE
:102530000E94F303807C803C19F483E08093A7051C
:102540000E94F3030E94F3030E94F3038CE995E0D9
:102550000E94E10380E580939A0510929B0581E03B
:102560000E94A30F882329F08091CB05882341F096
:102570008DC080E00E94A30F882309F487C0F4CFA8
:102580008091BF05803109F582E08093CB051092E0
:10259000DD051092DE051092DF051092E0058091B6
:1025A000C0059091C105A0E0B0E0F5E0880F991F4B
:1025B000AA1FBB1FFA95D1F78093D9059093DA052E
:1025C000A093DB05B093DC051FC0803209F05EC02C
:1025D00083E08093CB054091C2055091C305609183
:1025E000C4057091C5054093DD055093DE056093E9
:1025F000DF057093E00529ED35E088EA95E00E945B
:10260000060D882309F442C088EA95E09093E2051C
:102610008093E10581E08093CA051092CC05109269
:10262000CD051092CE051092CF051092D0051092D4
:10263000D1051092D2051092D3051092D4051092B4
:10264000D5051092D6051092D7051092D805812C89
:10265000912C8E010D581F4FA0910B01B0910C01D0
:10266000CA57DF4FB983A883C658D040F8013296C5
:10267000C857DF4FF983E883C858D0405E01FBE3B9
:10268000AF0EB11CCE0101966C0180C081E991E0D2
:102690000E94810F10920001C8C121E0AE01485A8A
:1026A0005F4FB701872D962D0E944406382EE6EC29
:1026B000EE16E5E0FE0609F0ACC0882309F4AEC0D2
:1026C000CE014E967C019E2D8F2DE72CF62C3C01E1
:1026D000852D942DF801E80FF91F20812F3209F480
:1026E0000196FE01E85AFF4F20E030E0D801A80F24
:1026F000B91F4C914F3249F0442339F02F5F3F4FBF
:10270000019641932C30310589F7E8E5F0E0EC0FB4
:10271000FD1FE20FF31F1082F801E80FF91F20815F
:102720002F3209F40196582E492EF801E80FF91FAF
:1027300030801C821B82A4E4B1E0BA83A9831E828C
:1027400021E0AE01485A5F4FB701C6010E9444061E
:10275000882309F455C0C6010E94CC0231109DCFD8
:10276000F6ECEF16F5E0FF0619F0C7010E94CC0267
:1027700023E68216910411F410920001BFEF8B1A28
:102780009B0AE4E68E16910409F44FC1CA57DF4F45
:10279000E881F981C658D040D801ED93FC938AE0D6
:1027A000C857DF4FA881B981C858D0401D928A957B
:1027B000E9F79F928F92ABEAB1E0BF93AF931F937B
:1027C0000F930E94661B1EAE1DAE84E491E09CAF89
:1027D0008BAF21961FAE219719A218A29F8F8E8FC3
:1027E0001BA20F900F900F900F900F900F90512CF5
:1027F000412C7A2C6B2CE6ECEE2EE5E0FE2E68CF19
:10280000B6ECEB16B5E0FB0649F0C7010E94CC021E
:1028100005C0C7010E94CC02311055CF3E018EE1A8
:10282000680E711C66EC75E0C3010E94A2081C8250
:102830001B8284E491E09A8389831E823C2C2D2C98
:10284000230148016FE270E0C4010E942B1B009736
:1028500009F440C0D4012C912F3221F4BFEF8B1A20
:102860009B0AF0CF88198D3008F08CE0E82EF12C0F
:10287000A701B401CE01885A9F4F0E943D1BE8E595
:10288000F0E0EC0FFD1FEE0DFF1D1082832D922D49
:102890000E94CC0221E0AE01485A5F4FB201832D65
:1028A000922D0E94440681110AC01EAE1DAE84E422
:1028B00091E09CAF8BAF21961FAE219718C08E0C74
:1028C0009F1CC2010E94CC02942D852D432C522CBA
:1028D0001C01B8CFF401E01BF10BCC57DF4FF9839B
:1028E000E883C458D040B201C5010E94A208CC5769
:1028F000DF4F88819981C458D040080F191FD80133
:102900008C91811107C0B501C6010E94A20848EB55
:1029100051E044C019A218A284E491E09F8F8E8FE9
:102920001BA221968FAD2197811116C06C961FAE08
:102930001EAE6C9788EE93E0A0E0B0E0A0968CAF5E
:102940009DAFAEAFBFAFA097E3961FAE1EAEE397AD
:10295000A5961FAEA59728C0825023E1A80182301A
:1029600040F466EC75E0C3010E94440681110AC080
:10297000DDCFB501C3010E9444068823B9F2C50129
:102980000E94CC0249A95AA96BA97CA9C3010E9443
:102990002E01B301C6010E94A208A801B601CE0112
:1029A000885A9F4F0E94F3086C968EAD9FAD6C972E
:1029B0009093E8058093E705A0968CAD9DADAEADF4
:1029C000BFADA0978093E9059093EA05A093EB052E
:1029D000B093EC05A4968CAD9DADAEADBFADA49704
:1029E0008093ED059093EE05A093EF05B093F0056D
:1029F0008DE0E8E5F0E0EC0FFD1F3C96A1EFB5E0BF
:102A000001900D928A95E1F7E396EEADFFADE39765
:102A1000F093FF05E093FE05309719F08581811151
:102A200004C08AEB91E00E94810F8BE0E9E5F2E0BF
:102A3000DF01282F1D922A95E9F7EDE4F2E0DF018E
:102A40001D928A95E9F787E0E5E4F2E0DF011D9247
:102A50008A95E9F70FE710E063EAE62E60E0F62ECC
:102A600071ECC72E70E0D72E50E1A52E57E2B52E9F
:102A7000F8018491F7018490F6019490992091F0E7
:102A800081110E944E0A892D90E0880F991F8E585F
:102A90009F4FFC01A591B4918C91882219F010925E
:102AA000EA0218C091E0A91AB10811F78091EA0270
:102AB00081110DC08091660290916702019664E0D9
:102AC00070E00E94EB18909367028093660281E0A9
:102AD0008093EA028090410290904202A0904302CB
:102AE000B09044020E94080B681579058A059B0581
:102AF00060F50E94E30A2B013C0134E6832E912C01
:102B0000A12CB12C0E94E30ADC01CB0184199509A8
:102B1000A609B709883E9340A105B10580F0F1E010
:102B20008F1A9108A108B10828EE420E23E0521E28
:102B3000611C711C81149104A104B10419F7811462
:102B40009104A104B104F1F6C5CF0E94080BDC0189
:102B5000CB0188519C4FAF4FBF4F80934102909360
:102B60004202A0934302B093440280E8EEEEF1E00B
:102B7000AAE6B2E001900D928A95E1F780916D028C
:102B8000823591F020E04FEF60E081E090E00E941C
:102B90003B0F109265021092640228E1822E21E020
:102BA000922EA12CB12CD5C06AE672E0CE014E96D1
:102BB0000E94EF1022E0AA24AA94BA2C6AE372E0E1
:102BC000CE010196C657DF4F2883CA58D0400E94D5
:102BD000EF10A5014F5F5F4FBE016F5F7F4FCE01CA
:102BE0004E960E94D2105C0189819A810E94AE1992
:102BF000C657DF4F2881CA58D040213011F021E05C
:102C0000DDCFF501E659FD4F8181813411F0B12C02
:102C100099C04501F3E08F0E911C6AE372E0CE018A
:102C200001960E94EF10A5014C5F5F4FBE016F5FE0
:102C30007F4FCE014E960E94D2105C0189819A810D
:102C40000E94AE192FEFA216B20609F3A50148198A
:102C50005909B40166597D4F89E592E00E94221B13
:102C6000F501E659FD4F81818093580283E0A80E5B
:102C7000B11C6AE372E0CE0101960E94EF10A5013B
:102C8000BE016F5F7F4FCE014E960E94D2104C0165
:102C900089819A810E94AE199FEF8916990609F4DD
:102CA000B6CFA4014A195B09B50166597D4F8DE481
:102CB00092E00E94221BF401E659FD4F818180932E
:102CC0004C026AE372E0CE0101960E94EF10A4016B
:102CD0004D5F5F4FBE016F5F7F4FCE014E960E94EA
:102CE000D2105C0189819A810E94AE19AFEFAA16B9
:102CF000BA0609F48CCFBFEFAB1ABB0A6AE372E0E5
:102D0000CE0101960E94EF10A501BE016F5F7F4FBB
:102D1000CE014E960E94D2104C0189819A810E9468
:102D2000AE19EFEF8E169E0609F471CFA4014A1971
:102D30005B09B50166597D4F85E492E00E94221B34
:102D4000BB24B3948E8D9F8D0E94AE19B1101ACF03
:102D50004DC1EFEFAE1ABE0AF8E0AF16B10471F044
:102D600020E040E060E0D40112968D919C91139791
:102D70000E943B0FB2E08B0E911CEBCF88E2882EB5
:102D800081E0982EA12CB12C80916602909167026F
:102D900020E0A816B90631F44FEF60E0D4018D9120
:102DA0009C9105C040E060E0F401808191810E9427
:102DB0003B0FFFEFAF1ABF0A22E0820E911C84E0A6
:102DC000A816B10409F710926902109268022FEF59
:102DD0004FEF6FEF86E190E00E943B0F8091080675
:102DE00090910906892B09F401C10E94E30A8090A1
:102DF0000E0690900F06A0901006B0901106DC0110
:102E0000CB0188199909AA09BB09C297A105B10587
:102E100060F3F89480910406909105069CAF8BAF07
:102E2000A0910806B0910906FD0131968C91CD570D
:102E3000DF4F8883C358D04090910006A0911206BE
:102E4000B091130680911406992309F456C09C9101
:102E5000982BCE57DF4F9883C258D0409C918095D5
:102E60008923CF57DF4F8883C158D040CF57DF4FDA
:102E70008881C158D040E4968FAFE49788E0699686
:102E80008FAF6997CE57DF4F5881C258D040CF5788
:102E9000DF4F6881C158D040CD57DF4F4881C358BC
:102EA000D04069963FAD6997E4962FADE4978BAD1E
:102EB0009CAD5C9347FD252F3A952C93262F39F036
:102EC000441F00C000006C93000000C0F2CF38E047
:102ED00041916C930000019761F7B0931306A093A2
:102EE0001206CD57DF4F4883C358D04069963FAF95
:102EF0006997E4962FAFE4976CC09C91982BCE57BE
:102F0000DF4F9883C258D0409C9180958923CF573A
:102F1000DF4F8883C158D040CF57DF4F8881C158D9
:102F2000D040C058DF4F8883C058D04088E0C15897
:102F3000DF4F8883CF57D040CE57DF4F5881C258DC
:102F4000D040CF57DF4F6881C158D040CD57DF4FB9
:102F50004881C358D040C158DF4F3881CF57D04047
:102F6000C058DF4F2881C058D0408BAD9CAD5C93DA
:102F700047FD252F00C000C02C9300C000C000C03A
:102F800000C000C06C930000262F3A9541F0441F0A
:102F9000000000C000C000C000C000C0E8CF38E0A2
:102FA000419100C06C9300C0019709F7B0931306DC
:102FB000A0931206CD57DF4F4883C358D040C15865
:102FC000DF4F3883CF57D040C058DF4F2883C058D9
:102FD000D0409CAF8BAF78940E94E30A60930E06BA
:102FE00070930F0680931006909311060E94EA09D1
:102FF0003BCD8091080690910906009711F00E9440
:10300000AE198091060687FD03C060E00C94A70A04
:103010000895109200051092FF0488EE93E0A0E05E
:10302000B0E08093010590930205A0930305B0934F
:10303000040584E391E09093FE048093FD0485EC05
:1030400090E090930A058093090584EC90E09093BA
:103050000C0580930B0580EC90E090930E05809317
:103060000D0581EC90E09093100580930F0582ECA4
:1030700090E0909312058093110586EC90E0909378
:1030800014058093130510921605109217051092DF
:1030900018051092190580E580939A0510929B05FA
:1030A0001092A1051092A2051092A5051092A705F5
:1030B00082E090E0A0E0B0E08093A8059093A9059D
:1030C000A093AA05B093AB051092BF051092C90555
:1030D0001092C80584E491E09093C7058093C605DB
:1030E0001092CB05109201061092070610920E0660
:1030F00010920F06109210061092110681E0809334
:103100000D0680930A0610920B0692E090930C062F
:103110008093000688E790E090930506809304066C
:103120000E9419199093090680930806009761F090
:1031300028E7FC0111922A95E9F788E290E0909344
:1031400003068093020608C010920506109204063A
:10315000109203061092020686E080930606809184
:103160000106882341F061E086E00E94A70A60E042
:1031700086E00E94770AE4ECF0E0E491F0E0EE0FE4
:10318000FF1FEC54FF4F8591949190931306809309
:103190001206E6EAF0E0E491E09314061092E805E6
:1031A0001092E70588EE93E0A0E0B0E08093E90597
:1031B0009093EA05A093EB05B093EC058CE491E0C5
:1031C0009093E6058093E5051092FF051092FE05A9
:1031D0001092F105089597FB072E16F4009407D07E
:1031E00077FD09D00E94FF1807FC05D03EF49095AA
:1031F00081959F4F0895709561957F4F0895AA1B03
:10320000BB1B51E107C0AA1FBB1FA617B70710F0D1
:10321000A61BB70B881F991F5A95A9F78095909503
:10322000BC01CD010895EE0FFF1F0590F491E02D34
:103230000994CF93DF938230910510F482E090E0FF
:10324000E0911706F091180620E030E0C0E0D0E0F1
:10325000309711F14081518148175907C0F0481744
:10326000590761F482819381209719F09B838A83A7
:103270002BC0909318068093170626C021153105A0
:1032800019F04217530718F49A01BE01DF01EF014C
:103290000280F381E02DDCCF2115310509F1281BD7
:1032A000390B2430310590F412968D919C9113972F
:1032B0006115710521F0FB019383828304C0909313
:1032C000180680931706FD01329644C0FD01E20FF7
:1032D000F31F81939193225031092D933C933AC06F
:1032E0002091150630911606232B41F420910701F9
:1032F00030910801309316062093150620910501A0
:10330000309106012115310541F42DB73EB74091AA
:10331000090150910A01241B350BE0911506F0912B
:103320001606E217F307A0F42E1B3F0B28173907E8
:1033300078F0AC014E5F5F4F2417350748F04E0F11
:103340005F1F50931606409315068193919302C018
:10335000E0E0F0E0CF01DF91CF9108950F931F934C
:10336000CF93DF93009709F48CC0FC01329713824E
:10337000128200911706109118060115110581F4AB
:1033800020813181820F931F2091150630911606FE
:103390002817390779F5F0931606E093150671C0E2
:1033A000D80140E050E0AE17BF0750F412962D91BF
:1033B0003C911397AD012115310509F1D901F3CFE6
:1033C0009D01DA013383228360817181860F971F0B
:1033D0008217930769F4EC0128813981260F371F82
:1033E0002E5F3F4F318320838A819B819383828329
:1033F000452B29F4F0931806E093170642C0139664
:10340000FC93EE931297ED01499159919E01240F7F
:10341000351FE217F30771F480819181840F951FA6
:10342000029611969C938E938281938113969C931E
:103430008E931297E0E0F0E0D80112968D919C9166
:103440001397009719F0F8018C01F6CF8D919C919C
:1034500098012E5F3F4F820F931F209115063091E8
:1034600016062817390769F4309729F410921806C0
:103470001092170602C01382128210931606009350
:103480001506DF91CF911F910F910895A0E0B0E054
:10349000ECE4FAE10C94161EEC01009721F4CB0148
:1034A0000E941919B8C0FC01E60FF71F9C012250B9
:1034B0003109E217F30708F4ACC0D9010D911C9152
:1034C000119706171707B0F00530110508F49FC0D3
:1034D000C80104978617970708F499C0025011098C
:1034E000061B170B019311936D937C93CF010E94E0
:1034F000AE198DC05B01A01AB10A4C01800E911E5D
:10350000A0911706B091180640E050E0E12CF12C94
:10351000109709F44AC0A815B905D1F56D907C90B3
:103520001197630182E0C80ED11CCA14DB0480F13C
:10353000A3014A195B096A0182E0C80ED11C1296E8
:10354000BC9012971396AC91B5E0CB16D10440F025
:10355000B282A38351834083D9016D937C930AC0C7
:103560000E5F1F4FC301800F911FF901918380836C
:10357000EB2DFA2FE114F10431F0D7011396FC93EF
:10358000EE93129744C0F0931806E09317063FC0DD
:103590008D919C9111974817590708F4AC017D0152
:1035A00012960D90BC91A02DB3CF809115069091ED
:1035B000160688159905E1F446175707C8F4809157
:1035C000050190910601009741F48DB79EB7409197
:1035D000090150910A01841B950BE817F907C8F4FB
:1035E000F0931606E0931506F901718360830FC00E
:1035F000CB010E9419197C01009759F0A801BE0166
:103600000E94221BCE010E94AE19C70104C0CE0148
:1036100002C080E090E0CDB7DEB7EEE00C94321E41
:1036200081E090E0F8940C94581EFB01DC0104C08A
:103630008D910190801921F441505040C8F7881BAA
:10364000990B0895FB01DC0102C001900D924150DD
:103650005040D8F70895FC018191861721F0882306
:10366000D9F7992708953197CF010895FB01DC011F
:1036700001900D920020E1F70895FB01DC0141501B
:10368000504048F001900D920020C9F701C01D92F2
:1036900041505040E0F70895FB0151915523A9F0A6
:1036A000BF01DC014D9145174111E1F759F4CD01FE
:1036B0000190002049F04D9140154111C9F3FB01E3
:1036C0004111EFCF81E090E001970895AEE0B0E0C6
:1036D000ECE6FBE10C94201E0D891E8986E08C83AC
:1036E0001A8309838FEF9FE79E838D83AE01475E28
:1036F0005F4F6F89788DCE0101960E94891B2F81C3
:103700003885F801E20FF31F10822E96E4E00C9446
:103710003C1EACE0B0E0EFE8FBE10C94121E7C0133
:103720006B018A01FC0117821682838181FFBDC172
:10373000CE0101964C01F7019381F60193FD85912D
:1037400093FF81916F01882309F4ABC1853239F46D
:1037500093FD859193FF81916F01853229F4B70123
:1037600090E00E94711DE7CF512C312C20E02032D7
:10377000A0F48B3269F030F4803259F0833269F46E
:1037800020612CC08D3239F0803339F4216026C09D
:103790002260246023C0286021C027FD27C030EDAF
:1037A000380F3A3078F426FF06C0FAE05F9E300DFD
:1037B0001124532E13C08AE0389E300D1124332E6D
:1037C00020620CC08E3221F426FD6BC1206406C03D
:1037D0008C3611F4206802C0883641F4F60193FD5E
:1037E000859193FF81916F018111C1CF982F9F7DAA
:1037F0009554933028F40C5F1F4FFFE3F9830DC0FD
:10380000833631F0833771F0833509F05BC022C015
:10381000F801808189830E5F1F4F44244394512C0B
:10382000540115C03801F2E06F0E711CF801A08040
:10383000B18026FF03C0652D70E002C06FEF7FEFFF
:10384000C5012C870E94661D2C0183012C852F77D2
:10385000222E17C03801F2E06F0E711CF801A08013
:10386000B18026FF03C0652D70E002C06FEF7FEFCF
:10387000C5012C870E945B1D2C012C852068222EFF
:10388000830123FC1BC0832D90E048165906B0F439
:10389000B70180E290E00E94711D3A94F4CFF501E7
:1038A00027FC859127FE81915F01B70190E00E947E
:1038B000711D31103A94F1E04F1A5108411451042E
:1038C00071F7E5C0843611F0893639F5F80127FF24
:1038D00007C060817181828193810C5F1F4F08C096
:1038E00060817181072E000C880B990B0E5F1F4FB2
:1038F0002F76722E97FF09C09095809570956195EF
:103900007F4F8F4F9F4F2068722E2AE030E0A40136
:103910000E94A91DA82EA81844C0853729F42F7E1F
:10392000B22E2AE030E025C0F22FF97FBF2E8F366D
:10393000C1F018F4883579F0B4C0803719F08837B1
:1039400021F0AFC02F2F2061B22EB4FE0DC08B2D01
:103950008460B82E09C024FF0AC09F2F9660B92E3C
:1039600006C028E030E005C020E130E002C020E1E0
:1039700032E0F801B7FE07C06081718182819381D6
:103980000C5F1F4F06C06081718180E090E00E5F88
:103990001F4FA4010E94A91DA82EA818FB2DFF7778
:1039A0007F2E76FE0BC0372D3E7FA51450F474FE9B
:1039B0000AC072FC08C0372D3E7E05C0BA2C372DD8
:1039C00003C0BA2C01C0B52C34FF0DC0FE01EA0DB6
:1039D000F11D8081803311F4397E09C032FF06C0A9
:1039E000B394B39404C0832F867809F0B39433FD65
:1039F00013C030FF06C05A2CB31418F4530C5B18D4
:103A0000B32CB31468F4B70180E290E03C870E94C5
:103A1000711DB3943C85F5CFB31410F43B1801C06D
:103A2000312C34FF12C0B70180E390E03C870E9444
:103A3000711D3C8532FF17C031FD03C088E790E05F
:103A400002C088E590E0B7010CC0832F867859F05A
:103A500031FF02C08BE201C080E237FD8DE2B70189
:103A600090E00E94711DA51438F4B70180E390E046
:103A70000E94711D5A94F7CFAA94F401EA0DF11D2A
:103A80008081B70190E00E94711DA110F5CF332015
:103A900009F451CEB70180E290E00E94711D3A9482
:103AA000F6CFF7018681978102C08FEF9FEF2C96AA
:103AB000E2E10C942E1EFC01059061507040011053
:103AC000D8F7809590958E0F9F1F0895FC01615047
:103AD000704001900110D8F7809590958E0F9F1F30
:103AE00008950F931F93CF93DF93FB01238121FD53
:103AF00003C08FEF9FEF28C022FF16C04681578179
:103B0000248135814217530744F4A081B1819D017E
:103B10002F5F3F4F318320838C93268137812F5F26
:103B20003F4F3783268310C0EB01092F182F0084E5
:103B3000F185E02D0995892BE1F68E819F81019613
:103B40009F838E83812F902FDF91CF911F910F91B3
:103B50000895FA01AA27283051F1203181F1E89423
:103B60006F936E7F6E5F7F4F8F4F9F4FAF4FB1E070
:103B70003ED0B4E03CD0670F781F891F9A1FA11D6B
:103B8000680F791F8A1F911DA11D6A0F711D811D6C
:103B9000911DA11D20D009F468943F912AE0269F31
:103BA00011243019305D3193DEF6CF010895462F90
:103BB0004770405D4193B3E00FD0C9F7F6CF462F71
:103BC0004F70405D4A3318F0495D31FD40524193DA
:103BD00002D0A9F7EACFB4E0A69597958795779597
:103BE0006795BA95C9F700976105710508959B011E
:103BF000AC010A2E06945795479537952795BA95A7
:103C0000C9F7620F731F841F951FA01D08950E949E
:103C1000491EA59F900DB49F900DA49F800D911DEE
:103C2000112408952F923F924F925F926F927F924C
:103C30008F929F92AF92BF92CF92DF92EF92FF92BC
:103C40000F931F93CF93DF93CDB7DEB7CA1BDB0B68
:103C50000FB6F894DEBF0FBECDBF09942A8839880D
:103C600048885F846E847D848C849B84AA84B98414
:103C7000C884DF80EE80FD800C811B81AA81B98120
:103C8000CE0FD11D0FB6F894DEBF0FBECDBFED0134
:103C90000895A29FB001B39FC001A39F700D811D25
:103CA0001124911DB29F700D811D1124911D089545
:103CB00010E0CAE6D0E004C0FE010E94131921966C
:0A3CC000CB36D107C9F7F894FFCF07
:103CCA0001FFFFFFFF00001906800000000000004E
:103CDA000000000000000000010002000A001200BB
:103CEA00110010000800000004000500060007008B
:103CFA00000000008109100F4A0928093C09C80977
:103D0A0000000000FF0E100F00000000B600CC00FB
:103D1A00950003080D08260100000000F409100FA1
:103D2A00F409F409F409F40900000000F409100F79
:103D3A005B494E464F5D20496E697469616C697AC8
:103D4A00696E6720534420436172642E202E202E10
:103D5A000053442063617264206973206879706536
:103D6A007220626A6F726B65642E004D7946696CC7
:103D7A006525692E747874002F00486F6C7920735A
:103D8A00686974736E61636B73204261746D616EEE
:103D9A002C2074686973207468696E67206675637D
:103DAA006B656420757020616761696E2100244724
:103DBA0050524D432C3036343935312E3030302C78
:103DCA00412C323330372E313235362C4E2C3132AB
:103DDA003031362E343433382C452C302E30332CB7
:103DEA003136352E34382C3236303430362C332EA8
:103DFA0030352C572C412A3243002C000D0A000082
:00000001FF
