:100000000C94AF000C94D7000C94D7000C943E09CC
:100010000C943E090C943E090C94D7000C94D70024
:100020000C94D7000C94D7000C94D7000C94D700F4
:100030000C94D7000C94D7000C94D7000C94D700E4
:100040000C94BA0B0C94D7000C94C20A0C949C0A22
:100050000C94D7000C94D7000C94D7000C94D700C4
:100060000C94D7000C94D700084AD73B3BCE016EC6
:1000700084BCBFFDC12F3D6C74319ABD56833DDAFF
:100080003D00C77F11BED9E4BB4C3E916BAAAABE0E
:10009000000000803F05A84CCDB2D44EB93836A937
:1000A000020C50B9918688083CA6AAAA2ABE000074
:1000B00000803F0000000000240027002A0000000C
:1000C0000008000201000003040700000000000017
:1000D00000007C3C3E5E2B3D3F2F5B5D3B2C2A228B
:1000E0005C0000000000250028002B00000000003C
:1000F000230026002900040404040404040402026A
:100100000202020203030303030301020408102096
:1001100040800102040810200102040810204E4112
:100120004E494E495459494E46CDCCCC3D0AD72371
:100130003C17B7D13877CC2B329595E6241FB14FB9
:100140000A000020410000C84200401C4620BCBEFE
:100150004CCA1B0E5AAEC59D740095207C201124FC
:100160001FBECFEFD8E0DEBFCDBF12E0A0E0B1E010
:10017000E8E8FBE502C005900D92A63AB107D9F771
:1001800027E0A6EAB2E001C01D92A631B207E1F76E
:1001900010E0CEEAD0E004C02197FE010E940722C1
:1001A000CD3AD107C9F70E9402140C94B72D0C94D4
:1001B0000000DC015996ED91FC915A973097B9F007
:1001C00083899489A589B689428553856485758517
:1001D000841B950BA60BB70B811520E89207A10590
:1001E000B10538F08FEF9FE7A0E0B0E0089580E020
:1001F00090E00895CF93DF931F92CDB7DEB7698368
:10020000DC01ED91FC910280F381E02D41E050E0B2
:10021000BE016F5F7F4F09950F90DF91CF910895D9
:100220002091A8023091A9022817390771F4909102
:10023000A6028091A702981741F0E091A602F0E093
:10024000E957FC4F808190E008958FEF9FEF08956C
:1002500008951F93CF93DF93DC015C962D913C9121
:100260005D972115310539F481E090E013969C9358
:100270008E9312973DC05196ED91FC9152975096F6
:100280009C915097892F80951FB75E964C915E97F1
:1002900041FB772770F941FD6095F8944081772301
:1002A00011F0492B01C048234083E9012197F1F760
:1002B00048E0508160FF02C0592B01C05823508391
:1002C000E9012197F1F76695415099F7772321F0DD
:1002D00090818923808303C08081982B90831FBFE6
:1002E0005C968D919C915D970197F1F721E030E04C
:1002F000C901DF91CF911F9108952091A8023091FB
:10030000A9022817390771F48091A7022091A6024B
:1003100090E0805C9F4F821B910960E470E00E9436
:10032000F321089580E090E008952091A802309193
:10033000A90228173907B9F49091A6028091A70263
:10034000981789F0E091A602F0E0E957FC4F808110
:100350002091A60230E02F5F3F4F2F733327209369
:10036000A60290E008958FEF9FEF0895FC01818D24
:10037000928D009711F00C94150E08958F929F9214
:10038000AF92BF92CF92DF92EF92FF920F931F93A3
:10039000CF93DF9300D000D0CDB7DEB77C0180E2F1
:1003A000689F60011124960129523C4FD9011B9688
:1003B0009C91917121F0842F827409F097C0142FC1
:1003C000F701628B8091010190910201A0910301DC
:1003D000B091040186879787A08BB18BF601E95213
:1003E000FC4F4489558960E070E0BA0155274427E5
:1003F000D70157964D935D936D937C935A97828D59
:10040000938DA0E0B0E0482B592B6A2B7B2BD701B2
:1004100057964D935D936D937C935A97D9011B9694
:100420008C91887159F4848D958DA68DB78DF701C7
:10043000838B948BA58BB68B81E012C0803109F041
:1004400055C097012D5E3F4FD7015B968D919C91D2
:100450005C970E94AC0D882309F448C084E0F70142
:100460008583812F8F70D70114968C931497F70191
:1004700016821782108611861A961D921D921D9261
:100480001C921D9716FF34C015968C91813071F522
:1004900011FF2CC0F7014389548965897689452B62
:1004A000462B472B09F461C040E050E0BA01C70178
:1004B0000E94530E8823D1F0F7018788908CA18C7D
:1004C000B28CC38CD48C82E090E0A0E0B0E0F60166
:1004D00080839183A283B3839E012F5F3F4FB50139
:1004E000A401C6010E94280D811104C080E03DC016
:1004F00081E03BC000E010E09801B501A401C60115
:100500000E94880C882391F389809A80AB80BC80FC
:10051000D60157968C91803129F088EF9FEFAFEF8D
:10052000BFE004C088EF9FEFA0E0B0E08816990616
:10053000AA06BB0688F2D70157961D921D921D92FE
:100540001C925A97F701138A148A158A168A848195
:1005500080688483C7010E94150E882339F240E029
:1005600050E0BA01C7010E94530E0F900F900F90F8
:100570000F90DF91CF911F910F91FF90EF90DF903F
:10058000CF90BF90AF909F908F900895CF93DF93BF
:10059000EC01898D9A8D009739F481E090E09B837E
:1005A0008A8380E090E00BC0FC01138212820E94DB
:1005B000E90EE98DFA8D22813381232B71F7DF91CA
:1005C000CF910895CF93DF93EC010E94150E8823FD
:1005D00011F01D8281E0DF91CF9108953F924F92FB
:1005E0005F926F927F928F929F92AF92BF92CF92C3
:1005F000DF92EF92FF920F931F93CF93DF93CDB7CC
:10060000DEB72C970FB6F894DEBF0FBECDBF5C01EE
:10061000DC015B968D909C905C971696CD90DD905A
:10062000ED90FC901997C114D104E104F10439F064
:10063000BFEFCB1ADB0AEB0AFB0A312C07C0F4012F
:10064000C080D180E280F38033243394F40181852B
:100650009285A385B4859C01AD012F5F3F4F4F4F1D
:100660005F4F29873A874B875C87260137011D82B8
:100670001E821F821886F40181859285A385B48528
:100680002D813E814F815885281739074A075B071E
:1006900008F063C089859A85AB85BC858C159D055E
:1006A000AE05BF0550F482E0C82ED12CE12CF12C10
:1006B00092E0492E512C612C712C9E012F5F3F4FEF
:1006C000B701A601C4010E94280D882309F445C082
:1006D00089819A81AB81BC81892B8A2B8B2B41F03C
:1006E000260137019FEF491A590A690A790A05C09C
:1006F000C414D504E604F70491F02D813E814F81A6
:1007000058852F5F3F4F4F4F5F4F2D833E834F8361
:1007100058873FEFC31AD30AE30AF30AACCF0FEFAF
:100720001FEF2FEF3FE0B301A201C4010E94880C2C
:10073000882399F0D50116964D915D916D917C912C
:100740001997411551056105710549F09301820121
:10075000C4010E94880C811102C080E02AC0D5012A
:1007600016964D925D926D927C921997332051F0BE
:10077000D301C2010196A11DB11DF40180839183B3
:10078000A283B383F5018789908DA18DB28D892BCA
:100790008A2B8B2B69F4D50157964D925D926D9201
:1007A0007C925A9714968C911497806814968C9327
:1007B00081E02C960FB6F894DEBF0FBECDBFDF915F
:1007C000CF911F910F91FF90EF90DF90CF90BF904E
:1007D000AF909F908F907F906F905F904F903F90E1
:1007E00008958FB7F8948091C8038FBF089561E092
:1007F000FC0184810E941D0B8091C703811110921E
:10080000C70308958EBD00000DB407FEFDCF8EB561
:1008100008958FEF0C9402040F931F93CF93DF93EF
:10082000EB010E94AE0B8B010E9409048F3F49F03F
:100830000E94AE0B601B710B6C177D07A8F380E064
:1008400001C081E0DF91CF911F910F910895CF9367
:10085000DF93EC018E81882389F08F8198859C013C
:100860002F5F3F4F38872F838230924018F40E94C9
:100870000904F3CFCE010E94F7031E82DF91CF91CE
:1008800008958CBD9DBD0895CF93DF93EC018091B9
:10089000C703811109C081E08093C7038091760668
:1008A000909177060E94410460E08C81DF91CF91A6
:1008B0000C941D0BCF92DF92FF920F931F93CF9357
:1008C000DF9300D000D0CDB7DEB76C01F62E2983C0
:1008D0003A834B835C830E942704C6010E94440430
:1008E0006CE271E0C6010E940C048F2D80640E94AE
:1008F000020408E110E05C814B813A812981DA0130
:10090000C901002E04C0B695A795979587950A94BE
:10091000D2F729833A834B835C830E9402040850F8
:10092000110929813A814B815C81083F8FEF1807BB
:1009300031F7FF2029F0E8E0FE1204C087E803C089
:1009400085E901C08FEF0E94020410E00E940904B3
:10095000F601828787FF04C01F3F11F01F5FF6CFAB
:100960000F900F900F900F90DF91CF911F910F91EB
:10097000FF90DF90CF900895AF92BF92CF92DF9219
:10098000EF92FF920F931F93CF93DF93EC016901D6
:10099000C801820F931F8130924008F070C08E8191
:1009A000882371F088819981AA81BB8148175907F2
:1009B0006A077B0729F48F819885C816D906B0F598
:1009C000488359836A837B838B85833039F089E040
:1009D000440F551F661F771F8A95D1F79A01AB0107
:1009E00061E1CE010E945A04882319F083E08D83CF
:1009F00046C00E94AE0B5B010E9409048A878F3FAC
:100A000049F40E94AE0B6A197B096D327140A0F364
:100A10008FE003C08E3F31F08DE08D83CE010E94C8
:100A2000F7032DC018861F8281E08E838F81988501
:100A30008C159D0540F40E9409048F8198850196CC
:100A400098878F83F3CF6701E00EF11ECE14DF0489
:100A500031F00E940904F60181936F01F7CF8F8175
:100A60009885080F191F18870F838985882319F027
:100A70000115124048F0CE010E94270405C0CE01A6
:100A80000E94F70380E001C081E0DF91CF911F91C8
:100A90000F91FF90EF90DF90CF90BF90AF900895AF
:100AA0002F923F924F925F926F927F928F929F927E
:100AB000AF92BF92CF92DF92EF92FF920F931F936C
:100AC000CF93DF9300D0CDB7DEB7FC0185818823BB
:100AD00009F4D9C0848180FFD6C021E02A834389EC
:100AE00054896589768982859385A485B58548175B
:100AF00059076A077B0709F41A826F013A81832F2D
:100B000090E0DE0111964D013F01B6E06B0E711CC5
:100B1000892B09F47DC0D6011A964D915D916D9196
:100B20007C911D975A01B1E0BB22F60125811A0183
:100B30002B0189E056944794379427948A95D1F7EE
:100B4000838D948D223061F4FC01828D938DA48D70
:100B5000B58DBC01CD01620D731D841D951D45C071
:100B6000DC0114961C9111501221A114B104D1F48E
:100B7000111118C0452B462B472B51F4F6018789DC
:100B8000908DA18DB28D86839783A087B1870AC08F
:100B9000468157816085718593010E94280D8823C5
:100BA00009F471C0F601238D348D86819781A0856B
:100BB000B1850297A109B109AC01BD01F901058414
:100BC00004C0440F551F661F771F0A94D2F786850D
:100BD0009785A089B189840F951FA61FB71FBC01F7
:100BE000CD01610F711D811D911DD60114962C91AF
:100BF00026FF14C000910101109102012091030110
:100C000030910401601771078207930751F506C000
:100C1000FA81FF23C1F1898190E037C040E00E9452
:100C20003F0C882381F1F501E952FC4FD401CF013B
:100C30000196E817F90719F021912D93FACFEFEFFC
:100C40008E1A9E0AF60182859385A485B585019644
:100C5000A11DB11D82879387A487B58780E090E0AE
:100C600057CF740101E010E09501AB01BC01809108
:100C7000D7059091D8050E94BC04882321F0BFEFCE
:100C80008B1A9B0ADFCF8FEF9FEF0F900F90DF91B2
:100C9000CF911F910F91FF90EF90DF90CF90BF9079
:100CA000AF909F908F907F906F905F904F903F900C
:100CB0002F9008954F925F926F927F929F92AF9282
:100CC000BF92CF92DF92EF92FF920F931F93CF9339
:100CD000DF93CDB7DEB72B970FB6F894DEBF0FBE0C
:100CE000CDBF7C01DC011596AC90A1108AC1FE013C
:100CF00031966F0190E28BE08E0F91938E13FDCFB2
:100D0000DA0130E087E09D91992339F19E3219F0A4
:100D1000E2EDF0E00AC08A3009F474C138E08AE0FC
:100D2000F2CF3196491709F46DC144914111F9CFC1
:100D3000831708F467C14FED490F4E3508F062C1C3
:100D400041E0430FF601E30FF11D3FE9390F3A315E
:100D500008F490529083342FD6CF8981803209F4E1
:100D600051C1B22E8B01DB015B968D919C915C97FA
:100D7000F701948F838F16961D921D921D921C92DF
:100D80001997FB011286138614861586712CF801BB
:100D900082859385A485B58543895489658976893B
:100DA00084179507A607B70708F061C025E0B69538
:100DB000A795979587952A95D1F7F82FFF706F2EF5
:100DC000D80115968C91823008F41CC1C8010E948C
:100DD000500597FD17C1F80182859385A485B585D7
:100DE0004F96A11DB11D82879387A487B587F0E236
:100DF0006F9EC0011124BC0169527C4F61157105C1
:100E000009F400C1DB012C91222319F0253EC1F425
:100E100027C071100EC0F701628A40910101509104
:100E20000201609103017091040146875787608B2E
:100E3000718BFC01E952FC4F8081811113C015C0F8
:100E40004BE050E0C6010E948826892B09F09FCF15
:100E50008B2D8073803309F4D5C04B2D662DCCC00B
:100E60007720C9F27724739492CF772473948B2DD3
:100E70008271823109F0C6C07720D1F0D7011E9669
:100E80006D917D918D919C91519741E00E943F0C15
:100E9000882309F4B7C0F7016289F0E26F9FB001BF
:100EA000112469527C4F6115710509F079C0AAC0FF
:100EB000D80115968C91823009F4A4C0C8010E9413
:100EC000EE02882309F49EC0D8015B96ED91FC9157
:100ED0005C9716964D905D906D907C901997B2E05E
:100EE0004B1A510861087108058404C0440C551C54
:100EF000661C771C0A94D2F786859785A089B189EC
:100F0000480E591E6A1E7B1E9480E1E04E1A51085D
:100F100061087108992009F10E94040C882309F4E2
:100F200071C0E7EDF3E0119225E0E73DF207D9F754
:100F3000D301C201890D911DA11DB11D8093010135
:100F400090930201A0930301B09304018091C9031F
:100F500081608093C9039A94DDCFD8015B96ED91AF
:100F6000FC915C9780E092E0A0E0B0E0058404C0D2
:100F7000880F991FAA1FBB1F0A94D2F7F801438953
:100F8000548965897689840F951FA61FB71F838BA7
:100F9000948BA58BB68BD70152961C9267ED73E0AC
:100FA00080E2FB0111928A95E9F78BE0F601DB0103
:100FB00001900D928A95E1F781E298E2DB0151966A
:100FC0009C938E93509720E038E01F963C932E938D
:100FD0001E9753969C938E93529759969C938E93FB
:100FE000589757963C932E9356970E94040C88234B
:100FF00049F04B2DF7016289C7010E94BE01A82E5E
:1010000001C0A12C8A2D2B960FB6F894DEBF0FBE1F
:10101000CDBFDF91CF911F910F91FF90EF90DF90A7
:10102000CF90BF90AF909F907F906F905F904F90C8
:101030000895FC01818D928D009711F00C9450055C
:101040008FEF9FEF08950F931F93CF93DF93FC01D2
:10105000818D928D0097B9F0EF010E9450058C01AF
:101060000F3F8FEF180791F0898D9A8DFC01428513
:1010700053856485758541505109610971090E9444
:10108000530EC80105C080E090E002C08FEF9FEFD3
:10109000DF91CF911F910F910895EF92FF920F93DF
:1010A0001F93CF93DF93EC01790141155105610541
:1010B000710511F482E13CC08B85833039F089E001
:1010C000440F551F661F771F8A95D1F79A01AB0110
:1010D00068E1CE010E945A04882311F084E028C000
:1010E0008EEF0E94020487018EEFF81AF8018191B9
:1010F0008F010E9402040E151F05C1F78FEF0E9499
:1011000002048FEF0E9402040E9409048A878F71F3
:10111000853031F081E18D83CE010E94F70309C053
:1011200068E572E0CE010E940C04811107C085E1E0
:101130008D83CE010E94F70380E013C020E030E0F1
:10114000A9016DE0CE010E945A04811104C00E94E1
:101150000904882311F084E1EBCFCE010E94F7034C
:1011600081E0DF91CF911F910F91FF90EF90089553
:10117000FC01DB0112968D919C91139793838283DE
:1011800084E491E09183808314968C9114978483F6
:1011900015968C911597858316964D915D916D915D
:1011A0007C91199746835783608771871A964D9172
:1011B0005D916D917C911D974287538764877587F8
:1011C0001E964D915D916D917C9151974687578701
:1011D000608B718B52968C915297828B53964D9166
:1011E0005D916D917C915697438B548B658B768B7B
:1011F00057964D915D916D917C915A97478B508F89
:10120000618F728F5B968D919C915C97948F838F89
:101210000895EF92FF920F931F93CF93DF93EC010A
:101220007B018A011B821A8288EE93E0A0E0B0E085
:101230008C839D83AE83BF838CE491E09983888304
:101240008DE190E00E948C249A8F898F009779F02D
:101250002DE1F701DC0101900D922A95E1F74CE0B8
:1012600050E0B801CE010C960E94B026188EDF9196
:10127000CF911F910F91FF90EF9008951F920F92C1
:101280000FB60F9211242F933F934F935F936F9359
:101290007F938F939F93AF93BF93EF93FF93E091CF
:1012A000A802F091A902309709F451C0968DA68545
:1012B000B785858591FF04C09C91892329F447C097
:1012C0009C91892309F043C0A389B4899C918589A5
:1012D000809589238C93868997890197F1F7608D92
:1012E000718DA685B785558538E020E0CB01019743
:1012F000F1F7822F90E095958795282F4C91452303
:1013000009F02068315091F7868D81FD20958091FC
:10131000A70290E001968F7399273091A6023817A3
:1013200049F0A091A702B0E0A957BC4F2C9380933D
:10133000A70203C0868D8160868F828D938D019771
:10134000F1F7A389B4899C918589892B8C93FF91AE
:10135000EF91BF91AF919F918F917F916F915F912D
:101360004F913F912F910F900FBE0F901F901895A6
:10137000E091A802F091A902E817F90769F4A3899E
:10138000B4899C918589809589238C931092A902B8
:101390001092A80281E0089580E00895FC01918DEB
:1013A000828D981761F0828DDF01A80FB11D5D96C7
:1013B0008C91928D9F5F9F73928F90E008958FEF35
:1013C0009FEF0895FC01918D828D981731F0828DE9
:1013D000E80FF11D858D90E008958FEF9FEF089540
:1013E000FC01918D228D892F90E0805C9F4F821BA4
:1013F00091098F739927089589ED95E00E94F0096E
:1014000021E0892B09F420E0822F0895FC01848DCE
:10141000DF01A80FB11DA35ABF4F2C91848D90E01E
:1014200001968F739927848FA689B7892C93A089F9
:10143000B1898C9180648C93938D848D981306C0B0
:101440000288F389E02D80818F7D80830895EF925B
:10145000FF920F931F93CF93DF93EC0181E0888F6E
:101460009B8D8C8D981305C0E889F989808185FD55
:1014700024C0F62E0B8D10E00F5F1F4F0F73112746
:10148000E02E8C8DE8120CC00FB607FCFACFE8896D
:10149000F989808185FFF5CFCE010E94060AF1CF40
:1014A0008B8DFE01E80FF11DE35AFF4FF0820B8F89
:1014B000EA89FB898081806207C0EE89FF896083A9
:1014C000E889F98980818064808381E090E0DF9100
:1014D000CF911F910F91FF90EF900895CF93DF93DD
:1014E000EC01888D8823C9F0EA89FB89808185FD1C
:1014F00005C0A889B9898C9186FD0FC00FB607FC7D
:10150000F5CF808185FFF2CFA889B9898C9185FFBD
:10151000EDCFCE010E94060AE7CFDF91CF9108956B
:1015200080E090E0892B29F00E94FC0981110C9445
:10153000000008950E9483261F920F920FB60F920B
:1015400011242F933F934F935F936F937F938F93C8
:101550009F93AF93BF93EF93FF9389ED95E00E9424
:10156000060AFF91EF91BF91AF919F918F917F916B
:101570006F915F914F913F912F910F900FBE0F9000
:101580001F9018951F920F920FB60F9211242F9350
:101590008F939F93EF93FF93E091E905F091EA0514
:1015A0008081E091EF05F091F00582FD12C09081FD
:1015B0008091F2058F5F8F732091F305821751F0B0
:1015C000E091F205F0E0E752FA4F958F8093F20533
:1015D00001C08081FF91EF919F918F912F910F908A
:1015E0000FBE0F901F901895833081F028F4813042
:1015F00099F08230A1F008958730A9F08830B9F0D1
:101600008430D1F4809180008F7D03C08091800070
:101610008F7780938000089584B58F7702C084B55A
:101620008F7D84BD08958091B0008F7703C0809135
:10163000B0008F7D8093B00008951F93CF93DF9308
:10164000282F30E0F901E254FF4F8491F901E65F61
:10165000FE4FD491F901EA50FF4FC491CC23C9F059
:10166000162F81110E94F40AEC2FF0E0EE0FFF1FFD
:10167000EE51FF4FA591B4918FB7F894111105C0A9
:101680009C91ED2FE095E92302C0EC91ED2BEC93BA
:101690008FBFDF91CF911F910895CF93DF9390E09B
:1016A000FC01E65FFE4F2491FC01EA50FF4F84915C
:1016B000882361F190E0880F991FFC01EC54FF4FE3
:1016C000C591D491FC01EE51FF4FA591B4916111E8
:1016D00009C09FB7F8948881209582238883EC9174
:1016E0002E230BC0623061F49FB7F8943881822FAB
:1016F000809583238883EC912E2B2C939FBF06C06B
:101700008FB7F894E8812E2B28838FBFDF91CF917C
:1017100008953FB7F8948091D3039091D403A0919A
:10172000D503B091D60326B5A89B05C02F3F19F06D
:101730000196A11DB11D3FBFBA2FA92F982F882751
:10174000820F911DA11DB11DBC01CD0142E0660FAC
:10175000771F881F991F4A95D1F708952FB7F894DE
:101760006091CF037091D0038091D1039091D20307
:101770002FBF08951F920F920FB60F9211242F932F
:101780003F938F939F93AF93BF938091CF0390919B
:10179000D003A091D103B091D2033091CE0323E0C6
:1017A000230F2D3720F40196A11DB11D05C026E899
:1017B000230F0296A11DB11D2093CE038093CF036A
:1017C0009093D003A093D103B093D2038091D3031D
:1017D0009091D403A091D503B091D6030196A11D99
:1017E000B11D8093D3039093D403A093D503B093FA
:1017F000D603BF91AF919F918F913F912F910F9001
:101800000FBE0F901F9018958091C9038823A9F1EE
:101810004091010150910201609103017091040116
:1018200027ED33E08091D7059091D8050E944D08AF
:10183000811102C080E008954091CA035091CB030A
:101840006091CC037091CD0341155105610571057F
:1018500091F027ED33E08091D7059091D8050E9453
:101860004D08882339F31092CA031092CB031092CB
:10187000CC031092CD031092C90381E008958F929A
:101880009F92AF92BF92EF92FF920F931F93CF93CD
:101890004B015C01C42F8091010190910201A09144
:1018A0000301B091040188159905AA05BB0501F152
:1018B0000E94040C811102C080E020C087EDE82E58
:1018C00083E0F82E00E012E020E030E0B501A40152
:1018D0008091D7059091D8050E94BC04882361F3BC
:1018E0008092010190920201A0920301B092040142
:1018F0008091C903C82BC093C90381E0CF911F9188
:101900000F91FF90EF90BF90AF909F908F900895B0
:101910004F925F926F927F928F929F92AF92BF92FF
:10192000CF92DF92EF92FF920F931F93CF93DF93AB
:10193000EC016A017B012801390142305105610542
:10194000710510F480E073C089859A85AB85BC85EC
:101950000196A11DB11D84179507A607B70790F33F
:101960008B889C88AD88BE888F89803129F4BB27FD
:10197000AF2D9E2D8D2D09C0DB01CA0147E0B69524
:10198000A795979587954A95D1F7880E991EAA1E17
:10199000BB1E8091010190910201A0910301B091C1
:1019A000040188169906AA06BB0679F48F8980314E
:1019B000A1F4DD24EE24FF24C601880F991FFC0149
:1019C000E952FC4F5182408219C040E0C501B40188
:1019D0000E943F0C8111EACFB5CFE894C7F8DD240F
:1019E000EE24FF24C601880F991F880F991FFC0160
:1019F000E952FC4F40825182628273828091C90316
:101A000081608093C9038A89823080F08D819E81B4
:101A1000AF81B885880E991EAA1EBB1E8092CA038C
:101A20009092CB03A092CC03B092CD0381E0DF91E2
:101A3000CF911F910F91FF90EF90DF90CF90BF90CB
:101A4000AF909F908F907F906F905F904F90089590
:101A50008F929F92AF92BF92CF92DF92EF92FF92BE
:101A60000F931F93CF93DF93FC0181859285A3850C
:101A7000B4850196A11DB11D84179507A607B70768
:101A800010F480E05CC083899489A589B689C789F0
:101A9000C03129F4852E962EA72EBB2409C04A01F9
:101AA0005B01C7E0B694A79497948794CA95D1F741
:101AB000E9016A017B018F01BC01CD01680D791D2F
:101AC0008A1D9B1D8090010190900201A09003014E
:101AD000B0900401681579058A059B0599F4F80111
:101AE00087898031A9F4B701A60155276627772792
:101AF000440F551FFA01E952FC4F80819181A0E00B
:101B0000B0E018C040E00E943F0C8111E8CFB9CF8F
:101B1000B701A6014F77552766277727440F551F32
:101B2000440F551FFA01E952FC4F80819181A28137
:101B3000B381BF7088839983AA83BB8381E0DF91DF
:101B4000CF911F910F91FF90EF90DF90CF90BF90BA
:101B5000AF909F908F9008954F925F926F927F9277
:101B6000AF92BF92CF92DF92EF92FF920F931F93AB
:101B7000CF93DF9300D000D0CDB7DEB78C0149837F
:101B80005A836B837C835901C12CD12C7601412C63
:101B900082E0582E612C712C49815A816B817C81A5
:101BA0009E012F5F3F4FC8010E94280D882351F1ED
:101BB000D301C201F801058404C0880F991FAA1F30
:101BC000BB1F0A94D2F7C80ED91EEA1EFB1E49811C
:101BD0005A816B817C818789803129F088EF9FEF62
:101BE000AFEFBFE004C088EF9FEFA0E0B0E0481780
:101BF00059076A077B0780F2F501C082D182E28231
:101C0000F38281E00F900F900F900F90DF91CF91B2
:101C10001F910F91FF90EF90DF90CF90BF90AF900A
:101C20007F906F905F904F900895CF93DF93EC017A
:101C30008D818823A1F18C8187FF2DC06E857F85E2
:101C40008889998941E00E943F0C882341F1EA8903
:101C500080E2E89FF0011124DF01A952BC4F1097E8
:101C6000F1F08D81823050F44B895C896D897E89D9
:101C70005C964D935D936D937C935F978F89988D60
:101C8000A98DBA8DE952FC4F938F828FB58BA48BAF
:101C90008C818F778C83DF91CF910C94040C80E042
:101CA000DF91CF9108958F929F92AF92BF92CF9282
:101CB000DF92EF92FF920F931F93CF93DF93EC018C
:101CC0008D81811102C080E077C00B891C892D892C
:101CD0003E890417150726073707A8F36A017B0119
:101CE000823029F4CA86DB86EC86FD860DC0C114DD
:101CF000D104E104F10451F41E821F821886198672
:101D00001A861B861C861D8681E056C08A849B84A9
:101D1000AC84BD84EB8DFC8D258530E0275F3F4F83
:101D2000B501A4014150510961097109022E04C095
:101D300076956795579547950A94D2F7D701C601CE
:101D40000197A109B10904C0B695A7959795879504
:101D50002A95D2F784179507A607B70720F0892898
:101D60008A288B2849F44F89588D698D7A8D4E8346
:101D70005F836887798704C0841B950BA60BB70B1C
:101D80004C015D018E010A5F1F4F81149104A10473
:101D9000B10409F4A7CF4E815F81688579859801E8
:101DA0008B8D9C8D0E94280D91E0891A9108A108C5
:101DB000B1088111EACF87CFDF91CF911F910F91A9
:101DC000FF90EF90DF90CF90BF90AF909F908F905B
:101DD00008952F923F924F925F926F927F928F92CF
:101DE0009F92AF92BF92CF92DF92EF92FF920F93AA
:101DF0001F93CF93DF9300D000D0CDB7DEB78C0117
:101E00005B011A01DC0115968C9115978130C9F49C
:101E100014968C9181FF15C082FF1BC0F801438985
:101E200054896589768982859385A485B5858417CB
:101E30009507A607B70769F0C8010E94530E8111E4
:101E400008C081E090E0F8019383828380E090E015
:101E500039C1610183C0D8015B968D919C915C97DB
:101E6000FC01248121502A013B0139E076946794DA
:101E7000579447943A95D1F7722E74207A01F1E085
:101E8000FF22772009F476C080E092E08E199F0946
:101E900046018C159D0508F44C01D8015B962D91E7
:101EA0003C915C9716968D919D910D90BC91A02DC3
:101EB0000297A109B109F901058404C0880F991F8F
:101EC000AA1FBB1F0A94D2F746855785608971897E
:101ED000840F951FA61FB71F9C01AD01270D311D53
:101EE000411D511D29013A01811432E0930609F088
:101EF00088C08091010190910201A0910301B091ED
:101F0000040184159505A605B70559F48FEF9FEFD9
:101F1000DC018093010190930201A0930301B0932F
:101F200004019501B301A2018091D7059091D805D4
:101F30000E944D08882309F484CF9EEFB91AC8186F
:101F4000D908F80182859385A485B585880D991DEA
:101F5000A11DB11D82879387A487B587D8011A96E2
:101F60004D915D916D917C911D97C114D10409F043
:101F700072CF87C0E114F10409F086CF16964D9117
:101F80005D916D917C911997411551056105710520
:101F900059F457968D919D910D90BC91A02D00976D
:101FA000A105B10541F521C09E012F5F3F4F0E9461
:101FB000280D882309F44BCF89819A81AB81BC819C
:101FC000F801238D348DF9012789203129F048EF5C
:101FD0005FEF6FEF7FE004C048EF5FEF60E070E01D
:101FE00084179507A607B70730F0C8010E94EE02D4
:101FF00081114ACF26CFF80186839783A087B187C6
:1020000043CFE114F10429F5D8011A964D915D9161
:102010006D917C911D9753968D919D910D90BC91E2
:10202000A02D481759076A077B0798F00E94040CF7
:10203000882309F406CF4092010150920201609278
:102040000301709204018091C90381608093C903E8
:1020500008C041E0C301B2010E943F0C882309F48B
:10206000F0CED501F701E952FC4FCF01880D991D43
:10207000E817F90719F02D912193FACFA80CB91C94
:102080005ECF53968D919D910D90BC91A02D84179C
:102090009507A607B70740F4F801438B548B658B6F
:1020A000768B848180688483D80114968C9183FD1B
:1020B00002C0C10107C0C8010E94150E882309F49F
:1020C000C0CEF7CF0F900F900F900F90DF91CF9170
:1020D0001F910F91FF90EF90DF90CF90BF90AF9046
:1020E0009F908F907F906F905F904F903F902F9038
:1020F0000895CF93DF931F92CDB7DEB7698341E098
:1021000050E0BE016F5F7F4F0E94E90E0F90DF919C
:10211000CF910895CF92DF92EF92FF920F931F938A
:10212000CF93DF936C017A018B01C0E0D0E0CE1534
:10213000DF0589F0D8016D918D01D601ED91FC91FB
:102140000190F081E02DC6010995892B11F47E01E3
:1021500002C02196ECCFC701DF91CF911F910F9163
:10216000FF90EF90DF90CF900895E091DE06F09120
:10217000DF068E179F07F0F53091E306332361F0F9
:10218000639FB0011124672F439FA0011124452FA5
:10219000239F90011124232F3091E9065091E606E8
:1021A000E091E406F091E506351308C0DC01AA0FC2
:1021B000BB1F8A0F9B1F8E0F9F1F0AC0880F991F7E
:1021C000880F991F8E0F9F1FFC01E30FF11D1082D6
:1021D0003091E606FC01E30FF11D60833091E706C4
:1021E000FC01E30FF11D40833091E806FC01E30F91
:1021F000F11D208308958F929F92AF92BF92CF924C
:10220000DF92EF92FF92CF93DF93C82F88E796E09B
:102210009093D8058093D705CC2369F1C53010F091
:1022200080E00DC140E060E070E0CB010E943F0C17
:102230008823B1F320E1C29FC001112489539C4F30
:10224000FC01E254FE4F20812F7751F73C964081EC
:10225000518162817381443651056105710500F336
:102260003497C080D180E280F380C114D104E104AE
:10227000F10421F4D5CFC12CD12C760140E0C70167
:10228000B6010E943F0C882359F28091E20390919D
:10229000E3038115924021F6A091E703AA2309F4F4
:1022A000BFCF6091E5037091E6036115710509F4F4
:1022B000B7CF2091E403222309F4B2CFA09396066E
:1022C0002093880680E030E0E1E0F0E0C82FAF0125
:1022D000082E02C0440F551F0A94E2F72417350751
:1022E00041F0982F8F5F983089F789E080939106AD
:1022F00097CF809391062091ED033091EE03211545
:10230000310519F040E050E008C02091FB03309106
:10231000FC034091FD035091FE0320938906309306
:102320008A0640938B0650938C0646015701860E11
:10233000971EA11CB11C8092970690929806A092BD
:102340009906B0929A06E091E803F091E903F093C0
:102350009D06E0939C06B0E00E94662D860E971EB7
:10236000A81EB91E80929E0690929F06A092A0067B
:10237000B092A10685E0EE0FFF1F8A95E1F7E150CC
:10238000FE4FEF2FFF27E6958E0E9F1EA11CB11C5E
:102390008092920690929306A0929406B09295062F
:1023A0002091EA033091EB032115310521F0A901B9
:1023B00060E070E008C04091F7035091F80360912D
:1023C000F9037091FA03D701C60188199909AA097E
:1023D000BB09840F951FA61FB71F04C0B695A7950C
:1023E00097958795CA95D2F780938D0690938E0620
:1023F000A0938F06B0939006853F2FE09207A1052A
:10240000B10510F48CE018C0853F9F4FA105B105C0
:1024100010F480E111C08091030490910404A09114
:102420000504B091060480939E0690939F06A093A6
:10243000A006B093A10680E280939B0681E0DF9125
:10244000CF91FF90EF90DF90CF90BF90AF909F9093
:102450008F900895CF93DF93FC012481358142173B
:10246000530780F4FB01DC01CD91DC916081718127
:10247000CE01840F951F0E94BF26009719F08C1B78
:102480009D0B02C08FEF9FEFDF91CF910895EF92E8
:10249000FF920F931F93CF93DF93EC011982188261
:1024A0001B821A821D821C8261157105A9F17B01B4
:1024B000FB0101900020E9F731978F01061B170BF4
:1024C000B8016F5F7F4F80E090E00E94B9250097D0
:1024D00059F0998388831B830A832C813D81232BA8
:1024E00081F4FC0110820DC088819981009711F060
:1024F0000E942125198218821D821C821B821A8249
:102500000BC01D830C83B701DF91CF911F910F91F9
:10251000FF90EF900C94A926DF91CF911F910F911E
:10252000FF90EF9008954F925F926F927F92EF929B
:10253000FF920F931F93CF93DF93CDB7DEB7A19791
:102540000FB6F894DEBF0FBECDBF7C01FA01CB0100
:1025500019A2223008F42AE08E010F5D1F4F422E8F
:10256000512C612C712CBF01A30192010E94442DBA
:10257000F901CA01015011096A3014F4605D01C00B
:10258000695CD8016C93232B242B252B61F7B801B0
:10259000C7010E94ED13A1960FB6F894DEBF0FBEDF
:1025A000CDBFDF91CF911F910F91FF90EF907F9062
:1025B0006F905F904F9008954F925F926F927F92CD
:1025C0008F929F92AF92BF92CF92DF92EF92FF9243
:1025D000CF93DF93EC016A017B01B22E9A01AB012C
:1025E000C701B6010E945E24882319F066E972E0F3
:1025F00027C026013701E89477F82FEF3FEF4FE728
:102600005FE7C301B2010E945E2481110DC02FEF6C
:102610003FEF4FE75FE7C301B2010E94102C18168D
:102620001CF46AE972E00CC02FEF3FEF4FE75FE464
:10263000C701B6010E94FF2318169CF46EE972E0F0
:10264000CE01DF91CF91FF90EF90DF90CF90BF90C0
:10265000AF909F908F907F906F905F904F900C9471
:10266000ED132FEF3FEF4FE75FECC701B6010E947C
:10267000102C87FDE3CF20E030E0A901C701B601AF
:102680000E94102C87FF0EC0E881F9810190F08133
:10269000E02D6DE2CE0109954C01F7FAF094F7F8C0
:1026A000F09402C0812C912CA12C60E070E080E0BD
:1026B0009FE3AB1441F020E030E040E251E40E949F
:1026C000F122A394F6CF9B01AC01C701B6010E9491
:1026D0000E222B013C010E946A236B017C010E94A7
:1026E000152C9B01AC01C301B2010E940D222B01EC
:1026F0003C012AE0B701A601CE010E9493127C01A1
:10270000E80CF91CBB2039F06BE871E0CE010E94A7
:10271000ED13E80EF91EDB2CDD2029F120E030E07E
:1027200040E251E4C301B2010E94762C2B013C012E
:102730000E946A234B01A12CB12C2AE0B501A4010F
:10274000CE010E949312E80EF91EC501B4010E9449
:10275000152C9B01AC01C301B2010E940D222B017B
:102760003C01DA94D9CFC701DF91CF91FF90EF9070
:10277000DF90CF90BF90AF909F908F907F906F90A1
:102780005F904F9008950F931F93CF93DF93EC01C9
:102790000E94DC128C0162EA72E0CE010E94ED130D
:1027A000800F911FDF91CF911F910F9108950F938B
:1027B0001F93CF93DF93EC010E94ED138C0162EA2B
:1027C00072E0CE010E94ED13800F911FDF91CF9137
:1027D0001F910F9108950C94ED136115710579F017
:1027E000FB0101900020E9F73197AF01461B570B21
:1027F000DC01ED91FC910280F381E02D099480E0F1
:1028000090E00895CF93DF93CDB7DEB7C35AD109D7
:102810000FB6F894DEBF0FBECDBF789484B582604A
:1028200084BD84B5816084BD85B5826085BD85B574
:10283000816085BD80916E00816080936E001092F2
:10284000810080918100826080938100809181006D
:1028500081608093810080918000816080938000FE
:102860008091B10084608093B1008091B00081605C
:102870008093B00080917A00846080937A00809188
:102880007A00826080937A0080917A0081608093E0
:102890007A0080917A00806880937A001092C1005B
:1028A0006091E306633321F12091E4063091E5065F
:1028B000615031F070E08FEF92E30E94DF2102C09F
:1028C00060E070E0F9014091E0065091E106CF012F
:1028D000821B930B8417950740F44081469FC001EB
:1028E000479F900D11249193EECF83E38093E306ED
:1028F000E091E905F091EA0582E08083E091E50549
:10290000F091E6051082E091E705F091E8058FEC83
:1029100080831092F105E091ED05F091EE0586E0DF
:102920008083E091EB05F091EC05808180618083EC
:10293000E091EB05F091EC05808188608083E09167
:10294000EB05F091EC05808180688083E091EB05D8
:10295000F091EC0580818F7D808361E086E00E94AC
:102960004D0B8AE991ECA4EEB1E48093B902909307
:10297000BA02A093BB02B093BC028FED9BE9A2EA1E
:10298000B2EC8093BD029093BE02A093BF02B093BD
:10299000C002109283061092810610927E06109259
:1029A0007D068AE080937C060E94AE0B8B0161E07D
:1029B00080917C060E944D0B61E080917C060E9414
:1029C0001D0BFFB6F8948091AA02811127C0E0E0A8
:1029D000F1E08491E4E1F1E09491E82FF0E0EE0F72
:1029E000FF1FEC54FF4FA591B491EC91E92321F422
:1029F00061E08AE00E941D0B61E08AE00E944D0BBD
:102A00008CB580618CBD8CB580648CBD61E08DE03F
:102A10000E944D0B61E08BE00E944D0B8091AA0259
:102A20008F5F8093AA02FFBE82E5809376061092A4
:102A3000770680917606909177060E944104AAE07D
:102A4000FA2E8FEF0E940204FA94F110FACF88E771
:102A500096E00E94440420E030E0A90160E088E7AD
:102A600096E00E945A04F82E8093820681E0F816C0
:102A700049F00E94AE0B601B710B613D774058F32B
:102A800081E056C02AEA31E040E050E068E088E7A3
:102A900096E00E945A0482FF03C0F092830610C0A1
:102AA000F4E0FF2E0E94090480938206FA94F1104C
:102AB000F9CF8A3A11F082E03BC082E0809383062E
:102AC00080918306823021F0C12CD12C760105C083
:102AD000C12CD12CE12CE0E4FE2E20E030E0A90155
:102AE00067E388E796E00E945A04A701960169E22D
:102AF00088E796E00E945A0480938206882349F072
:102B00000E94AE0B601B710B613D774030F388E093
:102B10000FC080918306823001F520E030E0A901EA
:102B20006AE388E796E00E945A04882341F086E031
:102B300080937D0688E796E00E94F703AFC00E946D
:102B40000904807C803C19F483E0809383060E9412
:102B500009040E9409040E94090488E796E00E9483
:102B6000F70380E5809376061092770681E00E9455
:102B7000FB10882329F08091A706882341F08EC09E
:102B800080E00E94FB10882309F488C0F4CF809174
:102B90009B06803109F582E08093A7061092B90662
:102BA0001092BA061092BB061092BC0680919C0649
:102BB00090919D06A0E0B0E075E0880F991FAA1FD4
:102BC000BB1F7A95D1F78093B5069093B606A09374
:102BD000B706B093B8061FC0803209F05FC083E02B
:102BE0008093A70640919E0650919F066091A00693
:102BF0007091A1064093B9065093BA066093BB0644
:102C00007093BC0625EB36E084E896E00E94AC0D9C
:102C1000882309F443C084E896E09093BE0680932D
:102C2000BD0681E08093A6061092A8061092A90620
:102C30001092AA061092AB061092AC061092AD0646
:102C40001092AE061092AF061092B0061092B10626
:102C50001092B2061092B3061092B406812C912CF9
:102C600054018E010D581F4FA0910B01B0910C0122
:102C7000C457DF4FB983A883CC58D040F8013296AF
:102C8000C057DF4FF983E883C059D0401E01FBE3F2
:102C90002F0E311CCE0101966C0194C010920001E0
:102CA00060E871E089ED95E00E94D713FFC121E053
:102CB000AE01485A5F4FB701872D962D0E945A06E4
:102CC000282FF2EAEF16F6E0FF0609F0C5C08823C8
:102CD00009F4D1C0CE014E967C019E2D8F2DE72C9C
:102CE000F62C3C01252D342DF801E20FF31F8081D5
:102CF0008F3211F42F5F3F4FDE01A85ABF4F80E0A3
:102D000090E0F801E20FF31F40814F3249F0442375
:102D100039F001962F5F3F4F4D938C30910589F725
:102D2000E8E5F0E0EC0FFD1FE80FF91F1082F80155
:102D3000E20FF31F80818F3211F42F5F3F4F522E2D
:102D4000432EF801E20FF31F9081CC57DF4F988399
:102D5000C458D0401C821B82A4E4B1E0BA83A9838A
:102D60001E8221E0AE01485A5F4FB701C6010E94A2
:102D70005A06882309F467C0C6010E94E202CC57B4
:102D8000DF4FB881C458D040B11191CF22EAE2168A
:102D900026E0F20619F0C7010E94E20283E68816D7
:102DA0009104A104B10411F410920001BFEF8B1A39
:102DB0009B0AAB0ABB0AE4E68E169104A104B10497
:102DC00009F474C1C457DF4FE881F981CC58D04071
:102DD000D801ED93FC938AE0C057DF4FA881B981F9
:102DE000C059D0401D928A95E9F72AE0B501A401A7
:102DF00089ED95E00E9493129F928F92ADE8B1E029
:102E0000BF93AF931F930F930E94D9261EAE1DAEA2
:102E100084E491E09CAF8BAF21961FAE219719A25D
:102E200018A29F8F8E8F1BA20F900F900F900F9064
:102E30000F900F90512C412C722C632C62EAE62EDD
:102E400066E0F62E4FCFE2EAEE16E6E0FE0699F0D7
:102E5000C7010E94E2020FC0C701CD55DF4F288392
:102E6000C35AD0400E94E202CD55DF4F2881C35A99
:102E7000D040211132CFB80189ED95E00E94EB13CB
:102E80006AE971E089ED95E00E94D7134E019EE159
:102E9000890E911C62EA76E0C4010E94B8081C8287
:102EA0001B8284E491E09A8389831E825C2C4D2CE2
:102EB000340158016FE270E0C5010E949E26009720
:102EC00009F445C0D5012C912F3249F4BFEFAB1A5C
:102ED000BB0AC201562C472C692E782E32C08A19A3
:102EE0008D3008F08CE0E82EF12CA701B501CE0161
:102EF000885A9F4F0E94B026E8E5F0E0EC0FFD1FD6
:102F0000EE0DFF1D1082852D942D0E94E20221E01E
:102F1000AE01485A5F4FB301852D942D0E945A0689
:102F200081110AC01EAE1DAE84E491E09CAF8BAF50
:102F300021961FAE219718C0AE0CBF1CC3010E9482
:102F4000E202962D872D652C742C2C01B3CFF50150
:102F5000E01BF10BC857DF4FF983E883C858D04016
:102F6000B301C1010E94B808C857DF4F8881998119
:102F7000C858D040080F191FD8018C91811107C083
:102F8000B101C6010E94B80840EB51E044C019A24B
:102F900018A284E491E09F8F8E8F1BA221968FADA3
:102FA0002197811116C06C961FAE1EAE6C9788EEED
:102FB00093E0A0E0B0E0A0968CAF9DAFAEAFBFAF06
:102FC000A097E3961FAE1EAEE397A5961FAEA597FA
:102FD00028C0825023E1A801823040F462EA76E002
:102FE000C4010E945A0681110AC0DDCFB101C4019B
:102FF0000E945A068823B9F2C1010E94E20249A93F
:103000005AA96BA97CA9C4010E94530EB401C60140
:103010000E94B808A801B601CE01885A9F4F0E94AD
:1030200009096C968EAD9FAD6C979093C406809302
:10303000C306A0968CAD9DADAEADBFADA0978093FD
:10304000C5069093C606A093C706B093C806A4967B
:103050008CAD9DADAEADBFADA4978093C9069093E6
:10306000CA06A093CB06B093CC068DE0E8E5F0E06D
:10307000EC0FFD1F3C96ADECB6E001900D928A95E9
:10308000E1F7E396EEADFFADE397F093DB06E09357
:10309000DA06309719F08581811108C062EB71E082
:1030A00089ED95E00E94D7131092000110920C0751
:1030B00010920B0710920A07109209071092080746
:1030C000109207078DE991E090930E0780930D070A
:1030D0009091FD06963108F057C02DEB30E030930B
:1030E0000807209307072BE931E030930A07209364
:1030F00009072CE231E030930C0720930B07209155
:103100006800983050F031E09E3008F430E081E003
:1031100001C0880F3A95EAF701C084E0822B8093C2
:103120006800983038F09E3040F0963148F020E04A
:1031300030E008C02DE630E005C02BE630E002C0EC
:103140002CE630E03093050720930407983030F4E4
:1031500081E001C0880F9A95EAF70EC0292F30E070
:103160009E3018F42850310902C02E50310981E0F8
:1031700001C0880F2A95EAF78093060780910D0712
:1031800090910E070197F1F780910B0790910C0732
:10319000892B21F18091A8029091A902F6E0813F4C
:1031A0009F07E1F0009711F00E94B80980910F0786
:1031B0008E7F80930F071092A7021092A60281EFD4
:1031C00096E09093A9028093A802E0910407F09101
:1031D0000507908180910607892B808369EC71E057
:1031E00081EF96E00E94D7136AED71E081EF96E0DF
:1031F0000E94D71363EF71E081EF96E00E94D7132E
:103200008BE0EFEEF2E0DF01282F1D922A95E9F71F
:10321000EFEDF2E0DF011D928A95E9F787E0EFEF2D
:10322000F2E0DF011D928A95E9F762E083E00E94F7
:103230004D0B59EF252E50E0352E08E813E1E1EC57
:10324000F0E08491EDE0F1E0E490F101F490FF20F2
:1032500089F081110E94F40AEF2DF0E0EE0FFF1FBC
:10326000E451FF4FA591B4918C91E82219F010928E
:10327000860317C00150110911F78091860381114F
:103280000DC08091D9029091DA02019664E070E05D
:103290000E94F3219093DA028093D90281E0809317
:1032A000860380E8E6E0F3E0DF011D928A95E9F706
:1032B00010E081EF96E00E9410010196D1F381EFBA
:1032C00096E00E949501E12FF0E0EA5FFC4F8083D9
:1032D000112329F0843219F48093060310E08091C1
:1032E0000603843231F781E0810FE12FF0E0EA5FDD
:1032F000FC4F90819A3011F0182FDBCF90E0FC0149
:10330000EC5FFC4F10828C0105501109F801EA5F57
:10331000FC4F20812A3261F640E150E060E070E02D
:103320008E5F9C4F0E947A2921E0822F90E08017C7
:1033300091073CF4FC01EA5FFC4F808168272F5F16
:10334000F4CF6111B5CF80911803813409F0B0CF6B
:1033500080910903823509F0A5C366E073E0CE01D0
:103360004E960E94471222E00FEF1FEF65E272E0D7
:10337000CE010196CD55DF4F2883C35AD0400E941D
:103380004712A8014F5F5F4FBE016F5F7F4FCE01B5
:103390004E960E942A128C0189819A810E942125D1
:1033A000CD55DF4F2881C35AD040213011F021E0A4
:1033B000DDCFF801EA5FFC4F8181813411F010E02C
:1033C0009CC07801E3E0EE0EF11C65E272E0CE01F4
:1033D00001960E944712A8014C5F5F4FBE016F5FCC
:1033E0007F4FCE014E960E942A128C0189819A81CC
:1033F0000E9421250F3FFFEF1F0709F3A8014E1977
:103400005F09B7016A5F7C4F8FEE92E00E949526BC
:10341000F801EA5FFC4F81818093FA020D5F1F4F34
:1034200065E272E0CE0101960E944712A801BE013A
:103430006F5F7F4FCE014E960E942A127C018981D8
:103440009A810E9421252FEFE216F20609F4B7CFE8
:10345000A701401B510BB8016A5F7C4F8FED92E0D2
:103460000E949526F701EA5FFC4F81818093EA0272
:1034700065E272E0CE0101960E944712A7014D5FFE
:103480005F4FBE016F5F7F4FCE014E960E942A12A2
:103490008C0189819A810E9421250F3F8FEF1807A7
:1034A00009F48DCF0F5F1F4F65E272E0CE010196E8
:1034B0000E944712A801BE016F5F7F4FCE014E965A
:1034C0000E942A127C0189819A810E9421259FEF06
:1034D000E916F90609F473CFA701401B510BB80197
:1034E0006A5F7C4F8FEF92E00E94952667E272E060
:1034F00089ED95E00E94D71311E08E8D9F8D0E947B
:103500002125112309F4CEC26FEF72E089ED95E019
:103510000E94D7138FEF92E00E948B2A6093FB02E8
:103520007093FC028093FD029093FE028FEE92E076
:103530000E948B2A0E94632324E6E22EF12CCB0109
:10354000B7010E94F3216B018FEE92E00E948B2A5B
:103550002B013C01B6010D2C000C880B990B0E942D
:10356000172C4B015C0114E61C9DB0011D9D700DD4
:103570001124072E000C880B990B0E94172C9B011D
:10358000AC01C301B2010E940D2220E030E040E70F
:1035900052E40E94F1229B01AC01C501B4010E94DA
:1035A0000E226093EB027093EC028093ED029093F5
:1035B000EE028FED92E00E948B2A0E946323CB01E2
:1035C000B7010E94F3217B018FED92E00E948B2ACC
:1035D0002B013C01B7010F2C000C880B990B0E94AA
:1035E000172C4B015C011E9DB0011F9D700D112415
:1035F000072E000C880B990B0E94172C9B01AC0125
:10360000C301B2010E940D2220E030E040E752E405
:103610000E94F1229B01AC01C501B4010E940E225F
:103620002B013C016093DB027093DC028093DD028E
:103630009093DE020091D9021091DA0225E33AEF6D
:103640004EE85CE36091EB027091EC028091ED0238
:103650009091EE020E94762CCC57DF4F68837983DD
:103660008A839B83C458D04033E0000F111F3A95E2
:10367000E1F707541D4F25E33AEF4EE85CE3D8012C
:103680006D917D918D919C910E94762CC857DF4F52
:10369000688379838A839B83C858D04025E33AEFB7
:1036A0004EE85CE3F80164817581868197810E9410
:1036B000762C6B017C0125E33AEF4EE85CE3C30115
:1036C000B2010E94762C9B01AC01C701B6010E9499
:1036D0000D224B015C010E940C24CC56DF4F688305
:1036E00079838A839B83C459D040C857DF4F688150
:1036F00079818A819B81C858D0400E94EC22C457AE
:10370000DF4F688379838A839B83CC58D040CC5722
:10371000DF4F688179818A819B81C458D0400E94A3
:10372000EC22C057DF4F688379838A839B83C0591B
:10373000D040C857DF4F688179818A819B81C85802
:10374000D0400E940C249B01AC01CC57DF4F688114
:1037500079818A819B81C458D040CD55DF4F288321
:10376000C35AD040C056DF4F3883C05AD040CF55DF
:10377000DF4F4883C15AD040CE55DF4F5883C25ADD
:10378000D0400E940C24C856DF4F688379838A8317
:103790009B83C859D040C501B4010E94EC22C45695
:1037A000DF4F688379838A839B83CC59D040CD5582
:1037B000DF4F2881C35AD040C056DF4F3881C05AEE
:1037C000D040CF55DF4F4881C15AD040CE55DF4F52
:1037D0005881C25AD040C057DF4F688179818A81B1
:1037E0009B81C059D0400E94762C6B017C01C4574C
:1037F000DF4F288139814A815B81CC58D040C8563F
:10380000DF4F688179818A819B81C859D0400E94AD
:10381000762CC456DF4F288139814A815B81CC598F
:10382000D0400E94762C9B01AC01C701B6010E94DA
:103830000D226B017C01C457DF4F288139814A81F9
:103840005B81CC58D040CC56DF4F688179818A812A
:103850009B81C459D0400E94762CA70196010E94FA
:103860008D2221EE3EE245E652E40E94762C209124
:10387000FB023091FC024091FD025091FE020E9439
:103880000D226B017C0120E030E0A9010E94102C88
:1038900087FF0AC020E030E044EB53E4C701B601E3
:1038A0000E940E226B017C0120E030E044EB53E4E7
:1038B000C701B6010E94FF2387FD0AC020E030E067
:1038C00044EB53E4C701B6010E940D226B017C0159
:1038D000C092B502D092B602E092B702F092B8025E
:1038E000CC57DF4F288139814A815B81C458D04051
:1038F000C857DF4F688179818A819B81C858D04041
:103900000E940D2220E030E040E05FE30E94762C30
:103910000E940C246B017C0120E030E040E05FE37A
:10392000C501B4010E94762C0E940C244B015C015D
:10393000A7019601C701B6010E94762C6B017C019C
:10394000C457DF4F288139814A815B81CC58D040F0
:10395000C057DF4F688179818A819B81C059D040EF
:103960000E94762CA50194010E94762CA501940159
:103970000E94762C9B01AC01C701B6010E940E2269
:103980006B017C019B01AC0160E070E080E89FE38B
:103990000E940D220E941A249B01AC01C701B601AE
:1039A000CD55DF4F2883C35AD040C056DF4F3883F0
:1039B000C05AD040CF55DF4F4883C15AD040CE5572
:1039C000DF4F5883C25AD0400E941A24CD55DF4F92
:1039D0002881C35AD040C056DF4F3881C05AD040EA
:1039E000CF55DF4F4881C15AD040CE55DF4F588167
:1039F000C25AD0400E948D229B01AC010E940E222F
:103A000020E030E747E755E40E94762C20E030E0E4
:103A100045EA55E40E94762C6093B1027093B2029D
:103A20008093B3029093B4026093AD027093AE02A0
:103A30008093AF029093B00280910001882391F1AE
:103A400022E0B301A20181EC96E00E94DC1265E263
:103A500072E081EC96E00E94EB134091EB025091F2
:103A6000EC026091ED027091EE0222E081EC96E0B2
:103A70000E94DC1265E272E081EC96E00E94EB139A
:103A80004091B1025091B2026091B3027091B402C0
:103A900022E030E081EC96E00E94C31381EC96E0D6
:103AA0000E94B601C090B102D090B202E090B30281
:103AB000F090B4028090B5029090B602A090B70248
:103AC000B090B80220E030E044EB51E4C501B4010D
:103AD0000E94FF2387FD14C020E030E047E852E455
:103AE000C501B4010E94102C181654F020E04FEFCD
:103AF00060E082E090E00E94B51081E090E01DC09F
:103B000020E030E047E852E4C501B4010E94FF2301
:103B100087FD18C020E030E041EE52E4C501B40159
:103B20000E94102C181674F020E04FEF60E08AE03D
:103B300090E00E94B51082E090E09093AC028093F8
:103B4000AB02B5C020E030E041EE52E4C501B40163
:103B50000E94FF2387FD14C020E030E84DE153E4CC
:103B6000C501B4010E94102C181654F020E04FEF4C
:103B700060E082E190E00E94B51083E090E0DDCF4C
:103B800020E030E84DE153E4C501B4010E94FF2379
:103B900087FD14C020E030E84AE453E4C501B401D5
:103BA0000E94102C181654F020E04FEF60E081E1E5
:103BB00090E00E94B51084E090E0BFCF20E030E8B4
:103BC0004AE453E4C501B4010E94FF2387FD14C0F9
:103BD00020E030E847E753E4C501B4010E94102C0F
:103BE000181654F020E04FEF60E080E190E00E9472
:103BF000B51085E090E0A1CF20E030E847E753E43E
:103C0000C501B4010E94FF2387FD14C020E030E409
:103C100042E953E4C501B4010E94102C181654F077
:103C200020E04FEF60E088E090E00E94B51086E071
:103C300090E083CF20E030E442E953E4C501B401D1
:103C40000E94FF2387FD14C020E030EC48EA53E4D3
:103C5000C501B4010E94102C181654F020E04FEF5B
:103C600060E080E090E00E94B51087E090E065CFD2
:103C700020E030EC48EA53E4C501B4010E94FF2380
:103C800087FF0AC020E030E044EB51E4C501B401F5
:103C90000E94102C18165CF020E04FEF60E081E0ED
:103CA00090E00E94B5101092AC021092AB0298E125
:103CB000A92E91E0B92E00E010E08091AB02909126
:103CC000AC020817190741F020E040E060E0D501A0
:103CD0008D919C910E94B5100F5F1F4FB2E0AB0E0B
:103CE000B11C0830110549F788E2A82E81E0B82EF2
:103CF00000E010E08091D9029091DA0220E00817EC
:103D0000190731F44FEF60E0F5018081918105C022
:103D100040E060E0D5018D919C910E94B5100F5F4D
:103D20001F4FB2E0AB0EB11C0430110519F7C09261
:103D3000AD02D092AE02E092AF02F092B00220E06B
:103D400030E04AE754E4C701B6010E94FF2387FD33
:103D500003C020E040E04CC020E030E04AEF53E4F4
:103D6000C701B6010E94FF2387FD03C020E045E4A0
:103D70003FC020E030E04AE753E4C701B6010E94AB
:103D8000FF2387FD03C020E047ED32C020E030E094
:103D900046E952E4C701B6010E94FF2387FD02C035
:103DA0002FEF29C020E030E040E252E4C701B60125
:103DB0000E94FF2387FD03C020E04FEF1DC020E0DD
:103DC00030E040E251E4C701B6010E94FF2387FDC5
:103DD00004C021EF40E061EF10C020E030E0A90115
:103DE000C701B6010E94FF2387FD04C02FEF4FEFEC
:103DF0006FEF03C020E040E060E086E190E00E94C9
:103E0000B5108091E4069091E506892B09F401C173
:103E10000E94890B0091EA061091EB062091EC06B6
:103E20003091ED06DC01CB01801B910BA20BB30B93
:103E3000C297A105B10560F3F8948091E0069091D6
:103E4000E1069CAF8BAFE091E406F091E506DF015F
:103E500011968081CD57DF4F8883C358D040909111
:103E6000DC06E091EE06F091EF068091F0069923D2
:103E700009F456C09081982BCE57DF4F9883C258D3
:103E8000D040908180958923CF57DF4F8883C158D8
:103E9000D040CF57DF4F8881C158D040E4968FAFD4
:103EA000E49788E069968FAF6997CE57DF4F5881C6
:103EB000C258D040CF57DF4F6881C158D040CD574E
:103EC000DF4F4881C358D04069963FAD6997E4966B
:103ED0002FADE4978BAD9CAD508347FD252F3A95D0
:103EE0002083262F39F0441F00C0000060830000AB
:103EF00000C0F2CF38E04D9160830000019761F778
:103F0000F093EF06E093EE06CD57DF4F4883C3589A
:103F1000D04069963FAF6997E4962FAFE4976CC0A5
:103F20009081982BCE57DF4F9883C258D040908114
:103F300080958923CF57DF4F8883C158D040CF5712
:103F4000DF4F8881C158D040C058DF4F8883C058A8
:103F5000D04088E0C158DF4F8883CF57D040CE573C
:103F6000DF4F5881C258D040CF57DF4F6881C158CA
:103F7000D040CD57DF4F4881C358D040C158DF4FA4
:103F80003881CF57D040C058DF4F2881C058D0402B
:103F90008BAD9CAD508347FD252F00C000C0208312
:103FA00000C000C000C000C000C060830000262F19
:103FB0003A9541F0441F000000C000C000C000C09E
:103FC00000C0E8CF38E04D9100C0608300C0019789
:103FD00009F7F093EF06E093EE06CD57DF4F4883E5
:103FE000C358D040C158DF4F3883CF57D040C05856
:103FF000DF4F2883C058D0409CAF8BAF78940E948D
:10400000890B6093EA067093EB068093EC0690931D
:10401000ED066BE372E089ED95E00E94EB134091B1
:10402000EB025091EC026091ED027091EE0226E0FD
:1040300030E089ED95E00E94C31365E472E089EDFC
:1040400095E00E94EB134091DB025091DC026091FD
:10405000DD027091DE0226E030E089ED95E00E94FD
:10406000C3136FE472E089ED95E00E94EB136FEFEC
:1040700072E089ED95E00E94D7136DE572E089ED5D
:1040800095E00E94EB134091B5025091B602609109
:10409000B7027091B80226E030E089ED95E00E9409
:1040A000C3136BE672E089ED95E00E94EB1340913B
:1040B000B1025091B2026091B3027091B40226E055
:1040C00030E089ED95E00E94C31361E872E089ED6C
:1040D00095E00E94EB134091B5025091B6026091B9
:1040E000B7027091B80226E030E089ED95E00E94B9
:1040F000C3130E94900AA1C88091E4069091E5063E
:10410000009711F00E9421258091E20687FD03C0EF
:1041100060E00E944D0B8CE591E09093F206809355
:10412000F10681EF96E00C94B8091092DC0510922C
:10413000DB0588EE93E0A0E0B0E08093DD0590938E
:10414000DE05A093DF05B093E00524E331E0309372
:10415000DA052093D90525EC30E03093E60520936D
:10416000E50524EC30E03093E8052093E70520ECEA
:1041700030E03093EA052093E90521EC30E03093FC
:10418000EC052093EB0522EC30E03093EE05209314
:10419000ED0526EC30E03093F0052093EF0510920A
:1041A000F2051092F3051092F4051092F50520E542
:1041B000209376061092770610927D0610927E0666
:1041C000109281061092830642E050E060E070E0B9
:1041D0004093840650938506609386067093870605
:1041E00010929B061092A5061092A40624E431E0DA
:1041F0003093A3062093A2061092A7061092F4060D
:104200001092F3068093F5069093F606A093F706B6
:10421000B093F8068CE591E09093F2068093F10656
:10422000109208071092070710920A0710920907C8
:1042300010920C0710920B0710920E0710920D07A8
:1042400060910F076E7F6D7F60930F0766956170B9
:1042500081E0682787E00E941D0B61E087E00E94F3
:104260004D0BE1E1F1E0E491E0930107EDEFF0E0C7
:10427000E491F0E0EE0FFF1FEE51FF4F8591949116
:10428000909303078093020760E088E00E944D0B43
:1042900080910F0781FD04C061E088E00E941D0B42
:1042A00088E08093FD06E2E1F1E0E491E093FE0610
:1042B000EEEFF0E0E491F0E0EE0FFF1FE451FF4F6E
:1042C00085919491909300078093FF061092DD06EC
:1042D0001092E3061092EA061092EB061092EC069A
:1042E0001092ED0681E08093E9068093E606109235
:1042F000E70692E09093E8068093DC0688E790E07A
:104300009093E1068093E0060E948C249093E5064A
:104310008093E406009761F028E7FC0111922A954A
:10432000E9F788E290E09093DF068093DE0608C00C
:104330001092E1061092E0061092DF061092DE065F
:1043400086E08093E2068091DD06882341F061E0FB
:1043500086E00E944D0B60E086E00E941D0BECEFB2
:10436000F0E0E491F0E0EE0FFF1FEE51FF4F85917A
:1043700094919093EF068093EE06E0E1F1E0E491F2
:10438000E093F0061092C4061092C30688EE93E004
:10439000A0E0B0E08093C5069093C606A093C70640
:1043A000B093C8068CE491E09093C2068093C10656
:1043B0001092DB061092DA061092CD060895AA1B21
:1043C000BB1B51E107C0AA1FBB1FA617B70710F000
:1043D000A61BB70B881F991F5A95A9F78095909532
:1043E000BC01CD01089597FB072E16F4009407D069
:1043F00077FD09D00E94DF2107FC05D03EF490959F
:1044000081959F4F0895709561957F4F0895EE0FA8
:10441000FF1F0590F491E02D09945058BB27AA275F
:104420000E9425220C94FA2C0E94EC2C38F00E9459
:10443000F32C20F039F49F3F19F426F40C94E92C66
:104440000EF4E095E7FB0C94E32CE92F0E940B2D72
:1044500058F3BA17620773078407950720F079F4B9
:10446000A6F50C942D2D0EF4E0950B2EBA2FA02D51
:104470000B01B90190010C01CA01A0011124FF2711
:10448000591B99F0593F50F4503E68F11A16F0400C
:10449000A22F232F342F4427585FF3CF469537950B
:1044A0002795A795F0405395C9F77EF41F16BA0BD0
:1044B000620B730B840BBAF09150A1F0FF0FBB1F7E
:1044C000661F771F881FC2F70EC0BA0F621F731FC7
:1044D000841F48F4879577956795B795F7959E3F24
:1044E00008F0B0CF9395880F08F09927EE0F9795B5
:1044F000879508950E94EC2C60F080E891E009F423
:104500009EEF0E94F32C28F040E851E071F45EEF3A
:104510000CC00C94E92C0C942D2DE92FE0780E940E
:104520000B2D40F3092E052AB1F32617370748074C
:10453000590738F00E2E07F8E02569F0E025E06411
:104540000AC0EF6307F8009407FADB01B9019D0187
:10455000DC01CA01AD01EF930E9408230E94FA2CEE
:104560000E94BD225F91552339F02BED3FE049E4D5
:1045700050FD49EC0C940E220895DF93DD27B92FEE
:10458000BF7740E85FE31616170648075B0718F485
:10459000D92F0E9404249F938F937F936F930E943F
:1045A0005A24E8E6F0E00E9499230E94FA2C2F9109
:1045B0003F914F915F910E94892CDD2351F09058DB
:1045C000A2EA2AED3FE049EC5FE3D0785D270E9444
:1045D0002522DF910C94FA2C0E94C223E3950C94BF
:1045E000EB230E9405230C94FA2C0E94F32C58F024
:1045F0000E94EC2C40F029F45F3F29F00C94E32C4E
:1046000051110C942E2D0C94E92C0E940B2D68F363
:104610009923B1F3552391F3951B550BBB27AA277B
:1046200062177307840738F09F5F5F4F220F331FB5
:10463000441FAA1FA9F335D00E2E3AF0E0E832D07D
:1046400091505040E695001CCAF72BD0FE2F29D080
:10465000660F771F881FBB1F261737074807AB0752
:10466000B0E809F0BB0B802DBF01FF2793585F4FC7
:104670003AF09E3F510578F00C94E32C0C942E2DCB
:104680005F3FE4F3983ED4F3869577956795B795A9
:10469000F7959F5FC9F7880F911D9695879597F9B4
:1046A0000895E1E0660F771F881FBB1F621773072D
:1046B0008407BA0720F0621B730B840BBA0BEE1F42
:1046C00088F7E09508950E946A236894B1110C94CC
:1046D0002E2D08950E94132D88F09F5798F0B92F22
:1046E0009927B751B0F0E1F0660F771F881F991F27
:1046F0001AF0BA95C9F714C0B13091F00E942D2D6F
:10470000B1E008950C942D2D672F782F8827B85F7E
:1047100039F0B93FCCF3869577956795B395D9F77E
:104720003EF490958095709561957F4F8F4F9F4F88
:104730000895DF93CF931F930F93FF92EF92DF9231
:104740007B018C01689406C0DA2EEF010E94892C4F
:10475000FE01E894A5912591359145915591A6F3D7
:10476000EF010E942522FE019701A801DA9469F762
:10477000DF90EF90FF900F911F91CF91DF910895FF
:104780000C94E92C0E94132DD8F3E894E0E0BB27A9
:104790009F57F0F02AED3FE049EC06C0EE0FBB0F4B
:1047A000661F771F881F28F0B23A620773078407D5
:1047B00028F0B25A620B730B840BE3959A9572F74B
:1047C000803830F49A95BB0F661F771F881FD2F789
:1047D00090480C946524EF93E0FF07C0A2EA2AED0D
:1047E0003FE049EC5FEB0E9425220E94FA2C0F90DB
:1047F000039401FC9058E5E9F0E00C9478240E94C1
:10480000522C08F48FEF08959B01AC0160E070E03A
:1048100080E89FE30C94F1229F930E94C2230F90A3
:1048200007FCEE5F0C94EB2319F416F40C94E92CBE
:104830000C9463240E94132DB8F39923C9F3B6F3A3
:104840009F57550B87FF0E9471240024A0E640EA81
:10485000900180585695979528F4805C660F771FD5
:10486000881F20F026173707480730F4621B730BA8
:10487000840B202931294A2BA695179407942025CB
:1048800031254A2758F7660F771F881F20F0261713
:104890003707480730F4620B730B840B200D311D72
:1048A000411DA09581F7B901842F9158880F9695E5
:1048B000879508959B01AC010C94762C0E94522C94
:1048C000880B990B08959F3F31F0915020F4879504
:1048D00077956795B795880F911D9695879597F968
:1048E000089591505040660F771F881FD2F70895A2
:1048F0009F938F937F936F93FF93EF939B01AC01F3
:104900000E94762CEF91FF910E9499232F913F9165
:104910004F915F910C94762CCF93DF938230910569
:1049200010F482E090E0E0911207F091130720E08C
:1049300030E0C0E0D0E0309711F14081518148175C
:104940005907C0F04817590761F482819381209775
:1049500019F09B838A832BC09093130780931207CF
:1049600026C02115310519F04217530718F49A0192
:10497000BE01DF01EF010280F381E02DDCCF2115C4
:10498000310509F1281B390B2430310590F41296BA
:104990008D919C9113976115710521F0FB01938313
:1049A000828304C09093130780931207FD0132960F
:1049B00044C0FD01E20FF31F81939193225031090E
:1049C0002D933C933AC02091100730911107232B6F
:1049D00041F4209107013091080130931107209391
:1049E000100720910501309106012115310541F490
:1049F0002DB73EB74091090150910A01241B350B98
:104A0000E0911007F0911107E217F307A0F42E1BB5
:104A10003F0B2817390778F0AC014E5F5F4F241722
:104A2000350748F04E0F5F1F509311074093100752
:104A30008193919302C0E0E0F0E0CF01DF91CF914C
:104A400008950F931F93CF93DF93009709F48CC0C1
:104A5000FC01329713821282009112071091130702
:104A60000115110581F420813181820F931F20915E
:104A70001007309111072817390779F5F0931107BE
:104A8000E093100771C0D80140E050E0AE17BF07B7
:104A900050F412962D913C911397AD0121153105DB
:104AA00009F1D901F3CF9D01DA01338322836081BB
:104AB0007181860F971F8217930769F4EC01288193
:104AC0003981260F371F2E5F3F4F318320838A8124
:104AD0009B8193838283452B29F4F0931307E09302
:104AE000120742C01396FC93EE931297ED01499181
:104AF00059919E01240F351FE217F30771F480814D
:104B00009181840F951F029611969C938E938281BA
:104B1000938113969C938E931297E0E0F0E0D80176
:104B200012968D919C911397009719F0F8018C01C2
:104B3000F6CF8D919C9198012E5F3F4F820F931F6E
:104B400020911007309111072817390769F4309721
:104B500029F4109213071092120702C013821282D6
:104B60001093110700931007DF91CF911F910F91C0
:104B70000895A0E0B0E0EFEBF5E20C94752DEC01A8
:104B8000009721F4CB010E948C24B8C0FC01E60FF1
:104B9000F71F9C0122503109E217F30708F4ACC05B
:104BA000D9010D911C91119706171707B0F0053028
:104BB000110508F49FC0C80104978617970708F4E9
:104BC00099C002501109061B170B019311936D93A5
:104BD0007C93CF010E9421258DC05B01A01AB10AF0
:104BE0004C01800E911EA0911207B091130740E076
:104BF00050E0E12CF12C109709F44AC0A815B90532
:104C0000D1F56D907C901197630182E0C80ED11CA4
:104C1000CA14DB0480F1A3014A195B096A0182E02E
:104C2000C80ED11C1296BC9012971396AC91B5E0A9
:104C3000CB16D10440F0B282A38351834083D901C3
:104C40006D937C930AC00E5F1F4FC301800F911FAD
:104C5000F90191838083EB2DFA2FE114F10431F0F7
:104C6000D7011396FC93EE93129744C0F093130769
:104C7000E09312073FC08D919C91119748175907F7
:104C800008F4AC017D0112960D90BC91A02DB3CF1C
:104C9000809110079091110788159905E1F4461746
:104CA0005707C8F48091050190910601009741F4DF
:104CB0008DB79EB74091090150910A01841B950B55
:104CC000E817F907C8F4F0931107E0931007F9010A
:104CD000718360830FC0CB010E948C247C010097FC
:104CE00059F0A801BE010E949526CE010E942125FF
:104CF000C70104C0CE0102C080E090E0CDB7DEB7AE
:104D0000EEE00C94912D81E090E0F8940C94B72D96
:104D1000FB01DC0104C08D910190801921F4415008
:104D20005040C8F7881B990B0895FB01DC0102C0B5
:104D300001900D9241505040D8F70895FC018191A7
:104D4000861721F08823D9F7992708953197CF0145
:104D50000895FB01DC0101900D920020E1F7089518
:104D6000FB01DC014150504048F001900D920020C1
:104D7000C9F701C01D9241505040E0F70895FB0172
:104D800051915523A9F0BF01DC014D914517411107
:104D9000E1F759F4CD010190002049F04D91401503
:104DA0004111C9F3FB014111EFCF81E090E0019780
:104DB0000895AEE0B0E0EFEDF6E20C947F2D0D89A2
:104DC0001E8986E08C831A8309838FEF9FE79E8379
:104DD0008D83AE01475E5F4F6F89788DCE0101965E
:104DE0000E94FC262F813885F801E20FF31F108204
:104DF0002E96E4E00C949B2DACE0B0E0E2E0F7E20C
:104E00000C94712D7C016B018A01FC0117821682C2
:104E1000838181FFBDC1CE0101964C01F7019381D1
:104E2000F60193FD859193FF81916F01882309F429
:104E3000ABC1853239F493FD859193FF81916F0168
:104E4000853229F4B70190E00E94E428E7CF512C85
:104E5000312C20E02032A0F48B3269F030F4803223
:104E600059F0833269F420612CC08D3239F08033DF
:104E700039F4216026C02260246023C0286021C04C
:104E800027FD27C030ED380F3A3078F426FF06C0F2
:104E9000FAE05F9E300D1124532E13C08AE0389E35
:104EA000300D1124332E20620CC08E3221F426FDE9
:104EB0006BC1206406C08C3611F4206802C08836AD
:104EC00041F4F60193FD859193FF81916F0181116A
:104ED000C1CF982F9F7D9554933028F40C5F1F4FBE
:104EE000FFE3F9830DC0833631F0833771F08335EA
:104EF00009F05BC022C0F801808189830E5F1F4FDB
:104F000044244394512C540115C03801F2E06F0E33
:104F1000711CF801A080B18026FF03C0652D70E0F0
:104F200002C06FEF7FEFC5012C870E94D9282C01AA
:104F300083012C852F77222E17C03801F2E06F0EE7
:104F4000711CF801A080B18026FF03C0652D70E0C0
:104F500002C06FEF7FEFC5012C870E94CE282C0185
:104F60002C852068222E830123FC1BC0832D90E01A
:104F700048165906B0F4B70180E290E00E94E42898
:104F80003A94F4CFF50127FC859127FE81915F01CA
:104F9000B70190E00E94E42831103A94F1E04F1AF2
:104FA00051084114510471F7E5C0843611F0893677
:104FB00039F5F80127FF07C06081718182819381F3
:104FC0000C5F1F4F08C060817181072E000C880B99
:104FD000990B0E5F1F4F2F76722E97FF09C0909589
:104FE0008095709561957F4F8F4F9F4F2068722EEF
:104FF0002AE030E0A4010E941C29A82EA81844C071
:10500000853729F42F7EB22E2AE030E025C0F22F1A
:10501000F97FBF2E8F36C1F018F4883579F0B4C00F
:10502000803719F0883721F0AFC02F2F2061B22EC2
:10503000B4FE0DC08B2D8460B82E09C024FF0AC0B9
:105040009F2F9660B92E06C028E030E005C020E111
:1050500030E002C020E132E0F801B7FE07C0608115
:105060007181828193810C5F1F4F06C060817181C5
:1050700080E090E00E5F1F4FA4010E941C29A82E23
:10508000A818FB2DFF777F2E76FE0BC0372D3E7FB5
:10509000A51450F474FE0AC072FC08C0372D3E7E81
:1050A00005C0BA2C372D03C0BA2C01C0B52C34FF73
:1050B0000DC0FE01EA0DF11D8081803311F4397EAF
:1050C00009C032FF06C0B394B39404C0832F86781E
:1050D00009F0B39433FD13C030FF06C05A2CB3144B
:1050E00018F4530C5B18B32CB31468F4B70180E2C6
:1050F00090E03C870E94E428B3943C85F5CFB3143C
:1051000010F43B1801C0312C34FF12C0B70180E30A
:1051100090E03C870E94E4283C8532FF17C031FDB7
:1051200003C088E790E002C088E590E0B7010CC0BA
:10513000832F867859F031FF02C08BE201C080E2F4
:1051400037FD8DE2B70190E00E94E428A51438F401
:10515000B70180E390E00E94E4285A94F7CFAA9424
:10516000F401EA0DF11D8081B70190E00E94E4286E
:10517000A110F5CF332009F451CEB70180E290E0C1
:105180000E94E4283A94F6CFF7018681978102C005
:105190008FEF9FEF2C96E2E10C948D2DFC01059092
:1051A000615070400110D8F7809590958E0F9F1F29
:1051B0000895FC016150704001900110D8F780956E
:1051C00090958E0F9F1F08950F931F93CF93DF939A
:1051D000FB01238121FD03C08FEF9FEF28C022FF39
:1051E00016C046815781248135814217530744F404
:1051F000A081B1819D012F5F3F4F318320838C932C
:10520000268137812F5F3F4F3783268310C0EB0104
:10521000092F182F0084F185E02D0995892BE1F6DF
:105220008E819F8101969F838E83812F902FDF91A6
:10523000CF911F910F910895FA01AA27283051F1BB
:10524000203181F1E8946F936E7F6E5F7F4F8F4FB7
:105250009F4FAF4FB1E03ED0B4E03CD0670F781F16
:10526000891F9A1FA11D680F791F8A1F911DA11DFB
:105270006A0F711D811D911DA11D20D009F4689434
:105280003F912AE0269F11243019305D3193DEF6DC
:10529000CF010895462F4770405D4193B3E00FD092
:1052A000C9F7F6CF462F4F70405D4A3318F0495D7D
:1052B00031FD4052419302D0A9F7EACFB4E0A69560
:1052C0009795879577956795BA95C9F70097610582
:1052D000710508959B01AC010A2E069457954795D8
:1052E00037952795BA95C9F7620F731F841F951FCD
:1052F000A01D0895A0E0B0E0E0E8F9E20C94712D63
:105300005C016B017A016115710519F0FB01918354
:105310008083E114F10429F0C7010297839708F014
:10532000F1C0E5012196F5011081812F90E00E94E6
:105330008F2A892B11F05E01F4CF1D3229F42196BA
:10534000F501118101E007C01B3221F4E50122962D
:10535000F501118100E0E114F10459F1F0E1EF16DB
:10536000F10461F41033E1F488818F7D883569F5AB
:1053700019812296026070E1E72EF12C88E0E81690
:10538000F10439F12CF4F2E0EF16F104C9F12AC06E
:105390008AE0E816F10479F0E0E1EE16F10411F587
:1053A00050E1E52EF12C812C912CA12C68E0B62E39
:1053B0002CC01033C9F23AE0E32EF12C4CEC842ED1
:1053C000982CA82C4CE0B42E20C010E3E114F1047A
:1053D000A9F698E0E92EF12C812C912CA12C20E14A
:1053E000B22E13C060E070E080E090E897010F2CCF
:1053F000000C440B550B0E94442D49015A0105C075
:10540000812C912CA12C80E4B82E60E020E030E0CB
:10541000A90127010F2C000C660877081E01E0ED9A
:10542000E10FEA3060F08FEB810F8A3110F4E9EC84
:1054300005C08FE9810F8A3128F5E9EAE10F8E2F47
:1054400090E08E159F05F4F467FD18C08216930650
:10545000A406B50690F0C301B2010E94342D9B0151
:10546000AC012E0F311D411D511D2130310541056B
:10547000F0E85F0710F461E001C06FEF2196F101E1
:105480001081CCCF802F8170C114D10471F06623BC
:1054900029F02197F601D183C08307C001FF19C00D
:1054A0002297F601D183C08314C067FF12C0811117
:1054B00005C02FEF3FEF4FEF5FE704C020E030E083
:1054C00040E050E882E290E0909315078093140743
:1054D00016C0882341F050954095309521953F4F57
:1054E0004F4F5F4F0CC057FF0AC082E290E090938D
:1054F0001507809314072FEF3FEF4FEF5FE7B901D8
:10550000CA0104C060E070E080E090E0CDB7DEB793
:10551000E2E10C948D2D662777270C94982A91113F
:105520000C94F52B803219F089508550C8F70895F6
:10553000A0E0B0E0EEE9FAE20C94752DEC017B01FD
:105540006115710519F0DB018D939C938E010F5F3E
:105550001F4F7880872D90E00E948F2A892B11F0B1
:10556000E801F4CFBDE27B1205C00F5F1F4F7980C9
:10557000C1E008C0EBE27E1204C08E010E5F1F4F37
:105580007980C0E06801F1E0CF1AD10843E050E033
:1055900066E271E0C6010E94F82B892BF1F46801E4
:1055A00022E0C20ED11C45E050E061E271E0C6018C
:1055B0000E94F82B892B21F4680187E0C80ED11CCA
:1055C000E114F10419F0D701CD92DC92C111FFC0B2
:1055D00060E070E080E89FE703C143E050E06EE1E7
:1055E00071E0C6010E94F82B892B51F4E114F104FB
:1055F00009F4F2C00E5F1F4FF70111830083ECC066
:10560000680160E070E0CB0100E010E0F601D0ED51
:10561000D70DDA3058F52C2F2260622E2C2F2870EF
:10562000C2FF05C0211128C00F5F1F4F25C02223D4
:1056300011F001501109A5E0B0E09B01AC010E94FE
:10564000662D4B015C01880C991CAA1CBB1CC50172
:10565000B4016D0F711D811D911D6839A9E97A078B
:105660008A07A9E19A0740F0C66005C0DE3F51F401
:10567000C3FD44C0C8606C2EBFEFCB1ADB0A70803C
:10568000C62DC4CF2D2F2F7D2531C1F540814D3240
:1056900011F4C06106C04B3221F0319621E030E0B8
:1056A00006C03296D60111964C9122E030E0A0ED72
:1056B000A40FAA3018F0E21BF30B20C040E050E02A
:1056C0004038BCE05B075CF49A01220F331F220FC5
:1056D000331F420F531F440F551F4A0F511D319660
:1056E000DF0111972C91A0EDA20FAA3048F3C4FF5F
:1056F00003C0519541955109040F151FC1FF07C003
:10570000E114F10421F03197D701ED93FC930E944D
:10571000152CC370C33019F06B017C0106C06B01FE
:105720007C01F7FAF094F7F8F09420E030E0A9015A
:10573000C701B6010E94102C882309F445C017FF49
:1057400006C0119501951109CDE3D1E002C0C5E570
:10575000D1E05E01B8E1AB1AB1084601BE2DAF2D14
:1057600090E2E92EF12C0E151F0584F0FE01259123
:10577000359145915491B4018B2F9A2F0E94762C2C
:105780004B01B82FA92F0E191F09EDCF2497F594BF
:10579000E794CA15DB0539F76401EB2EFA2E8E2D3E
:1057A000880F8F2D881F8F3F49F020E030E0A9013E
:1057B000C701B6010E94102C811106C082E290E060
:1057C0009093150780931407C701B60109C060E0E4
:1057D00070E080E89FEF04C060E070E080EC9FE73D
:1057E000CDB7DEB7EEE00C94912D99278827089568
:1057F000FB01DC014150504088F08D9181341CF058
:105800008B350CF4805E659161341CF06B350CF4C3
:10581000605E861B611171F3990B0895881BFCCFA4
:105820000E94522C08F481E00895E89409C097FB87
:105830003EF490958095709561957F4F8F4F9F4F67
:105840009923A9F0F92F96E9BB279395F6958795AB
:1058500077956795B795F111F8CFFAF4BB0F11F46E
:1058600060FF1BC06F5F7F4F8F4F9F4F16C0882315
:1058700011F096E911C0772321F09EE8872F762F4B
:1058800005C0662371F096E8862F70E060E02AF08C
:105890009A95660F771F881FDAF7880F9695879578
:1058A00097F90895990F0008550FAA0BE0E8FEEF4D
:1058B00016161706E807F907C0F012161306E407D4
:1058C000F50798F0621B730B840B950B39F40A26CD
:1058D00061F0232B242B252B21F408950A2609F4AB
:1058E000A140A6958FEF811D811D08950E94892CEE
:1058F0000C94FA2C0E94EC2C38F00E94F32C20F02F
:10590000952311F00C94E32C0C94E92C11240C94A5
:105910002E2D0E940B2D70F3959FC1F3950F50E033
:10592000551F629FF001729FBB27F00DB11D639F51
:10593000AA27F00DB11DAA1F649F6627B00DA11DF7
:10594000661F829F2227B00DA11D621F739FB00D9D
:10595000A11D621F839FA00D611D221F749F33270D
:10596000A00D611D231F849F600D211D822F762FA6
:105970006A2F11249F5750409AF0F1F088234AF083
:10598000EE0FFF1FBB1F661F771F881F91505040EF
:10599000A9F79E3F510580F00C94E32C0C942E2D1A
:1059A0005F3FE4F3983ED4F3869577956795B79576
:1059B000F795E7959F5FC1F7FE2B880F911D969590
:1059C000879597F9089597F99F6780E870E060E000
:1059D00008959FEF80EC089500240A941616170688
:1059E00018060906089500240A94121613061406D0
:1059F00005060895092E0394000C11F4882352F033
:105A0000BB0F40F4BF2B11F460FF04C06F5F7F4FEA
:105A10008F4F9F4F089557FD9058440F551F59F0D1
:105A20005F3F71F04795880F97FB991F61F09F3F8B
:105A300079F087950895121613061406551FF2CFB4
:105A40004695F1DF08C0161617061806991FF1CF04
:105A500086957105610508940895E894BB2766272B
:105A60007727CB0197F90895DB018F939F930E94CD
:105A7000662DBF91AF91A29F800D911DA39F900DA8
:105A8000B29F900D11240895A1E21A2EAA1BBB1BF0
:105A9000FD010DC0AA1FBB1FEE1FFF1FA217B307FA
:105AA000E407F50720F0A21BB30BE40BF50B661F10
:105AB000771F881F991F1A9469F7609570958095D4
:105AC00090959B01AC01BD01CF0108950E94A82DC6
:105AD000A59F900DB49F900DA49F800D911D112442
