:100000000C9463000C948B000C948B000C94F907F7
:100010000C94F9070C94F9070C948B000C948B004A
:100020000C948B000C948B000C948B000C948B0024
:100030000C948B000C948B000C948B000C948B0014
:100040000C94AF070C948B000C94F9090C94D30911
:100050000C948B000C948B000C948B000C948B00F4
:100060000C948B000C948B0000000008000201002F
:100070000003040700000000000000000000000072
:10008000250028002B0000000000240027002A0083
:1000900000000000230026002900040404040404D6
:1000A0000404020202020202030303030303010227
:1000B00004081020408001020408102001020408F6
:1000C0001020810A770A11241FBECFEFD8E0DEBFCF
:1000D000CDBF11E0A0E0B1E0E4E1FEE102C0059097
:1000E0000D92AA39B107D9F725E0AAE9B1E001C01C
:1000F0001D92AF3AB207E1F710E0C2E6D0E004C0CB
:100100002197FE010E94520DC136D107C9F70E9406
:100110008A0B0C94FD0E0C9400003FB7F89480916C
:10012000E7039091E803A091E903B091EA0326B5B3
:10013000A89B05C02F3F19F00196A11DB11D3FBF1F
:10014000BA2FA92F982F8827820F911DA11DB11DAD
:10015000BC01CD0142E0660F771F881F991F4A95A9
:10016000D1F708958EBD00000DB407FEFDCF8EB50A
:1001700008958FEF0C94B2002091ED033091EE03BF
:100180002817390771F49091EB038091EC039817CD
:1001900041F0E091EB03F0E0E656FE4F808190E005
:1001A00008958FEF9FEF089508951F93CF93DF93E6
:1001B000DC015C962D913C915D972115310539F458
:1001C00081E090E013969C938E9312973DC05196D8
:1001D000ED91FC91529750969C915097892F809564
:1001E0001FB75E964C915E9741FB772770F941FDF2
:1001F0006095F8944081772311F0492B01C0482382
:100200004083E9012197F1F748E0508160FF02C087
:10021000592B01C058235083E9012197F1F76695C6
:10022000415099F7772321F090818923808303C07F
:100230008081982B90831FBF5C968D919C915D97D8
:100240000197F1F721E030E0C901DF91CF911F91D3
:1002500008952091ED033091EE032817390771F4CA
:100260008091EC032091EB0390E0805C9F4F821B18
:10027000910960E470E00E942A0D089580E090E00A
:1002800008952091ED033091EE0328173907B9F452
:100290009091EB038091EC03981789F0E091EB03C8
:1002A000F0E0E656FE4F80812091EB0330E02F5FB7
:1002B0003F4F2F7333272093EB0390E008958FEF88
:1002C0009FEF089561E0FC0184810E942B0A8091D8
:1002D000DA0181111092DA010895CF93DF93EC01D6
:1002E0008E81882389F08F8198859C012F5F3F4FF5
:1002F00038872F838230924018F40E94B900F3CFE0
:10030000CE010E9462011E82DF91CF9108958F92EB
:100310009F92AF92BF92CF92DF92EF92FF926B01CA
:100320007C010E948D004B015C01C114D104E104E9
:10033000F104F1F00E948D00DC01CB0188199909CC
:10034000AA09BB09883E9340A105B10570F321E0DD
:10035000C21AD108E108F10888EE880E83E0981EE1
:10036000A11CB11CC114D104E104F10419F7DDCFC3
:10037000FF90EF90DF90CF90BF90AF909F908F90C5
:1003800008952FB7F8946091E3037091E40380918E
:10039000E5039091E6032FBF08950F931F93CF932A
:1003A000DF93EB010E94C1018B010E94B9008F3FD6
:1003B00049F00E94C101601B710B6C177D07A8F307
:1003C00080E001C081E0DF91CF911F910F910895EE
:1003D000CF92DF92FF920F931F93CF93DF9300D0C2
:1003E00000D0CDB7DEB76C01F62E29833A834B835C
:1003F0005C830E946D018091DA0129813A814B81F1
:100400005C81811109C081E08093DA019091EF0352
:100410008091F0039CBD8DBD60E0F601848129834D
:100420003A834B835C830E942B0A6CE271E0C60125
:100430000E94CD018F2D80640E94B20008E110E07F
:100440005C814B813A812981DA01C901002E04C007
:10045000B695A795979587950A94D2F729833A83FD
:100460004B835C830E94B2000850110929813A81B4
:100470004B815C81083FFFEF1F0731F7FF2029F018
:1004800088E0F81204C087E803C085E901C08FEF57
:100490000E94B20010E00E94B900F601828787FF37
:1004A00004C01F3F11F01F5FF6CF0F900F900F9009
:1004B0000F90DF91CF911F910F91FF90DF90CF9020
:1004C0000895EF92FF920F931F93CF93DF93EC0168
:1004D0007901411551056105710511F482E13CC0B6
:1004E0008B85833039F089E0440F551F661F771FD5
:1004F0008A95D1F79A01AB0168E1CE010E94E8012B
:10050000882311F084E028C08EEF0E94B20087019A
:100510008EEFF81AF80181918F010E94B2000E153A
:100520001F05C1F78FEF0E94B2008FEF0E94B2004B
:100530000E94B9008A878F71853031F081E18D8307
:10054000CE010E94620109C068E572E0CE010E94FE
:10055000CD01811107C085E18D83CE010E9462012A
:1005600080E013C020E030E0A9016DE0CE010E94E0
:10057000E801811104C00E94B900882311F084E1D0
:10058000EBCFCE010E94620181E0DF91CF911F91FC
:100590000F91FF90EF900895CF93DF938091DD014D
:1005A000882399F1C091DB01D091DC0140910001D9
:1005B00050910101609102017091030122EE31E03E
:1005C000CE010E946102811102C080E01FC04091F3
:1005D000DE015091DF016091E0017091E101411570
:1005E00051056105710579F022EE31E0CE010E94DE
:1005F0006102882351F31092DE011092DF01109204
:10060000E0011092E1011092DD0181E0DF91CF91D4
:100610000895BF92CF92DF92EF92FF920F931F93B4
:10062000CF93DF936B017C01B42E809100019091F8
:100630000101A0910201B09103018C159D05AE0549
:10064000BF0509F476C00E94CC02882309F478C063
:10065000C091DB01D091DC018E81882369F0888113
:100660009981AA81BB81C816D906EA06FB0621F446
:100670008F819885892BB1F1C882D982EA82FB8269
:100680008B85A7019601833039F089E0220F331F53
:10069000441F551F8A95D1F761E1CE010E94E80100
:1006A000882319F083E08D8337C00E94C1018B013C
:1006B0000E94B9008A878F3F49F40E94C101601BE4
:1006C000710B6D327140A0F38FE003C08E3F31F0AB
:1006D0008DE08D83CE010E9462011EC018861F82AC
:1006E00081E08E8302EE11E00E94B900F80181934F
:1006F0008F01F3E0023E1F07B9F78F8198859E5F57
:1007000098878F832985222319F08115924048F01C
:10071000CE010E946D0105C0CE010E94620180E001
:100720000FC0C0920001D0920101E0920201F0924C
:1007300003018091DD01482F4B294093DD0181E0C9
:10074000DF91CF911F910F91FF90EF90DF90CF90AD
:10075000BF9008954F925F926F927F928F929F9277
:10076000AF92BF92CF92DF92EF92FF920F931F93BF
:10077000CF93DF93EC016A017B01280139014230FC
:1007800051056105710510F480E073C089859A8573
:10079000AB85BC850196A11DB11D84179507A607E1
:1007A000B70790F38B889C88AD88BE888F8980318D
:1007B00029F4BB27AF2D9E2D8D2D09C0DB01CA0169
:1007C00047E0B695A795979587954A95D1F7880EF6
:1007D000991EAA1EBB1E8091000190910101A0915B
:1007E0000201B091030188169906AA06BB0679F4A6
:1007F0008F898031A1F4DD24EE24FF24C601880F07
:10080000991FFC01EE51FE4F5182408219C040E019
:10081000C501B4010E9409038111EACFB5CFE89464
:10082000C7F8DD24EE24FF24C601880F991F880F26
:10083000991FFC01EE51FE4F408251826282738209
:100840008091DD0181608093DD018A89823080F0B2
:100850008D819E81AF81B885880E991EAA1EBB1E10
:100860008092DE019092DF01A092E001B092E1015E
:1008700081E0DF91CF911F910F91FF90EF90DF907A
:10088000CF90BF90AF909F908F907F906F905F9030
:100890004F9008958F929F92AF92BF92CF92DF9226
:1008A000EF92FF920F931F93CF93DF93FC0181850B
:1008B0009285A385B4850196A11DB11D8417950766
:1008C000A607B70710F480E05CC083899489A589E6
:1008D000B689C789C03129F4852E962EA72EBB2450
:1008E00009C04A015B01C7E0B694A7949794879426
:1008F000CA95D1F7E9016A017B018F01BC01CD01E5
:10090000680D791D8A1D9B1D80900001909001014A
:10091000A0900201B0900301681579058A059B0536
:1009200099F4F80187898031A9F4B701A601552708
:1009300066277727440F551FFA01EE51FE4F80813D
:100940009181A0E0B0E018C040E00E94090381114D
:10095000E8CFB9CFB701A6014F775527662777278C
:10096000440F551F440F551FFA01EE51FE4F808171
:100970009181A281B381BF7088839983AA83BB834D
:1009800081E0DF91CF911F910F91FF90EF90DF9069
:10099000CF90BF90AF909F908F9008953F924F92CD
:1009A0005F926F927F928F929F92AF92BF92CF92FF
:1009B000DF92EF92FF920F931F93CF93DF93CDB708
:1009C000DEB72C970FB6F894DEBF0FBECDBF5C012B
:1009D000DC015B968D909C905C971696CD90DD9097
:1009E000ED90FC901997C114D104E104F10439F0A1
:1009F000BFEFCB1ADB0AEB0AFB0A312C07C0F4016C
:100A0000C080D180E280F38033243394F401818567
:100A10009285A385B4859C01AD012F5F3F4F4F4F59
:100A20005F4F29873A874B875C87260137011D82F4
:100A30001E821F821886F40181859285A385B48564
:100A40002D813E814F815885281739074A075B075A
:100A500008F063C089859A85AB85BC858C159D059A
:100A6000AE05BF0550F482E0C82ED12CE12CF12C4C
:100A700092E0492E512C612C712C9E012F5F3F4F2B
:100A8000B701A601C4010E944A04882309F445C0A5
:100A900089819A81AB81BC81892B8A2B8B2B41F078
:100AA000260137019FEF491A590A690A790A05C0D8
:100AB000C414D504E604F70491F02D813E814F81E2
:100AC00058852F5F3F4F4F4F5F4F2D833E834F839E
:100AD00058873FEFC31AD30AE30AF30AACCF0FEFEC
:100AE0001FEF2FEF3FE0B301A201C4010E94AA0350
:100AF000882399F0D50116964D915D916D917C9169
:100B00001997411551056105710549F0930182015D
:100B1000C4010E94AA03811102C080E02AC0D5014D
:100B200016964D925D926D927C921997332051F0FA
:100B3000D301C2010196A11DB11DF40180839183EF
:100B4000A283B383F5018789908DA18DB28D892B06
:100B50008A2B8B2B69F4D50157964D925D926D923D
:100B60007C925A9714968C911497806814968C9363
:100B700081E02C960FB6F894DEBF0FBECDBFDF919B
:100B8000CF911F910F91FF90EF90DF90CF90BF908A
:100B9000AF909F908F907F906F905F904F903F901D
:100BA00008954F925F926F927F928F929F92AF9231
:100BB000BF92EF92FF920F931F93CF93DF9300D0DA
:100BC00000D01F92CDB7DEB78C016D83DC01159686
:100BD0008C911597813009F057C014968C9181FF44
:100BE00053C05AC0038CF48DE02D258530E0275F7B
:100BF0003F4F2A013B01B1E04B1A510861087108CF
:100C0000022E04C076946794579447940A94D2F7BE
:100C1000D501C4010197A109B10904C0B695A795F2
:100C2000979587952A95D2F784159505A605B7055A
:100C300008F070C0F8014789508D618D728D468330
:100C40005783608771872C013D017801E6E0EE0E45
:100C5000F11CD801411451046104710409F464C009
:100C600016964D915D916D917C91199797015B96C8
:100C70008D919C915C970E944A04B1E04B1A5108F7
:100C8000610871088111E5CF81E090E0F80193835C
:100C9000828380E090E04FC182FF0EC0F801428560
:100CA00053856485758583889488A588B68848159A
:100CB00059056A057B05F1F4D8011A964D915D91AD
:100CC0006D917C911D975B968D919C915C97FC0139
:100CD00074807A944A015B0129E0B694A7949794B2
:100CE00087942A95D1F778207A01F1E0FF227720C6
:100CF00011F164C081149104A104B10409F072CF10
:100D00001682178210861186F801128613861486C1
:100D10001586D2CF452B462B472B09F48BCF841950
:100D20009509A609B7098FCF1A968D929D92AD921B
:100D3000BC921D97C1CFE114F10409F03FC0F80146
:100D400046815781608571854115510561057105A1
:100D500049F48789908DA18DB28D0097A105B105C9
:100D600041F521C09E012F5F3F4F0E944A04882316
:100D700009F48FCF89819A81AB81BC81F801238DE1
:100D8000348DF9012789203129F048EF5FEF6FEFAB
:100D90007FE004C048EF5FEF60E070E084179507E4
:100DA000A607B70730F0C8010E94CE04811106C023
:100DB0006BCFF80186839783A087B187D8015B96B4
:100DC000ED91FC915C9716968D909D90AD90BC90A6
:100DD0001997B2E08B1A9108A108B108058404C0E4
:100DE000880C991CAA1CBB1C0A94D2F7868597858F
:100DF000A089B189880E991EAA1EBB1E870C911C62
:100E0000A11CB11CE114F10409F5F80142855385D8
:100E10006485758583899489A589B689481759079A
:100E20006A077B0798F00E94CC02882309F42CCF34
:100E30008092000190920101A0920201B092030100
:100E40008091DD0181608093DD0108C041E0C50132
:100E5000B4010E940903882309F416CFF701EE516B
:100E6000FE4F8D818083F80182859385A485B585A9
:100E70000196A11DB11D82879387A487B5874389F9
:100E8000548965897689481759076A077B0738F4BA
:100E9000838B948BA58BB68B848180688483D801E7
:100EA00014968C9183FD03C081E090E044C0F8016A
:100EB0009581992309F4E8CE87FF38C06685778548
:100EC0008089918941E00E940903882309F4DCCEDE
:100ED000D8015296EC91B0E2EB9F90011124D90118
:100EE000AE51BE4F109709F4CFCEF8018581823004
:100EF00050F443895489658976895C964D935D9356
:100F00006D937C935F97F8018789908DA18DB28D49
:100F1000F901EE51FE4F938F828FB58BA48BD801D0
:100F200014968C9114978F7714968C930E94CC0210
:100F30008111BACFA9CE0F900F900F900F900F9004
:100F4000DF91CF911F910F91FF90EF90BF90AF90E5
:100F50009F908F907F906F905F904F9008951F9219
:100F60000F920FB60F9211242F933F938F939F935D
:100F7000AF93BF938091E3039091E403A091E503C5
:100F8000B091E6033091E20323E0230F2D3720F4E4
:100F90000196A11DB11D05C026E8230F0296A11DD3
:100FA000B11D2093E2038093E3039093E403A093A5
:100FB000E503B093E6038091E7039091E803A091E5
:100FC000E903B091EA030196A11DB11D8093E703E7
:100FD0009093E803A093E903B093EA03BF91AF9124
:100FE0009F918F913F912F910F900FBE0F901F9067
:100FF00018951F920F920FB60F9211242F933F93C3
:101000004F935F936F937F938F939F93AF93BF9310
:10101000EF93FF93E091ED03F091EE03309709F425
:1010200051C0968DA685B785858591FF04C09C919A
:10103000892329F447C09C91892309F043C0A389DF
:10104000B4899C918589809589238C938689978919
:101050000197F1F7608D718DA685B785558538E0CC
:1010600020E0CB010197F1F7822F90E095958795CD
:10107000282F4C91452309F02068315091F7868D37
:1010800081FD20958091EC0390E001968F73992764
:101090003091EB03381749F0A091EC03B0E0A6566D
:1010A000BE4F2C938093EC0303C0868D8160868FA6
:1010B000828D938D0197F1F7A389B4899C918589DD
:1010C000892B8C93FF91EF91BF91AF919F918F915D
:1010D0007F916F915F914F913F912F910F900FBE34
:1010E0000F901F901895E091ED03F091EE03E81733
:1010F000F90769F4A389B4899C918589809589232E
:101100008C931092EE031092ED0381E0089580E03D
:101110000895E7ECF4E0A089B18982E08C93A4857E
:10112000B5851C92A685B78580E18C93108EA48925
:10113000B58986E08C93A289B3898C9180618C9368
:10114000A289B3898C9188608C93A289B3898C9190
:1011500080688C930288F389E02D80818F7D808365
:101160000895CF92DF92EF92FF920F931F93CF9348
:10117000DF936C017A018B01C0E0D0E0CE15DF0572
:1011800089F0D8016D918D01D601ED91FC9101900E
:10119000F081E02DC6010995892B11F47E0102C072
:1011A0002196ECCFC701DF91CF911F910F91FF9056
:1011B000EF90DF90CF900895FC01918D828D98176C
:1011C00061F0828DDF01A80FB11D5D968C91928D2B
:1011D0009F5F9F73928F90E008958FEF9FEF089528
:1011E000FC01918D828D981731F0828DE80FF11DF1
:1011F000858D90E008958FEF9FEF0895FC01918D0C
:10120000228D892F90E0805C9F4F821B91098F7304
:101210009927089587EC94E00E94FE0821E0892B2D
:1012200009F420E0822F0895FC01848DDF01A80FCE
:10123000B11DA35ABF4F2C91848D90E001968F73FE
:101240009927848FA689B7892C93A089B1898C911D
:1012500080648C93938D848D981306C00288F389E3
:10126000E02D80818F7D80830895EF92FF920F9310
:101270001F93CF93DF93EC0181E0888F9B8D8C8D42
:10128000981305C0E889F989808185FD24C0F62E70
:101290000B8D10E00F5F1F4F0F731127E02E8C8D09
:1012A000E8120CC00FB607FCFACFE889F9898081F3
:1012B00085FFF5CFCE010E941409F1CF8B8DFE0181
:1012C000E80FF11DE35AFF4FF0820B8FEA89FB898B
:1012D0008081806207C0EE89FF896083E889F9898F
:1012E00080818064808381E090E0DF91CF911F91C5
:1012F0000F91FF90EF900895CF93DF93EC01888DCD
:101300008823C9F0EA89FB89808185FD05C0A88909
:10131000B9898C9186FD0FC00FB607FCF5CF80818F
:1013200085FFF2CFA889B9898C9185FFEDCFCE01D9
:101330000E941409E7CFDF91CF91089580E090E0FB
:10134000892B29F00E940A0981110C94000008954C
:101350006115710579F0FB0101900020E9F73197E3
:10136000AF01461B570BDC01ED91FC910280F3812C
:10137000E02D099480E090E008950F931F93CF93A0
:10138000DF93EC010E94A8098C016BE371E0CE01B0
:101390000E94A809800F911FDF91CF911F910F919B
:1013A00008950E94580D1F920F920FB60F921124AC
:1013B0002F933F934F935F936F937F938F939F935D
:1013C000AF93BF93EF93FF9387EC94E00E941409CF
:1013D000FF91EF91BF91AF919F918F917F916F910D
:1013E0005F914F913F912F910F900FBE0F901F90E3
:1013F00018951F920F920FB60F9211242F938F936F
:101400009F93EF93FF93E091D704F091D8048081EC
:10141000E091DD04F091DE0482FD12C090818091A4
:10142000E0048F5F8F732091E104821751F0E09107
:10143000E004F0E0E953FB4F958F8093E00401C096
:101440008081FF91EF919F918F912F910F900FBE0F
:101450000F901F90189590E0FC01E859FF4F3491D0
:10146000FC01E255FF4F2491FC01E656FF4FE49149
:10147000EE2309F43BC0332339F1333091F038F4D3
:101480003130A9F0323001F584B58F7D12C037308C
:1014900091F03830A1F03430B9F4809180008F7D24
:1014A00003C0809180008F77809380000DC084B549
:1014B0008F7784BD09C08091B0008F7703C0809181
:1014C000B0008F7D8093B000F0E0EE0FFF1FE45876
:1014D000FF4FA591B4918FB7F894EC91611103C0BF
:1014E00020952E2301C02E2B2C938FBF089580E2D0
:1014F00091E09093F2038093F10381EF93E00C94D9
:101500007308CF93DF931092CA041092C90488EE37
:1015100093E0A0E0B0E08093CB049093CC04A09340
:10152000CD04B093CE0428E031E03093C80420937A
:10153000C70425EC30E03093D4042093D30424EC8A
:1015400030E03093D6042093D50420EC30E0309383
:10155000D8042093D70421EC30E03093DA042093B0
:10156000D90422EC30E03093DC042093DB0426EC39
:1015700030E03093DE042093DD041092E0041092FA
:10158000E1041092E2041092E30420E52093EF03BB
:101590001092F0031092690510926A0510926D0581
:1015A00010926F0542E050E060E070E040937005FB
:1015B00050937105609372057093730510928705BF
:1015C000109291051092900528E131E030938F053B
:1015D00020938E05109293051092F4031092F3035A
:1015E0008093F5039093F603A093F703B093F80369
:1015F00080E291E09093F2038093F103109208044B
:101600001092070410920A041092090410920C041C
:1016100010920B0410920E0410920D0460910F04AE
:101620006E7F6D7F60930F046695617081E068271F
:1016300087E00E942B0AE5EBF0E02491E1EAF0E07C
:101640008491882399F090E0880F991FFC01EA5754
:10165000FF4FA591B491FC01E458FF4F85919491FF
:101660008FB7F894EC91E22BEC938FBFE5EBF0E0B1
:10167000E491E0930104E1EAF0E0E491F0E0EE0FA0
:10168000FF1FE458FF4F859194919093030480933A
:101690000204E6EBF0E02491E2EAF0E08491882392
:1016A000C1F090E0880F991FFC01EA57FF4FC591E8
:1016B000D491FC01E458FF4FA591B4919FB7F894E1
:1016C0008881E22FE0958E2388838C91E823EC9328
:1016D0009FBF80910F0481FD04C061E088E00E94FB
:1016E0002B0A88E08093FD03E6EBF0E0E491E093C1
:1016F000FE03E2EAF0E0E491F0E0EE0FFF1FE057B6
:10170000FF4F85919491909300048093FF03DF91A4
:10171000CF910895789484B5826084BD84B581604A
:1017200084BD85B5826085BD85B5816085BD8091AC
:101730006E00816080936E00109281008091810024
:10174000826080938100809181008160809381001C
:10175000809180008160809380008091B1008460DE
:101760008093B1008091B00081608093B00080913F
:101770007A00846080937A0080917A0082608093FE
:101780007A0080917A00816080937A0080917A005B
:10179000806880937A001092C100109243041092E6
:1017A00044041092450410924604109211041092C1
:1017B0001204109213041092140460ED77E080E09C
:1017C00090E00E94870187EC94E09093420480931C
:1017D00041040E9489080E94C101009111041091E6
:1017E00012042091130430911404DC01CB01801BFE
:1017F000910BA20BB30BC297A105B10538F463E0BE
:1018000070E080E090E00E948701E5CF0E94C10176
:101810006093110470931204809313049093140442
:101820006CE271E080914104909142040E94A80909
:101830006AE070E080E090E00E94870181E08093A0
:1018400015040E94890810920C0410920B04109247
:101850000A041092090410920804109207048DE9FA
:1018600091E090930E0480930D049091FD039631C6
:1018700008F057C02DEB30E03093080420930704A4
:101880002BE931E030930A04209309042CE231E083
:1018900030930C0420930B0420916800983050F092
:1018A00031E09E3008F430E081E001C0880F3A95C5
:1018B000EAF701C084E0822B80936800983038F00A
:1018C0009E3040F0963148F020E030E008C02DE630
:1018D00030E005C02BE630E002C02CE630E030936B
:1018E000050420930404983030F481E001C0880F8F
:1018F0009A95EAF70EC0292F30E09E3018F4285050
:10190000310902C02E50310981E001C0880F2A95AB
:10191000EAF78093060480910D0490910E040197DC
:10192000F1F780910B0490910C04892B21F18091A7
:10193000ED039091EE0323E0813F9207E1F00097E1
:1019400011F00E94730880910F048E7F80930F0422
:101950001092EC031092EB0381EF93E09093EE036F
:101960008093ED03E0910404F0910504908180914F
:101970000604892B80836EE371E081EF93E00E947F
:10198000BD096FE471E081EF93E00E94BD0968E654
:1019900071E081EF93E00E94BD0907E414E0D0E814
:1019A000F8012D2F11922A95E9F7C0E081EF93E01D
:1019B0000E94BC000196D1F381EF93E00E944101A7
:1019C000EC2FF0E0E95BFB4F8083CC2329F08432DD
:1019D00019F480934704C0E080914704843231F7C2
:1019E00081E08C0FEC2FF0E0E95BFB4F90819A30A7
:1019F00011F0C82FDBCF90E0FC01EB5BFB4F1082B6
:101A00007C01F5E0EF1AF108F701E95BFB4F20815B
:101A10002A3259F640E150E060E070E08D5B9B4F68
:101A20000E945D0D21E0822F90E08E159F053CF411
:101A3000FC01E95BFB4F808168272F5FF4CF6111C8
:101A4000B4CF67E474E087EC94E00E94BD090E9483
:101A50009E09A6CF97FB072E16F4009407D077FDBA
:101A600009D00E943E0D07FC05D03EF4909581956B
:101A70009F4F0895709561957F4F0895AA1BBB1BDA
:101A800051E107C0AA1FBB1FA617B70710F0A61B7E
:101A9000B70B881F991F5A95A9F780959095BC019F
:101AA000CD010895EE0FFF1F0590F491E02D0994EC
:101AB00081E090E0F8940C94FD0EA0E0B0E0E3E645
:101AC000FDE00C94B70E5C016B017A0161157105A4
:101AD00019F0FB0191838083E114F10429F0C7011F
:101AE0000297839708F0F1C0E5012196F501108176
:101AF000812F90E00E946E0E892B11F05E01F4CFD1
:101B00001D3229F42196F501118101E007C01B3235
:101B100021F4E5012296F501118100E0E114F104C0
:101B200059F1F0E1EF16F10461F41033E1F488812A
:101B30008F7D883569F519812296026070E1E72E64
:101B4000F12C88E0E816F10439F12CF4F2E0EF16FC
:101B5000F104C9F12AC08AE0E816F10479F0E0E165
:101B6000EE16F10411F550E1E52EF12C812C912CAB
:101B7000A12C68E0B62E2CC01033C9F23AE0E32E57
:101B8000F12C4CEC842E982CA82C4CE0B42E20C0C8
:101B900010E3E114F104A9F698E0E92EF12C812C70
:101BA000912CA12C20E1B22E13C060E070E080E007
:101BB00090E897010F2C000C440B550B0E948A0EE5
:101BC00049015A0105C0812C912CA12C80E4B82E2A
:101BD00060E020E030E0A90127010F2C000C66082E
:101BE00077081E01E0EDE10FEA3060F08FEB810F26
:101BF0008A3110F4E9EC05C08FE9810F8A3128F5AC
:101C0000E9EAE10F8E2F90E08E159F05F4F467FD51
:101C100018C082169306A406B50690F0C301B2015F
:101C20000E947A0E9B01AC012E0F311D411D511DEA
:101C3000213031054105F0E85F0710F461E001C093
:101C40006FEF2196F1011081CCCF802F8170C114EC
:101C5000D10471F0662329F02197F601D183C08366
:101C600007C001FF19C02297F601D183C08314C0B9
:101C700067FF12C0811105C02FEF3FEF4FEF5FE705
:101C800004C020E030E040E050E882E290E0909331
:101C9000AE058093AD0516C0882341F05095409560
:101CA000309521953F4F4F4F5F4F0CC057FF0AC0F3
:101CB00082E290E09093AE058093AD052FEF3FEF69
:101CC0004FEF5FE7B901CA0104C060E070E080E057
:101CD00090E0CDB7DEB7E2E10C94D30E91110C94F5
:101CE000770E803219F089508550C8F708959927EA
:101CF00088270895DB018F939F930E94AC0EBF91BC
:101D0000AF91A29F800D911DA39F900DB29F900D4A
:101D100011240895A1E21A2EAA1BBB1BFD010DC0C0
:101D2000AA1FBB1FEE1FFF1FA217B307E407F5078B
:101D300020F0A21BB30BE40BF50B661F771F881F67
:101D4000991F1A9469F760957095809590959B01FD
:101D5000AC01BD01CF0108950E94EE0EA59F900D2C
:101D6000B49F900DA49F800D911D112408952F9272
:101D70003F924F925F926F927F928F929F92AF921B
:101D8000BF92CF92DF92EF92FF920F931F93CF9368
:101D9000DF93CDB7DEB7CA1BDB0B0FB6F894DEBFFF
:101DA0000FBECDBF09942A88398848885F846E8425
:101DB0007D848C849B84AA84B984C884DF80EE806F
:101DC000FD800C811B81AA81B981CE0FD11D0FB678
:101DD000F894DEBF0FBECDBFED010895A29FB00104
:101DE000B39FC001A39F700D811D1124911DB29F4F
:101DF000700D811D1124911D089510E0C2E6D0E000
:101E000004C0FE010E94520D2196C336D107C9F7C6
:041E1000F894FFCF74
:101E1400FFFFFFFF000000003509B108FE08DC08E1
:101E2400F0087C0900000000D105B10800000000A2
:101E3400D500B10829014101BC00D400564D4450DD
:101E4400565F317C315F564D4450560D0A00245084
:101E54004D544B3232302C313030302A314600244C
:101E6400504D544B3330302C313030302C302C30FA
:101E74002C302C302A31430024504D544B33313410
:101E84002C302C312C302C302C302C302C302C306D
:101E94002C302C302C302C302C302C302C302C305E
:0A1EA4002C302C302C302A3239008B
:00000001FF
