:100000000C94CD000C94F5000C94F5000C945C0954
:100010000C945C090C945C090C94F5000C94F500AC
:100020000C94F5000C94F5000C94F5000C94F5007C
:100030000C94F5000C94F5000C94F5000C94F5006C
:100040000C94D80B0C94F5000C94E00A0C94BA0AAA
:100050000C94F5000C94F5000C94F5000C94F5004C
:100060000C94F5000C94F500036EDB363D9A9999DB
:10007000993DABAAAA2A3E000000803F084AD73B20
:100080003BCE016E84BCBFFDC12F3D6C74319ABD67
:1000900056833DDA3D00C77F11BED9E4BB4C3E918B
:1000A0006BAAAABE000000803F072C7AA5BA6CC5D7
:1000B00090DA3B9365FC8BBC53F810FD3C56928361
:1000C0004DBD879D3AB63DCBC9BF5BBE73DA0FC944
:1000D0003F05A84CCDB2D44EB93836A9020C50B960
:1000E000918688083CA6AAAA2ABE000000803F008C
:1000F00000000000240027002A0000000008000281
:1001000001000003040700000000000000007C3C28
:100110003E5E2B3D3F2F5B5D3B2C2A225C000000A6
:100120000000250028002B0000000000230026000E
:10013000290004040404040404040202020202026A
:10014000030303030303010204081020408001029B
:10015000040810200102040810204E414E494E4967
:100160005459494E46CDCCCC3D0AD7233C17B7D184
:100170003877CC2B329595E6241FB14F0A0000202A
:10018000410000C84200401C4620BCBE4CCA1B0EA9
:100190005AAEC59D7400901F771F11241FBECFEF6C
:1001A000D8E0DEBFCDBF12E0A0E0B1E0E4EFF9E5BA
:1001B00002C005900D92A834B107D9F726E0A8E453
:1001C000B2E001C01D92A63BB207E1F710E0CCEC13
:1001D000D0E004C02197FE010E940221CB3CD10750
:1001E000C9F70E94FE130C94ED2C0C940000DC0166
:1001F0005996ED91FC915A973097B9F0838994897B
:10020000A589B6894285538564857585841B950BC0
:10021000A60BB70B811520E89207A105B10538F0B0
:100220008FEF9FE7A0E0B0E0089580E090E00895B0
:10023000CF93DF931F92CDB7DEB76983DC01ED91D9
:10024000FC910280F381E02D41E050E0BE016F5F40
:100250007F4F09950F90DF91CF91089520914A0229
:1002600030914B022817390771F490914802809120
:100270004902981741F0E0914802F0E0E95DFC4F37
:10028000808190E008958FEF9FEF089508951F9368
:10029000CF93DF93DC015C962D913C915D97211506
:1002A000310539F481E090E013969C938E93129778
:1002B0003DC05196ED91FC91529750969C9150976C
:1002C000892F80951FB75E964C915E9741FB7727EB
:1002D00070F941FD6095F8944081772311F0492B26
:1002E00001C048234083E9012197F1F748E050819C
:1002F00060FF02C0592B01C058235083E9012197A8
:10030000F1F76695415099F7772321F09081892381
:10031000808303C08081982B90831FBF5C968D9152
:100320009C915D970197F1F721E030E0C901DF91E1
:10033000CF911F91089520914A0230914B022817C6
:10034000390771F4809149022091480290E0805C65
:100350009F4F821B910960E470E00E94EE20089597
:1003600080E090E0089520914A0230914B022817D6
:100370003907B9F49091480280914902981789F0A1
:10038000E0914802F0E0E95DFC4F80812091480255
:1003900030E02F5F3F4F2F7333272093480290E0C8
:1003A00008958FEF9FEF0895FC01818D928D009746
:1003B00011F00C94330E08958F929F92AF92BF92DA
:1003C000CF92DF92EF92FF920F931F93CF93DF9321
:1003D00000D000D0CDB7DEB77C0180E2689F60011D
:1003E0001124960129583C4FD9011B969C9191717B
:1003F00021F0842F827409F097C0142FF701628BCB
:100400008091010190910201A0910301B09104013A
:1004100086879787A08BB18BF601E958FC4F4489FA
:10042000558960E070E0BA0155274427D7015796F7
:100430004D935D936D937C935A97828D938DA0E03D
:10044000B0E0482B592B6A2B7B2BD70157964D9345
:100450005D936D937C935A97D9011B968C9188710B
:1004600059F4848D958DA68DB78DF701838B948B70
:10047000A58BB68B81E012C0803109F055C0970181
:100480002D5E3F4FD7015B968D919C915C970E94AA
:10049000CA0D882309F448C084E0F7018583812FC1
:1004A0008F70D70114968C931497F70116821782D8
:1004B000108611861A961D921D921D921C921D97F0
:1004C00016FF34C015968C91813071F511FF2CC048
:1004D000F7014389548965897689452B462B472B3B
:1004E00009F461C040E050E0BA01C7010E94710EFA
:1004F0008823D1F0F7018788908CA18CB28CC38CB3
:10050000D48C82E090E0A0E0B0E0F601808391839B
:10051000A283B3839E012F5F3F4FB501A401C601A3
:100520000E94460D811104C080E03DC081E03BC0C7
:1005300000E010E09801B501A401C6010E94A60CDC
:10054000882391F389809A80AB80BC80D60157962E
:100550008C91803129F088EF9FEFAFEFBFE004C0AE
:1005600088EF9FEFA0E0B0E088169906AA06BB06C8
:1005700088F2D70157961D921D921D921C925A9790
:10058000F701138A148A158A168A84818068848305
:10059000C7010E94330E882339F240E050E0BA01CF
:1005A000C7010E94710E0F900F900F900F90DF9176
:1005B000CF911F910F91FF90EF90DF90CF90BF9060
:1005C000AF909F908F900895CF93DF93EC01898D2A
:1005D0009A8D009739F481E090E09B838A8380E0D4
:1005E00090E00BC0FC01138212820E94070FE98D7C
:1005F000FA8D22813381232B71F7DF91CF910895FA
:10060000CF93DF93EC010E94330E882311F01D82FB
:1006100081E0DF91CF9108953F924F925F926F9268
:100620007F928F929F92AF92BF92CF92DF92EF9282
:10063000FF920F931F93CF93DF93CDB7DEB72C9725
:100640000FB6F894DEBF0FBECDBF5C01DC015B9638
:100650008D909C905C971696CD90DD90ED90FC90DF
:100660001997C114D104E104F10439F0BFEFCB1A9A
:10067000DB0AEB0AFB0A312C07C0F401C080D180F1
:10068000E280F38033243394F40181859285A3853D
:10069000B4859C01AD012F5F3F4F4F4F5F4F2987BE
:1006A0003A874B875C87260137011D821E821F8295
:1006B0001886F40181859285A385B4852D813E81BC
:1006C0004F815885281739074A075B0708F063C030
:1006D00089859A85AB85BC858C159D05AE05BF05C2
:1006E00050F482E0C82ED12CE12CF12C92E0492E5E
:1006F000512C612C712C9E012F5F3F4FB701A60139
:10070000C4010E94460D882309F445C089819A815D
:10071000AB81BC81892B8A2B8B2B41F026013701C1
:100720009FEF491A590A690A790A05C0C414D50409
:10073000E604F70491F02D813E814F8158852F5FAB
:100740003F4F4F4F5F4F2D833E834F8358873FEF7F
:10075000C31AD30AE30AF30AACCF0FEF1FEF2FEF50
:100760003FE0B301A201C4010E94A60C882399F0C6
:10077000D50116964D915D916D917C91199741151A
:1007800051056105710549F093018201C4010E9480
:10079000A60C811102C080E02AC0D50116964D92A8
:1007A0005D926D927C921997332051F0D301C20172
:1007B0000196A11DB11DF40180839183A283B383AF
:1007C000F5018789908DA18DB28D892B8A2B8B2B7A
:1007D00069F4D50157964D925D926D927C925A972D
:1007E00014968C911497806814968C9381E02C96C3
:1007F0000FB6F894DEBF0FBECDBFDF91CF911F9132
:100800000F91FF90EF90DF90CF90BF90AF909F90AF
:100810008F907F906F905F904F903F9008958FB72B
:10082000F894809168038FBF089561E0FC01848192
:100830000E943B0B8091670381111092670308951A
:100840008EBD00000DB407FEFDCF8EB508958FEF6D
:100850000C9420040F931F93CF93DF93EB010E941E
:10086000CC0B8B010E9427048F3F49F00E94CC0BD8
:10087000601B710B6C177D07A8F380E001C081E05D
:10088000DF91CF911F910F910895CF93DF93EC01EA
:100890008E81882389F08F8198859C012F5F3F4F3F
:1008A00038872F838230924018F40E942704F3CFB8
:1008B000CE010E9415041E82DF91CF9108958CBD58
:1008C0009DBD0895CF93DF93EC0180916703811163
:1008D00009C081E080936703809116069091170606
:1008E0000E945F0460E08C81DF91CF910C943B0B00
:1008F000CF92DF92FF920F931F93CF93DF9300D09D
:1009000000D0CDB7DEB76C01F62E29833A834B8336
:100910005C830E944504C6010E9462046CE271E09F
:10092000C6010E942A048F2D80640E94200408E1E1
:1009300010E05C814B813A812981DA01C901002EE6
:1009400004C0B695A795979587950A94D2F7298301
:100950003A834B835C830E9420040850110929814B
:100960003A814B815C81083F8FEF180731F7FF20F8
:1009700029F0E8E0FE1204C087E803C085E901C061
:100980008FEF0E94200410E00E942704F601828766
:1009900087FF04C01F3F11F01F5FF6CF0F900F902D
:1009A0000F900F90DF91CF911F910F91FF90DF90EB
:1009B000CF900895AF92BF92CF92DF92EF92FF92C5
:1009C0000F931F93CF93DF93EC016901C801820F4E
:1009D000931F8130924008F070C08E81882371F09F
:1009E00088819981AA81BB81481759076A077B07CB
:1009F00029F48F819885C816D906B0F548835983A4
:100A00006A837B838B85833039F089E0440F551FDF
:100A1000661F771F8A95D1F79A01AB0161E1CE017C
:100A20000E947804882319F083E08D8346C00E94D9
:100A3000CC0B5B010E9427048A878F3F49F40E94F8
:100A4000CC0B6A197B096D327140A0F38FE003C0B3
:100A50008E3F31F08DE08D83CE010E9415042DC0B4
:100A600018861F8281E08E838F8198858C159D0565
:100A700040F40E9427048F819885019698878F8380
:100A8000F3CF6701E00EF11ECE14DF0431F00E94B7
:100A90002704F60181936F01F7CF8F819885080FA6
:100AA000191F18870F838985882319F001151240B3
:100AB00048F0CE010E94450405C0CE010E941504F5
:100AC00080E001C081E0DF91CF911F910F91FF90F5
:100AD000EF90DF90CF90BF90AF9008952F923F920C
:100AE0004F925F926F927F928F929F92AF92BF923E
:100AF000CF92DF92EF92FF920F931F93CF93DF93EA
:100B000000D0CDB7DEB7FC018581882309F4D9C0B8
:100B1000848180FFD6C021E02A8343895489658976
:100B2000768982859385A485B585481759076A0714
:100B30007B0709F41A826F013A81832F90E0DE016E
:100B400011964D013F01B6E06B0E711C892B09F423
:100B50007DC0D6011A964D915D916D917C911D9746
:100B60005A01B1E0BB22F60125811A012B0189E06F
:100B700056944794379427948A95D1F7838D948D12
:100B8000223061F4FC01828D938DA48DB58DBC0162
:100B9000CD01620D731D841D951D45C0DC011496A9
:100BA0001C9111501221A114B104D1F4111118C0DB
:100BB000452B462B472B51F4F6018789908DA18D4B
:100BC000B28D86839783A087B1870AC046815781FB
:100BD0006085718593010E94460D882309F471C0D8
:100BE000F601238D348D86819781A085B18502978A
:100BF000A109B109AC01BD01F901058404C0440F8C
:100C0000551F661F771F0A94D2F786859785A0899E
:100C1000B189840F951FA61FB71FBC01CD01610FBD
:100C2000711D811D911DD60114962C9126FF14C0B3
:100C30000091010110910201209103013091040102
:100C4000601771078207930751F506C0FA81FF23E9
:100C5000C1F1898190E037C040E00E945D0C88239B
:100C600081F1F501E958FC4FD401CF010196E81755
:100C7000F90719F021912D93FACFEFEF8E1A9E0A02
:100C8000F60182859385A485B5850196A11DB11DC8
:100C900082879387A487B58780E090E057CF74015F
:100CA00001E010E09501AB01BC01809177059091C6
:100CB00078050E94DA04882321F0BFEF8B1A9B0A83
:100CC000DFCF8FEF9FEF0F900F90DF91CF911F91AC
:100CD0000F91FF90EF90DF90CF90BF90AF909F90DB
:100CE0008F907F906F905F904F903F902F900895DE
:100CF0004F925F926F927F929F92AF92BF92CF92EC
:100D0000DF92EF92FF920F931F93CF93DF93CDB7B4
:100D1000DEB72B970FB6F894DEBF0FBECDBF7C01B8
:100D2000DC011596AC90A1108AC1FE0131966F01CD
:100D300090E28BE08E0F91938E13FDCFDA0130E0BD
:100D400087E09D91992339F19E3219F0EEE0F1E0B0
:100D50000AC08A3009F474C138E08AE0F2CF3196D3
:100D6000491709F46DC144914111F9CF831708F473
:100D700067C14FED490F4E3508F062C141E0430FA6
:100D8000F601E30FF11D3FE9390F3A3108F49052B3
:100D90009083342FD6CF8981803209F451C1B22E8D
:100DA0008B01DB015B968D919C915C97F701948F91
:100DB000838F16961D921D921D921C921997FB010E
:100DC0001286138614861586712CF8018285938508
:100DD000A485B585438954896589768984179507E3
:100DE000A607B70708F061C025E0B695A7959795C7
:100DF00087952A95D1F7F82FFF706F2ED801159699
:100E00008C91823008F41CC1C8010E946E0597FDC8
:100E100017C1F80182859385A485B5854F96A11DDC
:100E2000B11D82879387A487B587F0E26F9EC001CA
:100E30001124BC0169587C4F6115710509F400C18A
:100E4000DB012C91222319F0253EC1F427C071103B
:100E50000EC0F701628A4091010150910201609138
:100E600003017091040146875787608B718BFC01E9
:100E7000E958FC4F8081811113C015C04BE050E050
:100E8000C6010E94BE25892B09F09FCF8B2D807350
:100E9000803309F4D5C04B2D662DCCC07720C9F224
:100EA0007724739492CF772473948B2D827182313F
:100EB00009F0C6C07720D1F0D7011E966D917D91C3
:100EC0008D919C91519741E00E945D0C882309F41B
:100ED000B7C0F7016289F0E26F9FB0011124695831
:100EE0007C4F6115710509F079C0AAC0D80115962B
:100EF0008C91823009F4A4C0C8010E940C0388239D
:100F000009F49EC0D8015B96ED91FC915C97169612
:100F10004D905D906D907C901997B2E04B1A5108FE
:100F200061087108058404C0440C551C661C771CBC
:100F30000A94D2F786859785A089B189480E591EF3
:100F40006A1E7B1E9480E1E04E1A51086108710808
:100F5000992009F10E94220C882309F471C0E7E767
:100F6000F3E0119225E0E737F207D9F7D301C20188
:100F7000890D911DA11DB11D809301019093020166
:100F8000A0930301B0930401809169038160809371
:100F900069039A94DDCFD8015B96ED91FC915C9743
:100FA00080E092E0A0E0B0E0058404C0880F991FC3
:100FB000AA1FBB1F0A94D2F7F80143895489658997
:100FC0007689840F951FA61FB71F838B948BA58BE3
:100FD000B68BD70152961C9267E773E080E2FB0163
:100FE00011928A95E9F78BE0F601DB0101900D92F1
:100FF0008A95E1F781E298E2DB0151969C938E930A
:10100000509720E038E01F963C932E931E975396FE
:101010009C938E93529759969C938E93589757967C
:101020003C932E9356970E94220C882349F04B2D17
:10103000F7016289C7010E94DC01A82E01C0A12C22
:101040008A2D2B960FB6F894DEBF0FBECDBFDF9171
:10105000CF911F910F91FF90EF90DF90CF90BF90B5
:10106000AF909F907F906F905F904F900895FC019C
:10107000818D928D009711F00C946E058FEF9FEF8C
:1010800008950F931F93CF93DF93FC01818D928D71
:101090000097B9F0EF010E946E058C010F3F8FEFB2
:1010A000180791F0898D9A8DFC01428553856485DE
:1010B000758541505109610971090E94710EC8017D
:1010C00005C080E090E002C08FEF9FEFDF91CF91ED
:1010D0001F910F910895EF92FF920F931F93CF935B
:1010E000DF93EC017901411551056105710511F49A
:1010F00082E13CC08B85833039F089E0440F551F75
:10110000661F771F8A95D1F79A01AB0168E1CE017E
:101110000E947804882311F084E028C08EEF0E949A
:10112000200487018EEFF81AF80181918F010E9447
:1011300020040E151F05C1F78FEF0E9420048FEFCA
:101140000E9420040E9427048A878F71853031F025
:1011500081E18D83CE010E94150409C068E572E02B
:10116000CE010E942A04811107C085E18D83CE0142
:101170000E94150480E013C020E030E0A9016DE07A
:10118000CE010E947804811104C00E9427048823A4
:1011900011F084E1EBCFCE010E94150481E0DF91D4
:1011A000CF911F910F91FF90EF900895FC01DB010B
:1011B00012968D919C9113979383828384E491E09E
:1011C0009183808314968C911497848315968C91C7
:1011D0001597858316964D915D916D917C91199728
:1011E00046835783608771871A964D915D916D9103
:1011F0007C911D9742875387648775871E964D9112
:101200005D916D917C91519746875787608B718B6B
:1012100052968C915297828B53964D915D916D9120
:101220007C915697438B548B658B768B57964D915B
:101230005D916D917C915A97478B508F618F728F22
:101240005B968D919C915C97948F838F0895EF921C
:10125000FF920F931F93CF93DF93EC017B018A01E1
:101260001B821A8288EE93E0A0E0B0E08C839D831D
:10127000AE83BF838CE491E0998388838DE190E015
:101280000E94C2239A8F898F009779F02DE1F70190
:10129000DC0101900D922A95E1F74CE050E0B80195
:1012A000CE010C960E94E625188EDF91CF911F91FA
:1012B0000F91FF90EF9008951F920F920FB60F922B
:1012C00011242F933F934F935F936F937F938F934B
:1012D0009F93AF93BF93EF93FF93E0914A02F091F6
:1012E0004B02309709F451C0968DA685B785858548
:1012F00091FF04C09C91892329F447C09C918923C4
:1013000009F043C0A389B4899C918589809589237C
:101310008C93868997890197F1F7608D718DA685E9
:10132000B785558538E020E0CB010197F1F7822F92
:1013300090E095958795282F4C91452309F02068DA
:10134000315091F7868D81FD20958091490290E082
:1013500001968F73992730914802381749F0A09170
:101360004902B0E0A95DBC4F2C938093490203C0B1
:10137000868D8160868F828D938D0197F1F7A38989
:10138000B4899C918589892B8C93FF91EF91BF91B2
:10139000AF919F918F917F916F915F914F913F910D
:1013A0002F910F900FBE0F901F901895E0914A0259
:1013B000F0914B02E817F90769F4A389B4899C916D
:1013C0008589809589238C9310924B0210924A0252
:1013D00081E0089580E00895FC01918D828D981739
:1013E00061F0828DDF01A80FB11D5D968C91928D09
:1013F0009F5F9F73928F90E008958FEF9FEF089506
:10140000FC01918D828D981731F0828DE80FF11DCE
:10141000858D90E008958FEF9FEF0895FC01918DE9
:10142000228D892F90E0805C9F4F821B91098F73E2
:101430009927089589E795E00E940E0A21E0892BFB
:1014400009F420E0822F0895FC01848DDF01A80FAC
:10145000B11DA35ABF4F2C91848D90E001968F73DC
:101460009927848FA689B7892C93A089B1898C91FB
:1014700080648C93938D848D981306C00288F389C1
:10148000E02D80818F7D80830895EF92FF920F93EE
:101490001F93CF93DF93EC0181E0888F9B8D8C8D20
:1014A000981305C0E889F989808185FD24C0F62E4E
:1014B0000B8D10E00F5F1F4F0F731127E02E8C8DE7
:1014C000E8120CC00FB607FCFACFE889F9898081D1
:1014D00085FFF5CFCE010E94240AF1CF8B8DFE014E
:1014E000E80FF11DE35AFF4FF0820B8FEA89FB8969
:1014F0008081806207C0EE89FF896083E889F9896D
:1015000080818064808381E090E0DF91CF911F91A2
:101510000F91FF90EF900895CF93DF93EC01888DAA
:101520008823C9F0EA89FB89808185FD05C0A889E7
:10153000B9898C9186FD0FC00FB607FCF5CF80816D
:1015400085FFF2CFA889B9898C9185FFEDCFCE01B7
:101550000E94240AE7CFDF91CF91089580E090E0C8
:10156000892B29F00E941A0A81110C940000089519
:101570000E94B9251F920F920FB60F9211242F933C
:101580003F934F935F936F937F938F939F93AF930B
:10159000BF93EF93FF9389E795E00E94240AFF91A0
:1015A000EF91BF91AF919F918F917F916F915F91DB
:1015B0004F913F912F910F900FBE0F901F90189554
:1015C0001F920F920FB60F9211242F938F939F9318
:1015D000EF93FF93E0918905F0918A058081E09176
:1015E0008F05F091900582FD12C090818091920547
:1015F0008F5F8F7320919305821751F0E0919205D0
:10160000F0E0E758FA4F958F8093920501C08081F2
:10161000FF91EF919F918F912F910F900FBE0F909F
:101620001F901895833081F028F4813099F0823032
:10163000A1F008958730A9F08830B9F08430D1F452
:10164000809180008F7D03C0809180008F77809390
:101650008000089584B58F7702C084B58F7D84BDE6
:1016600008958091B0008F7703C08091B0008F7D86
:101670008093B00008951F93CF93DF93282F30E01D
:10168000F901E650FF4F8491F901EA5BFE4FD491D6
:10169000F901EE5CFE4FC491CC23C9F0162F8111E5
:1016A0000E94120BEC2FF0E0EE0FFF1FE25EFE4FE8
:1016B000A591B4918FB7F894111105C09C91ED2FAD
:1016C000E095E92302C0EC91ED2BEC938FBFDF9105
:1016D000CF911F910895CF93DF9390E0FC01EA5BD7
:1016E000FE4F2491FC01EE5CFE4F8491882361F152
:1016F00090E0880F991FFC01E051FF4FC591D491F4
:10170000FC01E25EFE4FA591B491611109C09FB743
:10171000F8948881209582238883EC912E230BC036
:10172000623061F49FB7F8943881822F80958323CB
:101730008883EC912E2B2C939FBF06C08FB7F89413
:10174000E8812E2B28838FBFDF91CF9108953FB77B
:10175000F8948091730390917403A0917503B091F4
:10176000760326B5A89B05C02F3F19F00196A11D51
:10177000B11D3FBFBA2FA92F982F8827820F911D27
:10178000A11DB11DBC01CD0142E0660F771F881F6E
:10179000991F4A95D1F708952FB7F89460916F0378
:1017A0007091700380917103909172032FBF08951F
:1017B0001F920F920FB60F9211242F933F938F9386
:1017C0009F93AF93BF9380916F0390917003A0910B
:1017D0007103B091720330916E0323E0230F2D3714
:1017E00020F40196A11DB11D05C026E8230F029625
:1017F000A11DB11D20936E0380936F03909370031E
:10180000A0937103B093720380917303909174035A
:10181000A0917503B09176030196A11DB11D80932F
:10182000730390937403A0937503B0937603BF91F1
:10183000AF919F918F913F912F910F900FBE0F907D
:101840001F901895809169038823A9F140910101A7
:1018500050910201609103017091040127E733E088
:1018600080917705909178050E946B08811102C0E4
:1018700080E0089540916A0350916B0360916C037E
:1018800070916D03411551056105710591F027E7D0
:1018900033E080917705909178050E946B0888234A
:1018A00039F310926A0310926B0310926C0310923A
:1018B0006D031092690381E008958F929F92AF9219
:1018C000BF92EF92FF920F931F93CF934B015C0156
:1018D000C42F8091010190910201A0910301B09168
:1018E000040188159905AA05BB0501F10E94220C87
:1018F000811102C080E020C087E7E82E83E0F82E47
:1019000000E012E020E030E0B501A401809177050D
:10191000909178050E94DA04882361F38092010196
:1019200090920201A0920301B09204018091690398
:10193000C82BC093690381E0CF911F910F91FF9055
:10194000EF90BF90AF909F908F9008954F925F92CD
:101950006F927F928F929F92AF92BF92CF92DF92BF
:10196000EF92FF920F931F93CF93DF93EC016A01E5
:101970007B0128013901423051056105710510F4E0
:1019800080E073C089859A85AB85BC850196A11DD1
:10199000B11D84179507A607B70790F38B889C881D
:1019A000AD88BE888F89803129F4BB27AF2D9E2D4D
:1019B0008D2D09C0DB01CA0147E0B695A795979523
:1019C00087954A95D1F7880E991EAA1EBB1E809155
:1019D000010190910201A0910301B09104018816C8
:1019E0009906AA06BB0679F48F898031A1F4DD241B
:1019F000EE24FF24C601880F991FFC01E958FC4F13
:101A00005182408219C040E0C501B4010E945D0CC2
:101A10008111EACFB5CFE894C7F8DD24EE24FF2486
:101A2000C601880F991F880F991FFC01E958FC4FC8
:101A300040825182628273828091690381608093C7
:101A400069038A89823080F08D819E81AF81B8855B
:101A5000880E991EAA1EBB1E80926A0390926B0389
:101A6000A0926C03B0926D0381E0DF91CF911F9142
:101A70000F91FF90EF90DF90CF90BF90AF909F902D
:101A80008F907F906F905F904F9008958F929F926C
:101A9000AF92BF92CF92DF92EF92FF920F931F937C
:101AA000CF93DF93FC0181859285A385B485019650
:101AB000A11DB11D84179507A607B70710F480E094
:101AC0005CC083899489A589B689C789C03129F406
:101AD000852E962EA72EBB2409C04A015B01C7E0C4
:101AE000B694A79497948794CA95D1F7E9016A01AF
:101AF0007B018F01BC01CD01680D791D8A1D9B1DE5
:101B00008090010190900201A0900301B090040127
:101B1000681579058A059B0599F4F8018789803154
:101B2000A9F4B701A601552766277727440F551F4B
:101B3000FA01E958FC4F80819181A0E0B0E018C023
:101B400040E00E945D0C8111E8CFB9CFB701A6013A
:101B50004F77552766277727440F551F440F551F8A
:101B6000FA01E958FC4F80819181A281B381BF7055
:101B700088839983AA83BB8381E0DF91CF911F91F2
:101B80000F91FF90EF90DF90CF90BF90AF909F901C
:101B90008F9008954F925F926F927F92AF92BF9213
:101BA000CF92DF92EF92FF920F931F93CF93DF9329
:101BB00000D000D0CDB7DEB78C0149835A836B8348
:101BC0007C835901C12CD12C7601412C82E0582E06
:101BD000612C712C49815A816B817C819E012F5F20
:101BE0003F4FC8010E94460D882351F1D301C20125
:101BF000F801058404C0880F991FAA1FBB1F0A940F
:101C0000D2F7C80ED91EEA1EFB1E49815A816B818C
:101C10007C818789803129F088EF9FEFAFEFBFE0AB
:101C200004C088EF9FEFA0E0B0E0481759076A07AB
:101C30007B0780F2F501C082D182E282F38281E0EB
:101C40000F900F900F900F90DF91CF911F910F91F8
:101C5000FF90EF90DF90CF90BF90AF907F906F900C
:101C60005F904F900895CF93DF93EC018D8188238F
:101C7000A1F18C8187FF2DC06E857F858889998928
:101C800041E00E945D0C882341F1EA8980E2E89FEF
:101C9000F0011124DF01A958BC4F1097F1F08D819C
:101CA000823050F44B895C896D897E895C964D93B6
:101CB0005D936D937C935F978F89988DA98DBA8D75
:101CC000E958FC4F938F828FB58BA48B8C818F77D3
:101CD0008C83DF91CF910C94220C80E0DF91CF9127
:101CE00008958F929F92AF92BF92CF92DF92EF9220
:101CF000FF920F931F93CF93DF93EC018D8181119E
:101D000002C080E077C00B891C892D893E890417A9
:101D1000150726073707A8F36A017B01823029F4EB
:101D2000CA86DB86EC86FD860DC0C114D104E104B1
:101D3000F10451F41E821F82188619861A861B86AA
:101D40001C861D8681E056C08A849B84AC84BD8439
:101D5000EB8DFC8D258530E0275F3F4FB501A40159
:101D60004150510961097109022E04C076956795A9
:101D7000579547950A94D2F7D701C6010197A10953
:101D8000B10904C0B695A795979587952A95D2F77E
:101D900084179507A607B70720F089288A288B287B
:101DA00049F44F89588D698D7A8D4E835F8368879A
:101DB000798704C0841B950BA60BB70B4C015D0102
:101DC0008E010A5F1F4F81149104A104B10409F42C
:101DD000A7CF4E815F816885798598018B8D9C8D19
:101DE0000E94460D91E0891A9108A108B10881115D
:101DF000EACF87CFDF91CF911F910F91FF90EF90A6
:101E0000DF90CF90BF90AF909F908F9008952F92CA
:101E10003F924F925F926F927F928F929F92AF927A
:101E2000BF92CF92DF92EF92FF920F931F93CF93C7
:101E3000DF9300D000D0CDB7DEB78C015B011A0173
:101E4000DC0115968C9115978130C9F414968C910C
:101E500081FF15C082FF1BC0F80143895489658941
:101E6000768982859385A485B58584179507A6070D
:101E7000B70769F0C8010E94710E811108C081E0A6
:101E800090E0F8019383828380E090E039C16101A2
:101E900083C0D8015B968D919C915C97FC01248155
:101EA00021502A013B0139E0769467945794479476
:101EB0003A95D1F7722E74207A01F1E0FF22772053
:101EC00009F476C080E092E08E199F0946018C15D6
:101ED0009D0508F44C01D8015B962D913C915C97CF
:101EE00016968D919D910D90BC91A02D0297A10900
:101EF000B109F901058404C0880F991FAA1FBB1FEF
:101F00000A94D2F74685578560897189840F951F99
:101F1000A61FB71F9C01AD01270D311D411D511D8D
:101F200029013A01811432E0930609F088C08091BA
:101F3000010190910201A0910301B0910401841567
:101F40009505A605B70559F48FEF9FEFDC01809347
:101F5000010190930201A0930301B0930401950144
:101F6000B301A20180917705909178050E946B08DA
:101F7000882309F484CF9EEFB91AC818D908F8014C
:101F800082859385A485B585880D991DA11DB11DF8
:101F900082879387A487B587D8011A964D915D9162
:101FA0006D917C911D97C114D10409F072CF87C047
:101FB000E114F10409F086CF16964D915D916D9173
:101FC0007C911997411551056105710559F4579692
:101FD0008D919D910D90BC91A02D0097A105B1050B
:101FE00041F521C09E012F5F3F4F0E94460D88237F
:101FF00009F44BCF89819A81AB81BC81F801238D93
:10200000348DF9012789203129F048EF5FEF6FEF18
:102010007FE004C048EF5FEF60E070E08417950751
:10202000A607B70730F0C8010E940C0381114ACF00
:1020300026CFF80186839783A087B18743CFE11429
:10204000F10429F5D8011A964D915D916D917C911D
:102050001D9753968D919D910D90BC91A02D481781
:1020600059076A077B0798F00E94220C882309F41D
:1020700006CF4092010150920201609203017092DA
:1020800004018091690381608093690308C041E085
:10209000C301B2010E945D0C882309F4F0CED50182
:1020A000F701E958FC4FCF01880D991DE817F90792
:1020B00019F02D912193FACFA80CB91C5ECF53963D
:1020C0008D919D910D90BC91A02D84179507A60729
:1020D000B70740F4F801438B548B658B768B848172
:1020E00080688483D80114968C9183FD02C0C1015D
:1020F00007C0C8010E94330E882309F4C0CEF7CF71
:102100000F900F900F900F90DF91CF911F910F9133
:10211000FF90EF90DF90CF90BF90AF909F908F9007
:102120007F906F905F904F903F902F900895CF9346
:10213000DF931F92CDB7DEB7698341E050E0BE0167
:102140006F5F7F4F0E94070F0F90DF91CF9108952F
:10215000CF92DF92EF92FF920F931F93CF93DF9373
:102160006C017A018B01C0E0D0E0CE15DF0589F06B
:10217000D8016D918D01D601ED91FC910190F08116
:10218000E02DC6010995892B11F47E0102C021962C
:10219000ECCFC701DF91CF911F910F91FF90EF908E
:1021A000DF90CF900895E0917E06F0917F068E1724
:1021B0009F07F0F530918306332361F0639FB001F0
:1021C0001124672F439FA0011124452F239F9001C5
:1021D0001124232F3091890650918606E0918406C0
:1021E000F0918506351308C0DC01AA0FBB1F8A0FCA
:1021F0009B1F8E0F9F1F0AC0880F991F880F991F62
:102200008E0F9F1FFC01E30FF11D10823091860697
:10221000FC01E30FF11D608330918706FC01E30FA1
:10222000F11D408330918806FC01E30FF11D2083EE
:1022300008958F929F92AF92BF92CF92DF92EF92CA
:10224000FF92CF93DF93C82F88E196E090937805B3
:1022500080937705CC2369F1C53010F080E00DC183
:1022600040E060E070E0CB010E945D0C8823B1F398
:1022700020E1C29FC001112489599C4FFC01E25406
:10228000FE4F20812F7751F73C964081518162812A
:102290007381443651056105710500F33497C080A0
:1022A000D180E280F380C114D104E104F10421F46F
:1022B000D5CFC12CD12C760140E0C701B6010E94D8
:1022C0005D0C882359F280918203909183038115DC
:1022D000924021F6A0918703AA2309F4BFCF609111
:1022E0008503709186036115710509F4B7CF2091BC
:1022F0008403222309F4B2CFA09336062093280644
:1023000080E030E0E1E0F0E0C82FAF01082E02C02D
:10231000440F551F0A94E2F72417350741F0982F10
:102320008F5F983089F789E08093310697CF80934B
:10233000310620918D0330918E032115310519F05E
:1023400040E050E008C020919B0330919C034091F5
:102350009D0350919E032093290630932A064093B3
:102360002B0650932C0646015701860E971EA11C82
:10237000B11C8092370690923806A0923906B0922E
:102380003A06E0918803F0918903F0933D06E093CB
:102390003C06B0E00E949C2C860E971EA81EB91E1B
:1023A00080923E0690923F06A0924006B09241066F
:1023B00085E0EE0FFF1F8A95E1F7E150FE4FEF2F0A
:1023C000FF27E6958E0E9F1EA11CB11C809232063F
:1023D00090923306A0923406B092350620918A037B
:1023E00030918B032115310521F0A90160E070E0E7
:1023F00008C04091970350919803609199037091A0
:102400009A03D701C60188199909AA09BB09840F43
:10241000951FA61FB71F04C0B695A79597958795DA
:10242000CA95D2F780932D0690932E06A0932F067F
:10243000B0933006853F2FE09207A105B10510F457
:102440008CE018C0853F9F4FA105B10510F480E1D5
:1024500011C08091A3039091A403A091A503B09112
:10246000A60380933E0690933F06A0934006B09348
:10247000410680E280933B0681E0DF91CF91FF909F
:10248000EF90DF90CF90BF90AF909F908F90089586
:10249000CF93DF93FC01248135814217530780F4E9
:1024A000FB01DC01CD91DC9160817181CE01840F53
:1024B000951F0E94F525009719F08C1B9D0B02C0FB
:1024C0008FEF9FEFDF91CF910895EF92FF920F93DF
:1024D0001F93CF93DF93EC01198218821B821A821B
:1024E0001D821C8261157105A9F17B01FB01019020
:1024F0000020E9F731978F01061B170BB8016F5FBA
:102500007F4F80E090E00E94EF24009759F099837C
:1025100088831B830A832C813D81232B81F4FC015A
:1025200010820DC088819981009711F00E94572474
:10253000198218821D821C821B821A820BC01D8385
:102540000C83B701DF91CF911F910F91FF90EF9016
:102550000C94DF25DF91CF911F910F91FF90EF90A9
:1025600008956115710579F0FB0101900020E9F7EC
:102570003197AF01461B570BDC01ED91FC910280B6
:10258000F381E02D099480E090E008958F929F926E
:10259000AF92BF920F931F93CF93DF93CDB7DEB768
:1025A000A1970FB6F894DEBF0FBECDBF19A242307F
:1025B00008F44AE08E010F5D1F4F842E912CA12C50
:1025C000B12CA50194010E947A2CE62FB901CA0111
:1025D00001501109EA3014F4E05D01C0E95CD80152
:1025E000EC93232B242B252B61F7B80181E696E091
:1025F0000E94B112A1960FB6F894DEBF0FBECDBFF8
:10260000DF91CF911F910F91BF90AF909F908F90CE
:1026100008954F925F926F927F928F929F92AF92A6
:10262000BF92CF92DF92EF92FF926B017C01B42EAA
:102630009B01AC010E94A823882319F069E372E092
:1026400027C026013701E89477F82FEF3FEF4FE7D7
:102650005FE7C301B2010E94A82381110DC02FEFD3
:102660003FEF4FE75FE7C301B2010E94462B181608
:102670001CF46DE372E00CC02FEF3FEF4FE75FE417
:10268000C701B6010E944923181694F461E472E070
:1026900081E696E0FF90EF90DF90CF90BF90AF90F3
:1026A0009F908F907F906F905F904F900C94B1129D
:1026B0002FEF3FEF4FE75FECC701B6010E94462BBB
:1026C00087FDE4CF20E030E0A901C701B6010E94F8
:1026D000462B87FF11C0E0916106F09162060190E0
:1026E000F081E02D6DE281E696E009954C01F7FA64
:1026F000F094F7F8F09402C0812C912CA12C60E0AA
:1027000070E080E09FE3AB1441F020E030E040E275
:1027100051E40E940722A394F6CF9B01AC01C701AC
:10272000B6010E9409212B013C010E9480226B010D
:102730007C010E944B2B9B01AC01C301B2010E94A2
:1027400008212B013C014AE0C701B6010E94C612D4
:102750007C01E80CF91CBB2041F065E472E081E6E5
:1027600096E00E94B112E80EF91EDB2CDD2021F16B
:1027700020E030E040E251E4C301B2010E94AC2B02
:102780002B013C010E9480224B01A12CB12C4AE07C
:10279000C501B4010E94C612E80EF91EC501B401BC
:1027A0000E944B2B9B01AC01C301B2010E94082186
:1027B0002B013C01DA94DACFC701FF90EF90DF9054
:1027C000CF90BF90AF909F908F907F906F905F90D1
:1027D0004F9008950F931F93CF93DF93EC010E94C6
:1027E000B1128C0166E372E0CE010E94B112800F3B
:1027F000911FDF91CF911F910F910895CF93DF9398
:10280000CDB7DEB7CB5AD1090FB6F894DEBF0FBEF5
:10281000CDBF789484B5826084BD84B5816084BD69
:1028200085B5826085BD85B5816085BD80916E006E
:10283000816080936E00109281008091810082609F
:1028400080938100809181008160809381008091DC
:1028500080008160809380008091B10084608093CB
:10286000B1008091B00081608093B00080917A00C7
:10287000846080937A0080917A00826080937A00ED
:1028800080917A00816080937A0080917A008068DC
:1028900080937A001092C100609183066A3121F121
:1028A0002091840630918506615031F070E08FEF01
:1028B00099E10E94DA2002C060E070E0F9014091E5
:1028C000800650918106CF01821B930B84179507D8
:1028D00040F44081469FC001479F900D1124919381
:1028E000EECF8AE18093830660E871E089E795E0A6
:1028F0000E94EA1361E086E00E946B0B61EA71E0DE
:1029000089E795E00E94EA138AE991ECA4EEB1E42C
:102910008093590290935A02A0935B02B0935C0299
:102920008FED9BE9A2EAB2EC80935D0290935E0288
:10293000A0935F02B09360021092230610922106CA
:1029400010921E0610921D068AE080931C060E94BB
:10295000CC0B8B0161E080911C060E946B0B61E047
:1029600080911C060E943B0BFFB6F89480914C02AC
:10297000811127C0ECE3F1E08491E0E5F1E094916E
:10298000E82FF0E0EE0FFF1FE051FF4FA591B4914B
:10299000EC91E92321F461E08AE00E943B0B61E0C5
:1029A0008AE00E946B0B8CB580618CBD8CB5806415
:1029B0008CBD61E08DE00E946B0B61E08BE00E94BA
:1029C0006B0B80914C028F5F80934C02FFBE82E5BF
:1029D000809316061092170680911606909117069E
:1029E0000E945F04AAE0FA2E8FEF0E942004FA945E
:1029F000F110FACF88E196E00E94620420E030E016
:102A0000A90160E088E196E00E947804F82E8093A6
:102A1000220681E0F81649F00E94CC0B601B710B76
:102A2000613D774058F381E056C02AEA31E040E04A
:102A300050E068E088E196E00E94780482FF03C0DD
:102A4000F092230610C0F4E0FF2E0E94270480932A
:102A50002206FA94F110F9CF8A3A11F082E03BC0D5
:102A600082E08093230680912306823021F0C12CDE
:102A7000D12C760105C0C12CD12CE12CE0E4FE2E36
:102A800020E030E0A90167E388E196E00E94780445
:102A9000A701960169E288E196E00E94780480939C
:102AA0002206882349F00E94CC0B601B710B613D0C
:102AB000774030F388E00FC080912306823001F523
:102AC00020E030E0A9016AE388E196E00E94780402
:102AD000882341F086E080931D0688E196E00E94FD
:102AE000150479C20E942704807C803C19F483E09D
:102AF000809323060E9427040E9427040E94270433
:102B000088E196E00E94150480E5809316061092F5
:102B1000170681E00E941911882329F08091470649
:102B2000882341F058C280E00E941911882309F4DB
:102B300052C2F4CF80913B06803109F582E0809348
:102B400047061092590610925A0610925B06109290
:102B50005C0680913C0690913D06A0E0B0E075E0F7
:102B6000880F991FAA1FBB1F7A95D1F7809355062E
:102B700090935606A0935706B09358061FC0803214
:102B800009F029C283E08093470640913E065091A8
:102B90003F0660914006709141064093590650935C
:102BA0005A0660935B0670935C0625E536E084E286
:102BB00096E00E94CA0D882309F40DC284E296E0D3
:102BC00090935E0680935D0681E0809346061092A6
:102BD00048061092490610924A0610924B0610922F
:102BE0004C0610924D0610924E0610924F0610920F
:102BF00050061092510610925206109253061092EF
:102C00005406612C712C8E010D581F4FA0910B01A1
:102C1000B0910C01CC57DF4FB983A883C458D04082
:102C2000F8013296C457DF4FF983E883CC58D0407F
:102C30005E01FBE3AF0EB11CCE0101966C01CC57D7
:102C4000DF4FE881F981C458D040D801ED93FC935F
:102C50008AE0C457DF4FA881B981CC58D0401D927B
:102C60008A95E9F77F926F92A5EBB1E0BF93AF939E
:102C70001F930F930E940F261EAE1DAE84E491E0B9
:102C80009CAF8BAF21961FAE219719A218A29F8FE0
:102C90008E8F1BA20F900F900F900F900F900F90A0
:102CA000512C412C9A2C8B2C62E4E62E66E0F62EF9
:102CB000252D342DF801E20FF31F80818F3211F49E
:102CC0002F5F3F4FFE01E85AFF4F40E050E0D80130
:102CD000A20FB31F8C918F3251F0882341F04F5FC8
:102CE0005F4F2F5F3F4F81934C30510581F7E8E5EF
:102CF000F0E0EC0FFD1FE40FF51F1082F801E20F6A
:102D0000F31F80818F3211F42F5F3F4F522E432EDD
:102D1000F801E20FF31F30801C821B82A4E4B1E0B3
:102D2000BA83A9831E8221E0AE01485A5F4FB701E2
:102D3000C6010E947806882331F0C6010E94000374
:102D400031100AC025C0B2E4EB16B6E0FB0681F1F3
:102D5000C7010E9400032CC021E0AE01485A5F4F1A
:102D6000B701892D982D0E947806382EE2E4EE16E0
:102D7000E6E0FE0611F40C946E1FC7010E940003EA
:102D80003320B1F09E2D8F2DE92CF82C4C0190CFE3
:102D9000F2E4EF16F6E0FF0619F0C7010E94000307
:102DA00023E66216710409F00EC1109200010BC1F6
:102DB0003E018EE1680E711C62E476E0C3010E9460
:102DC000D6081C821B8284E491E09A8389831E8248
:102DD0003C2C2D2C230148016FE270E0C4010E94BD
:102DE000D425009709F445C0D4012C912F3249F421
:102DF000BFEF8B1A9B0AC101342C252C492E582E6B
:102E000032C088198D3008F08CE0E82EF12CA70133
:102E1000B401CE01885A9F4F0E94E625E8E5F0E014
:102E2000EC0FFD1FEE0DFF1D1082832D922D0E94D1
:102E3000000321E0AE01485A5F4FB201832D922D6D
:102E40000E94780681110AC01EAE1DAE84E491E096
:102E50009CAF8BAF21961FAE219718C08E0C9F1C84
:102E6000C2010E940003942D852D432C522C1C017D
:102E7000B3CFF401E01BF10BC857DF4FF983E883B0
:102E8000C858D040B201C5010E94D608C857DF4FCC
:102E900088819981C858D040080F191FD8018C919A
:102EA000811107C0B501C6010E94D60842EC51E06D
:102EB00044C019A218A284E491E09F8F8E8F1BA2B8
:102EC00021968FAD2197811116C06C961FAE1EAE54
:102ED0006C9788EE93E0A0E0B0E0A0968CAF9DAF39
:102EE000AEAFBFAFA097E3961FAE1EAEE397A59619
:102EF0001FAEA59728C0825023E1A801823040F47C
:102F000062E476E0C3010E94780681110AC0DDCF39
:102F1000B501C3010E9478068823B9F2C5010E9459
:102F2000000349A95AA96BA97CA9C3010E94710E8B
:102F3000B301C6010E94D608A801B601CE01885A85
:102F40009F4F0E9427096C968EAD9FAD6C97909312
:102F5000640680936306A0968CAD9DADAEADBFAD0B
:102F6000A0978093650690936606A0936706B0933A
:102F70006806A4968CAD9DADAEADBFADA497809311
:102F8000690690936A06A0936B06B0936C068DE079
:102F9000E8E5F0E0EC0FFD1F3C96ADE6B6E00190F1
:102FA0000D928A95E1F7E396EEADFFADE397F093CE
:102FB0007B06E0937A06309719F0858181110BC06A
:102FC0001092000108C0BFEF6B1A7B0AE4E66E1690
:102FD000710409F034CE1092AC061092AB06109238
:102FE000AA061092A9061092A8061092A7068DE9CB
:102FF00091E09093AE068093AD0690919D06963138
:1030000008F057C02DEB30E03093A8062093A706B8
:103010002BE931E03093AA062093A9062CE231E097
:103020003093AC062093AB0620916800983050F0A6
:1030300031E09E3008F430E081E001C0880F3A951D
:10304000EAF701C084E0822B80936800983038F062
:103050009E3040F0963148F020E030E008C02DE688
:1030600030E005C02BE630E002C02CE630E03093C3
:10307000A5062093A406983030F481E001C0880FA3
:103080009A95EAF70EC0292F30E09E3018F42850A8
:10309000310902C02E50310981E001C0880F2A9504
:1030A000EAF78093A6068091AD069091AE0601974F
:1030B000F1F78091AB069091AC06892B21F18091BC
:1030C0004A0290914B02F6E081399F07E1F00097A8
:1030D00011F00E94D6098091AF068E7F8093AF06D3
:1030E000109249021092480281E996E090934B02B7
:1030F00080934A02E091A406F091A5069081809108
:10310000A606892B808364EC71E081E996E00E9439
:10311000EA1365ED71E081E996E00E94EA136EEE34
:1031200071E081E996E00E94EA138BE0EFE8F2E0BB
:10313000DF01282F1D922A95E9F7EFE7F2E0DF0182
:103140001D928A95E9F787E0EFE9F2E0DF011D9231
:103150008A95E9F762E083E00E946B0B55E3252E28
:1031600051E0352E08E813E1EDEFF0E08491E9E459
:10317000F1E0E490F101F490FF2089F081110E94C8
:10318000120BEF2DF0E0EE0FFF1FE85DFE4FA59153
:10319000B4918C91E82219F01092260317C00150C7
:1031A000110911F78091260381110DC080917902D8
:1031B00090917A02019664E070E00E94EE20909374
:1031C0007A028093790281E08093260380E8E6EA20
:1031D000F2E0DF011D928A95E9F710E081E996E0BF
:1031E0000E942E010196D1F381E996E00E94B3017D
:1031F000E12FF0E0EA55FD4F8083112329F084325E
:1032000019F48093A60210E08091A602843231F76F
:1032100081E0810FE12FF0E0EA55FD4F90819A3077
:1032200011F0182FDBCF90E0FC01EC55FD4F108220
:103230008C0105501109F801EA55FD4F20812A3211
:1032400061F640E150E060E070E08E559D4F0E94D5
:10325000B02821E0822F90E0801791073CF4FC0118
:10326000EA55FD4F808168272F5FF4CF6111B5CFFC
:103270008091B802813409F0B0CF8091A9028235E3
:1032800009F0A5C366EA72E0CE014E960E9465126F
:1032900022E00FEF1FEF60E272E0CE010196C5550C
:1032A000DF4F2883CB5AD0400E946512A8014F5FA0
:1032B0005F4FBE016F5F7F4FCE014E960E94481256
:1032C0008C0189819A810E945724C555DF4F28813E
:1032D000CB5AD040213011F021E0DDCFF801EA5582
:1032E000FD4F8181813411F010E09CC07801E3E052
:1032F000EE0EF11C60E272E0CE0101960E946512B2
:10330000A8014C5F5F4FBE016F5F7F4FCE014E96AD
:103310000E9448128C0189819A810E9457240F3F94
:10332000FFEF1F0709F3A8014E195F09B7016A559E
:103330007D4F8FE892E00E94CB25F801EA55FD4FC2
:10334000818180939A020D5F1F4F60E272E0CE018F
:1033500001960E946512A801BE016F5F7F4FCE01EA
:103360004E960E9448127C0189819A810E945724BE
:103370002FEFE216F20609F4B7CFA701401B510B5D
:10338000B8016A557D4F8FE792E00E94CB25F70187
:10339000EA55FD4F818180938A0260E272E0CE019E
:1033A00001960E946512A7014D5F5F4FBE016F5FDE
:1033B0007F4FCE014E960E9448128C0189819A81DE
:1033C0000E9457240F3F8FEF180709F48DCF0F5F2E
:1033D0001F4F60E272E0CE0101960E946512A801C3
:1033E000BE016F5F7F4FCE014E960E9448127C0156
:1033F00089819A810E9457249FEFE916F90609F402
:1034000073CFA701401B510BB8016A557D4F8FE95F
:1034100092E00E94CB2562E272E089E795E00E948B
:10342000EA1311E08E8D9F8D0E945724112309F419
:10343000CEC28FE992E00E94C12960939B027093F3
:103440009C0280939D0290939E028FE892E00E94DE
:10345000C1290E94792224E6E22EF12CCB01B7018A
:103460000E94EE206B018FE892E00E94C1292B019F
:103470003C01B6010D2C000C880B990B0E944D2BC2
:103480004B015C0114E61C9DB0011D9D700D1124C3
:10349000072E000C880B990B0E944D2B9B01AC0151
:1034A000C301B2010E94082120E030E040E752E46D
:1034B0000E9407229B01AC01C501B4010E940921B1
:1034C00060938B0270938C0280938D0290938E0296
:1034D0008FE792E00E94C1290E947922CB01B701B7
:1034E0000E94EE207B018FE792E00E94C1292B0110
:1034F0003C01B7010F2C000C880B990B0E944D2B3F
:103500004B015C011E9DB0011F9D700D1124072E03
:10351000000C880B990B0E944D2B9B01AC01C30141
:10352000B2010E94082120E030E040E752E40E940E
:1035300007229B01AC01C501B4010E940921CC57AF
:10354000DF4F688379838A839B83C458D04060931C
:103550007B0270937C0280937D0290937E02809127
:103560009B0290919C02A0919D02B0919E02C8572F
:10357000DF4F88839983AA83BB83C858D0400091CA
:10358000790210917A0233E0000F111F3A95E1F7AA
:10359000075A1D4F2BED3FE049E450E4D801149643
:1035A0006D917D918D919C9117970E94AC2B20E09D
:1035B00030E044E353E40E940722C057DF4F6883A2
:1035C00079838A839B83C059D0402BED3FE049E447
:1035D00050E4CC57DF4F688179818A819B81C45840
:1035E000D0400E94AC2B20E030E044E353E40E9442
:1035F0000722CC56DF4F688379838A839B83C45923
:10360000D0409B01AC01C057DF4F688179818A812E
:103610009B81C059D0400E9408216B017C010E940F
:103620005623C456DF4F688379838A839B83CC59A2
:10363000D0402BED3FE049E450E4F8016081718116
:10364000828193810E94AC2B20E030E044E353E47C
:103650000E940722C457DF4F688379838A839B8344
:10366000CC58D0400E9402222B013C012BED3FE0C0
:1036700049E450E460918B0270918C0280918D023C
:1036800090918E020E94AC2B20E030E044E353E4A2
:103690000E9407224B015C010E940222C856DF4FA4
:1036A000688379838A839B83C859D040C457DF4F8E
:1036B000688179818A819B81CC58D0400E945623B1
:1036C0009B01AC01C501B401C555DF4F2883CB5A1E
:1036D000D040C855DF4F3883C85AD040C755DF4F58
:1036E0004883C95AD040C655DF4F5883CA5AD04084
:1036F0000E945623C056DF4F688379838A839B8359
:10370000C05AD040C701B6010E940222CC55DF4FFB
:10371000688379838A839B83C45AD040C555DF4F21
:103720002881CB5AD040C855DF4F3881C85AD04085
:10373000C755DF4F4881C95AD040C655DF4F588121
:10374000CA5AD040C856DF4F688179818A819B81EF
:10375000C859D0400E94AC2B6B017C01A30192019F
:10376000C056DF4F688179818A819B81C05AD040E1
:103770000E94AC2BCC55DF4F288139814A815B8177
:10378000C45AD0400E94AC2B9B01AC01C701B601CA
:103790000E9408216B017C01A3019201C456DF4FF6
:1037A000688179818A819B81CC59D0400E94AC2B61
:1037B000A70196010E94A32120E030E044E353E4F6
:1037C0000E94AC2B2BED3FE049E450E40E9407221D
:1037D0006B017C0120E030E0A9010E94462B87FFAD
:1037E0000AC020E030E044EB53E4C701B6010E9478
:1037F00009216B017C01C857DF4F288139814A813B
:103800005B81C858D040C701B6010E9449231816F1
:103810005CF4C857DF4F288139814A815B81C858E1
:10382000D040C701B60112C0A7019601C857DF4FAB
:10383000688179818A819B81C858D0400E94082183
:103840009B01AC0160E070E084EB93E40E940821EE
:1038500060935502709356028093570290935802DA
:10386000C457DF4F288139814A815B81CC58D040D1
:10387000C501B4010E94082120E030E040E05FE390
:103880000E94AC2B0E9456234B015C01C057DF4FB6
:10389000288139814A815B81C059D040CC56DF4FA5
:1038A000688179818A819B81C459D0400E94082116
:1038B00020E030E040E05FE30E94AC2B0E94562302
:1038C0006B017C01A5019401C501B4010E94AC2BE0
:1038D0004B015C01A3019201C856DF4F68817981D9
:1038E0008A819B81C859D0400E94AC2B2B013C019E
:1038F000A7019601C701B6010E94AC2B9B01AC0148
:10390000C301B2010E94AC2B9B01AC01C501B40103
:103910000E9409210E9464230E9475219B01AC0131
:103920000E94092120E030E747E755E40E94AC2BD4
:1039300020E030E045EA55E40E94AC2B6093510250
:103940007093520280935302909354020E94792202
:103950007093500260934F02809100018823B9F167
:1039600042E0CC57DF4F688179818A819B81C458BE
:10397000D0400E94091360E272E081E696E00E9466
:10398000B11260918B0270918C0280918D029091A6
:103990008E0242E00E94091360E272E081E696E046
:1039A0000E94B112609151027091520280915302B3
:1039B0009091540242E00E94091366E372E081E6AE
:1039C00096E00E94B11281E696E00E94D4018090B8
:1039D000510290905202A0905302B0905402C090B5
:1039E0005502D0905602E0905702F090580220E025
:1039F00030E044EB51ECC701B6010E94492387FD3A
:103A000016C020E030E044EB51E4C701B6010E944B
:103A1000462B181664F020E04FEF60E081E090E064
:103A20000E94D31010924E0210924D02D5C020E099
:103A300030E044EB51E4C701B6010E94492387FD01
:103A400014C020E030E04BE952E4C701B6010E9407
:103A5000462B181654F020E04FEF60E082E090E033
:103A60000E94D31081E090E0B3C020E030E04BE949
:103A700052E4C701B6010E94492387FD14C020E02B
:103A800030E045EF52E4C701B6010E94462B1816FC
:103A900054F020E04FEF60E08AE090E00E94D31005
:103AA00082E090E095C020E030E045EF52E4C701AD
:103AB000B6010E94492387FD14C020E030E847E2A8
:103AC00053E4C701B6010E94462B181654F020E0BB
:103AD0004FEF60E082E190E00E94D31083E090E03D
:103AE00077C020E030E045EF52ECC701B6010E94FC
:103AF000462B1816A4F020E030E847E253ECC7014B
:103B0000B6010E94492387FD0AC020E04FEF60E024
:103B100080E190E00E94D31085E090E059C020E061
:103B200030E04BE952ECC701B6010E94462B181653
:103B3000A4F020E030E045EF52ECC701B6010E944E
:103B4000492387FD0AC020E04FEF60E088E090E065
:103B50000E94D31086E090E03BC020E030E044EBD0
:103B600051ECC701B6010E94462B1816A4F020E0C4
:103B700030E04BE952ECC701B6010E94492387FDB2
:103B80000AC020E04FEF60E080E090E00E94D31098
:103B900087E090E01DC020E030E847E253E4C70131
:103BA000B6010E94492387FF0AC020E030E847E2BF
:103BB00053ECC701B6010E94462B18166CF020E0AA
:103BC0004FEF60E081E190E00E94D31084E090E04C
:103BD00090934E0280934D0298E1E92E91E0F92EE8
:103BE00000E010E080914D0290914E0208171907F5
:103BF00041F020E040E060E0D7018D919C910E946F
:103C0000D3100F5F1F4FB2E0EB0EF11C083011050F
:103C100049F788E2E82E81E0F82E00E010E080917C
:103C2000790290917A0220E00817190731F44FEFDA
:103C300060E0F7018081918105C040E060E0D7013C
:103C40008D919C910E94D3100F5F1F4FB2E0EB0E3D
:103C5000F11C0430110519F7C501B4010E94792245
:103C60007093500260934F02683EE3E07E071CF0C1
:103C700020E040E023C0643FF1E07F071CF020E03B
:103C800045E41CC06A3F71051CF020E047ED16C0FA
:103C90006B3471051CF02FEF40E005C068327105F0
:103CA00024F020E04FEF60E00AC06A30710524F094
:103CB00021EF40E061EF03C02FEF4FEF6FEF86E1A0
:103CC00090E00E94D3108091840690918506892B04
:103CD00009F401C10E94A70B00918A0610918B067E
:103CE00020918C0630918D06DC01CB01801B910B5D
:103CF000A20BB30BC297A105B10560F3F8948091B4
:103D00008006909181069CAF8BAFE0918406F09184
:103D10008506DF0111968081CD57DF4F8883C35818
:103D2000D04090917C06E0918E06F0918F068091B4
:103D30009006992309F456C09081982BCE57DF4FF7
:103D40009883C258D040908180958923CF57DF4F08
:103D50008883C158D040CF57DF4F8881C158D040A9
:103D6000E4968FAFE49788E069968FAF6997CE5756
:103D7000DF4F5881C258D040CF57DF4F6881C158BC
:103D8000D040CD57DF4F4881C358D04069963FADF2
:103D90006997E4962FADE4978BAD9CAD508347FDBA
:103DA000252F3A952083262F39F0441F00C00000AC
:103DB0006083000000C0F2CF38E04D9160830000C6
:103DC000019761F7F0938F06E0938E06CD57DF4F92
:103DD0004883C358D04069963FAF6997E4962FAFA8
:103DE000E4976CC09081982BCE57DF4F9883C258D0
:103DF000D040908180958923CF57DF4F8883C15869
:103E0000D040CF57DF4F8881C158D040C058DF4FD6
:103E10008883C058D04088E0C158DF4F8883CF578F
:103E2000D040CE57DF4F5881C258D040CF57DF4FD8
:103E30006881C158D040CD57DF4F4881C358D0402A
:103E4000C158DF4F3881CF57D040C058DF4F28814D
:103E5000C058D0408BAD9CAD508347FD252F00C08E
:103E600000C0208300C000C000C000C000C060834C
:103E70000000262F3A9541F0441F000000C000C00A
:103E800000C000C000C0E8CF38E04D9100C06083A2
:103E900000C0019709F7F0938F06E0938E06CD5787
:103EA000DF4F4883C358D040C158DF4F3883CF57C6
:103EB000D040C058DF4F2883C058D0409CAF8BAF54
:103EC00078940E94A70B60938A0670938B06809368
:103ED0008C0690938D060E94AE0A44C9882311F483
:103EE0000C94D816CE014E967C010C94C21680918B
:103EF000840690918506009711F00E9457248091C6
:103F0000820687FD03C060E00E946B0B8CE591E0A8
:103F1000909392068093910681E996E00C94D609DD
:103F200010927C0510927B0588EE93E0A0E0B0E053
:103F300080937D0590937E05A0937F05B0938005C7
:103F400024E331E030937A052093790525EC30E0C5
:103F5000309386052093850524EC30E03093880566
:103F60002093870520EC30E030938A052093890563
:103F700021EC30E030938C0520938B0522EC30E06F
:103F800030938E0520938D0526EC30E0309390051C
:103F900020938F051092920510929305109294052C
:103FA0001092950520E520931606109217061092A0
:103FB0001D0610921E06109221061092230642E062
:103FC00050E060E070E04093240650932506609333
:103FD00026067093270610923B0610924506109213
:103FE000440624E431E030934306209342061092C5
:103FF000470610929406109293068093950690932C
:104000009606A0939706B09398068CE591E090935E
:104010009206809391061092A8061092A70610921D
:10402000AA061092A9061092AC061092AB06109246
:10403000AE061092AD066091AF066E7F6D7F609305
:10404000AF066695617081E0682787E00E943B0BB0
:1040500061E087E00E946B0BEDE4F1E0E491E09316
:10406000A106E9E3F1E0E491F0E0EE0FFF1FE25E6C
:10407000FE4F859194919093A3068093A20660E0F1
:1040800088E00E946B0B8091AF0681FD04C061E067
:1040900088E00E943B0B88E080939D06EEE4F1E00F
:1040A000E491E0939E06EAE3F1E0E491F0E0EE0FA4
:1040B000FF1FE85DFE4F859194919093A006809339
:1040C0009F0610927D061092830610928A06109227
:1040D0008B0610928C0610928D0681E080938906E3
:1040E000809386061092870692E0909388068093CC
:1040F0007C0688E790E090938106809380060E947A
:10410000C2239093850680938406009761F028E788
:10411000FC0111922A95E9F788E290E090937F06DE
:1041200080937E0608C0109281061092800610923D
:104130007F0610927E0686E08093820680917D063F
:10414000882341F061E086E00E946B0B60E086E02E
:104150000E943B0BE8E3F1E0E491F0E0EE0FFF1F7B
:10416000E25EFE4F8591949190938F0680938E0628
:10417000ECE4F1E0E491E093900610926406109272
:10418000630688EE93E0A0E0B0E08093650690932C
:104190006606A0936706B09368068CE491E090935E
:1041A00062068093610610927B0610927A06109246
:1041B0006D060895AA1BBB1B51E107C0AA1FBB1FB8
:1041C000A617B70710F0A61BB70B881F991F5A95A3
:1041D000A9F780959095BC01CD01089597FB072E16
:1041E00016F4009407D077FD09D00E94DA2007FC6E
:1041F00005D03EF4909581959F4F089570956195F7
:104200007F4F0895EE0FFF1F0590F491E02D099464
:104210005058BB27AA270E9420210C94302C0E94C2
:10422000222C38F00E94292C20F039F49F3F19F4F9
:1042300026F40C941F2C0EF4E095E7FB0C94192C3B
:10424000E92F0E94412C58F3BA17620773078407BD
:10425000950720F079F4A6F50C94632C0EF4E09504
:104260000B2EBA2FA02D0B01B90190010C01CA0130
:10427000A0011124FF27591B99F0593F50F4503EDB
:1042800068F11A16F040A22F232F342F4427585FCD
:10429000F3CF469537952795A795F0405395C9F7E5
:1042A0007EF41F16BA0B620B730B840BBAF091509D
:1042B000A1F0FF0FBB1F661F771F881FC2F70EC03C
:1042C000BA0F621F731F841F48F48795779567950F
:1042D000B795F7959E3F08F0B0CF9395880F08F0FB
:1042E0009927EE0F9795879508959F939F77EEE313
:1042F00089379E0728F4E8E6F0E00E94F6220CC019
:104300000E94AF229058A2EA2AED3FE049EC5FE319
:104310000E9420210E94302C0F9007FC9058089595
:104320000E94222C60F080E891E009F49EEF0E9448
:10433000292C28F040E851E071F45EEF0CC00C9499
:104340001F2C0C94632CE92FE0780E94412C40F341
:10435000092E052AB1F3261737074807590738F001
:104360000E2E07F8E02569F0E025E0640AC0EF634F
:1043700007F8009407FADB01B9019D01DC01CA01CD
:10438000AD01EF930E941E220E94302C0E94D32187
:104390005F91552339F02BED3FE049E450FD49ECA6
:1043A0000C9409210895DF93DD27B92FBF7740E8EA
:1043B0005FE31616170648075B0718F4D92F0E940B
:1043C0004E239F938F937F936F930E94A423ECE7D8
:1043D000F0E00E94CF220E94302C2F913F914F910C
:1043E0005F910E94BF2BDD2351F09058A2EA2AED85
:1043F0003FE049EC5FE3D0785D270E942021DF9108
:104400000C94302C0E940C23E3950C9435230E94CD
:104410001B220C94302C0E94292C58F00E94222C34
:1044200040F029F45F3F29F00C94192C51110C94A1
:10443000642C0C941F2C0E94412C68F39923B1F337
:10444000552391F3951B550BBB27AA2762177307BA
:10445000840738F09F5F5F4F220F331F441FAA1F4E
:10446000A9F335D00E2E3AF0E0E832D0915050400A
:10447000E695001CCAF72BD0FE2F29D0660F771FB8
:10448000881FBB1F261737074807AB07B0E809F09E
:10449000BB0B802DBF01FF2793585F4F3AF09E3F23
:1044A000510578F00C94192C0C94642C5F3FE4F3C4
:1044B000983ED4F3869577956795B795F7959F5F66
:1044C000C9F7880F911D9695879597F90895E1E0B2
:1044D000660F771F881FBB1F621773078407BA0711
:1044E00020F0621B730B840BBA0BEE1F88F7E0956C
:1044F00008950E9480226894B1110C94642C089550
:104500000E94492C88F09F5798F0B92F9927B751EE
:10451000B0F0E1F0660F771F881F991F1AF0BA9567
:10452000C9F714C0B13091F00E94632CB1E0089536
:104530000C94632C672F782F8827B85F39F0B93F28
:10454000CCF3869577956795B395D9F73EF490951A
:104550008095709561957F4F8F4F9F4F0895DF93A2
:10456000CF931F930F938B01EC01E9EAF0E00E94D7
:10457000CF220E94302C9801AE018B01EC0160E04B
:1045800070E080E89FE30E9408210E946423980164
:10459000AE010F911F91CF91DF910C94BF2BDF9350
:1045A000CF931F930F93FF92EF92DF927B018C01C9
:1045B000689406C0DA2EEF010E94BF2BFE01E8943A
:1045C000A5912591359145915591A6F3EF010E9452
:1045D0002021FE019701A801DA9469F7DF90EF909E
:1045E000FF900F911F91CF91DF9108959F938F932B
:1045F0007F936F93FF93EF939B01AC010E94AC2BD1
:10460000EF91FF910E94CF222F913F914F915F91A7
:104610000C94AC2B0C941F2C0E94492CD8F3E894DA
:10462000E0E0BB279F57F0F02AED3FE049EC06C0E1
:10463000EE0FBB0F661F771F881F28F0B23A620784
:104640007307840728F0B25A620B730B840BE3954F
:104650009A9572F7803830F49A95BB0F661F771FD2
:10466000881FD2F790480C94AF23EF93E0FF07C068
:10467000A2EA2AED3FE049EC5FEB0E9420210E9474
:10468000302C0F90039401FC9058E1EDF0E00C9475
:10469000F6220E94882B08F48FEF08959B01AC014D
:1046A00060E070E080E89FE30C9407229F930E94F3
:1046B0000C230F9007FCEE5F0C94352319F416F4CD
:1046C0000C941F2C0C94AD230E94492CB8F3992311
:1046D000C9F3B6F39F57550B87FF0E94BB230024F5
:1046E000A0E640EA900180585695979528F4805CA2
:1046F000660F771F881F20F026173707480730F40A
:10470000621B730B840B202931294A2BA695179421
:104710000794202531254A2758F7660F771F881FF1
:1047200020F026173707480730F4620B730B840B11
:10473000200D311D411DA09581F7B901842F91589D
:10474000880F9695879508959B01AC010C94AC2B2E
:104750000E94882B880B990B08959F3F31F0915050
:1047600020F4879577956795B795880F911D969555
:10477000879597F9089591505040660F771F881FCD
:10478000D2F70895CF93DF938230910510F482E041
:1047900090E0E091B206F091B30620E030E0C0E096
:1047A000D0E0309711F14081518148175907C0F08E
:1047B0004817590761F482819381209719F09B83F0
:1047C0008A832BC09093B3068093B20626C021152E
:1047D000310519F04217530718F49A01BE01DF01A1
:1047E000EF010280F381E02DDCCF2115310509F1C5
:1047F000281B390B2430310590F412968D919C9131
:1048000013976115710521F0FB019383828304C026
:104810009093B3068093B206FD01329644C0FD0129
:10482000E20FF31F81939193225031092D933C9312
:104830003AC02091B0063091B106232B41F420916B
:104840000701309108013093B1062093B006209102
:104850000501309106012115310541F42DB73EB710
:104860004091090150910A01241B350BE091B006DB
:10487000F091B106E217F307A0F42E1B3F0B2817A7
:10488000390778F0AC014E5F5F4F2417350748F0C9
:104890004E0F5F1F5093B1064093B00681939193E2
:1048A00002C0E0E0F0E0CF01DF91CF9108950F93D7
:1048B0001F93CF93DF93009709F48CC0FC013297CC
:1048C000138212820091B2061091B30601151105F0
:1048D00081F420813181820F931F2091B0063091A5
:1048E000B1062817390779F5F093B106E093B006C1
:1048F00071C0D80140E050E0AE17BF0750F41296E7
:104900002D913C911397AD012115310509F1D90184
:10491000F3CF9D01DA013383228360817181860F99
:10492000971F8217930769F4EC0128813981260FBC
:10493000371F2E5F3F4F318320838A819B81938372
:104940008283452B29F4F093B306E093B20642C06C
:104950001396FC93EE931297ED01499159919E01A4
:10496000240F351FE217F30771F480819181840FC2
:10497000951F029611969C938E9382819381139634
:104980009C938E931297E0E0F0E0D80112968D91FF
:104990009C911397009719F0F8018C01F6CF8D9137
:1049A0009C9198012E5F3F4F820F931F2091B0067C
:1049B0003091B1062817390769F4309729F410921D
:1049C000B3061092B20602C0138212821093B1068F
:1049D0000093B006DF91CF911F910F910895A0E051
:1049E000B0E0E5EFF4E20C94AB2CEC01009721F47D
:1049F000CB010E94C223B8C0FC01E60FF71F9C0147
:104A000022503109E217F30708F4ACC0D9010D9127
:104A10001C91119706171707B0F00530110508F41F
:104A20009FC0C80104978617970708F499C00250E1
:104A30001109061B170B019311936D937C93CF0102
:104A40000E9457248DC05B01A01AB10A4C01800E50
:104A5000911EA091B206B091B30640E050E0E12C67
:104A6000F12C109709F44AC0A815B905D1F56D903D
:104A70007C901197630182E0C80ED11CCA14DB043C
:104A800080F1A3014A195B096A0182E0C80ED11CBA
:104A90001296BC9012971396AC91B5E0CB16D10448
:104AA00040F0B282A38351834083D9016D937C93FC
:104AB0000AC00E5F1F4FC301800F911FF901918340
:104AC0008083EB2DFA2FE114F10431F0D701139616
:104AD000FC93EE93129744C0F093B306E093B206B2
:104AE0003FC08D919C9111974817590708F4AC016C
:104AF0007D0112960D90BC91A02DB3CF8091B00690
:104B00009091B10688159905E1F446175707C8F446
:104B10008091050190910601009741F48DB79EB7F1
:104B20004091090150910A01841B950BE817F90780
:104B3000C8F4F093B106E093B006F9017183608385
:104B40000FC0CB010E94C2237C01009759F0A8013D
:104B5000BE010E94CB25CE010E945724C70104C08C
:104B6000CE0102C080E090E0CDB7DEB7EEE00C945D
:104B7000C72C81E090E0F8940C94ED2CFB01DC0153
:104B800004C08D910190801921F441505040C8F724
:104B9000881B990B0895FB01DC0102C001900D9266
:104BA00041505040D8F70895FC018191861721F0BB
:104BB0008823D9F7992708953197CF010895FB01EC
:104BC000DC0101900D920020E1F70895FB01DC016A
:104BD0004150504048F001900D920020C9F701C0AB
:104BE0001D9241505040E0F70895FB01519155232B
:104BF000A9F0BF01DC014D9145174111E1F759F4CE
:104C0000CD010190002049F04D9140154111C9F3AB
:104C1000FB014111EFCF81E090E001970895AEE0F4
:104C2000B0E0E5E1F6E20C94B52C0D891E8986E032
:104C30008C831A8309838FEF9FE79E838D83AE0158
:104C4000475E5F4F6F89788DCE0101960E943226B4
:104C50002F813885F801E20FF31F10822E96E4E0D1
:104C60000C94D12CACE0B0E0E8E3F6E20C94A72C75
:104C70007C016B018A01FC0117821682838181FF0E
:104C8000BDC1CE0101964C01F7019381F60193FD60
:104C9000859193FF81916F01882309F4ABC185321F
:104CA00039F493FD859193FF81916F01853229F449
:104CB000B70190E00E941A28E7CF512C312C20E058
:104CC0002032A0F48B3269F030F4803259F0833214
:104CD00069F420612CC08D3239F0803339F42160C1
:104CE00026C02260246023C0286021C027FD27C081
:104CF00030ED380F3A3078F426FF06C0FAE05F9EB8
:104D0000300D1124532E13C08AE0389E300D11242B
:104D1000332E20620CC08E3221F426FD6BC120643C
:104D200006C08C3611F4206802C0883641F4F601C2
:104D300093FD859193FF81916F018111C1CF982FD0
:104D40009F7D9554933028F40C5F1F4FFFE3F98348
:104D50000DC0833631F0833771F0833509F05BC0C5
:104D600022C0F801808189830E5F1F4F4424439441
:104D7000512C540115C03801F2E06F0E711CF8017E
:104D8000A080B18026FF03C0652D70E002C06FEFE8
:104D90007FEFC5012C870E940F282C0183012C85F1
:104DA0002F77222E17C03801F2E06F0E711CF80128
:104DB000A080B18026FF03C0652D70E002C06FEFB8
:104DC0007FEFC5012C870E9404282C012C852068C8
:104DD000222E830123FC1BC0832D90E04816590628
:104DE000B0F4B70180E290E00E941A283A94F4CF20
:104DF000F50127FC859127FE81915F01B70190E0C5
:104E00000E941A2831103A94F1E04F1A51084114C7
:104E1000510471F7E5C0843611F0893639F5F8018F
:104E200027FF07C060817181828193810C5F1F4FD2
:104E300008C060817181072E000C880B990B0E5FF2
:104E40001F4F2F76722E97FF09C090958095709511
:104E500061957F4F8F4F9F4F2068722E2AE030E080
:104E6000A4010E945228A82EA81844C0853729F40E
:104E70002F7EB22E2AE030E025C0F22FF97FBF2E20
:104E80008F36C1F018F4883579F0B4C0803719F046
:104E9000883721F0AFC02F2F2061B22EB4FE0DC095
:104EA0008B2D8460B82E09C024FF0AC09F2F966006
:104EB000B92E06C028E030E005C020E130E002C095
:104EC00020E132E0F801B7FE07C060817181828184
:104ED00093810C5F1F4F06C06081718180E090E07C
:104EE0000E5F1F4FA4010E945228A82EA818FB2D68
:104EF000FF777F2E76FE0BC0372D3E7FA51450F432
:104F000074FE0AC072FC08C0372D3E7E05C0BA2C64
:104F1000372D03C0BA2C01C0B52C34FF0DC0FE01E3
:104F2000EA0DF11D8081803311F4397E09C032FF12
:104F300006C0B394B39404C0832F867809F0B39469
:104F400033FD13C030FF06C05A2CB31418F4530CB1
:104F50005B18B32CB31468F4B70180E290E03C878F
:104F60000E941A28B3943C85F5CFB31410F43B1873
:104F700001C0312C34FF12C0B70180E390E03C87C0
:104F80000E941A283C8532FF17C031FD03C088E714
:104F900090E002C088E590E0B7010CC0832F8678CE
:104FA00059F031FF02C08BE201C080E237FD8DE293
:104FB000B70190E00E941A28A51438F4B70180E3E5
:104FC00090E00E941A285A94F7CFAA94F401EA0DAF
:104FD000F11D8081B70190E00E941A28A110F5CF41
:104FE000332009F451CEB70180E290E00E941A28E4
:104FF0003A94F6CFF7018681978102C08FEF9FEF39
:105000002C96E2E10C94C32CFC0105906150704099
:105010000110D8F7809590958E0F9F1F0895FC0181
:105020006150704001900110D8F7809590958E0FD7
:105030009F1F08950F931F93CF93DF93FB0123814D
:1050400021FD03C08FEF9FEF28C022FF16C04681CD
:105050005781248135814217530744F4A081B181DF
:105060009D012F5F3F4F318320838C9326813781B1
:105070002F5F3F4F3783268310C0EB01092F182F76
:105080000084F185E02D0995892BE1F68E819F81C1
:1050900001969F838E83812F902FDF91CF911F9157
:1050A0000F910895FA01AA27283051F1203181F19A
:1050B000E8946F936E7F6E5F7F4F8F4F9F4FAF4F20
:1050C000B1E03ED0B4E03CD0670F781F891F9A1F33
:1050D000A11D680F791F8A1F911DA11D6A0F711DE7
:1050E000811D911DA11D20D009F468943F912AE0F3
:1050F000269F11243019305D3193DEF6CF010895DB
:10510000462F4770405D4193B3E00FD0C9F7F6CF0B
:10511000462F4F70405D4A3318F0495D31FD4052D3
:10512000419302D0A9F7EACFB4E0A6959795879569
:1051300077956795BA95C9F7009761057105089548
:105140009B01AC010A2E06945795479537952795F4
:10515000BA95C9F7620F731F841F951FA01D08958C
:10516000A0E0B0E0E6EBF8E20C94A72C5C016B0148
:105170007A016115710519F0FB0191838083E114B7
:10518000F10429F0C7010297839708F0F1C0E50107
:105190002196F5011081812F90E00E94C529892B6D
:1051A00011F05E01F4CF1D3229F42196F501118131
:1051B00001E007C01B3221F4E5012296F5011181BF
:1051C00000E0E114F10459F1F0E1EF16F10461F4AB
:1051D0001033E1F488818F7D883569F51981229635
:1051E000026070E1E72EF12C88E0E816F10439F155
:1051F0002CF4F2E0EF16F104C9F12AC08AE0E816B7
:10520000F10479F0E0E1EE16F10411F550E1E52E3C
:10521000F12C812C912CA12C68E0B62E2CC01033DF
:10522000C9F23AE0E32EF12C4CEC842E982CA82CF9
:105230004CE0B42E20C010E3E114F104A9F698E08C
:10524000E92EF12C812C912CA12C20E1B22E13C03F
:1052500060E070E080E090E897010F2C000C440BB8
:10526000550B0E947A2C49015A0105C0812C912CC2
:10527000A12C80E4B82E60E020E030E0A9012701F5
:105280000F2C000C660877081E01E0EDE10FEA30F4
:1052900060F08FEB810F8A3110F4E9EC05C08FE9E3
:1052A000810F8A3128F5E9EAE10F8E2F90E08E1503
:1052B0009F05F4F467FD18C082169306A406B50690
:1052C00090F0C301B2010E946A2C9B01AC012E0F29
:1052D000311D411D511D213031054105F0E85F07A9
:1052E00010F461E001C06FEF2196F1011081CCCF85
:1052F000802F8170C114D10471F0662329F02197A9
:10530000F601D183C08307C001FF19C02297F601BF
:10531000D183C08314C067FF12C0811105C02FEF75
:105320003FEF4FEF5FE704C020E030E040E050E89F
:1053300082E290E09093B5068093B40616C088236D
:1053400041F050954095309521953F4F4F4F5F4F1D
:105350000CC057FF0AC082E290E09093B50680939C
:10536000B4062FEF3FEF4FEF5FE7B901CA0104C06A
:1053700060E070E080E090E0CDB7DEB7E2E10C9451
:10538000C32C662777270C94CE2991110C942B2BD4
:10539000803219F089508550C8F70895A0E0B0E038
:1053A000E4EDF9E20C94AB2CEC017B016115710585
:1053B00019F0DB018D939C938E010F5F1F4F788056
:1053C000872D90E00E94C529892B11F0E801F4CFC8
:1053D000BDE27B1205C00F5F1F4F7980C1E008C09E
:1053E000EBE27E1204C08E010E5F1F4F7980C0E099
:1053F0006801F1E0CF1AD10843E050E062E671E0C5
:10540000C6010E942E2B892BF1F4680122E0C20E06
:10541000D11C45E050E06DE571E0C6010E942E2BE5
:10542000892B21F4680187E0C80ED11CE114F10436
:1054300019F0D701CD92DC92C111FFC060E070E09D
:1054400080E89FE703C143E050E06AE571E0C601F0
:105450000E942E2B892B51F4E114F10409F4F2C0BF
:105460000E5F1F4FF70111830083ECC0680160E0FD
:1054700070E0CB0100E010E0F601D0EDD70DDA309E
:1054800058F52C2F2260622E2C2F2870C2FF05C0E9
:10549000211128C00F5F1F4F25C0222311F001509A
:1054A0001109A5E0B0E09B01AC010E949C2C4B01CE
:1054B0005C01880C991CAA1CBB1CC501B4016D0FB2
:1054C000711D811D911D6839A9E97A078A07A9E133
:1054D0009A0740F0C66005C0DE3F51F4C3FD44C0EA
:1054E000C8606C2EBFEFCB1ADB0A7080C62DC4CF0C
:1054F0002D2F2F7D2531C1F540814D3211F4C06132
:1055000006C04B3221F0319621E030E006C03296E1
:10551000D60111964C9122E030E0A0EDA40FAA3004
:1055200018F0E21BF30B20C040E050E04038BCE034
:105530005B075CF49A01220F331F220F331F420FC7
:10554000531F440F551F4A0F511D3196DF0111970C
:105550002C91A0EDA20FAA3048F3C4FF03C05195CF
:1055600041955109040F151FC1FF07C0E114F10453
:1055700021F03197D701ED93FC930E944B2BC37020
:10558000C33019F06B017C0106C06B017C01F7FA96
:10559000F094F7F8F09420E030E0A901C701B601DB
:1055A0000E94462B882309F445C017FF06C01195B9
:1055B00001951109C9E7D1E002C0C1E9D1E05E015E
:1055C000B8E1AB1AB1084601BE2DAF2D90E2E92E2D
:1055D000F12C0E151F0584F0FE01259135914591A2
:1055E0005491B4018B2F9A2F0E94AC2B4B01B82FF2
:1055F000A92F0E191F09EDCF2497F594E794CA152A
:10560000DB0539F76401EB2EFA2E8E2D880F8F2DD6
:10561000881F8F3F49F020E030E0A901C701B601A3
:105620000E94462B811106C082E290E09093B5065D
:105630008093B406C701B60109C060E070E080E85D
:105640009FEF04C060E070E080EC9FE7CDB7DEB76D
:10565000EEE00C94C72C992788270895FB01DC0104
:105660004150504088F08D9181341CF08B350CF402
:10567000805E659161341CF06B350CF4605E861BB6
:10568000611171F3990B0895881BFCCF0E94882B40
:1056900008F481E00895E89409C097FB3EF49095E2
:1056A0008095709561957F4F8F4F9F4F9923A9F0FB
:1056B000F92F96E9BB279395F6958795779567958A
:1056C000B795F111F8CFFAF4BB0F11F460FF1BC0CE
:1056D0006F5F7F4F8F4F9F4F16C0882311F096E961
:1056E00011C0772321F09EE8872F762F05C066230F
:1056F00071F096E8862F70E060E02AF09A95660FC8
:10570000771F881FDAF7880F9695879597F9089580
:10571000990F0008550FAA0BE0E8FEEF16161706C2
:10572000E807F907C0F012161306E407F50798F02A
:10573000621B730B840B950B39F40A2661F0232B43
:10574000242B252B21F408950A2609F4A140A695BF
:105750008FEF811D811D08950E94BF2B0C94302C6A
:105760000E94222C38F00E94292C20F0952311F061
:105770000C94192C0C941F2C11240C94642C0E9452
:10578000412C70F3959FC1F3950F50E0551F629F18
:10579000F001729FBB27F00DB11D639FAA27F00D8A
:1057A000B11DAA1F649F6627B00DA11D661F829FB1
:1057B0002227B00DA11D621F739FB00DA11D621F96
:1057C000839FA00D611D221F749F3327A00D611DB3
:1057D000231F849F600D211D822F762F6A2F112495
:1057E0009F5750409AF0F1F088234AF0EE0FFF1FC8
:1057F000BB1F661F771F881F91505040A9F79E3F1F
:10580000510580F00C94192C0C94642C5F3FE4F348
:10581000983ED4F3869577956795B795F795E79574
:105820009F5FC1F7FE2B880F911D9695879597F97D
:10583000089597F99F6780E870E060E008959FEF12
:1058400080EC089500240A94161617061806090617
:10585000089500240A9412161306140605060895E6
:10586000092E0394000C11F4882352F0BB0F40F46E
:10587000BF2B11F460FF04C06F5F7F4F8F4F9F4FAE
:10588000089557FD9058440F551F59F05F3F71F030
:105890004795880F97FB991F61F09F3F79F0879597
:1058A0000895121613061406551FF2CF4695F1DF20
:1058B00008C0161617061806991FF1CF86957105B0
:1058C000610508940895E894BB2766277727CB01E4
:1058D00097F90895DB018F939F930E949C2CBF91B1
:1058E000AF91A29F800D911DA39F900DB29F900D2F
:1058F00011240895A1E21A2EAA1BBB1BFD010DC0A5
:10590000AA1FBB1FEE1FFF1FA217B307E407F5076F
:1059100020F0A21BB30BE40BF50B661F771F881F4B
:10592000991F1A9469F760957095809590959B01E1
:10593000AC01BD01CF0108950E94DE2CA59F900D02
:10594000B49F900DA49F800D911D112408952F9256
:105950003F924F925F926F927F928F929F92AF92FF
:10596000BF92CF92DF92EF92FF920F931F93CF934C
:10597000DF93CDB7DEB7CA1BDB0B0FB6F894DEBFE3
:105980000FBECDBF09942A88398848885F846E8409
:105990007D848C849B84AA84B984C884DF80EE8053
:1059A000FD800C811B81AA81B981CE0FD11D0FB65C
:1059B000F894DEBF0FBECDBFED010895A29FB001E8
:1059C000B39FC001A39F700D811D1124911DB29F33
:1059D000700D811D1124911D089510E0CCECD0E0D4
:1059E00004C0FE010E9402212196CD3CD107C9F7D7
:0459F000F894FFCF59
:1059F40001FFFFFFFF0000B606800000000000006A
:105A04000000000000000000010002000A00120073
:105A14001100100008000000040005000600070043
:105A240000000000450AA8100E0AEC09000A8C0ABE
:105A3400000000009710A810000000001801E40204
:105A4400F70037084108D401000000004701A810FE
:105A54009B01B3012E01460100000000B80AA81002
:105A6400B80AB80AB80AB80A00000000B80AA810B0
:105A740073657474696E672070696E206D6F6465F8
:105A840020666F72203620746F206F757470757481
:105A9400006D616B696E6720464C414753206F620D
:105AA4006A656374004D7946696C6525692E74785E
:105AB40074002F0024504D544B3232302C3130308E
:105AC400302A31460024504D544B3330302C313081
:105AD40030302C302C302C302C302A3143002450E0
