:100000000C94AF000C94D7000C94D7000C94D40936
:100010000C94D4090C94D4090C94D7000C94D700F8
:100020000C94D7000C94D7000C94D7000C94D700F4
:100030000C94D7000C94D7000C94D7000C94D700E4
:100040000C94500C0C94D7000C94580B0C94320B5D
:100050000C94D7000C94D7000C94D7000C94D700C4
:100060000C94D7000C94D700084AD73B3BCE016EC6
:1000700084BCBFFDC12F3D6C74319ABD56833DDAFF
:100080003D00C77F11BED9E4BB4C3E916BAAAABE0E
:10009000000000803F05A84CCDB2D44EB93836A937
:1000A000020C50B9918688083CA6AAAA2ABE000074
:1000B00000803F0000000000240027002A0000000C
:1000C0000008000201000003040700000000000017
:1000D00000007C3C3E5E2B3D3F2F5B5D3B2C2A228B
:1000E0005C0000000000250028002B00000000003C
:1000F000230026002900040404040404040402026A
:100100000202020203030303030301020408102096
:1001100040800102040810200102040810204E4112
:100120004E494E495459494E46CDCCCC3D0AD72371
:100130003C17B7D13877CC2B329595E6241FB14FB9
:100140000A000020410000C84200401C4620BCBEFE
:100150004CCA1B0E5AAEC59D7400BC20A3201124AE
:100160001FBECFEFD8E0DEBFCDBF12E0A0E0B1E010
:10017000E6EDFBE502C005900D92AA34B107D9F770
:1001800026E0AAE4B2E001C01D92AA3BB207E1F763
:1001900010E0CEEAD0E004C02197FE010E942E229A
:1001A000CD3AD107C9F70E9401140C94DE2D0C94AE
:1001B0000000DC015996ED91FC915A973097B9F007
:1001C00083899489A589B689428553856485758517
:1001D000841B950BA60BB70B811520E89207A10590
:1001E000B10538F08FEF9FE7A0E0B0E0089580E020
:1001F00090E00895CF93DF931F92CDB7DEB7698368
:10020000DC01ED91FC910280F381E02D41E050E0B2
:10021000BE016F5F7F4F09950F90DF91CF910895D9
:1002200020914C0230914D022817390771F49091BA
:100230004A0280914B02981741F0E0914A02F0E0A7
:10024000E55DFC4F808190E008958FEF9FEF08956A
:1002500008951F93CF93DF93DC015C962D913C9121
:100260005D972115310539F481E090E013969C9358
:100270008E9312973DC05196ED91FC9152975096F6
:100280009C915097892F80951FB75E964C915E97F1
:1002900041FB772770F941FD6095F8944081772301
:1002A00011F0492B01C048234083E9012197F1F760
:1002B00048E0508160FF02C0592B01C05823508391
:1002C000E9012197F1F76695415099F7772321F0DD
:1002D00090818923808303C08081982B90831FBFE6
:1002E0005C968D919C915D970197F1F721E030E04C
:1002F000C901DF91CF911F91089520914C02309157
:100300004D022817390771F480914B0220914A025F
:1003100090E0805C9F4F821B910960E470E00E9436
:100320001A22089580E090E0089520914C023091C7
:100330004D0228173907B9F490914A0280914B0277
:10034000981789F0E0914A02F0E0E55DFC4F80816A
:1003500020914A0230E02F5F3F4F2F7333272093C5
:100360004A0290E008958FEF9FEF0895FC01818D80
:10037000928D009711F00C94AB0E0895CF93DF93FC
:10038000EC01898D9A8D009739F481E090E09B8390
:100390008A8380E090E00BC0FC01138212820E94ED
:1003A000E90EE98DFA8D22813381232B71F7DF91DC
:1003B000CF9108958F929F92AF92BF92CF92DF928A
:1003C000EF92FF920F931F93CF93DF93EC018D81F8
:1003D000811102C080E077C00B891C892D893E897C
:1003E0000417150726073707A8F36A017B01823037
:1003F00029F4CA86DB86EC86FD860DC0C114D104C3
:10040000E104F10451F41E821F82188619861A86AF
:100410001B861C861D8681E056C08A849B84AC8422
:10042000BD84EB8DFC8D258530E0275F3F4FB50106
:10043000A4014150510961097109022E04C0769549
:100440006795579547950A94D2F7D701C60101974A
:10045000A109B10904C0B695A795979587952A95E6
:10046000D2F784179507A607B70720F089288A28AE
:100470008B2849F44F89588D698D7A8D4E835F831F
:100480006887798704C0841B950BA60BB70B4C01BA
:100490005D018E010A5F1F4F81149104A104B10414
:1004A00009F4A7CF4E815F816885798598018B8D8E
:1004B0009C8D0E94BE0D91E0891A9108A108B10897
:1004C0008111EACF87CFDF91CF911F910F91FF90DC
:1004D000EF90DF90CF90BF90AF909F908F90089556
:1004E0008F929F92AF92BF92CF92DF92EF92FF9244
:1004F0000F931F93CF93DF9300D000D0CDB7DEB71B
:100500007C0180E2689F60011124960125583C4FD0
:10051000D9011B969C91917121F0842F827409F06E
:1005200097C0142FF701628B809101019091020115
:10053000A0910301B091040186879787A08BB18BAE
:10054000F601E558FC4F4489558960E070E0BA0136
:1005500055274427D70157964D935D936D937C9310
:100560005A97828D938DA0E0B0E0482B592B6A2BCF
:100570007B2BD70157964D935D936D937C935A9740
:10058000D9011B968C91887159F4848D958DA68D17
:10059000B78DF701838B948BA58BB68B81E012C04E
:1005A000803109F055C097012D5E3F4FD7015B9612
:1005B0008D919C915C970E94420E882309F448C05B
:1005C00084E0F7018583812F8F70D70114968C9377
:1005D0001497F70116821782108611861A961D92BB
:1005E0001D921D921C921D9716FF34C015968C917A
:1005F000813071F511FF2CC0F70143895489658959
:100600007689452B462B472B09F461C040E050E02A
:10061000BA01C7010E94DA018823D1F0F701878867
:10062000908CA18CB28CC38CD48C82E090E0A0E042
:10063000B0E0F60180839183A283B3839E012F5F94
:100640003F4FB501A401C6010E94BE0D811104C037
:1006500080E03DC081E03BC000E010E09801B501C2
:10066000A401C6010E941E0D882391F389809A80FF
:10067000AB80BC80D60157968C91803129F088EFF1
:100680009FEFAFEFBFE004C088EF9FEFA0E0B0E0C6
:1006900088169906AA06BB0688F2D70157961D92BE
:1006A0001D921D921C925A97F701138A148A158A7B
:1006B000168A848180688483C7010E94AB0E8823D8
:1006C00039F240E050E0BA01C7010E94DA010F9010
:1006D0000F900F900F90DF91CF911F910F91FF908E
:1006E000EF90DF90CF90BF90AF909F908F90089544
:1006F000CF93DF93EC010E94AB0E882311F01D8293
:1007000081E0DF91CF9108953F924F925F926F9277
:100710007F928F929F92AF92BF92CF92DF92EF9291
:10072000FF920F931F93CF93DF93CDB7DEB72C9734
:100730000FB6F894DEBF0FBECDBF5C01DC015B9647
:100740008D909C905C971696CD90DD90ED90FC90EE
:100750001997C114D104E104F10439F0BFEFCB1AA9
:10076000DB0AEB0AFB0A312C07C0F401C080D18000
:10077000E280F38033243394F40181859285A3854C
:10078000B4859C01AD012F5F3F4F4F4F5F4F2987CD
:100790003A874B875C87260137011D821E821F82A4
:1007A0001886F40181859285A385B4852D813E81CB
:1007B0004F815885281739074A075B0708F063C03F
:1007C00089859A85AB85BC858C159D05AE05BF05D1
:1007D00050F482E0C82ED12CE12CF12C92E0492E6D
:1007E000512C612C712C9E012F5F3F4FB701A60148
:1007F000C4010E94BE0D882309F445C089819A81F5
:10080000AB81BC81892B8A2B8B2B41F026013701D0
:100810009FEF491A590A690A790A05C0C414D50418
:10082000E604F70491F02D813E814F8158852F5FBA
:100830003F4F4F4F5F4F2D833E834F8358873FEF8E
:10084000C31AD30AE30AF30AACCF0FEF1FEF2FEF5F
:100850003FE0B301A201C4010E941E0D882399F05C
:10086000D50116964D915D916D917C911997411529
:1008700051056105710549F093018201C4010E948F
:100880001E0D811102C080E02AC0D50116964D923E
:100890005D926D927C921997332051F0D301C20181
:1008A0000196A11DB11DF40180839183A283B383BE
:1008B000F5018789908DA18DB28D892B8A2B8B2B89
:1008C00069F4D50157964D925D926D927C925A973C
:1008D00014968C911497806814968C9381E02C96D2
:1008E0000FB6F894DEBF0FBECDBFDF91CF911F9141
:1008F0000F91FF90EF90DF90CF90BF90AF909F90BF
:100900008F907F906F905F904F903F9008958FB73A
:10091000F89480916C038FBF089561E0FC0184819D
:100920000E94B30B80916B03811110926B030895A9
:100930008EBD00000DB407FEFDCF8EB508958FEF7C
:100940000C9498040F931F93CF93DF93EB010E94B5
:10095000440C8B010E949F048F3F49F00E94440C7D
:10096000601B710B6C177D07A8F380E001C081E06C
:10097000DF91CF911F910F910895CF93DF93EC01F9
:100980008E81882389F08F8198859C012F5F3F4F4E
:1009900038872F838230924018F40E949F04F3CF4F
:1009A000CE010E948D041E82DF91CF9108958CBDEF
:1009B0009DBD0895CF93DF93EC0180916B0381116E
:1009C00009C081E080936B0380911A0690911B0609
:1009D0000E94D70460E08C81DF91CF910C94B30B1F
:1009E000CF92DF92FF920F931F93CF93DF9300D0AC
:1009F00000D0CDB7DEB76C01F62E29833A834B8346
:100A00005C830E94BD04C6010E94DA046CE271E0BE
:100A1000C6010E94A2048F2D80640E94980408E100
:100A200010E05C814B813A812981DA01C901002EF5
:100A300004C0B695A795979587950A94D2F7298310
:100A40003A834B835C830E949804085011092981E2
:100A50003A814B815C81083F8FEF180731F7FF2007
:100A600029F0E8E0FE1204C087E803C085E901C070
:100A70008FEF0E94980410E00E949F04F601828785
:100A800087FF04C01F3F11F01F5FF6CF0F900F903C
:100A90000F900F90DF91CF911F910F91FF90DF90FA
:100AA000CF900895AF92BF92CF92DF92EF92FF92D4
:100AB0000F931F93CF93DF93EC016901C801820F5D
:100AC000931F8130924008F070C08E81882371F0AE
:100AD00088819981AA81BB81481759076A077B07DA
:100AE00029F48F819885C816D906B0F548835983B3
:100AF0006A837B838B85833039F089E0440F551FEF
:100B0000661F771F8A95D1F79A01AB0161E1CE018B
:100B10000E94F004882319F083E08D8346C00E9470
:100B2000440C5B010E949F048A878F3F49F40E9416
:100B3000440C6A197B096D327140A0F38FE003C049
:100B40008E3F31F08DE08D83CE010E948D042DC04B
:100B500018861F8281E08E838F8198858C159D0574
:100B600040F40E949F048F819885019698878F8317
:100B7000F3CF6701E00EF11ECE14DF0431F00E94C6
:100B80009F04F60181936F01F7CF8F819885080F3D
:100B9000191F18870F838985882319F001151240C2
:100BA00048F0CE010E94BD0405C0CE010E948D0414
:100BB00080E001C081E0DF91CF911F910F91FF9004
:100BC000EF90DF90CF90BF90AF9008952F923F921B
:100BD0004F925F926F927F928F929F92AF92BF924D
:100BE000CF92DF92EF92FF920F931F93CF93DF93F9
:100BF00000D0CDB7DEB7FC018581882309F4D9C0C8
:100C0000848180FFD6C021E02A8343895489658985
:100C1000768982859385A485B585481759076A0723
:100C20007B0709F41A826F013A81832F90E0DE017D
:100C300011964D013F01B6E06B0E711C892B09F432
:100C40007DC0D6011A964D915D916D917C911D9755
:100C50005A01B1E0BB22F60125811A012B0189E07E
:100C600056944794379427948A95D1F7838D948D21
:100C7000223061F4FC01828D938DA48DB58DBC0171
:100C8000CD01620D731D841D951D45C0DC011496B8
:100C90001C9111501221A114B104D1F4111118C0EA
:100CA000452B462B472B51F4F6018789908DA18D5A
:100CB000B28D86839783A087B1870AC0468157810A
:100CC0006085718593010E94BE0D882309F471C06F
:100CD000F601238D348D86819781A085B185029799
:100CE000A109B109AC01BD01F901058404C0440F9B
:100CF000551F661F771F0A94D2F786859785A089AE
:100D0000B189840F951FA61FB71FBC01CD01610FCC
:100D1000711D811D911DD60114962C9126FF14C0C2
:100D20000091010110910201209103013091040111
:100D3000601771078207930751F506C0FA81FF23F8
:100D4000C1F1898190E037C040E00E94D50C882332
:100D500081F1F501E558FC4FD401CF010196E81768
:100D6000F90719F021912D93FACFEFEF8E1A9E0A11
:100D7000F60182859385A485B5850196A11DB11DD7
:100D800082879387A487B58780E090E057CF74016E
:100D900001E010E09501AB01BC0180917B059091D1
:100DA0007C050E945205882321F0BFEF8B1A9B0A15
:100DB000DFCF8FEF9FEF0F900F90DF91CF911F91BB
:100DC0000F91FF90EF90DF90CF90BF90AF909F90EA
:100DD0008F907F906F905F904F903F902F900895ED
:100DE0004F925F926F927F929F92AF92BF92CF92FB
:100DF000DF92EF92FF920F931F93CF93DF93CDB7C4
:100E0000DEB72B970FB6F894DEBF0FBECDBF7C01C7
:100E1000DC011596AC90A1108AC1FE0131966F01DC
:100E200090E28BE08E0F91938E13FDCFDA0130E0CC
:100E300087E09D91992339F19E3219F0E2EDF0E0BF
:100E40000AC08A3009F474C138E08AE0F2CF3196E2
:100E5000491709F46DC144914111F9CF831708F482
:100E600067C14FED490F4E3508F062C141E0430FB5
:100E7000F601E30FF11D3FE9390F3A3108F49052C2
:100E80009083342FD6CF8981803209F451C1B22E9C
:100E90008B01DB015B968D919C915C97F701948FA0
:100EA000838F16961D921D921D921C921997FB011D
:100EB0001286138614861586712CF8018285938517
:100EC000A485B585438954896589768984179507F2
:100ED000A607B70708F061C025E0B695A7959795D6
:100EE00087952A95D1F7F82FFF706F2ED8011596A8
:100EF0008C91823008F41CC1C8010E94E60597FD60
:100F000017C1F80182859385A485B5854F96A11DEB
:100F1000B11D82879387A487B587F0E26F9EC001D9
:100F20001124BC0165587C4F6115710509F400C19D
:100F3000DB012C91222319F0253EC1F427C071104A
:100F40000EC0F701628A4091010150910201609147
:100F500003017091040146875787608B718BFC01F8
:100F6000E558FC4F8081811113C015C04BE050E063
:100F7000C6010E94AF26892B09F09FCF8B2D80736D
:100F8000803309F4D5C04B2D662DCCC07720C9F233
:100F90007724739492CF772473948B2D827182314E
:100FA00009F0C6C07720D1F0D7011E966D917D91D2
:100FB0008D919C91519741E00E94D50C882309F4B2
:100FC000B7C0F7016289F0E26F9FB0011124655844
:100FD0007C4F6115710509F079C0AAC0D80115963A
:100FE0008C91823009F4A4C0C8010E948403882334
:100FF00009F49EC0D8015B96ED91FC915C97169622
:101000004D905D906D907C901997B2E04B1A51080D
:1010100061087108058404C0440C551C661C771CCB
:101020000A94D2F786859785A089B189480E591E02
:101030006A1E7B1E9480E1E04E1A51086108710817
:10104000992009F10E949A0C882309F471C0EBE7FA
:10105000F3E0119225E0EB37F207D9F7D301C20193
:10106000890D911DA11DB11D809301019093020175
:10107000A0930301B093040180916D03816080937C
:101080006D039A94DDCFD8015B96ED91FC915C974E
:1010900080E092E0A0E0B0E0058404C0880F991FD2
:1010A000AA1FBB1F0A94D2F7F801438954896589A6
:1010B0007689840F951FA61FB71F838B948BA58BF2
:1010C000B68BD70152961C926BE773E080E2FB016E
:1010D00011928A95E9F78BE0F601DB0101900D9200
:1010E0008A95E1F781E298E2DB0151969C938E9319
:1010F000509720E038E01F963C932E931E9753960E
:101100009C938E93529759969C938E93589757968B
:101110003C932E9356970E949A0C882349F04B2DAE
:10112000F7016289C7010E947002A82E01C0A12C9C
:101130008A2D2B960FB6F894DEBF0FBECDBFDF9180
:10114000CF911F910F91FF90EF90DF90CF90BF90C4
:10115000AF909F907F906F905F904F900895FC01AB
:10116000818D928D009711F00C94E6058FEF9FEF23
:1011700008950F931F93CF93DF93FC01818D928D80
:101180000097B9F0EF010E94E6058C010F3F8FEF49
:10119000180791F0898D9A8DFC01428553856485ED
:1011A000758541505109610971090E94DA01C80130
:1011B00005C080E090E002C08FEF9FEFDF91CF91FC
:1011C0001F910F910895EF92FF920F931F93CF936A
:1011D000DF93EC017901411551056105710511F4A9
:1011E00082E13CC08B85833039F089E0440F551F84
:1011F000661F771F8A95D1F79A01AB0168E1CE018E
:101200000E94F004882311F084E028C08EEF0E9431
:10121000980487018EEFF81AF80181918F010E94DE
:1012200098040E151F05C1F78FEF0E9498048FEFE9
:101230000E9498040E949F048A878F71853031F044
:1012400081E18D83CE010E948D0409C068E572E0C2
:10125000CE010E94A204811107C085E18D83CE01D9
:101260000E948D0480E013C020E030E0A9016DE011
:10127000CE010E94F004811104C00E949F048823C3
:1012800011F084E1EBCFCE010E948D0481E0DF916B
:10129000CF911F910F91FF90EF900895FC01DB011A
:1012A00012968D919C9113979383828384E491E0AD
:1012B0009183808314968C911497848315968C91D6
:1012C0001597858316964D915D916D917C91199737
:1012D00046835783608771871A964D915D916D9112
:1012E0007C911D9742875387648775871E964D9121
:1012F0005D916D917C91519746875787608B718B7B
:1013000052968C915297828B53964D915D916D912F
:101310007C915697438B548B658B768B57964D916A
:101320005D916D917C915A97478B508F618F728F31
:101330005B968D919C915C97948F838F0895EF922B
:10134000FF920F931F93CF93DF93EC017B018A01F0
:101350001B821A8288EE93E0A0E0B0E08C839D832C
:10136000AE83BF838CE491E0998388838DE190E024
:101370000E94B3249A8F898F009779F02DE1F701AD
:10138000DC0101900D922A95E1F74CE050E0B801A4
:10139000CE010C960E94D726188EDF91CF911F9117
:1013A0000F91FF90EF9008951F920F920FB60F923A
:1013B00011242F933F934F935F936F937F938F935A
:1013C0009F93AF93BF93EF93FF93E0914C02F09103
:1013D0004D02309709F451C0968DA685B785858555
:1013E00091FF04C09C91892329F447C09C918923D3
:1013F00009F043C0A389B4899C918589809589238C
:101400008C93868997890197F1F7608D718DA685F8
:10141000B785558538E020E0CB010197F1F7822FA1
:1014200090E095958795282F4C91452309F02068E9
:10143000315091F7868D81FD209580914B0290E08F
:1014400001968F73992730914A02381749F0A0917D
:101450004B02B0E0A55DBC4F2C9380934B0203C0C0
:10146000868D8160868F828D938D0197F1F7A38998
:10147000B4899C918589892B8C93FF91EF91BF91C1
:10148000AF919F918F917F916F915F914F913F911C
:101490002F910F900FBE0F901F901895E0914C0266
:1014A000F0914D02E817F90769F4A389B4899C917A
:1014B0008589809589238C9310924D0210924C025D
:1014C00081E0089580E00895FC01918D828D981748
:1014D00061F0828DDF01A80FB11D5D968C91928D18
:1014E0009F5F9F73928F90E008958FEF9FEF089515
:1014F000FC01918D828D981731F0828DE80FF11DDE
:10150000858D90E008958FEF9FEF0895FC01918DF8
:10151000228D892F90E0805C9F4F821B91098F73F1
:10152000992708958DE795E00E94860A21E0892B8E
:1015300009F420E0822F0895FC01848DDF01A80FBB
:10154000B11DA35ABF4F2C91848D90E001968F73EB
:101550009927848FA689B7892C93A089B1898C910A
:1015600080648C93938D848D981306C00288F389D0
:10157000E02D80818F7D80830895EF92FF920F93FD
:101580001F93CF93DF93EC0181E0888F9B8D8C8D2F
:10159000981305C0E889F989808185FD24C0F62E5D
:1015A0000B8D10E00F5F1F4F0F731127E02E8C8DF6
:1015B000E8120CC00FB607FCFACFE889F9898081E0
:1015C00085FFF5CFCE010E949C0AF1CF8B8DFE01E5
:1015D000E80FF11DE35AFF4FF0820B8FEA89FB8978
:1015E0008081806207C0EE89FF896083E889F9897C
:1015F00080818064808381E090E0DF91CF911F91B2
:101600000F91FF90EF900895CF93DF93EC01888DB9
:101610008823C9F0EA89FB89808185FD05C0A889F6
:10162000B9898C9186FD0FC00FB607FCF5CF80817C
:1016300085FFF2CFA889B9898C9185FFEDCFCE01C6
:101640000E949C0AE7CFDF91CF91089580E090E05F
:10165000892B29F00E94920A81110C9400000895B0
:101660000E94AA261F920F920FB60F9211242F9359
:101670003F934F935F936F937F938F939F93AF931A
:10168000BF93EF93FF938DE795E00E949C0AFF9133
:10169000EF91BF91AF919F918F917F916F915F91EA
:1016A0004F913F912F910F900FBE0F901F90189563
:1016B0001F920F920FB60F9211242F938F939F9327
:1016C000EF93FF93E0918D05F0918E058081E0917D
:1016D0009305F091940582FD12C09081809196054A
:1016E0008F5F8F7320919705821751F0E0919605D7
:1016F000F0E0E358FA4F958F8093960501C0808102
:10170000FF91EF919F918F912F910F900FBE0F90AE
:101710001F901895833081F028F4813099F0823041
:10172000A1F008958730A9F08830B9F08430D1F461
:10173000809180008F7D03C0809180008F7780939F
:101740008000089584B58F7702C084B58F7D84BDF5
:1017500008958091B0008F7703C08091B0008F7D95
:101760008093B00008951F93CF93DF93282F30E02C
:10177000F901E254FF4F8491F901E65FFE4FD491E5
:10178000F901EA50FF4FC491CC23C9F0162F811103
:101790000E948A0BEC2FF0E0EE0FFF1FEE51FF4F7F
:1017A000A591B4918FB7F894111105C09C91ED2FBC
:1017B000E095E92302C0EC91ED2BEC938FBFDF9114
:1017C000CF911F910895CF93DF9390E0FC01E65FE6
:1017D000FE4F2491FC01EA50FF4F8491882361F170
:1017E00090E0880F991FFC01EC54FF4FC591D491F4
:1017F000FC01EE51FF4FA591B491611109C09FB753
:10180000F8948881209582238883EC912E230BC045
:10181000623061F49FB7F8943881822F80958323DA
:101820008883EC912E2B2C939FBF06C08FB7F89422
:10183000E8812E2B28838FBFDF91CF9108953FB78A
:10184000F8948091770390917803A0917903B091F7
:101850007A0326B5A89B05C02F3F19F00196A11D5C
:10186000B11D3FBFBA2FA92F982F8827820F911D36
:10187000A11DB11DBC01CD0142E0660F771F881F7D
:10188000991F4A95D1F708952FB7F8946091730383
:101890007091740380917503909176032FBF089522
:1018A0001F920F920FB60F9211242F933F938F9395
:1018B0009F93AF93BF938091730390917403A09112
:1018C0007503B09176033091720323E0230F2D3717
:1018D00020F40196A11DB11D05C026E8230F029634
:1018E000A11DB11D20937203809373039093740321
:1018F000A0937503B093760380917703909178035A
:10190000A0917903B0917A030196A11DB11D809336
:10191000770390937803A0937903B0937A03BF91F0
:10192000AF919F918F913F912F910F900FBE0F908C
:101930001F90189580916D038823A9F140910101B2
:101940005091020160910301709104012BE733E093
:1019500080917B0590917C050E94E308811102C073
:1019600080E0089540916E0350916F036091700381
:1019700070917103411551056105710591F02BE7D7
:1019800033E080917B0590917C050E94E3088823D9
:1019900039F310926E0310926F031092700310923D
:1019A000710310926D0381E008958F929F92AF9220
:1019B000BF92EF92FF920F931F93CF934B015C0165
:1019C000C42F8091010190910201A0910301B09177
:1019D000040188159905AA05BB0501F10E949A0C1E
:1019E000811102C080E020C08BE7E82E83E0F82E52
:1019F00000E012E020E030E0B501A40180917B0519
:101A000090917C050E945205882361F38092010128
:101A100090920201A0920301B092040180916D03A3
:101A2000C82BC0936D0381E0CF911F910F91FF9060
:101A3000EF90BF90AF909F908F9008954F925F92DC
:101A40006F927F928F929F92AF92BF92CF92DF92CE
:101A5000EF92FF920F931F93CF93DF93EC016A01F4
:101A60007B0128013901423051056105710510F4EF
:101A700080E073C089859A85AB85BC850196A11DE0
:101A8000B11D84179507A607B70790F38B889C882C
:101A9000AD88BE888F89803129F4BB27AF2D9E2D5C
:101AA0008D2D09C0DB01CA0147E0B695A795979532
:101AB00087954A95D1F7880E991EAA1EBB1E809164
:101AC000010190910201A0910301B09104018816D7
:101AD0009906AA06BB0679F48F898031A1F4DD242A
:101AE000EE24FF24C601880F991FFC01E558FC4F26
:101AF0005182408219C040E0C501B4010E94D50C5A
:101B00008111EACFB5CFE894C7F8DD24EE24FF2495
:101B1000C601880F991F880F991FFC01E558FC4FDB
:101B2000408251826282738280916D0381608093D2
:101B30006D038A89823080F08D819E81AF81B88566
:101B4000880E991EAA1EBB1E80926E0390926F0390
:101B5000A0927003B092710381E0DF91CF911F9149
:101B60000F91FF90EF90DF90CF90BF90AF909F903C
:101B70008F907F906F905F904F9008958F929F927B
:101B8000AF92BF92CF92DF92EF92FF920F931F938B
:101B9000CF93DF93FC0181859285A385B48501965F
:101BA000A11DB11D84179507A607B70710F480E0A3
:101BB0005CC083899489A589B689C789C03129F415
:101BC000852E962EA72EBB2409C04A015B01C7E0D3
:101BD000B694A79497948794CA95D1F7E9016A01BE
:101BE0007B018F01BC01CD01680D791D8A1D9B1DF4
:101BF0008090010190900201A0900301B090040137
:101C0000681579058A059B0599F4F8018789803163
:101C1000A9F4B701A601552766277727440F551F5A
:101C2000FA01E558FC4F80819181A0E0B0E018C036
:101C300040E00E94D50C8111E8CFB9CFB701A601D1
:101C40004F77552766277727440F551F440F551F99
:101C5000FA01E558FC4F80819181A281B381BF7068
:101C600088839983AA83BB8381E0DF91CF911F9101
:101C70000F91FF90EF90DF90CF90BF90AF909F902B
:101C80008F9008954F925F926F927F92AF92BF9222
:101C9000CF92DF92EF92FF920F931F93CF93DF9338
:101CA00000D000D0CDB7DEB78C0149835A836B8357
:101CB0007C835901C12CD12C7601412C82E0582E15
:101CC000612C712C49815A816B817C819E012F5F2F
:101CD0003F4FC8010E94BE0D882351F1D301C201BC
:101CE000F801058404C0880F991FAA1FBB1F0A941E
:101CF000D2F7C80ED91EEA1EFB1E49815A816B819C
:101D00007C818789803129F088EF9FEFAFEFBFE0BA
:101D100004C088EF9FEFA0E0B0E0481759076A07BA
:101D20007B0780F2F501C082D182E282F38281E0FA
:101D30000F900F900F900F90DF91CF911F910F9107
:101D4000FF90EF90DF90CF90BF90AF907F906F901B
:101D50005F904F900895CF93DF93EC018D8188239E
:101D6000A1F18C8187FF2DC06E857F858889998937
:101D700041E00E94D50C882341F1EA8980E2E89F86
:101D8000F0011124DF01A558BC4F1097F1F08D81AF
:101D9000823050F44B895C896D897E895C964D93C5
:101DA0005D936D937C935F978F89988DA98DBA8D84
:101DB000E558FC4F938F828FB58BA48B8C818F77E6
:101DC0008C83DF91CF910C949A0C80E0DF91CF91BE
:101DD00008952F923F924F925F926F927F928F92CF
:101DE0009F92AF92BF92CF92DF92EF92FF920F93AA
:101DF0001F93CF93DF9300D000D0CDB7DEB78C0117
:101E00005B011A01DC0115968C9115978130C9F49C
:101E100014968C9181FF15C082FF1BC0F801438985
:101E200054896589768982859385A485B5858417CB
:101E30009507A607B70769F0C8010E94DA0181116A
:101E400008C081E090E0F8019383828380E090E015
:101E500039C1610183C0D8015B968D919C915C97DB
:101E6000FC01248121502A013B0139E076946794DA
:101E7000579447943A95D1F7722E74207A01F1E085
:101E8000FF22772009F476C080E092E08E199F0946
:101E900046018C159D0508F44C01D8015B962D91E7
:101EA0003C915C9716968D919D910D90BC91A02DC3
:101EB0000297A109B109F901058404C0880F991F8F
:101EC000AA1FBB1F0A94D2F746855785608971897E
:101ED000840F951FA61FB71F9C01AD01270D311D53
:101EE000411D511D29013A01811432E0930609F088
:101EF00088C08091010190910201A0910301B091ED
:101F0000040184159505A605B70559F48FEF9FEFD9
:101F1000DC018093010190930201A0930301B0932F
:101F200004019501B301A20180917B0590917C058C
:101F30000E94E308882309F484CF9EEFB91AC818D9
:101F4000D908F80182859385A485B585880D991DEA
:101F5000A11DB11D82879387A487B587D8011A96E2
:101F60004D915D916D917C911D97C114D10409F043
:101F700072CF87C0E114F10409F086CF16964D9117
:101F80005D916D917C911997411551056105710520
:101F900059F457968D919D910D90BC91A02D00976D
:101FA000A105B10541F521C09E012F5F3F4F0E9461
:101FB000BE0D882309F44BCF89819A81AB81BC8106
:101FC000F801238D348DF9012789203129F048EF5C
:101FD0005FEF6FEF7FE004C048EF5FEF60E070E01D
:101FE00084179507A607B70730F0C8010E9484033D
:101FF00081114ACF26CFF80186839783A087B187C6
:1020000043CFE114F10429F5D8011A964D915D9161
:102010006D917C911D9753968D919D910D90BC91E2
:10202000A02D481759076A077B0798F00E949A0C61
:10203000882309F406CF4092010150920201609278
:1020400003017092040180916D03816080936D03A0
:1020500008C041E0C301B2010E94D50C882309F4F5
:10206000F0CED501F701E558FC4FCF01880D991D41
:10207000E817F90719F02D912193FACFA80CB91C94
:102080005ECF53968D919D910D90BC91A02D84179C
:102090009507A607B70740F4F801438B548B658B6F
:1020A000768B848180688483D80114968C9183FD1B
:1020B00002C0C10107C0C8010E94AB0E882309F409
:1020C000C0CEF7CF0F900F900F900F90DF91CF9170
:1020D0001F910F91FF90EF90DF90CF90BF90AF9046
:1020E0009F908F907F906F905F904F903F902F9038
:1020F0000895CF93DF931F92CDB7DEB7698341E098
:1021000050E0BE016F5F7F4F0E94E90E0F90DF919C
:10211000CF910895CF92DF92EF92FF920F931F938A
:10212000CF93DF936C017A018B01C0E0D0E0CE1534
:10213000DF0589F0D8016D918D01D601ED91FC91FB
:102140000190F081E02DC6010995892B11F47E01E3
:1021500002C02196ECCFC701DF91CF911F910F9163
:10216000FF90EF90DF90CF900895E0918206F0917C
:1021700083068E179F07F0F530918706332361F0B1
:10218000639FB0011124672F439FA0011124452FA5
:10219000239F90011124232F30918D0650918A06A0
:1021A000E0918806F0918906351308C0DC01AA0F7A
:1021B000BB1F8A0F9B1F8E0F9F1F0AC0880F991F7E
:1021C000880F991F8E0F9F1FFC01E30FF11D1082D6
:1021D00030918A06FC01E30FF11D608330918B067C
:1021E000FC01E30FF11D408330918C06FC01E30FED
:1021F000F11D208308958F929F92AF92BF92CF924C
:10220000DF92EF92FF92CF93DF93C82F8CE196E09D
:1022100090937C0580937B05CC2369F1C53010F049
:1022200080E00DC140E060E070E0CB010E94D50C81
:102230008823B1F320E1C29FC001112485599C4F2E
:10224000FC01E254FE4F20812F7751F73C964081EC
:10225000518162817381443651056105710500F336
:102260003497C080D180E280F380C114D104E104AE
:10227000F10421F4D5CFC12CD12C760140E0C70167
:10228000B6010E94D50C882359F280918603909163
:1022900087038115924021F6A0918B03AA2309F4AC
:1022A000BFCF6091890370918A036115710509F4AC
:1022B000B7CF20918803222309F4B2CFA0933A0626
:1022C00020932C0680E030E0E1E0F0E0C82FAF0181
:1022D000082E02C0440F551F0A94E2F72417350751
:1022E00041F0982F8F5F983089F789E08093350609
:1022F00097CF809335062091910330919203211559
:10230000310519F040E050E008C020919F03309162
:10231000A0034091A1035091A20320932D06309376
:102320002E0640932F065093300646015701860E25
:10233000971EA11CB11C80923B0690923C06A09275
:102340003D06B0923E06E0918C03F0918D03F09330
:102350004106E0934006B0E00E948D2D860E971E48
:10236000A81EB91E8092420690924306A09244068F
:10237000B092450685E0EE0FFF1F8A95E1F7E15028
:10238000FE4FEF2FFF27E6958E0E9F1EA11CB11C5E
:102390008092360690923706A0923806B09239069F
:1023A00020918E0330918F032115310521F0A90171
:1023B00060E070E008C040919B0350919C036091E5
:1023C0009D0370919E03D701C60188199909AA0936
:1023D000BB09840F951FA61FB71F04C0B695A7950C
:1023E00097958795CA95D2F78093310690933206D8
:1023F000A0933306B0933406853F2FE09207A105E2
:10240000B10510F48CE018C0853F9F4FA105B105C0
:1024100010F480E111C08091A7039091A803A091CE
:10242000A903B091AA038093420690934306A09318
:102430004406B093450680E280933F0681E0DF9139
:10244000CF91FF90EF90DF90CF90BF90AF909F9093
:102450008F900895CF93DF93FC012481358142173B
:10246000530780F4FB01DC01CD91DC916081718127
:10247000CE01840F951F0E94E626009719F08C1B51
:102480009D0B02C08FEF9FEFDF91CF910895EF92E8
:10249000FF920F931F93CF93DF93EC011982188261
:1024A0001B821A821D821C8261157105A9F17B01B4
:1024B000FB0101900020E9F731978F01061B170BF4
:1024C000B8016F5F7F4F80E090E00E94E0250097A9
:1024D00059F0998388831B830A832C813D81232BA8
:1024E00081F4FC0110820DC088819981009711F060
:1024F0000E944825198218821D821C821B821A8222
:102500000BC01D830C83B701DF91CF911F910F91F9
:10251000FF90EF900C94D026DF91CF911F910F91F7
:10252000FF90EF9008956115710579F0FB0101901E
:102530000020E9F73197AF01461B570BDC01ED9105
:10254000FC910280F381E02D099480E090E00895F1
:102550004F925F926F927F92EF92FF920F931F9331
:10256000CF93DF93CDB7DEB7A1970FB6F894DEBF58
:102570000FBECDBF7C01FA01CB0119A2223008F4B5
:102580002AE08E010F5D1F4F422E512C612C712CC1
:10259000BF01A30192010E946B2DF901CA010150F4
:1025A00011096A3014F4605D01C0695CD8016C9354
:1025B000232B242B252B61F7B801C7010E9493120E
:1025C000A1960FB6F894DEBF0FBECDBFDF91CF91BD
:1025D0001F910F91FF90EF907F906F905F904F90C1
:1025E00008954F925F926F927F928F929F92AF92D7
:1025F000BF92CF92DF92EF92FF92CF93DF93EC01E5
:102600006A017B01B22E9A01AB01C701B6010E949B
:102610008524882319F06BE372E027C02601370177
:10262000E89477F82FEF3FEF4FE75FE7C301B20180
:102630000E94852481110DC02FEF3FEF4FE75FE728
:10264000C301B2010E94372C18161CF46FE372E02C
:102650000CC02FEF3FEF4FE75FE4C701B6010E94C8
:10266000262418169CF463E472E0CE01DF91CF912A
:10267000FF90EF90DF90CF90BF90AF909F908F90A2
:102680007F906F905F904F900C9493122FEF3FEFDD
:102690004FE75FECC701B6010E94372C87FDE3CFFF
:1026A00020E030E0A901C701B6010E94372C87FF66
:1026B0000EC0E881F9810190F081E02D6DE2CE013C
:1026C00009954C01F7FAF094F7F8F09402C0812CC8
:1026D000912CA12C60E070E080E09FE3AB1441F00E
:1026E00020E030E040E251E40E941823A394F6CFAA
:1026F0009B01AC01C701B6010E9435222B013C01B0
:102700000E9491236B017C010E943C2C9B01AC0137
:10271000C301B2010E9434222B013C012AE0B7011F
:10272000A601CE010E94A8127C01E80CF91CBB2076
:1027300039F06BE871E0CE010E949312E80EF91EA9
:10274000DB2CDD2029F120E030E040E251E4C30140
:10275000B2010E949D2C2B013C010E9491234B0150
:10276000A12CB12C2AE0B501A401CE010E94A8122F
:10277000E80EF91EC501B4010E943C2C9B01AC017E
:10278000C301B2010E9434222B013C01DA94D9CF5B
:10279000C701DF91CF91FF90EF90DF90CF90BF9076
:1027A000AF909F908F907F906F905F904F90089523
:1027B0000F931F93CF93DF93EC0122E00E94F1125D
:1027C0008C0167E472E0CE010E949312800F911F8A
:1027D000DF91CF911F910F9108950F931F93CF9386
:1027E000DF93EC010E9493128C0167E472E0CE014A
:1027F0000E949312800F911FDF91CF911F910F9133
:102800000895CF93DF93CDB7DEB7C75AD1090FB67E
:10281000F894DEBF0FBECDBF789484B5826084BDCE
:1028200084B5816084BD85B5826085BD85B58160D4
:1028300085BD80916E00816080936E001092810052
:10284000809181008260809381008091810081600D
:1028500080938100809180008160809380008091CE
:10286000B10084608093B1008091B000816080935A
:10287000B00080917A00846080937A0080917A0021
:10288000826080937A0080917A00816080937A00E0
:1028900080917A00806880937A001092C1006091E4
:1028A0008706633321F120918806309189066150B3
:1028B00031F070E08FEF92E30E94062202C060E0E8
:1028C00070E0F9014091840650918506CF01821B8A
:1028D000930B8417950740F44081469FC001479FA2
:1028E000900D11249193EECF83E380938706E091BE
:1028F0008D05F0918E0582E08083E0918905F0914D
:102900008A051082E0918B05F0918C058FEC808315
:1029100010929505E0919105F091920586E08083F3
:10292000E0918F05F0919005808180618083E09136
:102930008F05F0919005808188608083E0918F05FC
:10294000F0919005808180688083E0918F05F091FF
:10295000900580818F7D808361E086E00E94E30B9B
:102960008AE991ECA4EEB1E480935D0290935E025B
:10297000A0935F02B09360028FED9BE9A2EAB2ECF4
:102980008093610290936202A0936302B093640209
:102990001092270610922506109222061092210608
:1029A0008AE0809320060E94440C8B0161E08091B4
:1029B00020060E94E30B61E0809120060E94B30B89
:1029C000FFB6F89480914E02811127C0E0E0F1E05B
:1029D0008491E4E1F1E09491E82FF0E0EE0FFF1F25
:1029E000EC54FF4FA591B491EC91E92321F461E0FF
:1029F0008AE00E94B30B61E08AE00E94E30B8CB591
:102A000080618CBD8CB580648CBD61E08DE00E94DE
:102A1000E30B61E08BE00E94E30B80914E028F5F3D
:102A200080934E02FFBE82E580931A0610921B0629
:102A300080911A0690911B060E94D704BAE0FB2EE3
:102A40008FEF0E949804FA94F110FACF8CE196E08F
:102A50000E94DA0420E030E0A90160E08CE196E019
:102A60000E94F004F82E8093260681E0F81649F0C3
:102A70000E94440C601B710B613D774058F381E06C
:102A800056C02AEA31E040E050E068E08CE196E090
:102A90000E94F00482FF03C0F092270610C0A4E059
:102AA000FA2E0E949F0480932606FA94F110F9CF23
:102AB0008A3A11F082E03BC082E080932706809141
:102AC0002706823021F0C12CD12C760105C0C12C03
:102AD000D12CE12CF0E4FF2E20E030E0A90167E3E7
:102AE0008CE196E00E94F004A701960169E28CE176
:102AF00096E00E94F00480932606882349F00E9405
:102B0000440C601B710B613D774030F388E00FC0CF
:102B100080912706823001F520E030E0A9016AE3C8
:102B20008CE196E00E94F004882341F086E08093D7
:102B300021068CE196E00E948D04B0C00E949F04A3
:102B4000807C803C19F483E0809327060E949F04D8
:102B50000E949F040E949F048CE196E00E948D04D5
:102B600080E580931A0610921B0681E00E94FB10FC
:102B7000882329F080914B06882341F08FC080E0A4
:102B80000E94FB10882309F489C0F4CF80913F068E
:102B9000803109F582E080934B0610925D06109219
:102BA0005E0610925F06109260068091400690913A
:102BB0004106A0E0B0E0E5E0880F991FAA1FBB1F07
:102BC000EA95D1F78093590690935A06A0935B0635
:102BD000B0935C061FC0803209F060C083E0809330
:102BE0004B06409142065091430660914406709115
:102BF000450640935D0650935E0660935F067093B2
:102C0000600629E536E088E296E00E94420E8823BD
:102C100009F444C088E296E09093620680936106CE
:102C200081E080934A0610924C0610924D06109255
:102C30004E0610924F0610925006109251061092B6
:102C40005206109253061092540610925506109296
:102C500056061092570610925806812C912C54015A
:102C60007E01A3E7EA0EF11CE0910B01F0910C014B
:102C7000C457DF4FF983E883CC58D040C701029690
:102C8000C057DF4F99838883C059D0401E019BE312
:102C9000290E311CDE0111966D0192C010920001C7
:102CA00060E871E08DE795E00E94ED13FAC121E044
:102CB000AE01485A5F4FB801872D962D0E94F0064D
:102CC000282FB6E006341B0709F0C1C0882309F499
:102CD000CDC08E01025E1F4F902F812F072D162D24
:102CE0003C01252D342DF701E20FF31F80818F3237
:102CF00011F42F5F3F4FDE01A85ABF4F80E090E0F4
:102D0000F701E20FF31F40814F3249F0442339F0BD
:102D100001962F5F3F4F4D938C30910589F7E8E581
:102D2000F0E0EC0FFD1FE80FF91F1082F701E20F32
:102D3000F31F80818F3211F42F5F3F4F522E432EAD
:102D4000F701E20FF31F2081CC57DF4F2883C458CF
:102D5000D0401C821B8284E491E09A8389831E8286
:102D600021E0AE01485A5F4FB801C6010E94F0064B
:102D7000882309F464C0C6010E947803CC57DF4F52
:102D80009881C458D040911192CFE6E006341E07D6
:102D900019F0C8010E947803F3E68F169104A1048C
:102DA000B10411F410920001BFEF8B1A9B0AAB0A19
:102DB000BB0AE4E68E169104A104B10409F471C1C2
:102DC000C457DF4F88819981CC58D040F701918357
:102DD00080838AE0C057DF4FA881B981C059D040B5
:102DE0001D928A95E9F72AE0B501A4018DE795E0E7
:102DF0000E94A8129F928F92ADE8B1E0BF93AF936B
:102E0000FF92EF920E9400271EAE1DAE84E491E077
:102E10009CAF8BAF21961FAE219719A218A29F8F4E
:102E20008E8F1BA20F900F900F900F900F900F900E
:102E3000512C412C722C632C06E416E052CFA6E0F4
:102E400006341A0799F0C8010E9478030FC0C80120
:102E5000C955DF4F2883C75AD0400E947803C9550F
:102E6000DF4F2881C75AD040211136CFB7018DE7F7
:102E700095E00E9493126AE971E08DE795E00E9467
:102E8000ED134E012EE1820E911C66E476E0C40142
:102E90000E944E091C821B8284E491E09A838983FC
:102EA0001E825C2C4D2C340157016FE270E0C5018D
:102EB0000E94C526009709F445C0D5012C912F32F8
:102EC00049F4BFEFAB1ABB0AC201562C472C692E3E
:102ED000782E32C08A198D3008F08CE0082F10E06F
:102EE000A801B501CE01885A9F4F0E94D726E8E578
:102EF000F0E0EC0FFD1FE00FF11F1082852D942DE7
:102F00000E94780321E0AE01485A5F4FB301852D3E
:102F1000942D0E94F00681110AC01EAE1DAE84E4FD
:102F200091E09CAF8BAF21961FAE219718C0A00EE9
:102F3000B11EC3010E947803962D872D652C742C39
:102F40002C01B3CFF501EE19FF09C857DF4FF98304
:102F5000E883C858D040B301C1010E944E09C85748
:102F6000DF4F88819981C858D040E80EF91ED701FB
:102F70008C91811107C0B101C6010E944E0940EB3E
:102F800051E044C019A218A284E491E09F8F8E8F73
:102F90001BA221968FAD2197811116C06C961FAE92
:102FA0001EAE6C9788EE93E0A0E0B0E0A0968CAFE8
:102FB0009DAFAEAFBFAFA097E3961FAE1EAEE39737
:102FC000A5961FAEA59728C0825023E1A7018230A5
:102FD00040F466E476E0C4010E94F00681110AC064
:102FE000DDCFB101C4010E94F0068823B9F2C1010E
:102FF0000E94780349A95AA96BA97CA9C4010E941F
:10300000DA01B401C6010E944E09A701B601CE0142
:10301000885A9F4F0E949F096C968EAD9FAD6C970A
:103020009093680680936706A0968CAD9DADAEAD7B
:10303000BFADA0978093690690936A06A0936B0634
:10304000B0936C06A4968CAD9DADAEADBFADA4970C
:1030500080936D0690936E06A0936F06B0937006F2
:103060008DE0E8E5F0E0EC0FFD1F3C96A1E7B6E04F
:1030700001900D928A95E1F7E396EEADFFADE397EF
:10308000F0937F06E0937E06309719F085818111D9
:1030900008C062EB71E08DE795E00E94ED1310929D
:1030A00000011092B0061092AF061092AE06109278
:1030B000AD061092AC061092AB068DE991E09093AC
:1030C000B2068093B1069091A106963108F057C0E0
:1030D0002DEB30E03093AC062093AB062BE931E0CA
:1030E0003093AE062093AD062CE231E03093B0066B
:1030F0002093AF0620916800983050F031E09E3068
:1031000008F430E081E001C0880F3A95EAF701C089
:1031100084E0822B80936800983038F09E3040F035
:10312000963148F020E030E008C02DE630E005C0E0
:103130002BE630E002C02CE630E03093A906209365
:10314000A806983030F481E001C0880F9A95EAF71C
:103150000EC0292F30E09E3018F42850310902C0EB
:103160002E50310981E001C0880F2A95EAF780933B
:10317000AA068091B1069091B2060197F1F780916D
:10318000AF069091B006892B21F180914C0290916D
:103190004D02F6E085399F07E1F0009711F00E949B
:1031A0004E0A8091B3068E7F8093B30610924B0235
:1031B00010924A0285E996E090934D0280934C026A
:1031C000E091A806F091A90690818091AA06892B2A
:1031D000808369EC71E085E996E00E94ED136AED69
:1031E00071E085E996E00E94ED1363EF71E085E9F7
:1031F00096E00E94ED138BE0E3E9F2E0DF01282F77
:103200001D922A95E9F7E3E8F2E0DF011D928A9525
:10321000E9F787E0E3EAF2E0DF011D928A95E9F73A
:1032200062E083E00E94E30B7DE0272E71E0372E01
:1032300009EF10E068E8E62E63E1F62EE1ECF0E03D
:103240008491F101C490F801D490DD2089F08111BE
:103250000E948A0BED2DF0E0EE0FFF1FE451FF4FAF
:10326000A591B4918C91C82219F010922A0318C02C
:1032700091E0E91AF10811F780912A0381110DC03C
:1032800080917D0290917E02019664E070E00E9440
:103290001A2290937E0280937D0281E080932A031C
:1032A00080E8EAEAF2E0DF011D928A95E9F7F12C65
:1032B00085E996E00E9410010196D1F385E996E038
:1032C0000E949501EF2DF0E0E655FD4F8083FF2031
:1032D00029F0843219F48093AA02F12C8091AA0279
:1032E000843231F781E08F0DEF2DF0E0E655FD4F90
:1032F00090819A3011F0F82EDBCF90E0FC01E85578
:10330000FD4F10827C01A5E0EA1AF108F701E655AD
:10331000FD4F20812A3259F640E150E060E070E034
:103320008A559D4F0E94A12921E0822F90E08E15A1
:103330009F053CF4FC01E655FD4F808168272F5F17
:10334000F4CF6111B4CF8091BC02813409F0AFCFCA
:103350008091AD02823509F043C46AEA72E0CE0181
:103360004E960E94471222E0EE24EA94FE2C65E27B
:1033700072E0CE010196C955DF4F2883C75AD0406D
:103380000E944712A7014F5F5F4FBE016F5F7F4FE3
:10339000CE014E960E942A127C0189819A810E9458
:1033A0004825C955DF4F2881C75AD040213011F038
:1033B00021E0DDCFF701E655FD4F8181813411F029
:1033C000F12C9FC06701E3E0CE0ED11C65E272E0F4
:1033D000CE0101960E944712A7014C5F5F4FBE01CC
:1033E0006F5F7F4FCE014E960E942A127C01898129
:1033F0009A810E944825FFEFEF16FF0609F3A70107
:103400004C195D09B60166557D4F83E992E00E9433
:10341000BC26F701E655FD4F818180939E0223E093
:10342000E20EF11C65E272E0CE0101960E944712A5
:10343000A701BE016F5F7F4FCE014E960E942A12F8
:103440006C0189819A810E9448258FEFC816D806A1
:1034500009F4B6CFA6014E195F09B70166557D4F35
:1034600083E892E00E94BC26F601E655FD4F81817B
:1034700080938E0265E272E0CE0101960E944712AF
:10348000A6014D5F5F4FBE016F5F7F4FCE014E962D
:103490000E942A127C0189819A810E9448259FEF0F
:1034A000E916F90609F48CCFAFEFEA1AFA0A65E2D9
:1034B00072E0CE0101960E944712A701BE016F5F24
:1034C0007F4FCE014E960E942A126C0189819A810B
:1034D0000E944825BFEFCB16DB0609F471CFA60189
:1034E0004E195F09B70166557D4F83EA92E00E944D
:1034F000BC2667E272E08DE795E00E94ED13FF24A1
:10350000F3948E8D9F8D0E944825FF2009F468C397
:1035100063EA72E08DE795E00E94ED1383EA92E0A2
:103520000E94B22A60939F027093A0028093A1022E
:103530009093A20283E992E00E94B22A0E948A2319
:1035400024E6C22ED12CCB01B6010E941A227B01A7
:1035500083E992E00E94B22A4B015C01B7010F2C73
:10356000000C880B990B0E943E2C2B013C01E4E6D9
:10357000EE9DB001EF9D700D1124072E000C880BFD
:10358000990B0E943E2C9B01AC01C501B4010E9425
:10359000342220E030E040E752E40E9418239B01EF
:1035A000AC01C301B2010E94352260938F02709377
:1035B0009002809391029093920283E892E00E949D
:1035C000B22A0E948A23CB01B6010E941A226B0103
:1035D00083E892E00E94B22A2B013C01B6010D2C37
:1035E000000C880B990B0E943E2C4B015C01F4E609
:1035F000FC9DB001FD9D700D1124072E000C880B61
:10360000990B0E943E2C9B01AC01C301B2010E94A8
:10361000342220E030E040E752E40E9418239B016E
:10362000AC01C501B4010E943522C057DF4F688349
:1036300079838A839B83C059D04060937F027093C3
:103640008002809381029093820280919F029091E8
:10365000A002A091A102B091A202CC57DF4F8883B3
:103660009983AA83BB83C458D040E0917D02F09136
:103670007E0233E0EE0FFF1F3A95E1F7E35AFD4F6C
:1036800084819581A681B781CC56DF4F8883998349
:10369000AA83BB83C459D04080819181A281B38128
:1036A000C857DF4F88839983AA83BB83C858D0400B
:1036B00080918F0290919002A0919102B09192021C
:1036C000C457DF4F88839983AA83BB83CC58D040EB
:1036D0002BED3FE049E450E4CC56DF4F688179811F
:1036E0008A819B81C459D0400E949D2C20E030E00B
:1036F00044E353E40E9418236B017C012BED3FE06F
:1037000049E450E4C057DF4F688179818A819B8109
:10371000C059D0400E949D2C20E030E044E353E4A7
:103720000E9418239B01AC01C701B6010E943422FC
:103730002B013C010E943324C456DF4F68837983F8
:103740008A839B83CC59D0402BED3FE049E450E481
:10375000C857DF4F688179818A819B81C858D040E2
:103760000E949D2C20E030E044E353E40E941823A3
:103770004B015C010E941323C856DF4F6883798395
:103780008A839B83C859D0402BED3FE049E450E445
:10379000C457DF4F688179818A819B81CC58D040A2
:1037A0000E949D2C20E030E044E353E40E94182363
:1037B0006B017C010E941323C056DF4F688379831D
:1037C0008A839B83C05AD040C501B4010E94332430
:1037D0009B01AC01C701B601C955DF4F2883C75A09
:1037E000D040CC55DF4F3883C45AD040CB55DF4F43
:1037F0004883C55AD040CA55DF4F5883C65AD04077
:103800000E9433244B015C01C301B2010E941323C7
:103810006B017C01C955DF4F2881C75AD040CC5578
:10382000DF4F3881C45AD040CB55DF4F4881C55A4D
:10383000D040CA55DF4F5881C65AD040C056DF4FDE
:10384000688179818A819B81C05AD0400E949D2CD9
:103850002B013C01C856DF4F288139814A815B81A9
:10386000C859D040C501B4010E949D2CA701960102
:103870000E949D2C9B01AC01C301B2010E94342225
:103880006B017C01C856DF4F288139814A815B81F9
:10389000C859D040C456DF4F688179818A819B81A5
:1038A000CC59D0400E949D2CA70196010E94B422C1
:1038B00020E030E044E353E40E949D2C2BED3FE0F8
:1038C00049E450E40E9418236B017C0120E030E0C1
:1038D000A9010E94372C87FF0AC020E030E044EBAA
:1038E00053E4C701B6010E9435226B017C01CC571D
:1038F000DF4F288139814A815B81C458D040C7019C
:10390000B6010E94262418165CF4CC57DF4F28819C
:1039100039814A815B81C458D040C701B60112C0C9
:10392000A7019601CC57DF4F688179818A819B81FD
:10393000C458D0400E9434229B01AC0160E070E08A
:1039400084EB93E40E9434226093590270935A02EC
:1039500080935B0290935C02C457DF4F28813981CA
:103960004A815B81CC58D040C857DF4F688179814C
:103970008A819B81C858D0400E94342225E33AEFC7
:103980004EE85CE30E949D2C20E030E040E05FE3E5
:103990000E949D2C0E9433244B015C0125E33AEFE9
:1039A0004EE85CE3C457DF4F688179818A819B814F
:1039B000CC58D0400E949D2C0E9413232B013C0127
:1039C00025E33AEF4EE85CE3C857DF4F6881798121
:1039D0008A819B81C858D0400E949D2C0E9413234D
:1039E000CC57DF4F688379838A839B83C458D04048
:1039F000C057DF4F288139814A815B81C059D0404F
:103A0000CC56DF4F688179818A819B81C459D0402F
:103A10000E94342225E33AEF4EE85CE30E949D2C9D
:103A200020E030E040E05FE30E949D2C0E943324C0
:103A30006B017C01A5019401C501B4010E949D2C7C
:103A40004B015C01CC57DF4F288139814A815B8172
:103A5000C458D040C301B2010E949D2C2B013C01EF
:103A6000A7019601C701B6010E949D2C9B01AC01E4
:103A7000C301B2010E949D2C9B01AC01C501B401A0
:103A80000E9435226B017C019B01AC0160E070E07B
:103A900080E89FE30E9434220E9441249B01AC01F4
:103AA000C701B601C955DF4F2883C75AD040CC554E
:103AB000DF4F3883C45AD040CB55DF4F4883C55AB7
:103AC000D040CA55DF4F5883C65AD0400E94412487
:103AD000C955DF4F2881C75AD040CC55DF4F3881B8
:103AE000C45AD040CB55DF4F4881C55AD040CA5543
:103AF000DF4F5881C65AD0400E94B4229B01AC01CE
:103B00000E94352220E030E04AE155EC0E949D2CD5
:103B10006093550270935602809357029093580217
:103B20006093510270935202809353029093540217
:103B300063EA72E08DE795E00E94ED13409159022F
:103B400050915A0260915B0270915C028DE795E0A2
:103B50000E94D8134091550250915602609157022D
:103B6000709158028DE795E00E94D8138091000172
:103B70008823B1F140917F025091800260918102CF
:103B80007091820222E085E696E00E94F11265E2E1
:103B900072E085E696E00E94931240918F02509168
:103BA0009002609191027091920222E085E696E087
:103BB0000E94F11265E272E085E696E00E9493129F
:103BC00040915502509156026091570270915802EF
:103BD00085E696E00E94D81385E696E00E94B6013D
:103BE000C0905502D0905602E0905702F0905802D3
:103BF0008090590290905A02A0905B02B0905C02B3
:103C000020E030E044EB51E4C501B4010E942624D9
:103C100087FD14C020E030E047E852E4C501B4015C
:103C20000E94372C181654F020E04FEF60E082E03D
:103C300090E00E94B51081E090E01DC020E030E0EF
:103C400047E852E4C501B4010E94262487FD18C04C
:103C500020E030E041EE52E4C501B4010E94372C6F
:103C6000181674F020E04FEF60E08AE090E00E94C8
:103C7000B51082E090E09093500280934F02B5C05F
:103C800020E030E041EE52E4C501B4010E94262458
:103C900087FD14C020E030E84DE153E4C501B401D4
:103CA0000E94372C181654F020E04FEF60E082E1BC
:103CB00090E00E94B51083E090E0DDCF20E030E896
:103CC0004DE153E4C501B4010E94262487FD14C0D0
:103CD00020E030E84AE453E4C501B4010E94372CE7
:103CE000181654F020E04FEF60E081E190E00E9470
:103CF000B51084E090E0BFCF20E030E84AE453E420
:103D0000C501B4010E94262487FD14C020E030E8DC
:103D100047E753E4C501B4010E94372C181654F04C
:103D200020E04FEF60E080E190E00E94B51085E078
:103D300090E0A1CF20E030E847E753E4C501B401AB
:103D40000E94262487FD14C020E030E442E953E4B9
:103D5000C501B4010E94372C181654F020E04FEF33
:103D600060E088E090E00E94B51086E090E083CFAC
:103D700020E030E442E953E4C501B4010E94262466
:103D800087FD14C020E030EC48EA53E4C501B401DB
:103D90000E94372C181654F020E04FEF60E080E0CE
:103DA00090E00E94B51087E090E065CF20E030EC15
:103DB00048EA53E4C501B4010E94262487FF0AC0E3
:103DC00020E030E044EB51E4C501B4010E94372CFF
:103DD00018165CF020E04FEF60E081E090E00E9478
:103DE000B5101092500210924F0298E1892E91E086
:103DF000992EA12CB12C80914F0290915002A816BF
:103E0000B90641F020E040E060E0D4018D919C9142
:103E10000E94B510BFEFAB1ABB0AE2E08E0E911CF8
:103E2000F8E0AF16B10439F788E2882E81E0982EC9
:103E3000A12CB12C80917D0290917E0220E0A816E9
:103E4000B90631F44FEF60E0D4018D919C9105C02B
:103E500040E060E0F401808191810E94B510FFEFA5
:103E6000AF1ABF0A22E0820E911C84E0A816B104AA
:103E700009F7C0925102D0925202E0925302F0929E
:103E8000540220E030E04AE754E4C701B6010E9442
:103E9000262487FD03C020E040E045C020E030E05C
:103EA0004AEF53E4C701B6010E94262487FD03C0F0
:103EB00020E045E438C020E030E04AE753E4C701A1
:103EC000B6010E94262487FD03C020E047ED2BC0E9
:103ED00020E030E046E952E4C701B6010E94262402
:103EE00087FD03C02FEF40E00CC020E030E040E24F
:103EF00052E4C701B6010E94262487FD04C020E0D9
:103F00004FEF60E011C020E030E040E251E4C70133
:103F1000B6010E94262487FD04C021EF40E061EF36
:103F200003C02FEF4FEF6FEF86E190E00E94B510D6
:103F30008091880690918906892B09F401C10E941D
:103F40001F0CC0908E06D0908F06E0909006F090E7
:103F50009106DC01CB018C199D09AE09BF09C297FE
:103F6000A105B10560F3F8948091840690918506CF
:103F70009CAF8BAFE0918806F0918906DF01119626
:103F80008081CD57DF4F8883C358D0409091800601
:103F9000E0919206F091930680919406992309F49A
:103FA00056C09081982BCE57DF4F9883C258D0408F
:103FB000908180958923CF57DF4F8883C158D040A7
:103FC000CF57DF4F8881C158D040E4968FAFE49738
:103FD00088E069968FAF6997CE57DF4F5881C258F6
:103FE000D040CF57DF4F6881C158D040CD57DF4F09
:103FF0004881C358D04069963FAD6997E4962FAD8C
:10400000E4978BAD9CAD508347FD252F3A952083D7
:10401000262F39F0441F00C000006083000000C05C
:10402000F2CF38E04D9160830000019761F7F09383
:104030009306E0939206CD57DF4F4883C358D04094
:1040400069963FAF6997E4962FAFE4976CC0908173
:10405000982BCE57DF4F9883C258D04090818095DF
:104060008923CF57DF4F8883C158D040CF57DF4FC8
:104070008881C158D040C058DF4F8883C058D04095
:1040800088E0C158DF4F8883CF57D040CE57DF4FED
:104090005881C258D040CF57DF4F6881C158D040B7
:1040A000CD57DF4F4881C358D040C158DF4F3881CA
:1040B000CF57D040C058DF4F2881C058D0408BAD7B
:1040C0009CAD508347FD252F00C000C0208300C059
:1040D00000C000C000C000C060830000262F3A95D9
:1040E00041F0441F000000C000C000C000C000C07C
:1040F000E8CF38E04D9100C0608300C0019709F718
:10410000F0939306E0939206CD57DF4F4883C35850
:10411000D040C158DF4F3883CF57D040C058DF4F11
:104120002883C058D0409CAF8BAF78940E941F0C5E
:1041300060938E0670938F068093900690939106FD
:104140000E94260B77C88091880690918906009777
:1041500011F00E9448258091860687FD03C060E02B
:104160000E94E30B8CE591E0909396068093950670
:1041700085E996E00C944E0A1092800510927F0516
:1041800088EE93E0A0E0B0E08093810590938205F3
:10419000A0938305B093840524E331E030937E053A
:1041A00020937D0525EC30E030938A052093890526
:1041B00024EC30E030938C0520938B0520EC30E02C
:1041C00030938E0520938D0521EC30E030939005DF
:1041D00020938F0522EC30E03093920520939105D7
:1041E00026EC30E0309394052093930510929605C9
:1041F00010929705109298051092990520E520934A
:104200001A0610921B061092210610922206109296
:1042100025061092270642E050E060E070E04093EF
:1042200028065093290660932A0670932B06109255
:104230003F06109249061092480624E431E030937C
:1042400047062093460610924B061092980610924D
:1042500097068093990690939A06A0939B06B09335
:104260009C068CE591E090939606809395061092BB
:10427000AC061092AB061092AE061092AD061092EC
:10428000B0061092AF061092B2061092B10660917D
:10429000B3066E7F6D7F6093B3066695617081E0B3
:1042A000682787E00E94B30B61E087E00E94E30B80
:1042B000E1E1F1E0E491E093A506EDEFF0E0E491B7
:1042C000F0E0EE0FFF1FEE51FF4F85919491909318
:1042D000A7068093A60660E088E00E94E30B809129
:1042E000B30681FD04C061E088E00E94B30B88E062
:1042F0008093A106E2E1F1E0E491E093A206EEEF03
:10430000F0E0E491F0E0EE0FFF1FE451FF4F8591E4
:1043100094919093A4068093A30610928106109224
:10432000870610928E0610928F06109290061092B9
:10433000910681E080938D0680938A0610928B0609
:1043400092E090938C068093800688E790E09093AB
:104350008506809384060E94B324909389068093F7
:104360008806009761F028E7FC0111922A95E9F789
:1043700088E290E0909383068093820608C01092B2
:10438000850610928406109283061092820686E0BB
:104390008093860680918106882341F061E086E063
:1043A0000E94E30B60E086E00E94B30BECEFF0E0CC
:1043B000E491F0E0EE0FFF1FEE51FF4F85919491D5
:1043C0009093930680939206E0E1F1E0E491E0930C
:1043D0009406109268061092670688EE93E0A0E0BB
:1043E000B0E08093690690936A06A0936B06B09341
:1043F0006C068CE491E090936606809365061092BB
:104400007F0610927E06109271060895AA1BBB1BB0
:1044100051E107C0AA1FBB1FA617B70710F0A61BC4
:10442000B70B881F991F5A95A9F780959095BC01E5
:10443000CD01089597FB072E16F4009407D077FD61
:1044400009D00E94062207FC05D03EF49095819584
:104450009F4F0895709561957F4F0895EE0FFF1F50
:104460000590F491E02D09945058BB27AA270E948B
:104470004C220C94212D0E94132D38F00E941A2DED
:1044800020F039F49F3F19F426F40C94102D0EF40B
:10449000E095E7FB0C940A2DE92F0E94322D58F38A
:1044A000BA17620773078407950720F079F4A6F519
:1044B0000C94542D0EF4E0950B2EBA2FA02D0B0169
:1044C000B90190010C01CA01A0011124FF27591B59
:1044D00099F0593F50F4503E68F11A16F040A22F5F
:1044E000232F342F4427585FF3CF469537952795D0
:1044F000A795F0405395C9F77EF41F16BA0B620BCF
:10450000730B840BBAF09150A1F0FF0FBB1F661F15
:10451000771F881FC2F70EC0BA0F621F731F841F58
:1045200048F4879577956795B795F7959E3F08F07E
:10453000B0CF9395880F08F09927EE0F9795879540
:1045400008950E94132D60F080E891E009F49EEF39
:104550000E941A2D28F040E851E071F45EEF0CC083
:104560000C94102D0C94542DE92FE0780E94322DDC
:1045700040F3092E052AB1F32617370748075907D4
:1045800038F00E2E07F8E02569F0E025E0640AC057
:10459000EF6307F8009407FADB01B9019D01DC0124
:1045A000CA01AD01EF930E942F230E94212D0E948A
:1045B000E4225F91552339F02BED3FE049E450FDB3
:1045C00049EC0C9435220895DF93DD27B92FBF778E
:1045D00040E85FE31616170648075B0718F4D92F63
:1045E0000E942B249F938F937F936F930E9481242B
:1045F000E8E6F0E00E94C0230E94212D2F913F9118
:104600004F915F910E94B02CDD2351F09058A2EAA7
:104610002AED3FE049EC5FE3D0785D270E944C2211
:10462000DF910C94212D0E94E923E3950C94122430
:104630000E942C230C94212D0E941A2D58F00E94C8
:10464000132D40F029F45F3F29F00C940A2D5111ED
:104650000C94552D0C94102D0E94322D68F3992343
:10466000B1F3552391F3951B550BBB27AA2762176E
:104670007307840738F09F5F5F4F220F331F441F7B
:10468000AA1FA9F335D00E2E3AF0E0E832D09150AF
:104690005040E695001CCAF72BD0FE2F29D0660F9C
:1046A000771F881FBB1F261737074807AB07B0E8DF
:1046B00009F0BB0B802DBF01FF2793585F4F3AF0E5
:1046C0009E3F510578F00C940A2D0C94552D5F3FB8
:1046D000E4F3983ED4F3869577956795B795F7956B
:1046E0009F5FC9F7880F911D9695879597F9089553
:1046F000E1E0660F771F881FBB1F621773078407EF
:10470000BA0720F0621B730B840BBA0BEE1F88F7FD
:10471000E09508950E9491236894B1110C94552D51
:1047200008950E943A2D88F09F5798F0B92F992745
:10473000B751B0F0E1F0660F771F881F991F1AF08C
:10474000BA95C9F714C0B13091F00E94542DB1E070
:1047500008950C94542D672F782F8827B85F39F06F
:10476000B93FCCF3869577956795B395D9F73EF425
:1047700090958095709561957F4F8F4F9F4F0895CD
:10478000DF93CF931F930F93FF92EF92DF927B0102
:104790008C01689406C0DA2EEF010E94B02CFE0155
:1047A000E894A5912591359145915591A6F3EF0196
:1047B0000E944C22FE019701A801DA9469F7DF906C
:1047C000EF90FF900F911F91CF91DF9108950C947E
:1047D000102D0E943A2DD8F3E894E0E0BB279F57B4
:1047E000F0F02AED3FE049EC06C0EE0FBB0F661F6C
:1047F000771F881F28F0B23A62077307840728F0F2
:10480000B25A620B730B840BE3959A9572F780385A
:1048100030F49A95BB0F661F771F881FD2F7904818
:104820000C948C24EF93E0FF07C0A2EA2AED3FE04E
:1048300049EC5FEB0E944C220E94212D0F900394C3
:1048400001FC9058E5E9F0E00C949F240E94792C3B
:1048500008F48FEF08959B01AC0160E070E080E800
:104860009FE30C9418239F930E94E9230F9007FC69
:10487000EE5F0C94122419F416F40C94102D0C9481
:104880008A240E943A2DB8F39923C9F3B6F39F57AF
:10489000550B87FF0E9498240024A0E640EA90016F
:1048A00080585695979528F4805C660F771F881F6F
:1048B00020F026173707480730F4621B730B840B70
:1048C000202931294A2BA6951794079420253125B4
:1048D0004A2758F7660F771F881F20F026173707DB
:1048E000480730F4620B730B840B200D311D411D02
:1048F000A09581F7B901842F9158880F96958795D7
:1049000008959B01AC010C949D2C0E94792C880B7E
:10491000990B08959F3F31F0915020F4879577953A
:104920006795B795880F911D9695879597F9089586
:1049300091505040660F771F881FD2F708959F93BC
:104940008F937F936F93FF93EF939B01AC010E9432
:104950009D2CEF91FF910E94C0232F913F914F9189
:104960005F910C949D2CCF93DF938230910510F4CE
:1049700082E090E0E091B606F091B70620E030E0EA
:10498000C0E0D0E0309711F14081518148175907BC
:10499000C0F04817590761F482819381209719F07C
:1049A0009B838A832BC09093B7068093B60626C05C
:1049B0002115310519F04217530718F49A01BE0169
:1049C000DF01EF010280F381E02DDCCF21153105FD
:1049D00009F1281B390B2430310590F412968D9182
:1049E0009C9113976115710521F0FB0193838283DC
:1049F00004C09093B7068093B606FD01329644C07A
:104A0000FD01E20FF31F81939193225031092D9301
:104A10003C933AC02091B4063091B506232B41F463
:104A200020910701309108013093B5062093B40618
:104A300020910501309106012115310541F42DB772
:104A40003EB74091090150910A01241B350BE091BA
:104A5000B406F091B506E217F307A0F42E1B3F0B46
:104A60002817390778F0AC014E5F5F4F24173507E0
:104A700048F04E0F5F1F5093B5064093B4068193E4
:104A8000919302C0E0E0F0E0CF01DF91CF91089573
:104A90000F931F93CF93DF93009709F48CC0FC0111
:104AA0003297138212820091B6061091B706011553
:104AB000110581F420813181820F931F2091B4066A
:104AC0003091B5062817390779F5F093B506E093CC
:104AD000B40671C0D80140E050E0AE17BF0750F4F3
:104AE00012962D913C911397AD012115310509F1D5
:104AF000D901F3CF9D01DA01338322836081718173
:104B0000860F971F8217930769F4EC01288139817A
:104B1000260F371F2E5F3F4F318320838A819B8171
:104B200093838283452B29F4F093B706E093B6066E
:104B300042C01396FC93EE931297ED01499159915F
:104B40009E01240F351FE217F30771F480819181D4
:104B5000840F951F029611969C938E938281938168
:104B600013969C938E931297E0E0F0E0D801129692
:104B70008D919C911397009719F0F8018C01F6CF55
:104B80008D919C9198012E5F3F4F820F931F209132
:104B9000B4063091B5062817390769F4309729F41F
:104BA0001092B7061092B60602C0138212821093BA
:104BB000B5060093B406DF91CF911F910F91089530
:104BC000A0E0B0E0E6EEF5E20C949C2DEC0100973D
:104BD00021F4CB010E94B324B8C0FC01E60FF71FFB
:104BE0009C0122503109E217F30708F4ACC0D90147
:104BF0000D911C91119706171707B0F0053011059C
:104C000008F49FC0C80104978617970708F499C055
:104C100002501109061B170B019311936D937C939E
:104C2000CF010E9448258DC05B01A01AB10A4C013A
:104C3000800E911EA091B606B091B70640E050E0FC
:104C4000E12CF12C109709F44AC0A815B905D1F54B
:104C50006D907C901197630182E0C80ED11CCA143C
:104C6000DB0480F1A3014A195B096A0182E0C80EE6
:104C7000D11C1296BC9012971396AC91B5E0CB164E
:104C8000D10440F0B282A38351834083D9016D9354
:104C90007C930AC00E5F1F4FC301800F911FF90163
:104CA00091838083EB2DFA2FE114F10431F0D701C9
:104CB0001396FC93EE93129744C0F093B706E093DB
:104CC000B6063FC08D919C9111974817590708F47B
:104CD000AC017D0112960D90BC91A02DB3CF8091B7
:104CE000B4069091B50688159905E1F44617570763
:104CF000C8F48091050190910601009741F48DB7A9
:104D00009EB74091090150910A01841B950BE81749
:104D1000F907C8F4F093B506E093B406F90171837E
:104D200060830FC0CB010E94B3247C01009759F02F
:104D3000A801BE010E94BC26CE010E944825C701E1
:104D400004C0CE0102C080E090E0CDB7DEB7EEE057
:104D50000C94B82D81E090E0F8940C94DE2DFB01CA
:104D6000DC0104C08D910190801921F44150504024
:104D7000C8F7881B990B0895FB01DC0102C0019064
:104D80000D9241505040D8F70895FC01819186174B
:104D900021F08823D9F7992708953197CF010895F5
:104DA000FB01DC0101900D920020E1F70895FB0169
:104DB000DC014150504048F001900D920020C9F7AD
:104DC00001C01D9241505040E0F70895FB01519100
:104DD0005523A9F0BF01DC014D9145174111E1F7C1
:104DE00059F4CD010190002049F04D914015411139
:104DF000C9F3FB014111EFCF81E090E001970895E5
:104E0000AEE0B0E0E6E0F7E20C94A62D0D891E8935
:104E100086E08C831A8309838FEF9FE79E838D83BF
:104E2000AE01475E5F4F6F89788DCE0101960E947B
:104E300023272F813885F801E20FF31F10822E9669
:104E4000E4E00C94C22DACE0B0E0E9E2F7E20C94AF
:104E5000982D7C016B018A01FC01178216828381E7
:104E600081FFBDC1CE0101964C01F7019381F6018E
:104E700093FD859193FF81916F01882309F4ABC164
:104E8000853239F493FD859193FF81916F018532CD
:104E900029F4B70190E00E940B29E7CF512C312C67
:104EA00020E02032A0F48B3269F030F4803259F0E7
:104EB000833269F420612CC08D3239F0803339F4AB
:104EC000216026C02260246023C0286021C027FD05
:104ED00027C030ED380F3A3078F426FF06C0FAE0EC
:104EE0005F9E300D1124532E13C08AE0389E300D82
:104EF0001124332E20620CC08E3221F426FD6BC1AA
:104F0000206406C08C3611F4206802C0883641F453
:104F1000F60193FD859193FF81916F018111C1CFBE
:104F2000982F9F7D9554933028F40C5F1F4FFFE31B
:104F3000F9830DC0833631F0833771F0833509F082
:104F40005BC022C0F801808189830E5F1F4F44241B
:104F50004394512C540115C03801F2E06F0E711CBE
:104F6000F801A080B18026FF03C0652D70E002C06B
:104F70006FEF7FEFC5012C870E9400292C01830170
:104F80002C852F77222E17C03801F2E06F0E711C8E
:104F9000F801A080B18026FF03C0652D70E002C03B
:104FA0006FEF7FEFC5012C870E94F5282C012C851F
:104FB0002068222E830123FC1BC0832D90E048161D
:104FC0005906B0F4B70180E290E00E940B293A94B0
:104FD000F4CFF50127FC859127FE81915F01B70190
:104FE00090E00E940B2931103A94F1E04F1A5108D9
:104FF0004114510471F7E5C0843611F0893639F552
:10500000F80127FF07C060817181828193810C5F65
:105010001F4F08C060817181072E000C880B990B0F
:105020000E5F1F4F2F76722E97FF09C090958095C7
:10503000709561957F4F8F4F9F4F2068722E2AE0A9
:1050400030E0A4010E944329A82EA81844C0853747
:1050500029F42F7EB22E2AE030E025C0F22FF97F0E
:10506000BF2E8F36C1F018F4883579F0B4C0803780
:1050700019F0883721F0AFC02F2F2061B22EB4FE77
:105080000DC08B2D8460B82E09C024FF0AC09F2F4D
:105090009660B92E06C028E030E005C020E130E07F
:1050A00002C020E132E0F801B7FE07C060817181E3
:1050B000828193810C5F1F4F06C06081718180E007
:1050C00090E00E5F1F4FA4010E944329A82EA8184C
:1050D000FB2DFF777F2E76FE0BC0372D3E7FA5146C
:1050E00050F474FE0AC072FC08C0372D3E7E05C025
:1050F000BA2C372D03C0BA2C01C0B52C34FF0DC01B
:10510000FE01EA0DF11D8081803311F4397E09C062
:1051100032FF06C0B394B39404C0832F867809F09D
:10512000B39433FD13C030FF06C05A2CB31418F4E7
:10513000530C5B18B32CB31468F4B70180E290E011
:105140003C870E940B29B3943C85F5CFB31410F42F
:105150003B1801C0312C34FF12C0B70180E390E04E
:105160003C870E940B293C8532FF17C031FD03C0EC
:1051700088E790E002C088E590E0B7010CC0832F7B
:10518000867859F031FF02C08BE201C080E237FD22
:105190008DE2B70190E00E940B29A51438F4B70105
:1051A00080E390E00E940B295A94F7CFAA94F4016F
:1051B000EA0DF11D8081B70190E00E940B29A1103A
:1051C000F5CF332009F451CEB70180E290E00E9480
:1051D0000B293A94F6CFF7018681978102C08FEFB1
:1051E0009FEF2C96E2E10C94B42DFC0105906150E8
:1051F00070400110D8F7809590958E0F9F1F0895ED
:10520000FC016150704001900110D8F78095909595
:105210008E0F9F1F08950F931F93CF93DF93FB0172
:10522000238121FD03C08FEF9FEF28C022FF16C00E
:1052300046815781248135814217530744F4A08168
:10524000B1819D012F5F3F4F318320838C93268155
:1052500037812F5F3F4F3783268310C0EB01092F23
:10526000182F0084F185E02D0995892BE1F68E81B8
:105270009F8101969F838E83812F902FDF91CF9105
:105280001F910F910895FA01AA27283051F120317A
:1052900081F1E8946F936E7F6E5F7F4F8F4F9F4FCA
:1052A000AF4FB1E03ED0B4E03CD0670F781F891F0C
:1052B0009A1FA11D680F791F8A1F911DA11D6A0FDA
:1052C000711D811D911DA11D20D009F468943F918D
:1052D0002AE0269F11243019305D3193DEF6CF018C
:1052E0000895462F4770405D4193B3E00FD0C9F752
:1052F000F6CF462F4F70405D4A3318F0495D31FDBF
:105300004052419302D0A9F7EACFB4E0A695979511
:10531000879577956795BA95C9F7009761057105E7
:1053200008959B01AC010A2E069457954795379531
:105330002795BA95C9F7620F731F841F951FA01D8B
:105340000895A0E0B0E0E7EAF9E20C94982D5C0142
:105350006B017A016115710519F0FB01918380835E
:10536000E114F10429F0C7010297839708F0F1C016
:10537000E5012196F5011081812F90E00E94B62A67
:10538000892B11F05E01F4CF1D3229F42196F5012D
:10539000118101E007C01B3221F4E5012296F501DD
:1053A000118100E0E114F10459F1F0E1EF16F1048C
:1053B00061F41033E1F488818F7D883569F51981B6
:1053C0002296026070E1E72EF12C88E0E816F104E5
:1053D00039F12CF4F2E0EF16F104C9F12AC08AE0A9
:1053E000E816F10479F0E0E1EE16F10411F550E170
:1053F000E52EF12C812C912CA12C68E0B62E2CC02E
:105400001033C9F23AE0E32EF12C4CEC842E982CA8
:10541000A82C4CE0B42E20C010E3E114F104A9F64E
:1054200098E0E92EF12C812C912CA12C20E1B22EB8
:1054300013C060E070E080E090E897010F2C000C52
:10544000440B550B0E946B2D49015A0105C0812C5C
:10545000912CA12C80E4B82E60E020E030E0A9017E
:1054600027010F2C000C660877081E01E0EDE10F04
:10547000EA3060F08FEB810F8A3110F4E9EC05C05F
:105480008FE9810F8A3128F5E9EAE10F8E2F90E04C
:105490008E159F05F4F467FD18C082169306A406C6
:1054A000B50690F0C301B2010E945B2D9B01AC01D7
:1054B0002E0F311D411D511D213031054105F0E8F0
:1054C0005F0710F461E001C06FEF2196F1011081D8
:1054D000CCCF802F8170C114D10471F0662329F0E4
:1054E0002197F601D183C08307C001FF19C022971D
:1054F000F601D183C08314C067FF12C0811105C0BB
:105500002FEF3FEF4FEF5FE704C020E030E040E0D7
:1055100050E882E290E09093B9068093B80616C0F6
:10552000882341F050954095309521953F4F4F4F3E
:105530005F4F0CC057FF0AC082E290E09093B9061B
:105540008093B8062FEF3FEF4FEF5FE7B901CA0135
:1055500004C060E070E080E090E0CDB7DEB7E2E14B
:105560000C94B42D662777270C94BF2A91110C94C4
:105570001C2C803219F089508550C8F70895A0E09E
:10558000B0E0E5ECFAE20C949C2DEC017B01611596
:10559000710519F0DB018D939C938E010F5F1F4FF6
:1055A0007880872D90E00E94B62A892B11F0E801BF
:1055B000F4CFBDE27B1205C00F5F1F4F7980C1E0C1
:1055C00008C0EBE27E1204C08E010E5F1F4F79808F
:1055D000C0E06801F1E0CF1AD10843E050E066E294
:1055E00071E0C6010E941F2C892BF1F4680122E0B2
:1055F000C20ED11C45E050E061E271E0C6010E949C
:105600001F2C892B21F4680187E0C80ED11CE114FE
:10561000F10419F0D701CD92DC92C111FFC060E016
:1056200070E080E89FE703C143E050E06EE171E085
:10563000C6010E941F2C892B51F4E114F10409F4D6
:10564000F2C00E5F1F4FF70111830083ECC06801A9
:1056500060E070E0CB0100E010E0F601D0EDD70D86
:10566000DA3058F52C2F2260622E2C2F2870C2FFC2
:1056700005C0211128C00F5F1F4F25C0222311F044
:1056800001501109A5E0B0E09B01AC010E948D2DF5
:105690004B015C01880C991CAA1CBB1CC501B40100
:1056A0006D0F711D811D911D6839A9E97A078A075F
:1056B000A9E19A0740F0C66005C0DE3F51F4C3FD82
:1056C00044C0C8606C2EBFEFCB1ADB0A7080C62DB9
:1056D000C4CF2D2F2F7D2531C1F540814D3211F4DE
:1056E000C06106C04B3221F0319621E030E006C0A7
:1056F0003296D60111964C9122E030E0A0EDA40F35
:10570000AA3018F0E21BF30B20C040E050E0403814
:10571000BCE05B075CF49A01220F331F220F331F9A
:10572000420F531F440F551F4A0F511D3196DF0181
:1057300011972C91A0EDA20FAA3048F3C4FF03C02B
:10574000519541955109040F151FC1FF07C0E11480
:10575000F10421F03197D701ED93FC930E943C2C8A
:10576000C370C33019F06B017C0106C06B017C0172
:10577000F7FAF094F7F8F09420E030E0A901C701BF
:10578000B6010E94372C882309F445C017FF06C0D4
:10579000119501951109CDE3D1E002C0C5E5D1E035
:1057A0005E01B8E1AB1AB1084601BE2DAF2D90E203
:1057B000E92EF12C0E151F0584F0FE01259135917F
:1057C00045915491B4018B2F9A2F0E949D2C4B012F
:1057D000B82FA92F0E191F09EDCF2497F594E79440
:1057E000CA15DB0539F76401EB2EFA2E8E2D880FD2
:1057F0008F2D881F8F3F49F020E030E0A901C701BD
:10580000B6010E94372C811106C082E290E090938D
:10581000B9068093B806C701B60109C060E070E020
:1058200080E89FEF04C060E070E080EC9FE7CDB7B8
:10583000DEB7EEE00C94B82D992788270895FB0178
:10584000DC014150504088F08D9181341CF08B3543
:105850000CF4805E659161341CF06B350CF4605E75
:10586000861B611171F3990B0895881BFCCF0E9470
:10587000792C08F481E00895E89409C097FB3EF480
:1058800090958095709561957F4F8F4F9F4F99238D
:10589000A9F0F92F96E9BB279395F695879577950B
:1058A0006795B795F111F8CFFAF4BB0F11F460FFCB
:1058B0001BC06F5F7F4F8F4F9F4F16C0882311F023
:1058C00096E911C0772321F09EE8872F762F05C037
:1058D000662371F096E8862F70E060E02AF09A95D2
:1058E000660F771F881FDAF7880F9695879597F9C7
:1058F0000895990F0008550FAA0BE0E8FEEF161661
:105900001706E807F907C0F012161306E407F507B3
:1059100098F0621B730B840B950B39F40A2661F027
:10592000232B242B252B21F408950A2609F4A140CA
:10593000A6958FEF811D811D08950E94B02C0C94B7
:10594000212D0E94132D38F00E941A2D20F095234E
:1059500011F00C940A2D0C94102D11240C94552D3B
:105960000E94322D70F3959FC1F3950F50E0551FA3
:10597000629FF001729FBB27F00DB11D639FAA27A4
:10598000F00DB11DAA1F649F6627B00DA11D661FF3
:10599000829F2227B00DA11D621F739FB00DA11D14
:1059A000621F839FA00D611D221F749F3327A00DCE
:1059B000611D231F849F600D211D822F762F6A2F6A
:1059C00011249F5750409AF0F1F088234AF0EE0FCF
:1059D000FF1FBB1F661F771F881F91505040A9F7FC
:1059E0009E3F510580F00C940A2D0C94552D5F3F7D
:1059F000E4F3983ED4F3869577956795B795F79538
:105A0000E7959F5FC1F7FE2B880F911D96958795AF
:105A100097F9089597F99F6780E870E060E008952E
:105A20009FEF80EC089500240A94161617061806B6
:105A30000906089500240A94121613061406050692
:105A40000895092E0394000C11F4882352F0BB0F23
:105A500040F4BF2B11F460FF04C06F5F7F4F8F4F86
:105A60009F4F089557FD9058440F551F59F05F3FC1
:105A700071F04795880F97FB991F61F09F3F79F070
:105A800087950895121613061406551FF2CF4695F2
:105A9000F1DF08C0161617061806991FF1CF869574
:105AA0007105610508940895E894BB276627772758
:105AB000CB0197F90895DB018F939F930E948D2D61
:105AC000BF91AF91A29F800D911DA39F900DB29F9A
:105AD000900D11240895A1E21A2EAA1BBB1BFD01F3
